:020000021000EC
:10020000001900200D1F0100F9790100C51E010031
:10021000C51E0100C51E0100C51E01000000000032
:100220000000000000000000000000004D1B010065
:10023000C51E010000000000F51A0100C51E0100E6
:100240002D1C01002D1C01002D1C01002D1C010086
:100250002D1C01002D1C01002D1C01002D1C010076
:100260002D1C01002D1C01002D1C01002D1C010066
:100270002D1C01002D1C01002D1C01002D1C010056
:100280002D1C01002D1C01002D1C01002D1C010046
:100290002D1C01002D1C01002D1C01002D1C010036
:1002A0002D1C01002D1C01002D1C01002D1C010026
:1002B0002D1C01002D1C01002D1C01002D1C010016
:1002C0002D1C01002D1C01002D1C01002D1C010006
:1002D0002D1C01002D1C01002D1C01002D1C0100F6
:1002E0002D1C01002D1C01002D1C01002D1C0100E6
:1002F0002D1C01002D1C01002D1C01002D1C0100D6
:1003000053B94AB9002908BF00281CBF4FF0FF317C
:100310004FF0FF3000F00CB8ADF1080C6DE904CEE1
:1003200000F008F8DDF804E0DDE9022304B07047CE
:10033000704700BF2DE9F04F07468C460846099EDE
:1003400015463C461946002B40F0C6808242B2FA60
:1003500082F746D94FB1C7F1200E24FA0EFE00FAFB
:1003600007F3BD404EEA030CBC404FEA15481FFAA4
:1003700085FEBCFBF8F9220C08FB19C309FB0EFA39
:1003800042EA03439A4528D9EB1809F1FF3004D219
:100390009A4502D9A9F102002B44A3EB0A03A4B2A7
:1003A000B3FBF8F208FB123302FB0EFE44EA0344EF
:1003B000A64514D92C1902F1FF3303D2A64501D961
:1003C000931E2C44A4EB0E0443EA00401EB1FC40F3
:1003D000002334607360BDE8F08F4846DDE71346C4
:1003E000F0E702B9FFDE87BB831A01214FEA154E01
:1003F000AAB2B3FBFEFC200C0EFB1C330CFB02F874
:1004000040EA0343984563D9EB180CF1FF3004D25E
:10041000984502D9ACF102002B44A3EB0803A4B227
:10042000B3FBFEFC0EFB1C330CFB02F244EA03445C
:10043000A2424FD92C190CF1FF3304D2A24202D9A7
:10044000ACF102032C44A41ABEE7C7F1200C20FA39
:100450000CF800FA07F324FA0CFCBD404CEA030246
:100460004FEA154EABB2B8FBFEFC110C0EFB1C8024
:100470000CFB03F941EA0040814504FA07F423D953
:1004800028180CF1FF3104D2814502D9ACF10201E8
:100490002844A0EB090092B2B0FBFEFC0EFB1C004E
:1004A0000CFB03F842EA004398450FD9EB180CF116
:1004B000FF3204D2984502D9ACF102022B44A3EBDF
:1004C000080342EA014191E76146E2E76246F6E746
:1004D0006046A2E76346B6E7834205D90EB1C6E996
:1004E00000700021084676E7B3FA83F181B98342B0
:1004F00001D3BA420AD8BC1A60EB030301209C4620
:10050000002E68D0C6E9004C002164E70846F7E7F2
:10051000C1F1200C8B4022FA0CF41C4302FA01F5C5
:1005200000FA01F327FA0CF220FA0CFB4FEA144907
:100530001343BBFBF9F81FFA84FE09FB18BB1A0C26
:1005400008FB0EFA42EA0B42924507FA01F73ED940
:10055000A21808F1FF3004D2924502D9A8F1020096
:100560002244A2EB0A029BB2B2FBF9F809FB182263
:1005700008FB0EFE43EA024296452AD9A21808F16A
:10058000FF3304D2964502D9A8F10203224443EA7C
:100590000040A0FB0593A2EB0E029A42CE4698467D
:1005A00002D306D14F4504D2B9EB050E63EB040824
:1005B000013886B1B7EB0E0362EB080707FA0CFCB3
:1005C000CB404CEA0303CF40C6E900379CE74046E6
:1005D000C7E74346DBE73146FDE6000008B508F013
:1005E0008EF90146054806F0F6FD054B18681B79A3
:1005F0000121994083685B69984708BD789801009C
:100600000000002030B583B0534808F0A2FC002859
:1006100058D04FF48031514806F0E8F801460028E0
:1006200057D14D4B99681B691B6813F4006F57D164
:100630004FF0B8628C6902F0C06302F0A0720B2127
:100640004548A047044600284DD1454B454A5A60CD
:100650004FF400629A60404B9B68DB691BB101223A
:100660003F493D4898470B223B4B19683E4806F0EE
:10067000B2FD3E4B186818B108F06BFC00283AD068
:100680003A4B1B6883B14FF40031384806F0AEF89E
:100690000146002839D0354C226823791268344845
:1006A00006F099FD00232360202008F0F2FE0446A6
:1006B000304B0360304806F08EFD2C4B1B68002B3E
:1006C0002DD104E0244B19682C4806F084FD03B0BA
:1006D00030BD0B23204A1268294806F07CFDF6E75E
:1006E0004FF07072A6E70B231B4A1268014625489B
:1006F00006F071FDEBE71D4D2B681A682146224874
:1007000006F069FD00232B60BAE7184B19681A79C7
:1007100009681E4806F05FFDC6E7002B11DC0E4895
:10072000056983685B6801A99847034618B9296879
:10073000019A4A400192002BEFD1019BC3F3C023E1
:10074000EBE71349134806F046FD204600F04AF94E
:100750000028E4D0BBE700BFF4950100149A010023
:10076000A8030020DD0501001C9901000000002005
:100770006C9901003C960100BC9901009098010021
:10078000B8980100E498010038990100A09901008F
:10079000D0990100D899010010B50446FF230375D4
:1007A0004375163006F0FBFB034BC4F82432034BB1
:1007B000C4F82832002010BDF36B0100316B01003A
:1007C0002DE9F047ADF5007D8146884615461F4668
:1007D0000026B246AE4222D2BAF1000F1FD1AC1BA6
:1007E000B4F5007F28BF4FF40074224669463846AE
:1007F000C0476FF0090A0028ECD1224669464846F6
:1008000006F086FA82462644642306FB03F3B3FB14
:10081000F5F32A4631460A4801F0A4FCDAE7BAF1BA
:10082000000F08D1484606F091FA824650460DF571
:10083000007DBDE8F087484606F088FAF6E700BF7D
:100840001C9A0100002851D0F0B585B017461E460D
:10085000054600294DD0002B4ED000233360019176
:100860000292039606E0284606F0E1FAA872A97AF9
:10087000A14233D0AC7A062C41D801A353F824F01E
:10088000670801009D080100A9080100B3080100E4
:10089000BD080100C7080100D108010001A92846D0
:1008A00006F026FBA872E2E7284606F0D2FAA87204
:1008B000DDE7284606F0DCFAA872D8E7284606F0FD
:1008C000ECFAA872D3E7284606F0F6FAA872CEE74B
:1008D00001A9284606F02DFBA872C8E73368BB4281
:1008E00002D0002005B0F0BD0120FBE74FF0FF3043
:1008F00070474FF0FF30F5E74FF0FF30F2E76FF051
:100900000100EFE708B310B584B002464FF4803120
:10091000C1604FF43023036143614FF47C20906148
:10092000083050600A4C94600024D4614FF4804237
:10093000029201904FF4982200924FF42022054831
:1009400001F010FC204604B010BD6FF0230070478A
:1009500008001000509A010070B586B004460E469B
:100960000023059300681B4D2A464FF47C2107F0B5
:10097000B0FDAB6800936B684FF48042296816485D
:1009800001F0F0FB206883681D68082303AA4FF478
:100990007C21A847C0B90546049A03990F4806F080
:1009A0001AFC039A0E4B9A420BD1049B33602068C9
:1009B00083685C68042305AA4FF47C21A0470546A0
:1009C00028B9284606B070BD6FF02405F9E76FF02E
:1009D0002405F6E7B4030020A49A0100DC9A010084
:1009E0004E45575030B585B0054603A9FFF7B4FF13
:1009F00004460399124801F0B5FB002C02DB039B6F
:100A00001BB90024204605B030BD284606F0B2FBD5
:100A100004460028F6D101950A4B0093039B0A4A2D
:100A20000A490B4806F0A4F9041EEBDD012007F08B
:100A30004EF910B14FF0FF34E4E7012000F044FD1F
:100A4000049B0100777001001571010057710100CE
:100A5000D370010008B5024B1B68984708BD00BF62
:100A600008000020014B1860704700BF08000020FC
:100A700000B583B002460B4600210091024800F009
:100A80003BFA03B05DF804FB550A01002DE9F04381
:100A900083B0044608461546238B13F0080F05D192
:100AA00003F0070600230093019369E0012909D0B0
:100AB00043F02003238385F31188BFF36F8F03B0C6
:100AC000BDE8F08343F010032383F4E7204606F0EB
:100AD000B7FB57E0D4F814904A466946204606F022
:100AE000C8FB00275AE023691F680621204606F04C
:100AF00080FB4FF0000951E023695F680421204624
:100B000006F077FB4FF0000948E023699F68052154
:100B1000204606F06EFB4FF000093FE0002246E061
:100B2000002244E043F00803238385F31188BFF3D8
:100B30006F8F002944D1009B2BB14B46424669463A
:100B4000204606F00DFC17B125492046B8474FF066
:100B50002003EFF3118583F31288BFF36F8F238B8C
:100B600023F008032383238B13F0100F2ED023F0E0
:100B7000100323830120268B06F0070600289AD055
:100B80000228A3D0002896D00128A3D00328AAD0F9
:100B90000428B1D00528B8D00027B946238B03F02C
:100BA0000708B045BAD0A268002AB9D00122114680
:100BB000002AB7D1009A002AB4D1002FB2D1D2E7CF
:100BC0004A464146204606F01CFBB4E713F0200FCE
:100BD00004D023F0200323830220CCE70020CAE7BF
:100BE0008F73010070B582B0044600230360436038
:100BF00083604B78252B02D04E1C01251FE0881CFA
:100C0000E37045E1237843F004032370B5B1013666
:100C100014E0237843F008032370F7E7237843F0C8
:100C200010032370F2E7237843F020032370EDE7ED
:100C3000237843F040032370E8E7002545B3337879
:100C4000203B102BF9D801A252F823F01D0C010013
:100C50003B0C01003B0C0100270C01003B0C010088
:100C60003B0C01003B0C01003B0C01003B0C010064
:100C70003B0C01003B0C0100130C01003B0C01007C
:100C8000050C01003B0C01003B0C0100310C010084
:100C9000237803F04403442B5FD00196237843F07C
:100CA0008003237033782A2B5CD001A806F099FDCD
:100CB000019B9E420FD0237843F080032370606035
:100CC000DBB2C3F34003002854DB00221343227835
:100CD00063F341022270019B01931B782E2B14BFFA
:100CE00000230123627863F341026270002B43D03A
:100CF000019B5A1C01925B782A2B3FD001A806F079
:100D000070FDA0602378C3F3400300283EDB00227F
:100D10001343227863F341022270019803784C3B1D
:100D20002E2B00F29D80DFE803F0909B9B9B9B9B0A
:100D30009B9B9B9B9B9B9B9B9B9B9B9B9B9B9B9B03
:100D40009B9B9B9B9B9B339B579B459B9B9B9B9BF5
:100D50009B9B899B9B9B9B9B820023786FF38613B5
:100D600023709AE7637843F00103637033460133DD
:100D70000193B1E70122A9E70198CFE7637843F037
:100D800004036370104601300190C7E70122BFE7FA
:100D9000421C4378682B06D06378022161F3C603B6
:100DA000637010461EE06378012262F3C60363702D
:100DB000023017E0421C43786C2B06D06378032185
:100DC00061F3C603637010460CE06378042262F39B
:100DD000C6036370023005E06378052262F3C60340
:100DE0006370013010F8013BE370A3F14102372A30
:100DF0007DD8DFE802F05E7C7C7C5E5E5E7C7C7C85
:100E00007C7C7C7C7C7C7C7C7C7C7C7C7C4F7C7C4F
:100E10007C7C7C7C7C7C5E7C4F3A5E5E5E7C3A7C3B
:100E20007C7C7C654F717C7C717C4F7C7C4F6378D3
:100E3000062262F3C60363700130D3E763780722AA
:100E400062F3C60363700130CCE76378082262F373
:100E5000C60363700130237843F002032370C1E7B7
:100E600063786FF3C6036370BCE7A278012161F376
:100E70000202A270627802F07802402A10D0632B3E
:100E800013D02378C3F34002154365F34103237065
:100E900002B070BDA278022161F30202A270E9E7FC
:100EA000217841F001012170E9E7151E18BF0125E5
:100EB000E7E7A378042262F30203A3700125E0E7C9
:100EC000A378032262F30203A370637803F078032C
:100ED000402BD6D10125D4E7A378032262F3020385
:100EE000A370637813F0780FCBD00125C9E723787E
:100EF00043F001032370C4E72DE9F04F91B006469B
:100F00000D4691460393002499F80000002800F054
:100F1000D582252808D009F101092946B0470028C3
:100F2000C0F2CD820134EFE70023049305930693CA
:100F3000079308930993494606A8FFF753FE0290CA
:100F40009DF8193013F0010F00F09780039B1A1DD4
:100F500003921F68002FC0F288809DF8193013F0AB
:100F6000040F00F09C80039B1A1D0392D3F800A08D
:100F7000BAF1000FC0F28A800023079308939DF80E
:100F80001A3003F007039DF81910C1F3C301012BB8
:100F900000F08E80022B00F0D380042B00F024811F
:100FA000032B00F03B819DF8188018F0030B40F0F4
:100FB0003B819DF81B30253B532B00F2E681DFE897
:100FC00013F04001E401E401E401E401E401E4017F
:100FD000E401E401E401E401E401E401E401E401E9
:100FE000E401E401E401E401E401E401E401E401D9
:100FF000E401E401E401E401E401E401E401E401C9
:10100000E401E401E401E401E401E401E401E401B8
:10101000E401E401E401E401E401E401E401E401A8
:10102000E401E401E401E4018101E401E401E401FB
:10103000E401E401E401E401E401E401E4015E010E
:101040006701E401E401E401E4016701E401E40172
:10105000E401E401BE018101A201E401E4014D01CA
:10106000E4018101E401E40181019DF8183043F0BD
:1010700004038DF818307F426FE79DF91830002B7C
:1010800002DB4FF0FF3768E7079F66E79DF81930EE
:101090006FF341038DF819304FF0FF3A6CE713F00E
:1010A000020F02D0DDF820A066E74FF0FF3A63E7B9
:1010B000CB1E042B04D8DFE803F00B1D29353500C7
:1010C000039B1A1D03921B68DA170493059206E02E
:1010D000039B1A1D03921B68DA17049305920129DA
:1010E00028D002297FF45FAFBDF91030DA170493DE
:1010F000059258E7039B073323F0070303F1080227
:101100000392D3E90023CDE90423E8E7039B0733E7
:1011100023F0070303F108020392D3E90023CDE98A
:101120000423DCE7039B1A1D03921B68DA17049360
:101130000592D4E79DF91030DA170493059232E74F
:10114000CB1E042B04D8DFE803F00B1F3541410010
:10115000039B1A1D03921B680493002305931EE052
:101160009DF81B30632B07D0039B1A1D03921B684D
:1011700004930023059312E0039B1A1D03921B683E
:101180000493002305930AE0039B073323F007032E
:1011900003F108020392D3E90023CDE904230129D6
:1011A0001CD002297FF4FFAEBDF810300493002359
:1011B0000593F8E6039B073323F0070303F10802C6
:1011C0000392D3E90023CDE90423E8E7039B1A1D2A
:1011D00003921B68049300230593E0E79DF8103009
:1011E000049300230593DEE608290BD0039B073305
:1011F00023F0070303F108020392D3E90023CDE9AA
:101200000423D0E6039B073323F0070303F108020E
:101210000392D3E90023CDE90423C4E6039B1A1DFE
:1012200003921B680493BEE6029F3B464A4629464A
:10123000304606F052FB0028C0F241810444B94612
:1012400062E629462520B0470028C0F238810134E3
:10125000D8460DF13E0A4FF000099BE0DDF81090F2
:10126000BAF1000F07DB5146484606F08BFC09EB4C
:10127000000AD8468EE0484606F07BFCF7E7049B60
:101280008DF82830D8460DF1290A0DF1280981E0A2
:1012900018F0080F05D118F0100804D04FF02008FE
:1012A00001E04FF02B08049A059B002B02DB04920F
:1012B000059308E0524263EB4303049205934FF019
:1012C0002D0800E0D8460DF13E0300930AAB06AAB4
:1012D000DDE9040106F097FA8146BAF1000FC0F289
:1012E00088800DF13E03A3EB09039DF818206FF3EE
:1012F00086128DF818209A457ED9AAEB030307932E
:101300000DF13E0A46E0049828B9D846DFF8B4A1AA
:10131000AAF105093EE00DF13E0300930AAB06AACF
:10132000002106F070FA81469DF81A3043F0100350
:101330008DF81A3078238DF81B30D846CDE7049A03
:101340009DF81930C3F3C303072B06D8DFE803F079
:10135000040B0D0F1115191B1460D8460DF13E0A30
:101360004FF0000916E01470F7E71480F5E71460F9
:10137000F3E7E31714605360EFE7E317146053607B
:10138000EBE71460E9E71460E7E7D8460DF13E0AA1
:101390004FF00009B9F1000F00F08D80AAEB0903AE
:1013A000B8F1000F00D001339DF81A2012F0100F91
:1013B00025D0023307990B4412F0400F01D0089A50
:1013C0001344002F31DDFF1A9DF8183013F0040F7D
:1013D0002BD113F0400F17D0B8F1000F17D02946CA
:1013E0004046B04700286ADB0134D8464FF0300B46
:1013F0000FE00DF13E0ACDE70DF13E0ACAE712F00B
:10140000080FD7D00133D5E74FF0200B01E04FF0A4
:10141000300B3B465F1E002B07DD29465846B04780
:1014200000284CDB01343B46F4E7B8F1000F05D04F
:1014300029464046B047002841DB01349DF81A3068
:10144000C3F30012C3F3C003134305D02946302071
:10145000B047002833DB01349DF81A3013F0100F29
:1014600006D029469DF81B00B047002827DB013431
:10147000079B03F1FF38002B07DD29463020B047DA
:1014800000281CDB01344346F3E753464A4629460D
:10149000304606F022FA002811DB0444002F07DD55
:1014A00029462020B047002809DB0134013FF5E739
:1014B000DDF8089028E5DDF8089025E5204611B014
:1014C000BDE8F08F1D9B010008B54FF02002EFF33F
:1014D000118382F31288BFF36F8F00F07DFE034803
:1014E00005F079FE00F06CFAFCE700BF209B0100DC
:1014F00002F074BB134B1B68F3B170B50D460023AB
:1015000000E00133104A1268934208DA1A010D49CB
:101510000C6804EB0316A25C9042F2D100E00026B6
:101520006EB1F06828B107F014FD10B12E600020F4
:1015300070BD6FF01200FBE76FF00C0070476FF0AA
:101540000100F5E710000020BC9B010070B52A4B9C
:101550001D7D05F01F0301229A406909274B03EB0B
:101560008103D043BFF35B8F53E8001F01EA0004FF
:1015700043E80046002EF7D1BFF35B8F0A4200D14B
:1015800070BD1F4805EB45029300C1181D4A72B19A
:101590004978C05C06F095FB4FF02003EFF311860D
:1015A00083F31288BFF36F8F174B1C6810E0002382
:1015B00083F31188BFF36F8FEEE70F4B1B7D03EBB7
:1015C000430399000E4B585C90470CB1246824B13A
:1015D0001CB1A268002AF0D1F7E786F31188BFF3A7
:1015E0006F8F074805EB4505AA008118002383503B
:1015F0004B608B60C4E700BFA80E0020E003002012
:10160000D4030020C37C0100C0030020F8B50446C9
:101610004D4B1D7D4FF02003EFF3118683F31288AD
:10162000BFF36F8F05EB4502484B13F822304BB3E5
:10163000474B03EB820C454F4FEA820E07EB8203C8
:1016400093E807008CE80700002307F80E3086F3C4
:101650001188BFF36F8F05EB45033D4A12F8233025
:10166000002B6ED0B4F1FF3F1BD104F0ADF94FF069
:101670002003EFF3118683F31288BFF36F8F354B8E
:101680001C682EE00146284600F06EF80028DED0E7
:1016900005EB45032E4A02EB830307C883E80700E6
:1016A000D5E705EB450302EB83039868410CC003C3
:1016B000294BC018294A4FF0000341F10001FEF701
:1016C0001FFE0121201A07F06AFECEE71E4B1B7D8C
:1016D00003EB43031E4911F8230090470CB1246823
:1016E00024B11CB16268002AF0D1F7E786F31188B3
:1016F000BFF36F8F05F01F03012199406B09184A52
:1017000002EB8303BFF35B8F53E8002F0A4343E8E8
:1017100000200028F8D1BFF35B8F124B5BB10C4A5D
:1017200005EB450302EB830305EB4505597812F8F9
:10173000250006F0BAFAFFF709FF04F067FB012065
:10174000F8BD0020FCE700BFA80E0020C803002061
:10175000D4030020C00300203F420F0040420F008E
:10176000E0030020AB7C01002DE9F04182B00E4681
:1017700001A900F045F8441E24B207E0B6F1FF3F8E
:1017800033D04044B04230D9013C24B2002C2BDB92
:10179000019B04EB440203EB8205697813F82200F5
:1017A00006F014F90028EFD16868410CC003114F0E
:1017B000C019114A4FF0000341F10001FEF7A0FDEE
:1017C0008046AB68590CDB03D8190B4A4FF0000375
:1017D00041F10001FEF794FD084B1B68B3F1FF3F98
:1017E000CCD08342CAD8CFE70025284602B0BDE856
:1017F000F08100BF3F420F0040420F000C0000206C
:1018000008B9024B0B600020704700BF4C9B0100E1
:1018100008B5024804F05EFE08BD00BFC09B010091
:10182000D0B108B54268042A05D0D2B1006803F0EF
:10183000C7FF002008BD03680022BFF35B8F53E899
:10184000001F012903D143E800200028F7D1BFF38E
:101850005B8F04D11046EDE76FF4E040704702481B
:10186000E8E70248E6E700BFE98FFFFFEA8FFFFFE6
:1018700020B308B54268042A02D092B911480FE09B
:1018800003680122BFF35B8F53E8001F002903D1D7
:1018900043E800200028F7D1BFF35B8F0CD1002074
:1018A00008BD00684FF0FF324FF0FF3303F0FEFE3B
:1018B0000028F5D00448F3E70348F1E76FF4E0406F
:1018C000704700BFEA8FFFFFE98FFFFF10B50446A6
:1018D00088B16368042B0DD0082B0BD053B113F0E3
:1018E000020F0DD02146094807F087FB0023236033
:1018F0000023636010BD064B5B6806489847E8E725
:1019000014220021206806F09BF9F1E7E40300208F
:101910003C010020C89B010010B5044678B1636803
:10192000042B0BD0082B09D00BB9236863B12068B6
:1019300007F0D2FB636843F00103636010BD0F4BF7
:101940005B680F489847EAE74FF0FF324FF0FF33EC
:1019500021460C4803F07CFD08B923681BB9074BEE
:101960005B680948984714220021206806F068F94E
:10197000636843F002036360D9E700BF3C010020C5
:10198000C89B0100E4030020F09B010008B5402340
:1019900014220449044807F022FB0449044804F0D7
:1019A000F9FD08BD00040020E4030020309C010084
:1019B000209C0100014910220A60704710ED00E0F0
:1019C00072B6404080F31188BFF36F8FBFF34F8F23
:1019D00030BF62B6BFF36F8F704700BF72B6494029
:1019E00081F3118820BF80F3118862B6704700BF71
:1019F00040B2002807DB00F01F024009012393409A
:101A0000014A42F82030704700E100E040B200286F
:101A10000CDB00F01F024009012393402030044AF0
:101A200042F82030BFF34F8FBFF36F8F704700BF76
:101A300000E100E04209054B53F8222000F01F00AE
:101A4000012303FA00F01040704700BF00E100E0FE
:101A5000013140B2002808DB4901C9B200F1604001
:101A600000F5614080F80013704700F00F00490155
:101A7000C9B2014B1954704714ED00E030BFFFF7B5
:101A8000FDBF00BF08B50B4B0B4A22F07F029A60E6
:101A9000BFF34F8FBFF36F8FD3F8882022F470020B
:101AA000C3F8882003F01EFC04F02CFB00F014FAAD
:101AB00003F076FC00ED00E0000201000A4A9368A2
:101AC000C3F8A80009490968C3F8AC1008494B6875
:101AD00043F080534B60002383F31188BFF36F8F73
:101AE0009368D3F8AC007047A80E0020B89E0100A0
:101AF00000ED00E013498A684FF030001044EFF326
:101B0000098C80E8F01F202080F31288BFF36F8FCC
:101B10000D4F4FF00066CA698A603E60D2F8A80097
:101B20000023C2F8A83080F3118804B5104600F0F5
:101B300083FABDE8044002F1300090E8F01F8CF316
:101B400009887047A80E002004ED00E01EF0040F85
:101B50000CBFEFF30880EFF30980816911F8021CD4
:101B60000229FFD001B505F03BFF01BD10B4A2F181
:101B700020040E4942F8081C21F0010142F8081C1B
:101B800042F8203C019B42F81C3C029B42F8183C66
:101B9000039B42F8143C4FF0807342F8043C046508
:101BA0000023C0F8A83010BC704700BF9D7401002E
:101BB000124B9A6802B310F1160F11D0D2F8983078
:101BC000A3F1400C844505D8834205D98B4205D842
:101BD00000210BE0002109E0002107E0012105E0E0
:101BE000D2F898308B4294BF0021012109B900201E
:101BF0007047D2F89800704700207047A80E002068
:101C000008B50D461446084B986000F015FA2046BA
:101C100085F30988002163B681F31188BFF36F8FC4
:101C20000022002305F03AFCA80E002001B572B690
:101C30000B4A906900281EBF0021916107F030FA1D
:101C400062B6EFF30580A0F110004FEAC00005492D
:101C5000014409C99847BDE801400349084700000D
:101C6000A80E00206C9601006D1C0100044B9968C1
:101C7000D869884203D003494FF080520A60704708
:101C8000A80E002004ED00E010B51446124B9A6A2D
:101C90009A6A9B6A13F4007F0BD00F4B9A6B9B6A76
:101CA00013F4004F05D021B10B4A936A23F400438B
:101CB0009362094B9A6A9B6A13F4807F01D1064BA9
:101CC0009B6A054A936A43F47F439362012105F0BE
:101CD00099FE2070002010BD00ED00E0074B9A6ACD
:101CE0009A6A9A6A9A6A9A6A9A6A9A6A6FEA02423F
:101CF0006FEA12429A620020704700BF00ED00E0D8
:101D000070B505461646254B9A6A9A6A9B6A13F087
:101D1000020F0CD0214B586B9B6A13F0800F2FD011
:101D200039B11E4A936A23F08003936201E06FF099
:101D300015001A4B9A6A9A6A9B6A13F0100F04D125
:101D4000164B9C6A14F0020404D0144B5C6814F423
:101D5000006418D1114B9B6A13F0200F04D00F4A76
:101D6000536A23F4005353620C4A936A43F0FF030F
:101D700093620121284605F045FE3070204670BD73
:101D80006FF01500D5E72946FFF712FF044600283B
:101D9000E0D080F309880224DCE700BF00ED00E01A
:101DA00008B5844600230B701C4BD86A10F0020063
:101DB00031D1DB6A002B2FDB184BD86A10F0804042
:101DC0002AD0DCF8183033F8022C4DF602739A4210
:101DD00012D0124B9B6A13F0FF0F10D10F4B9B6A6E
:101DE00013F47F4F11D10D4B986A000C000498B189
:101DF0006046FFF773FF0FE0DCF800000CE00A46D6
:101E000001216046FFF77CFF06E00A46012160469B
:101E1000FFF73AFF00E0002008BD00BF00ED00E042
:101E200070B58AB00C46224B5968C1F308010023F3
:101E300083F31188BFF36F8F02F07F43B3F17F4FBD
:101E400015D102F00C03082B14D012F0080F0BD0A0
:101E500000260DF12702204605F0D9FD05469DF824
:101E6000273053B10AB070BD04460126F1E70026C1
:101E70003446EEE700263446EBE72022214601A84F
:101E800005F0AFFE4EB1089BC3F308025AB96FEAE2
:101E900053236FEA4323089305E0089B23F4FF7361
:101EA00023F00103089301A9284605F095FDD9E721
:101EB00000ED00E0024A536943F01003536170479C
:101EC00000ED00E0EFF30880EFF3098101B5724601
:101ED000FFF7A6FF01BD00BF002206E002F00F01E0
:101EE000094B0B442021197601322F2A0ADC53B208
:101EF000002BF3DB03F1604303F56143202183F8FA
:101F00000013F1E7704700BFFCEC00E0002013492C
:101F10000870002080F31488BFF36F8FFFF7E8FA92
:101F200000200F490860BFF34F8F0E4880F30888E8
:101F300000F030F8202080F311880B484FF4046142
:101F4000401880F30988EFF314800221084380F3DE
:101F50001488BFF36F8FFFF795FD0000C3100020BA
:101F600094ED00E000190020C01A0020084BD3F8BF
:101F70009000C0F30720002306E0054AC2F898301D
:101F80000021C2F8A01001338342F6DB704700BF86
:101F900000ED00E010B572B6002484F31388FFF75B
:101FA000E5FF234608E003F120010E4A4FF0FF3021
:101FB00042F821000133DBB2072BF4D9002308E0FB
:101FC00003F16001074A4FF0FF3042F8210001336E
:101FD000DBB2072BF4D962B6BFF34F8FBFF36F8F1D
:101FE00010BD00BF00E100E008B50A4B9B688342CA
:101FF00002D004F04FF808BDEFF30583002BF8D0B2
:10200000054B5A6842F080525A605A6A22F40042E4
:102010005A62EEE7A80E002000ED00E008B5034B81
:10202000034A0121034805F078FD08BD00000420A3
:1020300000000020449C010008B5D0F89830403BD7
:102040000448036040234360034B8360012105F093
:1020500068FD08BD0009002000000B15084AC2F801
:1020600098000B6823F01F03034343F01003C2F8EA
:102070009C308B6843F00103C2F8A030704700BF6A
:1020800000ED00E010B5034C0123227805F01DFDA2
:10209000207010BDBC10002008B50023094A12783A
:1020A00005F013FD10F1160F0AD0034606E0064AAC
:1020B000C2F898300021C2F8A0100133072BF6DDDA
:1020C00008BD00BFBC10002000ED00E0044B05225D
:1020D000C3F89420BFF34F8FBFF36F8F704700BFDB
:1020E00000ED00E0BFF35F8F024B0022C3F89420A5
:1020F000704700BF00ED00E038B50E4B1D68082D9D
:1021000015D8FFF7EFFF002409E00A4B596804EBEC
:102110004402930019442046FFF7A0FF0134A54272
:10212000F3D8054B1D70FFF7D1FF002038BD4FF0ED
:10213000FF30FBE7609C0100BC100020014B1860E1
:10214000704700BF340000200239012904D808B5C7
:10215000034B1B68984708BD4FF0FF30704700BF26
:10216000340000200FB400B585B006AB53F8042B43
:1021700003930021009102210348FEF7BDFE05B044
:102180005DF804EB04B07047837C010010B54FF09C
:102190002003EFF3118483F31288BFF36F8F0123C1
:1021A0000C4AC2F840354FF08042C2F8783505F04D
:1021B0006CFD20B14FF080430122C3F838264FF068
:1021C00080430122C3F8802584F31188BFF36F8F09
:1021D000002010BD00E00140C0B24FF08042C2F8C4
:1021E0001C05BFF34F8F0549CA6802F4E062044B37
:1021F0001343CB60BFF34F8F00BFFDE700ED00E05E
:102200000400FA0530B108B58001034B43F0010327
:10221000984708BD704700BF70980100004870479C
:102220005C090020034BC01A8010034B03FB00F035
:10223000704700BF1C090020B76DDBB638B50546F6
:102240000C46FFF7EFFF01464022034805F0BCFDB6
:1022500001462846A04738BDC495010030B583B07B
:1022600005460C46FFF7DEFF014640230093234658
:10227000054A064805F0C2FD011E01DB03B030BD72
:102280002846A047FAE700BF457E0100C49501003B
:1022900008B510B101280DD008BD0021084805F08F
:1022A0001EFD836813F0070FF6D10021044805F0E6
:1022B00079FDF1E70121024805F074FDECE700BF6C
:1022C000C495010010B54FF02003EFF3118483F3A0
:1022D0001288BFF36F8F134A136843F00203136031
:1022E00013F0010F08D1002384F31188BFF36F8F1F
:1022F0009BB905F0AFFD10BD4FF08043D3F80C241F
:10230000D3F80C3412F0010F01D10023ECE7FFF7F2
:1023100085FF05F034FD0123E6E70021024805F0C2
:1023200041FDE8E76C090020C495010008B50A4B9F
:10233000BFF35B8F53E8002F22F0020143E8001047
:102340000028F7D1BFF35B8F12F0010F00D008BD5A
:1023500005F08AFDFBE700BF6C09002000B585B0E1
:10236000CDF800D0CDF804D00023029301230393CD
:102370006B46074A05F05EFD002805DB4FF48042FE
:102380000023684603F07EFA05B05DF804FB00BF49
:102390007D7E010070B50646002201211046FFF740
:1023A00057FB114801F0A4FD104B984219D106F0DB
:1023B0009CFC0024012C12D82146304605F08FFCED
:1023C00005462146304605F095FC094904F0EDFF2D
:1023D000002805DB0123AB601C44E4B2EAE70020DF
:1023E00070BD6FF00400FBE7912201000000AD0B0F
:1023F000BC9C010070B50546012807D14FF0804311
:10240000D3F81C3403F00303012B5AD006F033FE3B
:1024100028B92F4B1B78002B43D0002300E0012369
:102420001C46002B3FD04FF02003EFF3118683F3BF
:102430001288BFF36F8F24B94FF080430222C3F894
:1024400008234FF08042D2F8183403F00303D2F887
:10245000182412F4803F2DD100221AB1012B2BD069
:10246000012D29D00CB33046FFF7B8FA4FF0804366
:10247000D3F81835002BE4D14FF08043D3F8043162
:10248000002BDED04FF080430022C3F80421D3F8A4
:1024900004210122C3F818250E49C1F880219A6051
:1024A000CFE70123BCE70026C5E72120002103F088
:1024B000BFFDDBE70122D0E724B186F31188BFF32B
:1024C0006F8F70BD4FF080430222C3F80423F8E7FA
:1024D000C310002000E100E010B50446104B0121BC
:1024E000BFF35B8F53E8002F43E800100028F9D1B9
:1024F000BFF35B8F1AB1631E012B0DD910BD0948C4
:1025000005F0F8FB084900234B608B60CB6001238A
:102510008B6004F067FFEEE72046FFF76BFFEDE707
:1025200070090020C49501000C09002010B5044674
:102530000A2807D0074B1868E1B283685B689847A0
:10254000204610BD034B186883685B680D219847CF
:10255000F0E700BF7409002010B5044C2046FFF7D7
:10256000EDFD2046FEF77EFA10BD00BF2D250100CF
:1025700008B50648064B186006F0EBFC18B1FFF7EB
:10258000EBFF002008BD6FF01200FBE7249601006E
:102590007409002028B1012801D1034870470020A8
:1025A00070470248704700BFDC950100F4950100B8
:1025B000F0B585B00E46194643681B7B06F01F0533
:1025C00045EA4315B2F5001F22D007461446002302
:1025D00001930293104605F0D1FC8DF804007B684E
:1025E0009968F14011F0010F02D1B4F1A07F14D02D
:1025F000002301AA1946284601F0EAFE1B4B984227
:1026000031D10121284602F0C1F8002005B0F0BD0B
:10261000284602F01FF90020F8E705F01F036A09B9
:10262000012A14D04FF0A04203F5E07352F8233092
:1026300013F0010FDCD10DF10F01284602F04AF82A
:102640000B4B984205D00DF10F030293D0E7094AD6
:10265000EAE70DF10F0002F091F8044B9842F2D036
:102660006FF00B00D2E76FF01500CFE70000AD0B65
:102670000400AD0B000300502DE9F04186B00E467A
:102680001446D0F8048098F80C3001F01F0545EA94
:1026900043150DF11701284602F01CF8074614F403
:1026A000403F3BD00021039104910B4603AA2846EA
:1026B00001F08EFE344B984263D19F423ED014F419
:1026C000003F4BD00DF10301204605F0DCFB07462F
:1026D00058BB9DF803308DF8043014F4803F0CBFD4
:1026E000012300238DF80530204605F00FFC8DF8FE
:1026F000060014F4002F26D0D8F80430012101FA86
:1027000006F6C3F80865002201A9284601F018FF63
:102710001D4B984209D06FF0150706E0284602F0DD
:10272000C9F8194B9F4204D00027384606B0BDE8CF
:10273000F0819DF8170002F019F8F5E79DF81700F1
:1027400002F014F8BBE714F4802FDCD0D8F8042092
:10275000012303FA06F6C2F80C65D4E7204605F01B
:10276000D5FB8DF8080000231A4602A9284601F07F
:102770002FFE054B984201D10027D6E76FF01507D1
:10278000D3E76FF01507D0E70000AD0B08B501F0F7
:10279000E3FF08B1002008BD01F0B4FF084B9842E8
:1027A0000AD10021074801F08FFF002205210620F1
:1027B000FFF74EF90020EEE76FF00400EBE700BFF3
:1027C0000000AD0B1B800100024B0B600123136066
:1027D000704700BF689D010000487047709D010070
:1027E00038B50446056905F110004FF0FF324FF08F
:1027F000FF3303F047F805F1300003F01FF8164BE4
:102800001B7833B100252069103003F017F82846F3
:1028100038BD2A461149606802F0FAFA00F17440A6
:1028200000F5A6000A280CD8DFE800F0060B0B0B19
:102830000E080B0B0B0B0E00002507E06FF08B054D
:1028400004E06FF00F0501E06FF01505B5FA85F3B0
:102850005B09014A1370D6E7BD10002063800100B8
:1028600038B50446006910304FF0FF324FF0FF33A7
:1028700003F008F8256905F130000022002303F079
:1028800001F8AB6B4BB12069103002F0D7FF38BDB7
:1028900040F26760002103F0CBFB02F0AFFB044B7A
:1028A0009842F5D102F0D2FB024B00221A70EAE7FF
:1028B0000000AD0BBD10002038B504464568026924
:1028C0002149284602F0A4FA00F1744303F5A60357
:1028D0000A2B0CD8DFE803F0060B0B0B0E080B0BD2
:1028E0000B0B0E00002007E06FF08B0004E06FF090
:1028F0000F0001E06FF0150000281BDBEB7A023BB4
:10290000DBB2012B08D9AB7A042B14D0032B01D0F6
:10291000002302E0012300E001231D46012120469F
:1029200005F01FFC002805DBC1B2C0F38013AB42E9
:1029300003D1002038BD0123EFE7012281F04001DF
:10294000204605F044FCF5E7638001002DE9F84FCF
:10295000C1F30B03002B40F0938005460E4614464E
:10296000002A00F09080C2F30B09B9F1000F40F08B
:102970008D80D0F804B0FFF733FF824628B1284697
:10298000FFF76EFF5046BDE8F88F28694FF0FF3221
:102990004FF0FF3302F076FF0021284605F0CAFB16
:1029A000824618B1286902F049FFE8E7286910302B
:1029B0004FF0FF324FF0FF3302F064FF20E006F0EB
:1029C000B9FA0746A04611E03146012002F072FB39
:1029D00007464FF4803809E03146002002F06AFBD8
:1029E00007464FF4805801E0C8462A4F28692A4B11
:1029F0009F421AD0284B9F421FD14644A4EB0804A3
:102A00008CB3DBF81830A342D9D0B4F5803F02D3A1
:102A1000B3B2002BD8D0B4F5805FE5D3C6F30B0377
:102A2000002BD9D0C8461B4FE0E720304FF0FF32D3
:102A30004FF0FF3302F026FFDCE707F1744707F59C
:102A4000A6070A2F0AD8DFE807F00E0909090C06C5
:102A5000090909090C006FF08B0A04E06FF00F0AF6
:102A600001E06FF0150A2869103002F0E7FE01213D
:102A7000284605F05FFBBAF1000F93D1824691E73B
:102A80006FF0150A7EE76FF0150A7BE76FF0150A05
:102A900078E700BF0400AD0B0000AD0B2DE9F04F4F
:102AA00087B082460E4617464A4201F0030402F000
:102AB000030258BF5442C4F10404624204F0030408
:102AC00002F0030258BF54429C4200D91C467A428D
:102AD00007F0030502F0030258BF5542C5F1040593
:102AE0006A4205F0030502F0030258BF55429D42B9
:102AF00000D91D4601941A1B02F0030B22F00309B2
:102B000029465B1B23F00303994502DDA2EB030B6F
:102B10009946B9F1000F09D1DFF8D8804CBBBBF161
:102B2000000F47D1404607B0BDE8F08F7B180293F5
:102B3000CDF80C90A2194946184606F0F6F98046E1
:102B4000DAF810002B4B98450BD02A4B9845E9D169
:102B5000AC42E3D0039A0299019BF81805F02EF8D5
:102B6000DCE720304FF0FF324FF0FF3302F08AFEF7
:102B7000EBE7C4F10402B21A042104A806F0D5F967
:102B80008046DAF810001B4B98450BD0194B98453E
:102B9000C8D1019AC2F1040104AB1944384605F0CA
:102BA00020F8BCE720304FF0FF324FF0FF3302F047
:102BB00069FEEBE7A2194A44082104A806F0B5F91A
:102BC0008046DAF810000B4B98450AD0094B98451F
:102BD000A8D1019848445A4604A9384405F001F8A0
:102BE000A0E720304FF0FF324FF0FF3302F04AFEF3
:102BF000ECE700BF0000AD0B2DE9F041002A52D0F8
:102C000004460F461D469046002B4FD042680029CF
:102C10004EDBCB18926993424DD8FFF7E1FD064693
:102C200028B12046FFF71CFE3046BDE8F081206940
:102C300010304FF0FF324FF0FF3302F023FE2B46EF
:102C4000424639462046FFF729FF054620691030E5
:102C500002F0F4FD05F1744000F5A6000A281CD826
:102C600001A353F820F000BF232C01009B2C01008E
:102C70009B2C01009B2C0100A12C0100952C010034
:102C80009B2C01009B2C01009B2C01009B2C010024
:102C9000A12C01006FF08B06C3E76FF00F06C0E7B1
:102CA0006FF01506BDE76FF01506BDE70026BBE720
:102CB0006FF01506B8E76FF01506B5E72DE9F04F90
:102CC00083B0002A00F0E78005460F461E46924674
:102CD000002B00F0E380042B03D913F0030F40F026
:102CE000E080B84617F0030F40F0DE806A68002FDE
:102CF000C0F2DD80BB199269934200F2DB80284666
:102D0000FFF76EFD834630B12846FFF7A9FD584610
:102D100003B0BDE8F08F28694FF0FF324FF0FF336A
:102D200002F0B0FD0021284605F004FA04462869A7
:102D300010304FF0FF324FF0FF3302F0A3FD002CB4
:102D400039D1032E29D90AF06043B3F1005F00F0B6
:102D500087805A4C7EB3594B9C422CD1B046042EEE
:102D600028BF4FF004084246514601A804F039FF3D
:102D7000B9463A4604210DEB010006F0D1F80446AD
:102D800028694E4B9C4263D04C4B9C42E2D1A6EB4F
:102D90000806C24408EB0907DCE73A4604210DEBBC
:102DA000010006F0C2F804462869444B9C422FD02B
:102DB000424B9C4234D02869103002F03FFD012183
:102DC000284605F0B7F90646286902F037FD04B930
:102DD000344604F1744000F5A6000A2855D801A332
:102DE00053F820F0092D01008B2E01008B2E0100DD
:102DF0008B2E0100912E0100852E01008B2E0100EB
:102E00008B2E01008B2E01008B2E0100912E0100D4
:102E100020304FF0FF324FF0FF3302F033FDC7E7B1
:102E20003246514601A804F0DCFE424604210DEB77
:102E3000010006F075F804462869204B9C42BAD17F
:102E400020304FF0FF324FF0FF3302F01BFDB2E7AE
:102E500020304FF0FF324FF0FF3302F013FD93E7C5
:102E60003A463146504606F05BF804462869134B53
:102E70009C42A0D120304FF0FF324FF0FF3302F0E0
:102E800001FD98E76FF08B0B3EE76FF00F0B3BE710
:102E90006FF0150B38E76FF0150B38E76FF0150B77
:102EA00035E76FF0150B32E76FF0150B2FE76FF07A
:102EB000150B2CE76FF0150B29E700BF0000AD0BD9
:102EC000034BD3F8003413F0010FF9D0704700BF63
:102ED00000E00140024B0B6001231360704700BF0C
:102EE0009009002000487047E09D010008B505F0FA
:102EF00008FA48B34FF08043D3F8103513F00102BD
:102F0000D2B2C3F3430321D04FF08040D0F8101564
:102F100021F01F014FEA430C41EA4303C0F810358A
:102F2000D0F808311BB90A4B1A7000200DE0D0F818
:102F3000103523F01F034CF0010C43EA0C03C0F8DA
:102F400010356FF08B0000E0002008BD0020FCE78A
:102F5000BE1000200A4B1B788BB14FF08041D1F896
:102F60001025D1F8103523F01F0302F01E0242F0A5
:102F700001021343C1F81035014B00221A7070474B
:102F8000BE100020F8B50D46164605F0B7FF044602
:102F900005F0B0FF002D06DBA84215D9401B864284
:102FA00014D9002300E000231BB3B5FBF4F304FBAA
:102FB00013530BBBB6FBF4F304FB1363FBB9B4422E
:102FC00006D900242046F8BD0023EDE70123EBE7F6
:102FD0000C4F4FF0FF324FF0FF33384602F052FCF7
:102FE0003146284605F0BDF90446384602F026FC75
:102FF000E8E76FF01504E5E76FF01504E2E76FF01E
:103000001504DFE79809002010B501221146064893
:1030100006F069F805F076FF044C206005F06EFFBD
:103020006060002010BD00BF9809002090090020BA
:10303000F8B50C4616461D4605F05CFF002C06DB75
:10304000A0420AD9001B854209D9002300E00023D1
:10305000CBB135B900242046F8BD0023F8E70123A1
:10306000F6E70A4F4FF0FF324FF0FF33384602F0D9
:1030700009FC2A463146204605F0C9F9044638467F
:1030800002F0DCFBE7E76FF01504E4E798090020A5
:1030900043681A68B1F5164F6FD03AD8B1F5165F8C
:1030A0006ED00AD9B1F5E14F75D024D947F6122375
:1030B00099422BD14FF4000313E0B1F5966F61D024
:1030C00007D9B1F5166F63D0B1F5965F10D13C4BBF
:1030D00007E0B1F5967F58D0B1F5167F05D14FF4D2
:1030E0001C33C2F82435002070476FF0150070477C
:1030F0006FF015007047B1F5615F4ED0B1F5964F96
:1031000001D1304BEDE76FF0150070476FF01500FF
:103110007047B1F5613F42D009D9B1F5612F46D072
:103120001FD9294B994248D14FF08053D9E7B1F5C7
:10313000963F37D005D9B1F5E13F0FD14FF0EB7392
:10314000CFE74DF6C02399422ED0B1F5614F02D1A1
:103150004FF46B03C5E76FF0150070476FF0150073
:1031600070471A4B994225D0B1F5E12F02D14FF0AB
:10317000E863B6E76FF0150070474FF41D03B0E742
:10318000134BAEE74FF49E23ABE74FF4A033A8E711
:103190004FF41D23A5E70F4BA3E70F4BA1E74FF01B
:1031A0006C739EE70D4B9CE74FF4650399E74FF076
:1031B000706396E74FF0806393E76FF015007047F8
:1031C00000B0130000A04E0040420F0090D003005A
:1031D0000050270000C0750000F03A0000903A014E
:1031E0002DE9F04105460F46D0F8108005F043FF69
:1031F00020B9174B1B7843B1002300E0012353B9DA
:10320000284605F060FA064613E00123F7E784F349
:103210001188BFF36F8F4FF02003EFF3118483F316
:103220001288BFF36F8F2646284605F0FDF9002867
:10323000EDD0D8F810301F700122D8F810102846B1
:1032400005F00CFA86F31188BFF36F8FBDE8F081AB
:10325000C310002038B504460D4601F1180001F0F6
:10326000BDFB0C4B984211D12B7E04F590710C34B0
:10327000094AA23342F8331002EBC3035C60297E93
:1032800001238B40C2F80435002038BD6FF00400E4
:10329000FBE700BF0000AD0B00F0014021F07F41D3
:1032A00000F5A870014B43F8201070470010014052
:1032B00000F5A870014B53F8200070470010014042
:1032C0004FF480338340024AC2F84433704700BF52
:1032D000001001404FF480338340024AC2F8483363
:1032E000704700BF00100140014BD3F80405704740
:1032F0000010014010B5012383406FEA030C104A0F
:10330000BFF35B8F52E8001F01EA0C0E42E800E4B5
:10331000002CF7D1BFF35B8F4FF4803202FA00F03C
:1033200002F1804202F58052C2F80803BFF35F8FBA
:10333000BFF36F8F0B4214BF0120002010BD00BFF0
:10334000AC09002070B5044605F077FA05464FF445
:103350008033A340174AD2F80423134205D1002634
:10336000284605F073FA304670BD0123A340DB43C5
:10337000114ABFF35B8F52E8001F01EA030042E8E5
:103380000006002EF7D1BFF35B8F59B904F150034B
:103390009B009BB203F1804303F588331B6813B194
:1033A000012300E001231E46002BD9D0204605F062
:1033B00035FAD5E700100140A809002001B970478F
:1033C00001238340114ABFF35B8F52E8001F19436A
:1033D00042E8001CBCF1000FF7D1BFF35B8F4FF444
:1033E000803383400A4AC2F80433BFF35B8F094B32
:1033F0001B68BFF35B8F23FA00F010F0010FDED0E3
:10340000054B4FF40032C3F80021D8E7AC09002087
:1034100000100140A809002000E100E02DE9F84378
:10342000074614461E461046194605F003FA05469F
:10343000154B1A68A01A1C605E60A5F50013B3F561
:10344000400F09D3002402F04BFF3846FFF730FF4E
:10345000A8420ED0BDE8F8830C4B1B681A0A1B0665
:1034600015EB030842F10009094BC3E90089012467
:10347000E9E71CB13846FFF723FFEBE74FF4000103
:103480003846FFF70BFFF5E738020020B0090020AF
:103490002002002038B50D4B1C68250A2406BFF316
:1034A0005F8FFFF721FF0346001945F10001B3F5D7
:1034B000801F0AD2064BD3E90023904271EB03032D
:1034C00003D210F1807041F1000138BDB009002035
:1034D00020020020F8B5064614461D46104619463F
:1034E00005F0A8F90746FFF7D5FFA04271EB0503E9
:1034F0001DD2231A65EB01011B4A934271F10003AF
:103500002FD21A4B03EB0613D3E90223AB4208BFB9
:10351000A2421AD03946304605F09DF9394605F0E9
:1035200079F9001945F1000304461D460DE0012319
:10353000B3400F4ABFF35B8F52E8001F194342E8C4
:1035400000100028F8D1BFF35B8F084B320103EB6A
:103550000616C6E9024506999950079B736000203C
:10356000F8BD6FF01500FBE7010000012802002004
:10357000A809002030B583B000231D4AC2F80835E1
:10358000002B24DD1A4C0225C4F80453194B4FF4C8
:103590000032C3F88021002201211120FEF758FAE1
:1035A0001120FEF725FA0123A3602360124A13605D
:1035B00000240194114B0093114A0023204605F08A
:1035C00085F92846FEF788FF204603B030BD0D4A36
:1035D00002EB03124FF0FF304FF0FF31C2E902015E
:1035E0004FF480329A400249C1F804230133C7E7FF
:1035F0000010014000E100E0AC0900201D34010092
:10360000FFFF7F00280200202DE9F04782B004462A
:10361000FFF798FE10B902B0BDE8F087FFF73AFF58
:1036200082460E4605F009F90546134B03EB0413D9
:10363000D3E90289C24576EB09030BD2002628465E
:1036400005F004F9002EE6D0009742464B4620468E
:10365000B047E0E7084A230102EB0411D6584F684F
:103660000020D0504FF0FF324FF0FF33C1E902236A
:103670002046FFF72FFEE2E72802002010B50E4B90
:10368000D3F8043313F0020F0DD00B4BD3F80431F1
:103690004BB1094B0022C3F80421D3F80431074A87
:1036A0001368013313600024002C00DD10BD204698
:1036B000FFF7AAFF0134F7E700100140B00900202E
:1036C00010B582B0B0F1FF3F06D0012806DDB0F59D
:1036D000000F05DA441E04E00F48F8E7002400E07C
:1036E0000D4CFFF7D7FE0D4B19685B68401AB0F51B
:1036F000000F00D300242044421CB2F5000F00D379
:10370000054A00208A1801900549009143F1000301
:1037100005F0DCF802B010BDFFFF7F00380200208A
:103720001D34010008B5FFF7B5FE024B1B68C01A37
:1037300008BD00BF3802002000B510F4805F01D042
:1037400001220021C0F3811E00F01F0C10F0200F99
:103750000DD14FF0A04041EA420141EA8E0141EA19
:1037600003210CF5E07340F823105DF804FB0148D9
:10377000F1E700BF000300502DE9F04106460F4677
:103780009046002417E005F03F05C8F80C5556F8A0
:10379000241001F01F0211F0200F61D14FF0A0455D
:1037A000012101FA02F2C5F808250A463058FFF750
:1037B000C3FF0134E4B2BC4280F0C281A00056F8DD
:1037C0002450C5F303232A0C222A00F2BB8101A155
:1037D00051F822F087370100653801007B3801007D
:1037E000AD380100C3380100F53801002739010068
:1037F000453B0100453B0100453B0100453B0100C5
:103800003D39010055390100453B0100453B0100B0
:10381000453B0100453B0100453B0100453B0100A4
:10382000453B0100453B0100453B01006D3901006E
:10383000C1390100153A0100693A0100453B010018
:10384000453B0100453B0100BD3A0100D33A010070
:10385000E93A0100FF3A0100153B01002B3B010052
:10386000BA4D9DE705F03F05C8F8145500221146F2
:1038700056F82400FFF760FF9BE705F03F05C8F806
:10388000085556F8241001F01F0211F0200F0BD13B
:103890004FF0A045012101FA02F2C5F808250A46B9
:1038A0003058FFF749FF84E7A84DF3E705F03F05DF
:1038B000C8F810550022114656F82400FFF73CFFC7
:1038C00077E705F03F05C8F8085556F8241001F0D1
:1038D0001F0211F0200F0BD14FF0A045012101FA7A
:1038E00002F2C5F80C2500223058FFF725FF60E7EB
:1038F000964DF3E705F03F05C8F80C5556F824102F
:1039000001F01F0211F0200F0BD14FF0A045012153
:1039100001FA02F2C5F80C250A463058FFF70CFFF1
:1039200047E78A4DF3E705F03F05C8F81055002238
:10393000114656F82400FFF7FFFE3AE705F03F0571
:10394000C8F8085503B90623002211463058FFF77E
:10395000F3FE2EE705F03F05C8F80C5503B9062322
:10396000002211463058FFF7E7FE22E705F03F0539
:10397000C8F8605556F8242002F03F0112F4005FA9
:1039800011D101F01F054A090BD14FF0A0410122CE
:10399000AA40C1F80C25012211463058FFF7CCFE91
:1039A00007E76A49F3E701F01F054A0906D14FF01E
:1039B000A0410122AA40C1F80825ECE76349F8E7D5
:1039C00005F03F05C8F8645556F8242002F03F0181
:1039D00012F4005F11D101F01F054A090BD14FF01D
:1039E000A0410122AA40C1F80C25012211463058FD
:1039F000FFF7A2FEDDE65549F3E701F01F054A098E
:103A000006D14FF0A0410122AA40C1F80825ECE7F9
:103A10004E49F8E705F03F05C8F8685556F82420E8
:103A200002F03F0112F4005F11D101F01F054A09B5
:103A30000BD14FF0A0410122AA40C1F80C25012270
:103A400011463058FFF778FEB3E64049F3E701F03E
:103A50001F054A0906D14FF0A0410122AA40C1F832
:103A60000825ECE73949F8E705F03F05C8F86C553B
:103A700056F8242002F03F0112F4005F11D101F04A
:103A80001F054A090BD14FF0A0410122AA40C1F8FD
:103A90000C25012211463058FFF74EFE89E62B49CE
:103AA000F3E701F01F054A0906D14FF0A0410122BA
:103AB000AA40C1F80825ECE72449F8E705F03F05DE
:103AC000C8F824550122002156F82400FFF734FEDF
:103AD0006FE605F03F05C8F828550122002156F889
:103AE0002400FFF729FE64E605F03F05C8F83055CD
:103AF0000122002156F82400FFF71EFE59E605F0CA
:103B00003F05C8F834550122002156F82400FFF77C
:103B100013FE4EE605F03F05C8F838550122002196
:103B200056F82400FFF708FE43E605F03F05C8F805
:103B30003C550122002156F82400FFF7FDFD38E630
:103B4000002001E06FF08500BDE8F0810003005027
:103B500008B51022034904F01FF808B1022008BD7F
:103B60000120FCE77C9E010030B585B005468168E8
:103B7000103921F0070403F022FF014610226846A5
:103B800004F05EF810220749684604F02AF8102372
:103B90006A462146284603F0D7FE08B905B030BD75
:103BA0000120FBE77C9E0100024BD3F80034002B80
:103BB000FAD0704700E0014008B5034BC3F8040594
:103BC000FFF7F2FF08BD00BF00E00140014B024AD1
:103BD0001A607047B00000200090D00338B504F0A0
:103BE000EBFF40B14FF080430022C3F80C21C3F833
:103BF0001021C3F8382504F0E9FF002846D04FF023
:103C00008052D2F80414594BC3F82015D2F8081486
:103C1000C3F82415D2F80C14C3F82815D2F81014E0
:103C2000C3F82C15D2F81414C3F83015D2F81814B0
:103C3000C3F83415D2F81C14C3F84015D2F8201478
:103C4000C3F84415D2F82414C3F84815D2F8281440
:103C5000C3F84C15D2F82C14C3F85015D2F8301410
:103C6000C3F85415D2F83414C3F86015D2F83814D8
:103C7000C3F86415D2F83C14C3F86815D2F84014A0
:103C8000C3F86C15D2F84424C3F8702504F0A8FFDB
:103C900018B1374B374AC3F88C2604F0B4FF18B17B
:103CA000354BFB22C3F8182504F0C0FF70B14FF06C
:103CB0008041D1F8E43E23F00F034FF08052D2F858
:103CC000582202F00F021343C1F8E43E04F0C1FF92
:103CD00020B12A4B4FF40072C3F8402604F0CCFF09
:103CE00060B14FF08043D3F8003413F0010F05D0DA
:103CF0004FF080436FF00102C3F8002404F0C6FFC8
:103D000038B14FF01023D3F808224FF08043C3F8A6
:103D100058254FF01023D3F80032002B08DB4FF06A
:103D20001023D3F80432002B02DBFFF74FFF38BD1E
:103D30000120FFF741FF4FF010241225C4F8005274
:103D4000FFF732FFC4F80452FFF72EFF0020FFF701
:103D500033FFBFF34F8F0A49CA6802F4E062094B90
:103D60001343CB60BFF34F8F00BFFDE700C000409F
:103D7000005000404881030000F0004000900240E5
:103D800000ED00E00400FA0510B50468B4FA84F30D
:103D9000C3F11F035FFA83FC002B16DB012202FA3A
:103DA00003F324EA0303BFF35B8F50E8002FA24222
:103DB00004D140E8003EBEF1000FF6D1BFF35B8FA7
:103DC000E3D181F800C0024810BD0248FCE700BF03
:103DD0000000AD0B0200AD0B0368CB4013F0010FE8
:103DE00015D100B5026801238B401343BFF35B8FED
:103DF00050E800CF944504D140E8003EBEF1000FEA
:103E0000F6D1BFF35B8FEDD102485DF804FB0248A9
:103E1000704700BF0000AD0B0400AD0B70B582B061
:103E2000054618B1012816D002B070BD4FF080438E
:103E30000222C3F808230022C3F80421D3F8042186
:103E40000122DA6001238DF807309D420FD0002651
:103E500042F2107429E04FF080430122C3F8082396
:103E60000021C3F80011D3F800115A60EAE70DF100
:103E70000706EDE736B14FF08043D3F8183403F06E
:103E8000030333604FF08043D3F8183413F4803FBA
:103E900022D1002323B31EB19DF80730012B1FD17F
:103EA000012004F006FF013C1AD0002DE2D0012DC4
:103EB00001D00023EEE736B14FF08043D3F80C3445
:103EC00003F0010333704FF08043D3F80C3413F444
:103ED000803F03D10023DDE70123DBE70123D9E79E
:103EE000012DA1D1014B00225A719DE7B409002098
:103EF000064B1B793BB9054B186001221A71002251
:103F00005A71034870470348704700BFB409002046
:103F10000000AD0B0C00AD0B08B54FF08043D3F89B
:103F200000318BB14FF080430022C3F80021D3F859
:103F300000210122C3F80823154B5B7923B9144BE8
:103F40005A711B68002098474FF08043D3F8043122
:103F50009BB14FF080430022C3F80421D3F8042121
:103F6000D3F81824D3F8183412F0030F06D14FF009
:103F700080430122C3F818259A6008BD4FF08043A2
:103F80000222C3F80823024B1B6801209847F4E77C
:103F9000B40900200830034B33F8100000F0010092
:103FA000704700BFB40000200830034B33F8100006
:103FB000C0F34010704700BFB40000200830044B2D
:103FC00033F8100010F01C0018BF0120704700BF2C
:103FD000B40000200830034B33F81000C0F3400059
:103FE000704700BFB40000200830024B33F81000C7
:103FF000400B7047B4000020002204E04FF0FF3374
:1040000083420FD001322F2A0AD802F10803064951
:1040100031F8133013F4807FF0D0C3F34323EFE77C
:104020000020704701207047B4000020002313B126
:104030004FF0FF307047074A52F83320824201D0D8
:104040000133F4E7034A02EBC30252688A42F7D114
:1040500018467047B40000200830064B33F81000B3
:1040600010F4807F04D0C0F3432003EBC0007047FE
:1040700000207047B400002070B504460D46FFF7DD
:10408000EBFF20B10668426829462046B047044B42
:104090009B6823B1024AD26829462046984770BDE2
:1040A000B400002000F108020E4B33F8123013F474
:1040B000807F16D010B5C3F34324104623F4F85381
:1040C000084A22F810302046FFF796FF00B110BDD5
:1040D0000448002340F8343021467430FFF77CFE5A
:1040E000F5E77047B400002010B50446FFF75CFF09
:1040F00040B12046FFF778FF00F5A270064B002282
:1041000043F820202046FFF7CDFF0834034B002260
:1041100023F8142010BD00BF00600040B400002050
:1041200070B582B006460C461546FFF7BBFF24B3B8
:1041300029462046FFF77AFF031E13DB104A42F898
:10414000334002EBC3014D605B029BB206F10800F5
:1041500032F810100B4343F4807322F810300948F2
:1041600002B070BD0DF107010748FFF70DFE054BCA
:104170009842F5D19DF80730E0E70248F0E700BF2C
:10418000B40000200000AD0B2801002038B5044623
:1041900018E094FAA4F3B3FA83F301229A4024EAD4
:1041A00002040A4A03F5A27352F82350C5F3052509
:1041B00052F82300C0F3014004F010FE01462846E7
:1041C000FFF75AFF002CE4D138BD00BF006000406B
:1041D00082B08446114B93E8030002AB03E903006D
:1041E000604600230BE002AA02EB830252F8082C7F
:1041F000D2F8201540F8041BC2F820150133012B1A
:10420000F1D90023012B04D85CF8232022B9013313
:10421000F8E7002002B070470120FBE7609801003A
:1042200070B504460D461646084604F0D9FDD0B9CF
:10423000022E52D0022004F01F02610901294ED043
:104240004FF0A04102F5E07251F8223023F44033E0
:1042500043EA004341F82230032D44D0022E40D0DF
:10426000032E45D070BD29462046FFF705FF04F018
:104270001F036209012A2AD04FF0A04203F5E07320
:1042800052F82330C3F301439E42EBD104F01F03E5
:104290006209012A1DD04FF0A04103F5E07351F8E7
:1042A000232022F4403241F8232004F01F03640944
:1042B000012C10D04FF0A04103F5E07351F82320FA
:1042C00022F4403242EA064641F82360CAE70A4A2D
:1042D000D4E70949E1E70849EEE70320ABE70649DF
:1042E000B0E7012DBCD129462046FFF7C5FEB9E74E
:1042F000022DB7D1F7E700BF0003005070B584B0BE
:104300002F4A6B4692E8030083E80300002302A8CB
:104310000BE004AA02EB830252F8102CD2F820150D
:1043200040F8041BC2F820150133012BF1D942E0FB
:10433000244E05F5E07356F82320C2F30142FFF73F
:104340006FFF0123AB40C6F8203504AB03EB8403B9
:1043500053F8080C10B390FAA0F0B0FA80F000EB1C
:10436000441000F10802184B33F81210C1F3820117
:10437000C50800F007020DF1080C012303FA02F250
:104380001CF8053023EA02030CF8053000F01F0585
:104390004309012BCCD04FF0A046CAE70134012CD1
:1043A000D3D90A4B0022C3F87C21D3F87C3102A870
:1043B000FFF70EFF08B10024F1E704B070BD00BFA5
:1043C0006098010000030050B4000020006000402D
:1043D0002DE9F041044615461E4671B30F4604F020
:1043E000E7FC002840F0998004F01F026309012BCC
:1043F00045D04FF0A04002F5E07350F82330002F75
:104400003FD00C2141F0030123EA0103002F3AD0F1
:10441000397889000B4302F5E07240F82230434AB4
:1044200004F1080132F8113023F002039BB222F8A4
:10443000113043F0010322F81130BDB12F78D5F8C7
:1044400004802046FFF7C6FDF8B1B8F1000F66D131
:10445000364A04F1080132F8113023F01C039BB2F4
:1044600022F8113043EA870322F81130002E5AD087
:10447000726831682046FFF753FEBDE8F0812C4892
:10448000B9E70021BEE70021C4E7284A04F108018A
:1044900032F8113023F02003DB04DB0C22F811305A
:1044A000B8F1000FD4D0032F3BD86B681D7837B913
:1044B00005F5A2751F4B002243F82520C8E73846B2
:1044C00004F08DFC1B4B05F5A27253F8221021F06D
:1044D000030143F8221053F8221021F44F3121F444
:1044E000407143F8221053F822C0210201F47C519C
:1044F000000400F4403001434CEA010143F822106B
:104500006B039BB2094A04F1080132F8110003431E
:1045100043F0200322F811309AE70748ADE7064838
:10452000ABE70548A9E70548A7E700BFB4000020AE
:1045300000030050006000400400AD0B0000AD0B14
:10454000F8B504461546002955D00E4604F03FFC48
:1045500028B12046FFF728FD002840F0A280204621
:10456000FFF72CFD18B17378012B00F09C8006F149
:10457000010CB71C04F01F026309012B57D04FF048
:10458000A04102F5E07351F82300BCF1000F50D0B8
:10459000022343F00103002F4DD04FF00C0E43EAED
:1045A0000E03002E4AD04FF4E06E43EA0E0320EAD9
:1045B0000300BCF1000F44D073785B0043F00103AB
:1045C000002F40D096F802C04FEA8C0C43EA0C034F
:1045D000002E3BD0367836023343034302F5E072B7
:1045E00041F82230334A04F1080132F8113043F027
:1045F000030322F81130002D57D0204604F0E7FBCA
:10460000002854D12B7803F5A2712B4A42F82100DF
:10461000284904F1080031F8102022F02002D204C9
:10462000D20C21F810206A7892B92448F8BD2449A8
:10463000A7E70023ADE74FF0000EB0E74FF0000E04
:10464000B3E70023BAE74FF0000CBFE70026C3E74B
:10465000AF78194803F5A27550F8251021F4991187
:1046600021F4F85140F8251050F82560210201F49A
:104670007C51120402F440320A43390501F48011DE
:104680000A43324340F825205B039BB2094A0834B1
:1046900032F814100B4343F0200322F8143007487B
:1046A000C4E70848C2E70748C0E70448BEE7054832
:1046B000BCE700BFB4000020006000400000AD0B6C
:1046C000000300500400AD0B014B9860D9607047A7
:1046D000B400002038B504460D46FFF765FC40B134
:1046E00004F10800044B33F810305B0B2B700348C7
:1046F00038BD0348FCE700BFB40000200000AD0B4C
:104700000400AD0B104B93F878300BB10F48704795
:1047100010B50D4C6022002104F1100003F090FA56
:104720000620FDF765F90A4B0022C3F87C21D3F877
:104730007C214FF00042C3F80423012384F8783031
:104740006367044810BD00BFB40000200500AD0B36
:10475000006000400000AD0B034B93F87800003878
:1047600018BF0120704700BFB400002008B5014603
:104770000148FFF731FB08BD2401002008B50146C0
:104780000148FFF701FB08BD2401002038B50446AD
:104790000D46FFF709FC08B3204604F018FBE8B10A
:1047A0002046FFF721FC830003F580739BB203F1E1
:1047B000804303F5C04300221A601B68224A00F5BB
:1047C000A27152F8213043F0010342F821309DB329
:1047D000012303FA00F0C2F804032DE004F10803FA
:1047E0001A4A32F81330C3F38203042B12D0052B7C
:1047F00023D004F01F026309012B09D04FF0A0431E
:10480000D3F81035D34013F0010F18D0032002E085
:104810000F4BF5E7032004F01F026409012C10D0B0
:104820004FF0A04102F5E07251F8223023F44033FA
:1048300043EA004341F8223038BD0220EBE7022072
:10484000E9E70349EEE700BF00600040B400002044
:104850000003005010B50446FFF7A6FBA0B12046A8
:1048600004F0B5FA80B12046FFF7BEFB012282407A
:104870000E4BC3F8082300F5A27053F8202022F055
:10488000030243F820200EE004F01F036409012C0A
:104890000AD04FF0A04103F5E07351F8232022F431
:1048A000403241F8232010BD0149F4E70060004088
:1048B0000003005010B50446FFF76CFB08B90C4824
:1048C00010BD2046FFF7C6FF2046FFF70DFC04F0A1
:1048D0001F036409012C08D04FF0A04203F5E073D8
:1048E000022142F823100348EAE7034AF6E700BF33
:1048F0000400AD0B0000AD0B0003005038B50120E3
:104900004FF4807300210C4603E0400004339BB257
:104910000131072914D803F1804202F5C042126820
:10492000002AF2D00C4AD2F804231042EDD003F151
:10493000804202F5C0420025156012680443E4E796
:10494000054BD3F87C311BB92046FFF71FFC38BD5F
:10495000FFF7D4FCF8E700BF00600040024B0022E4
:10496000C3F80425704700BF00E00140024B01225C
:10497000C3F80425704700BF00E00140024B02224B
:10498000C3F80425704700BF00E00140044BD3F892
:10499000003413F0010FF9D00160BFF35F8F70474F
:1049A00000E0014010B5044604F030FA08B90848A8
:1049B00010BDFFF7E3FF074BC3F80845054BD3F8DD
:1049C000003413F0010FF9D0FFF7C8FF0248EFE7FA
:1049D0000A00AD0B00E001400000AD0B08B5014638
:1049E0000148FFF7D1F908BD3001002000F0604C0C
:1049F000BCF1005F55D110F0030F54D130B42D4CF1
:104A000094F830C0BCF1010F01D09C454DD1294C28
:104A1000246854B3274DAD68FDB1264DE860696147
:104A2000EA610025022B22D0234BC3F80425C3F8EA
:104A30000805C3F80C15042314B3002D38D01E4903
:104A40000022C1F800210122C1F8042303F18043B0
:104A500003F524331A60194828E0164DA86029612F
:104A6000AA6185F830300125DCE70025DAE7124B32
:104A7000C3F81025C3F81405C3F818150823DBE79D
:104A80000D4A0021C2F8001103F1804303F52433DD
:104A900001221A60084BD3F80031002BFAD00748E6
:104AA00004E00748704706487047064830BC704726
:104AB0000248FBE7BC090020009002400000AD0B5B
:104AC0000A00AD0B0B00AD0B0346C27C12B1007D9A
:104AD00000286AD11979FF2900F0AD805879FF28A4
:104AE00000F0AB809879FF2800F0A980D879FF28E2
:104AF00000F0A780002A56D101F01F0249090129C0
:104B000054D04FF0A04102F5E07240F2023041F87B
:104B100022005A7902F01F015209012A48D04FF0B1
:104B2000A04001F5E07240F2023140F822109A797B
:104B300002F01F015209012A3CD04FF0A04001F5BC
:104B4000E07240F2023140F82210DA7902F01F01DF
:104B50005209012A30D04FF0A04001F5E07240F236
:104B6000023140F822101A7AFF2A0CD002F01F01FD
:104B70005209012A22D04FF0A04001F5E07240F224
:104B8000023140F822105A7AFF2A0CD002F01F019D
:104B90005209012A14D04FF0A04001F5E07240F212
:104BA000023140F82210187D60B170472649AAE70B
:104BB0002548B6E72448C2E72348CEE72248DCE789
:104BC0002148EAE71A1D1B79FF2B22D01F49C1F8A3
:104BD00024355378FF2B1FD01C49C1F82835937812
:104BE000FF2B1CD01949C1F83035D378FF2B19D0D1
:104BF0001649C1F834351379FF2B16D01349C1F883
:104C000038355379FF2B13D0104AC2F83C350120B8
:104C100070474FF0FF33D9E74FF0FF33DCE74FF039
:104C2000FF33DFE74FF0FF33E2E74FF0FF33E5E715
:104C30004FF0FF33E8E70020704700207047002066
:104C400070470020B1E700BF000300500090024011
:104C500070B582B03E4CD4F82405C0B28DF8000087
:104C6000D4F82815C9B28DF80110D4F83025D2B285
:104C70008DF80220D4F83435DBB28DF80330D4F847
:104C800038555FFA85FC8DF804C0D4F83C45E4B291
:104C90008DF8054000F01F0E400901284BD04FF061
:104CA000A0450EF5E070022645F8206001F01F00D7
:104CB0004909012941D04FF0A04500F5E0710220DB
:104CC00045F8210002F01F015209012A37D04FF0A8
:104CD000A04001F5E072022140F8221003F01F020B
:104CE0005B09012B2DD04FF0A04102F5E0730222A9
:104CF00041F82320BCF1FF0F0DD00CF01F034FEA49
:104D00005C1CBCF1010F1ED04FF0A04103F5E07315
:104D1000022241F82320FF2C0BD004F01F0364096A
:104D2000012C12D04FF0A04103F5E073022241F8AC
:104D3000232002B070BD074DB3E7064DBDE705481F
:104D4000C7E70449D1E70349E0E70249ECE700BFC0
:104D500000900240000300500A4B9A6802601A69F2
:104D600042609A698260DA683AB19A605A691A6157
:104D7000DA699A610022DA607047024B00229A6079
:104D8000704700BFBC090020034BD3F81C2502600C
:104D9000D3F82035037170470090024008B50E4BE0
:104DA00093F83030032B0AD0042B0ED0022B00D006
:104DB00008BD012300F8043BFFF7CEFFF8E702230C
:104DC00000F8043BFFF7C8FFF2E7032300F8043BB9
:104DD000FFF7DAFFECE700BFBC09002010B5642440
:104DE000084BD3F8003133B90A2003F062FF013CCD
:104DF000F6D1002300E001230BB1034810BD0348A6
:104E0000FCE700BF009002400000AD0B0700AD0BB7
:104E10002F4B93F83030002B55D170B504460D461A
:104E20001646FFF751FE00284FD0224652F80A1BC3
:104E3000284BC3F84015A37A517843EAC10391780F
:104E400043EA8113D278002A39D0802213432149C2
:104E5000C1F8443504F10E02D1F8003623F07F4347
:104E600023F0FF03A17B0B43E17B51B34FF0807133
:104E70000B43917843EA4163D27843EA0273154ABF
:104E8000C2F80036124B1D605E60E17C83F8311081
:104E90000123C2F8083315B12920FCF7A9FD0C4BFA
:104EA00000219960D960012283F83020094BC3F8B2
:104EB0000025C3F800111A60FFF790FF70BD0022B3
:104EC000C4E70021D4E7044870470448F6E700BF70
:104ED000BC090020009002400500AD0B0400AD0BA2
:104EE00038B5414B93F83030012B79D10446154643
:104EF0003E4B0022C3F8002129B34378023B072B25
:104F000021D8DFE803F057555313514F0704CB79ED
:104F10001B0600E000238A7943EA02434A7943EA08
:104F200002230A791343314AC2F83C36CB781B0678
:104F30008A7843EA02434A7843EA02230A78134311
:104F40002A4AC2F83836294A0123C2F8083323789E
:104F5000617843EA0123A17843EA0133E17843EA27
:104F60004133217943EA8133617943EAC133C2F89D
:104F70003436FFF733FF1E4B984232D01B4B0022D2
:104F8000C3F8002175B36378184AD2F83C16D2F8FA
:104F90003826023B072B21D8DFE803F01F1C191726
:104FA0001613100E0023B9E70023BAE70023BFE76A
:104FB0000023C0E70023C1E70B0EEB71C1F30743E9
:104FC000AB71C1F307236B712971130EEB70C2F340
:104FD0000743AB70C2F307236B702A70054800E0EB
:104FE000054838BD0348FCE7BC090020009002409A
:104FF0000700AD0B0000AD0B0B00AD0B00B583B08F
:1050000000238DF807300093ADF8043005238DF8A8
:10501000003002238DF8013001238DF803300DF1AB
:10502000070211466846FFF75BFF064B984204D122
:105030009DF8073013F0010F02D103B05DF804FBB7
:105040000148FAE70000AD0B0B00AD0B08B52920B5
:10505000FCF7DCFC144BD3F8343603F44033B3F5DF
:10506000803F19D0104B0122C3F808231A6103F0C6
:105070004DFF10B10C4B01225A650B4B0022C3F8B7
:105080000025C3F80021094B93F831304BB1074B91
:10509000002283F8302008BD034B054AC3F83426AC
:1050A000E0E7FFF7D5FDF2E700900240BC090020E1
:1050B0000001030011F0030F28D1164B1B6823B128
:1050C000144B93F83030012B22D1124A042382F87A
:1050D0003030114BC3F81C15C3F820050021C3F86C
:1050E00000110121D96013682BB10B4B0122C3F8C9
:1050F00004230A487047084BD3F80031002BFAD03C
:10510000044B012283F8302004487047044870475C
:1051100004487047BC090020009002400000AD0B1D
:105120000A00AD0B0B00AD0B0E4BD3F8003103B9E9
:10513000704710B50B4B0022C3F800210A4C04F154
:105140002000FFF72BFEA36843B1074C236861687A
:1051500000209847002384F8203010BD012284F8F5
:105160003020F2E700900240BC09002010B5144C3A
:10517000032323616361134AA261134BE3614FF47C
:10518000806323620023A3626362E36222660F4AA4
:1051900062661022A2662367E36663670C49E01D1E
:1051A00002F0C3FCBFF35F8F0A49204602F0BDFC4A
:1051B000BFF35F8F2023A371BFF35F8F10BD00BFCC
:1051C000F00900208C9E0100A80A0020980A002007
:1051D000989E01009C9E0100034B00E01833034A97
:1051E0009342FBD3704700BFC49501006C96010049
:1051F00070B50646114B53F8204009E0404217E0D5
:10520000EB681870EA68537843F001035370083470
:10521000731C0A4A52F82330A3420DD965682368EB
:1052200028469847002DF2D00028EBD00028E5DB77
:10523000FF28E5DDFF20E3E770BD00BFA49E01006D
:1052400010B586B0104CB02303FB004400EB400CBB
:105250000E4B03EBCC000E4B0593012304930F235D
:10526000039300230293019300900A4B4FF4A07222
:10527000094901EBCC11204600F04CF9637B23F087
:105280000403637306B010BD40020020A80E002086
:10529000BC9E0100715601004019002008B50A4B60
:1052A00001221A700220FFF7A3FF01F0ABF80320E0
:1052B000FFF79EFF00F092F9FBF7A4F9034A137B76
:1052C00023F00103137308BDC3100020F002002077
:1052D00008B50146014A0248FCF792FC9D520100C4
:1052E000F002002008B50348034A121A002103F017
:1052F00057FE08BD20020020C410002010B504464F
:10530000FFF79EFF0B49B02303FB04110A4A04EB8D
:10531000440302EBC303D9601C7504EB4411074B33
:1053200003EB811303F5046304EB440402EBC404B0
:10533000636010BD40020020A80E0020C01A0020AB
:1053400070B586B000F0D8FD104D114BDD61114BEA
:105350000593012304930024039402940194009480
:105360000D4B4FF400620D49284600F0D3F8064675
:105370006B7B23F004036B73284603F0F5FE204695
:10538000FFF7BCFF304606B070BD00BFF002002042
:10539000A80E0020C49E01009D52010000110020B3
:1053A00000B5ADB01E4B83F308881E4C636943F40F
:1053B00000736361E02384F822300025E5772576C9
:1053C0006576A57684F82050636A43F4E02363622F
:1053D00084F82350FCF76EFDFCF7ECFA4FF0FF3336
:1053E000A362E362FCF788FEFCF718FE01248DF847
:1053F0000D408DF80C4026952795684600F0FCFF7F
:10540000094BC3F808D0FFF7E7FE2846FFF7F0FE88
:105410002046FFF7EDFEFFF793FFFFF759FF00BFB0
:105420000023002000ED00E0A80E002010B5064C7F
:10543000002000E01C34054B9C4204D2204603F0BF
:10544000B7FD0028F6DA10BDB8010020B801002031
:1054500030B583B00D464FF02004EFF3118184F393
:105460001288BFF36F8F44696CB12C6043691B686D
:105470004361836901338361002081F31188BFF3A5
:105480006F8F03B030BD00F1080C53EA020404D161
:1054900000232B606FF00B00EFE7009201930246B0
:1054A000604600F0FDFB0028EBD1024B9B685B6976
:1054B0002B60E6E7A80E00204FF02003EFF31181E8
:1054C00083F31288BFF36F8F0A4B9B6A834204D128
:1054D0001A6F084B9A6207E0134613B11A6F8242A3
:1054E000FAD10BB1026F1A6781F31188BFF36F8F86
:1054F000704700BFA80E002008B553EA020102D190
:1055000003F0BFFD08BD0249183000F05DFEF9E769
:10551000A19101002DE9F04F85B004460F461546D4
:105520001E46DDF838A0DDF83C90DDF84080DDF85F
:105530004CB000F158038365C365129B0422119996
:1055400003F0A3FD2A463946204603F082FD0546B6
:10555000CDF80880CDF80490CDF800A0334602467F
:1055600039462046FCF702FB002363652666C4F833
:1055700064A0C4F86890C4F86C804FF02003EFF387
:10558000118283F31288BFF36F8F134B996A2167DF
:105590009C6282F31188BFF36F8FBBF1000F13D0B1
:1055A0001F22594604F1740002F0C9FA002384F85E
:1055B0009330094B9B685BB1D3F8A430C4F8A43096
:1055C000284605B0BDE8F08F002384F87430F0E77A
:1055D000C4F8A430F4E700BFA80E002030B587B0AF
:1055E000214C14E0E36A0593236A0493E36903936F
:1055F000A36902936369019323690093E368A26836
:1056000061682068FFF786FF23685C653034174BBC
:105610009C42E7D300F0D8F9134C00E03034134B30
:105620009C421CD2606AB0F1FF3FF7D0256820EAA7
:10563000E070C117C90341EA5041C00340F2E733AB
:10564000C0184FF47A724FF0000341F10001FAF7ED
:1056500057FE02460B462846FFF74EFFDEE700F0F6
:10566000D5FB07B030BD00BFB8010020B801002055
:1056700008B501E0FCF7A4F94FF02002EFF3118325
:1056800082F31288BFF36F8F03F072FE054B9861AF
:10569000054B1B78002BEDD0FBF7B8FF0028EBD1B2
:1056A000E8E700BFA80E0020C31000202DE9F0435A
:1056B00083B004461D464FF02003EFF3118783F3B8
:1056C0001288BFF36F8FC16899B900294FD13A4B47
:1056D0009B6893F90E3023610131E160364B9B6882
:1056E000A36087F31188BFF36F8F002003B0BDE87C
:1056F000F08316468268304B9B689A42E5D055EAA3
:1057000006010CBF4FF001084FF0000831D092F9AC
:105710000E90494693F90E0003F0C8FC81452FDC3A
:105720004FF000090096019522463946234800F0C3
:10573000B7FA0028DAD04FF02003EFF3118583F396
:105740001288BFF36F8F23689C421FD0F3B1216989
:1057500093F90E0003F0AAFC0146204603F0B1FCC9
:10576000B0B9B9F1000F15D04FF0010812E023696C
:10577000B1E787F31188BFF36F8F6FF00F00B5E7C4
:105780000146204603F09DFC8146CBE72169E4E712
:105790004FF00108B8F1000F06D185F31188BFF36F
:1057A0006F8F6FF00A00A1E72946044800F0F0F877
:1057B0006FF00A009AE700BFA80E0020D40E002068
:1057C00038B5836883B304461A4A926893422ED14F
:1057D000C368012B03D9013BC360002038BD4FF0E3
:1057E0002003EFF3118583F31288BFF36F8F0169F4
:1057F00003F067FC204603F057FDA06068B190F904
:105800000E3023610024C0F8AC4003F0ADFC294603
:10581000094800F0BDF82046E0E70020E06085F38D
:105820001188BFF36F8FD9E76FF01500D6E74FF0FF
:10583000FF30D3E7A80E0020D40E002038B5044670
:105840004FF02003EFF3118583F31288BFF36F8FBE
:1058500003F02AFD48B10022C0F8AC2003F084FC1C
:105860002946074800F094F838BDA368E2689342DF
:1058700003D001221344A360F2E70022FAE700BF3D
:10588000D40E002010B582B04FF02004EFF3118148
:1058900084F31288BFF36F8F846844B1013C846045
:1058A00081F31188BFF36F8F002002B010BD53EA5F
:1058B000020406D0009201930246054800F0F0F978
:1058C000F3E781F31188BFF36F8F6FF00F00ECE700
:1058D000D40E0020B3F1FF3F08BFB2F1FF3F00D16B
:1058E000704708B50249183000F06EFC08BD00BFD3
:1058F000A191010010B5074B1C6804B910BDFDF75C
:1059000011FF0444044B1C610021024B186803F092
:1059100046FDF3E7DC0E0020A80E002070B504461B
:105920000D4600234FF02002EFF3118682F3128818
:10593000BFF36F8F0EE00228B8BF02201860114B32
:105940001D60114B9868FFF7D5FF86F31188BFF3F0
:105950006F8F0123A3B90C4B00221A61610CE30382
:1059600040F2E73018184FF47A724FF0000341F11B
:105970000001FAF7C5FC054B1860002CDBDCDEE704
:1059800070BD00BFD80E0020A80E0020DC0E002045
:1059900008B5084621B9EFF3058313B9012100E0EA
:1059A000002111F0010F07D0064BDA699B689A427B
:1059B00002D0FCF783F803E080F31188BFF36F8F08
:1059C00008BD00BFA80E002000234FF02002EFF317
:1059D000118182F31288BFF36F8F09E0064B9A683A
:1059E000D37B013BD37381F31188BFF36F8F012306
:1059F000002BF3D0704700BFA80E002038B5044636
:105A0000104803F0AAFB054670B184B90E4B9B68A1
:105A10005A7B12F01F0F0AD1AA6942B9DA897F2A8C
:105A200005D9094AD3610BE0074BDD68EDE7064B6A
:105A30009B68AB4202D02846FFF75CFF024BDD615A
:105A400038BD00BFC80E0020A80E002038B505469E
:105A5000427B90F90D30002B28DB6B7B63F07F03DA
:105A60006B731A4B53F8204F9C422DD06CB12146DA
:105A7000284603F04BFB002820DC34B1134B5B6A53
:105A80009C4202D02468002CF0D1104B5A6A03F1DA
:105A9000200129606A6015605D620C4B9868A8421D
:105AA00014BF00200120FFF7A9FF38BD02F07F02DC
:105AB00042730146064803F048FBCEE763686B601B
:105AC0002C601D606560E8E70024CFE7A80E002089
:105AD000C80E002038B50446074B9D686B7B13F059
:105AE0001F0F04D02846FFF705FF204638BD284683
:105AF000FFF7ACFFF6E700BFA80E002038B54FF067
:105B00002003EFF3118483F31288BFF36F8F224BCE
:105B10009B68224A1268934218D021461F4A0025EA
:105B200015601F4A126872B3DA897F2A16D85A7B29
:105B300012F01F0F1CD193F90E501A4A12689542A9
:105B400018DB194A934217D0012308E01846FFF7E3
:105B5000D1FE84F31188BFF36F8F1BE0002393B154
:105B60000D4B1B69834209DD181A0B4B18610DE0C0
:105B70000023F4E70023F2E70023F0E72046FFF7D5
:105B8000A9FF014602E0044B00221A6181F311884B
:105B9000BFF36F8F38BD00BFA80E0020D40E0020C9
:105BA000DC0E0020D80E00204002002038B5437BD8
:105BB00090F90D20002A2DDB044613F01F0F05D1AC
:105BC00082690AB1002202E0012200E000220AB349
:105BD00063F07F036373144B53F8205F9D4220D022
:105BE0006DB12946204603F091FA002813DC35B147
:105BF0000D4B5B6A9D4202D02D68002DF0D10A4BFF
:105C00005A6A03F120012160626014605C62002026
:105C1000FFF7F4FE38BD6B68636025601C606C6044
:105C2000F5E70025DCE700BFA80E002010B54FF017
:105C30002003EFF3118483F31288BFF36F8F437B4C
:105C400013F0040F04D184F31188BFF36F8F10BDDC
:105C500023F004034373FFF7A9FF21460148FFF730
:105C600097FEF4E7D80E002010B50446427B90F969
:105C70000D30002B08DB084B9868A04214BF0020B1
:105C80000120FFF7BBFE10BD02F07F024273014608
:105C9000024803F05AFAEEE7A80E0020C80E0020D2
:105CA00010B50C461146064B9868064B1860DDE9A6
:105CB000022303F0D7FA2046FBF700FF10BD00BF18
:105CC000A80E0020D40E00202DE9F84304460E460D
:105CD00000234FF02002EFF3118882F31288BFF304
