:020000040000FA
:10C000003DB8F396000000000008000098250100EC
:10C010000000000000000000000000000000000020
:10C02000FFFFFFFFFFFFFFFFFFFFFFFFFFFFFFFF20
:10C03000FFFFFFFFFFFFFFFFFFFFFFFFFFFFFFFF10
:10C04000FFFFFFFFFFFFFFFFFFFFFFFFFFFFFFFF00
:10C80000384E002029060100A790010015060100FE
:10C8100015060100150601001506010015060100A8
:10C8200000000000000000000000000031080100CE
:10C8300091CC0000000000009907010015060100DE
:10C84000B10A0100B10A0100B10A0100B10A0100F8
:10C85000B10A0100B10A0100B10A0100B10A0100E8
:10C86000B10A0100B10A0100B10A0100B10A0100D8
:10C87000B10A0100B10A0100B10A0100B10A0100C8
:10CC7000B10A0100B10A0100B10A0100FFFFFFFF84
:10CC80004A4C494E4B4D4F4E48414E444C45520044
:10CC900000B50CF0FCF95DF804EB134B02E05868AA
:10CCA0000003FCD4586840F40020586000B50CF034
:10CCB000EFF95DF804EB0C4B5868000DF6D21868DC
:10CCC000010A0006000E002812D0022818D002D354
:10CCD000032814D0E6E7586820F40020586000B517
:10CCE0000CF0D4F900BD00BFF8ED00E088ED00E0E5
:10CCF00064201860586840F400205860CFE77DE059
:10CD00005FEADE022CBFEFF30982EFF30882042909
:10CD100002D252F821006BE0052901D2204667E0DB
:10CD2000062901D2284663E0072901D230465FE098
:10CD3000082901D238465BE0092901D2404657E074
:10CD40000A2901D2484653E00B2901D250464FE050
:10CD50000C2901D258464BE00E2901D2106947E058
:10CD60000F2901D2506943E0102901D290693FE0B8
:10CD7000112901D2D0693BE012290ED2EFF30880CD
:10CD80005FEADE0131D25FEA5E112CBF20306830ED
:10CD9000D169490928BF04302AE0132905D2EFF3ED
:10CDA00009805FEADE0120D3EDE714291CD20020C0
:10CDB000EFF310821043EFF3118212021043EFF3EE
:10CDC000138212041043EFF314825FEADE0128BFDE
:10CDD00042F002025FEA5E112CBF22F0040242F030
:10CDE00004021206104303E000E001E00020FFE728
:10CDF0001860586840F40020586050E7586840F4C4
:10CE00000020586058680003FCD418685FEADE020E
:10CE10002CBFEFF30982EFF30882042902D242F813
:10CE2000210061E0052901D204465DE0062901D216
:10CE3000054659E0072901D2064655E0082901D2E6
:10CE4000074651E0092901D280464DE00A2901D266
:10CE5000814649E00B2901D2824645E00C2901D2E6
:10CE6000834641E00E2901D210613DE00F2901D235
:10CE7000506139E0102901D2906135E0112901D2C9
:10CE8000D06131E0122900D22EE0132900D22BE02C
:10CE9000142927D20106090E81F310880104090E16
:10CEA00081F311880102090E81F31388010E8808AD
:10CEB0002CBF4EF0040E2EF0040E21F00201C80823
:10CEC0002CBF2EF0100E4EF0100EEFF31480C008A1
:10CED0002CBF41F0040121F0040181F31488BFF359
:10CEE0006F8F01E0FFE7FFE7DCE600BF81F0004164
:10CEF00002E000BF83F0004330B54FEA41044FEA3F
:10CF0000430594EA050F08BF90EA020F1FBF54EAD9
:10CF1000000C55EA020C7FEA645C7FEA655C00F075
:10CF2000E2804FEA5454D4EB5555B8BF6D420CDD46
:10CF30002C4480EA020281EA030382EA000083EAC9
:10CF4000010180EA020281EA0303362D88BF30BD69
:10CF500011F0004F4FEA01314FF4801C4CEA1131BF
:10CF600002D0404261EB410113F0004F4FEA03331E
:10CF70004CEA133302D0524263EB430394EA050FA9
:10CF800000F0A780A4F10104D5F1200E0DDB02FA18
:10CF90000EFC22FA05F2801841F1000103FA0EF2AC
:10CFA000801843FA05F359410EE0A5F120050EF172
:10CFB000200E012A03FA0EFC28BF4CF0020C43FAA3
:10CFC00005F3C01851EBE37101F0004507D54FF0B0
:10CFD000000EDCF1000C7EEB00006EEB0101B1F500
:10CFE000801F1BD3B1F5001F0CD349085FEA300046
:10CFF0004FEA3C0C04F101044FEA445212F5800F51
:10D0000080F09A80BCF1004F08BF5FEA500C50F1ED
:10D01000000041EB045141EA050130BD5FEA4C0CD0
:10D02000404141EB0101013C28BFB1F5801FE9D22D
:10D0300091F0000F04BF01460020B1FA81F308BF50
:10D040002033A3F10B03B3F120020CDA0C3208DD1C
:10D0500002F1140CC2F10C0201FA0CF021FA02F1F7
:10D060000CE002F11402D8BFC2F1200C01FA02F167
:10D0700020FA0CFCDCBF41EA0C019040E41AA2BF8C
:10D0800001EB0451294330BD6FEA04041F3C1CDA54
:10D090000C340EDC04F11404C4F1200220FA04F074
:10D0A00001FA02F340EA030021FA04F345EA03011E
:10D0B00030BDC4F10C04C4F1200220FA02F001FAE0
:10D0C00004F340EA0300294630BD21FA04F0294662
:10D0D00030BD94F0000F83F4801306BF81F48011FB
:10D0E0000134013D4EE77FEA645C18BF7FEA655C6E
:10D0F00029D094EA050F08BF90EA020F05D054EA40
:10D10000000C04BF1946104630BD91EA030F1EBF44
:10D110000021002030BD5FEA545C05D14000494148
:10D1200028BF41F0004130BD14F580043CBF01F53B
:10D13000801130BD01F0004545F0FE4141F4700121
:10D140004FF0000030BD7FEA645C1ABF19461046FC
:10D150007FEA655C1CBF0B46024650EA013406BFFD
:10D1600052EA033591EA030F41F4002130BD00BFBC
:10D1700090F0000F04BF0021704730B54FF4806479
:10D1800004F132044FF000054FF0000150E700BFFA
:10D1900090F0000F04BF0021704730B54FF4806459
:10D1A00004F1320410F0004548BF40424FF0000146
:10D1B0003EE700BF42004FEAE2014FEA31014FEA89
:10D1C00002701FBF12F07F4393F07F4F81F06051D8
:10D1D000704732F07F4208BF704793F07F4F04BF23
:10D1E00041F40021704730B54FF4607401F0004500
:10D1F00021F000411CE700BF50EA010208BF704760
:10D2000030B54FF000050AE050EA010208BF704750
:10D2100030B511F0004502D5404261EB41014FF4B9
:10D22000806404F132045FEA915C3FF4D8AE4FF0C1
:10D2300003025FEADC0C18BF03325FEADC0C18BFA4
:10D24000033202EBDC02C2F1200300FA03FC20FAF5
:10D2500002F001FA03FE40EA0E0021FA02F1144442
:10D26000BDE600BF70B54FF0FF0C4CF4E06C1CEA5B
:10D2700011541DBF1CEA135594EA0C0F95EA0C0FCC
:10D2800000F0DEF82C4481EA030621EA4C5123EA3F
:10D290004C5350EA013518BF52EA033541F480116E
:10D2A00043F4801338D0A0FB02CE4FF00005E1FB21
:10D2B00002E506F00042E0FB03E54FF00006E1FB6B
:10D2C00003569CF0000F18BF4EF0010EA4F1FF04AE
:10D2D000B6F5007F64F5407404D25FEA4E0E6D41EE
:10D2E00046EB060642EAC62141EA55514FEAC520FF
:10D2F00040EA5E504FEACE2EB4F1FD0C88BFBCF57B
:10D30000E06F1ED8BEF1004F08BF5FEA500E50F12B
:10D31000000041EB045170BD06F0004646EA0101F1
:10D3200040EA020081EA0301B4EB5C04C2BFD4EB23
:10D330000C0541EA045170BD41F480114FF0000E1C
:10D34000013C00F3AB8014F1360FDEBF002001F08A
:10D35000004170BDC4F10004203C35DA0C341BDC04
:10D3600004F11404C4F1200500FA05F320FA04F0D6
:10D3700001FA05F240EA020001F0004221F000410A
:10D3800010EBD37021FA04F642EB06015EEA430E7D
:10D3900008BF20EAD37070BDC4F10C04C4F12005AD
:10D3A00000FA04F320FA05F001FA04F240EA020060
:10D3B00001F0004110EBD37041F100015EEA430E31
:10D3C00008BF20EAD37070BDC4F1200500FA05F251
:10D3D0004EEA020E20FA04F301FA05F243EA0203D0
:10D3E00021FA04F001F0004121FA04F220EA0200DF
:10D3F00000EBD3705EEA430E08BF20EAD37070BD25
:10D4000094F0000F0FD101F00046400041EB010104
:10D4100011F4801F08BF013CF7D041EA060195F0E6
:10D42000000F18BF704703F00046520043EB0303A0
:10D4300013F4801F08BF013DF7D043EA060370478D
:10D4400094EA0C0F0CEA135518BF95EA0C0F0CD098
:10D4500050EA410618BF52EA4306D1D181EA0301DE
:10D4600001F000414FF0000070BD50EA410606BFD8
:10D470001046194652EA430619D094EA0C0F02D11D
:10D4800050EA013613D195EA0C0F05D152EA033662
:10D490001CBF104619460AD181EA030101F0004180
:10D4A00041F0FE4141F470014FF0000070BD41F0C9
:10D4B000FE4141F4780170BD70B54FF0FF0C4CF4A3
:10D4C000E06C1CEA11541DBF1CEA135594EA0C0FC2
:10D4D00095EA0C0F00F0A7F8A4EB050481EA030E0F
:10D4E00052EA03354FEA013100F088804FEA0333F6
:10D4F0004FF0805545EA131343EA12634FEA0222C4
:10D5000045EA111545EA10654FEA00260EF0004184
:10D510009D4208BF964244F1FD0404F5407402D2D6
:10D520005B084FEA3202B61A65EB03055B084FEA67
:10D5300032024FF480104FF4002CB6EB020E75EB64
:10D54000030E22BFB61A754640EA0C005B084FEA8C
:10D550003202B6EB020E75EB030E22BFB61A754609
:10D5600040EA5C005B084FEA3202B6EB020E75EB54
:10D57000030E22BFB61A754640EA9C005B084FEACC
:10D580003202B6EB020E75EB030E22BFB61A7546D9
:10D5900040EADC0055EA060E18D04FEA051545EAC8
:10D5A00016754FEA06164FEAC30343EA52734FEA71
:10D5B000C2025FEA1C1CC0D111F4801F0BD141EAEA
:10D5C00000014FF000004FF0004CB6E711F4801F4F
:10D5D00004BF01430020B4F1FD0C88BFBCF5E06F2F
:10D5E0003FF6AFAEB5EB030C04BFB6EB020C5FEA3F
:10D5F000500C50F1000041EB045170BD0EF0004E94
:10D600004EEA113114EB5C04C2BFD4EB0C0541EAC5
:10D61000045170BD41F480114FF0000E013C90E6C2
:10D6200045EA060E8DE60CEA135594EA0C0F08BF86
:10D6300095EA0C0F3FF43BAF94EA0C0F0AD150EA85
:10D6400001347FF434AF95EA0C0F7FF425AF104618
:10D6500019462CE795EA0C0F06D152EA03353FF440
:10D66000FDAE1046194622E750EA410618BF52EABD
:10D6700043067FF4C5AE50EA41047FF40DAF52EA91
:10D6800043057FF4EBAE12E74FF0FF3C06E000BF2E
:10D690004FF0010C02E000BF4FF0010C4DF804CD3B
:10D6A0004FEA410C7FEA6C5C4FEA430C18BF7FEAFB
:10D6B0006C5C1BD001B050EA410C0CBF52EA430C29
:10D6C00091EA030F02BF90EA020F0020704710F1A9
:10D6D000000F91EA030F58BF994208BF90422CBF38
:10D6E000D8176FEAE37040F0010070474FEA410C31
:10D6F0007FEA6C5C02D150EA013C07D14FEA430C4F
:10D700007FEA6C5CD6D152EA033CD3D05DF8040BBF
:10D71000704700BF8446104662468C4619466346F1
:10D7200000E000BF01B5FFF7B7FF002848BF10F1C8
:10D73000000F01BD4DF808EDFFF7F4FF0CBF01200D
:10D7400000205DF808FB00BF4DF808EDFFF7EAFF89
:10D7500034BF012000205DF808FB00BF4DF808ED44
:10D76000FFF7E0FF94BF012000205DF808FB00BF39
:10D770004DF808EDFFF7CEFF94BF012000205DF8C3
:10D7800008FB00BF4DF808EDFFF7C4FF34BF0120D0
:10D7900000205DF808FB00BF4FEA410C7FEA6C5C9B
:10D7A00002D150EA013C0AD14FEA430C7FEA6C5C9B
:10D7B00002D152EA033C02D14FF0000070474FF013
:10D7C000010070474FEA410212F5001215D211D53F
:10D7D0006FF47873B3EB625212D94FEAC12343F06E
:10D7E000004343EA505311F0004F23FA02F018BFF0
:10D7F000404270474FF00000704750EA013005D1B9
:10D8000011F0004008BF6FF0004070474FF000007B
:10D81000704700BF53B94AB9002908BF00281CBF90
:10D820004FF0FF314FF0FF3000F00CB8ADF1080CB5
:10D830006DE904CE00F008F8DDF804E0DDE902232C
:10D8400004B07047704700BF2DE9F04786468C460C
:10D850000846089E154674461946002B40F0C180C4
:10D860008542B2FA82F245D94AB1C2F1200300FAE8
:10D8700002FC954094402EFA03F343EA0C0C4FEA65
:10D88000154EA8B2230CBCFBFEF80EFB18CC08FB0F
:10D8900000F943EA0C43994528D9EB1808F1FF3702
:10D8A00004D2994502D9A8F102072B44A3EB09033E
:10D8B000A4B2B3FBFEFC0EFB1C330CFB00F044EAED
:10D8C0000344A04214D92C190CF1FF3304D2A04216
:10D8D00002D9ACF102032C44241A43EA07401EB1DA
:10D8E000D440002334607360BDE8F0874746DDE72D
:10D8F0006346F1E792BB431B01214FEA154EAFB2DD
:10D90000200CB3FBFEFC0EFB1C330CFB07F840EABB
:10D910000343984561D9EB180CF1FF3004D29845C8
:10D9200002D9ACF102002B44A3EB0803A4B2B3FB71
:10D93000FEFC0EFB1C330CFB07F744EA0344A74232
:10D940004DD92C190CF1FF3304D2A74202D9ACF106
:10D9500002032C44E41B43EA0040C0E7C2F1200369
:10D960009540944020FA03F12EFA03F34FEA154E46
:10D970009040AFB20343B1FBFEFC0EFB1C10190C30
:10D980000CFB07F841EA0041884522D969180CF1DF
:10D99000FF3004D2884502D9ACF102002944A1EB42
:10D9A00008019BB2B1FBFEFC0EFB1C110CFB07F740
:10D9B00043EA01439F420ED9EB180CF1FF3104D228
:10D9C0009F4202D9ACF102012B44DB1B41EA00412A
:10D9D00093E76046E3E76146F7E76046A4E76346FE
:10D9E000B8E7834206D916B9002108467CE7C6E9A4
:10D9F00000E0F9E7B3FA83F78FB9834201D37245A8
:10DA000008D8BEEB020460EB030301209C461EB95C
:10DA1000002169E73846FAE7C6E9004CF8E7C7F1A4
:10DA2000200CBB400EFA07F522FA0CF42EFA0CF18A
:10DA3000BA401C4320FA0CF3B8404FEA14490143A2
:10DA40001FFA84FEB3FBF9F809FB18300B0C08FB36
:10DA50000EFA43EA00439A4540D9E31808F1FF3033
:10DA600004D29A4502D9A8F102002344A3EB0A0389
:10DA700089B2B3FBF9F809FB183308FB0EFE41EA43
:10DA800003418E452CD9611808F1FF3304D28E452D
:10DA900002D9A8F10203214443EA0040A1EB0E01A0
:10DAA000A0FB02984145CE46434602D306D14D45E0
:10DAB00004D20138B9EB020E68EB0403002EA7D0A4
:10DAC000B5EB0E0261EB030101FA0CFC22FA07F33D
:10DAD000F9404CEA0303C6E9003199E74046C5E73F
:10DAE0004346D9E7034613F8012B002AFBD1181A45
:10DAF000013870470000000030B589B00C9D002847
:10DB000039D00446002943D0D0F8100110F0010F9D
:10DB10004BD10020C4F8F800C4F8FC0004F5807074
:10DB2000C4F80001C4F8040104F58470C4F80801C5
:10DB3000C4F80C01002D45D02879002844D10120DB
:10DB4000C4F810019FED227B8DED067B0020049030
:10DB500003930290019000941F4B204606F050FF63
:10DB600025B1296811B1204606F0E0FD20460CF0F1
:10DB700045FD09B030BD194C4FF4337322461849A6
:10DB800018480BF017FA4FF4337120460BF00BFADC
:10DB9000124C40F2CD232246134912480BF00AFAE8
:10DBA00040F2CD2120460BF0FEF90C4C40F2CE2382
:10DBB00022460E490B480BF0FDF940F2CE212046DB
:10DBC0000BF0F1F90120BBE740F20110B8E700BF0C
:10DBD000FFFFFFFFFFFFFFFF416F0100D8E50100DE
:10DBE00064E601009CBB01006CE6010074E60100E4
:10DBF0002DE9F04F476A97B08346209E08910C921A
:10DC0000129355EC104B8DED000B7FB9102009F0ED
:10DC10002FFB0246CBF8240020B9A74BEA21A748E6
:10DC200009F0F6FAC0E901770760C760DBF8243035
:10DC3000196859B15A680123584693404A608B606D
:10DC40000AF0DEFADBF8243000221A602B1EB7BF80
:10DC500023F00043002301220193A8BF3360019FFA
:10DC6000974BB8BF3260BB4319D142F20F73129A7F
:10DC70001360C7F31303234300F0DB85219B53B9E3
:10DC8000904B21E0904B03930833219A1360039843
:10DC900017B0BDE8F08F8B4B03930333F5E79DED91
:10DCA000007B0022002351EC170B8DED0A7BFFF760
:10DCB00041FD804650B10123129A1360219B13B19C
:10DCC000824B219A1360824B0393E0E7C7F30A5615
:10DCD00014AA15A958469DED0A0B0AF019FD0290E9
:10DCE000002E76D00B9BA6F2FF36CDF84C80C3F306
:10DCF000130343F07F53DDE90A0143F4401319464F
:10DD00000022744BFFF7F6F865A3D3E90023FFF771
:10DD1000A9FA65A3D3E90023FFF7EEF804460D4600
:10DD20003046FFF735FA62A3D3E90023FFF79AFAEA
:10DD300002460B4620462946FFF7DEF804460D460C
:10DD4000FFF740FD00220746002320462946FFF743
:10DD5000FBFC40B13846FFF71BFA22462B46FFF783
:10DD6000E9FC00B9013F162F52D85B4B03EBC70308
:10DD7000DDE90A01D3E90023FFF7E6FC002849D0DA
:10DD8000013F00231193149B9B1B5A1E4CBFC3F1F0
:10DD900001030023079245BF0693002306930793D0
:10DDA000002F39DB079B10973B440793002309930F
:10DDB000089B092B66D8052BC5BF043B0024012412
:10DDC0000893089B023B032B67D8DFE803F02D3A4A
:10DDD0003859DDE914631E4406F23243202BC9BFD3
:10DDE000C3F14003C3F120039F4006F21243D8BFA2
:10DDF00004FA03F006F1FF36C4BF24FA03F347EA3E
:10DE00000300FFF7B5F90122A1F1F873139276E749
:10DE10000123B7E71190B6E7069BDB1B06937B4215
:10DE2000099300231093C3E700230D930C9B002B51
:10DE300056DC012399461A4604930C920CE0012308
:10DE4000F3E700230D930C9BFB1803F101090493E6
:10DE50004B46012BB8BF0123DBF82400002104222C
:10DE600002F114059D423FD9416058460AF088F9F5
:10DE7000039000283BD1194B02464FF4D571CEE6F2
:10DE80000123DFE7012400230D9408934FF0FF33B3
:10DE90000022994604931223CFE701230D93F5E75F
:10DEA00061436F63A787D23FB3C8608B288AC63FA0
:10DEB000FB799F501344D33FA7E80100BEE801005F
:10DEC0000000F07FA3E801009AE8010077E8010074
:10DED00076E801000000F83F60BA010032E9010075
:10DEE0000C9B99460493B7E701315200B8E7DBF881
:10DEF0002430B9F10E0F039A1A606FD8002C6DD040
:10DF0000002F36DD07F00F02A04BF8054FEA27146B
:10DF100003EBC20393ED007B8DED0E7B17D59C4B7D
:10DF200004F00F044FF00308D3E90823DDE90A01E8
:10DF3000FFF7C2FACDE90001954D5CB9DDE90E238A
:10DF4000DDE90001FFF7B8FACDE900012BE04FF061
:10DF50000208F1E7E10709D508F10108DDE90E0142
:10DF6000D5E90023FFF77EF9CDE90E0164100835ED
:10DF7000E3E700F007817C42844B854D4FF00208B7
:10DF800004F00F02241103EBC203DDE90A01D3E917
:10DF90000023FFF767F90023CDE90001002C40F0D2
:10DFA000E580002BD0D1119BDDE90045002B00F06E
:10DFB0004C810022774B20462946FFF7C5FB0028FD
:10DFC00000F04381B9F1000F00F03F81049B002B6A
:10DFD00000F3E480DDE90A34CDE90034159B002B21
:10DFE00002DB0E2F40F342820D9A002A40F0678236
:10DFF000099C0025DDF81880B8F1000F0DD0079BB3
:10E00000002B0ADD4345069AA8BF4346D21AA8EB67
:10E0100003080692079AD31A0793099B0BB30D9B2B
:10E02000002B00F0A682002C00F0A1822946224697
:10E0300058460AF00FFA029A0146054658460AF079
:10E040005FF90299064658460AF0DAF8099B1B1B4D
:10E05000099300F09182099A314658460AF0FAF97C
:10E060000290012158460AF035F9109B0446002B16
:10E0700000F084821A46014658460AF0EBF9089BE4
:10E080000446012B03DC009B002B00F07C82002661
:10E09000236904EB830318690CF06DFFC0F12000C5
:10E0A0001096079B184410F01F0000F09182C0F1F9
:10E0B0002003042B40F38182C0F11C00069B034423
:10E0C00080440693079B03440793069B002B05DDC2
:10E0D0001A46029958460AF017FA0290079B002B3D
:10E0E00005DD21461A4658460AF00EFA0446119BF1
:10E0F000002B00F07682214602980CF08BFF00285E
:10E1000080F26F8200230A22029958460AF09AF898
:10E110000D9B7E1E0290002B00F05C82002329469E
:10E120000A2258460AF08EF8049B0546002B03DCB1
:10E13000089B022B00F35E82B8F1000F05DD294633
:10E14000424658460AF0E0F90546109B002B00F0C5
:10E15000D082696858460AF013F80746002840F054
:10E160007F820D4B024640F2EA2158E5E20706D5D0
:10E1700008F10108D5E90023FFF774F801236410C2
:10E1800008350BE74FF002080DE700BF60BA010049
:10E1900038BA01000000F03F32E9010020460022B9
:10E1A000AC4B2946FFF75EF87E1E08F10108049C7F
:10E1B000CDE900014046FEF7EBFFDDE90023FFF764
:10E1C00051F8A54B0022FEF797FEA1F15073CDE95F
:10E1D0000E010F93002C3BD10022A04BDDE9000182
:10E1E000FEF788FE02460B46CDE90023DDE90E234B
:10E1F000FFF7C8FA002840F05781DDE90E2101F150
:10E200000043DDE90001FFF79FFA00283FF4E2AE8A
:10E21000002425460C9BDDF80CA0DE434FF00008DF
:10E220002146584609F0ECFF002D00F0A980B8F116
:10E23000000F05D0A84503D04146584609F0E0FF3D
:10E240002946584609F0DCFF9AE03E464C46B1E7C5
:10E25000834B03EBC40353E90201039B1C440D9B56
:10E26000002B4AD002460B4600207E49FFF724F9D6
:10E27000DDE90E23FEF73EFEDDF80CA0CDE90E0130
:10E28000DDE90001FFF79EFA0546FEF781FF024631
:10E2900030350B46DDE90001FEF72CFE0AF8015B84
:10E2A00002460B46CDE90001DDE90E01FFF76AFAEF
:10E2B000002865D100206C49DDE90023FEF71AFE35
:10E2C00002460B46DDE90E01FFF75CFA002840F03C
:10E2D0000D81A24500F0EA8000225E4BDDE90E01CF
:10E2E000FEF7C0FF00225B4BCDE90E01DDE9000126
:10E2F000FEF7B8FFCDE90001C2E7DDE90E23FEF726
:10E30000B1FFA046DDF80CA0CDE90E01DDE900016A
:10E31000FFF758FA0546FEF73BFF024630350B463D
:10E32000DDE90001FEF7E6FD0AF8015B02460B4657
:10E33000A245CDE900234FF0000223D1494BDDE98E
:10E340000E01FEF7D9FD02460B46DDE90001FFF79D
:10E3500019FA002840F0CA8000204249DDE90E2366
:10E36000FEF7C8FD02460B46DDE90001FFF7ECF9B8
:10E3700070B1C24608F1FF381AF8013C302BF8D0D2
:10E38000374655E0334BFEF76DFFCDE90001BDE7A1
:10E39000DDE90A34CDE90034159B002BFFF628AEE9
:10E3A0000E2F3FF725AE2E4B03EBC70393ED007BFB
:10E3B0000C9B002B8DED047B02DAB9F1000F64D0C9
:10E3C000DDF80CA0DDE90045DDE9042320462946FF
:10E3D000FFF772F8FFF7F6F90646FEF7D9FEDDE91A
:10E3E0000423FEF73FFF0246204606F130040B46A9
:10E3F0002946FEF77FFD0AF8014B039C02460B46B7
:10E40000AAEB0404A14540F08280FEF775FD0446A6
:10E410000D46DDE90423FFF7B5F9002865D1204654
:10E420002946DDE90423FFF785F908B1F3075CD439
:10E430000299584609F0E4FE002301378AF80030BB
:10E44000129B1F60219B002B3FF421ACC3F800A05E
:10E450001DE400BF0000244000001C4000001440E8
:10E4600060BA01000000E03F0000F03FA24B03EB68
:10E47000C70393ED007B0C9B002B8DED047B9FDA93
:10E48000B9F1000F9CDC7FF4C3AE00229B4BDDE9A9
:10E490000401FEF7E7FEDDE90023FFF769F9044612
:10E4A00000287FF4B5AE3E462546B4E0DDE90A34E7
:10E4B000CDE90034159B002B01DB0E2FD6DD089A29
:10E4C000012A36DC139A82B303F23343099CDDF848
:10E4D0001880069A012158461A440692079A1A444F
:10E4E000079209F0F7FE054686E53E4653469A46F2
:10E4F00013F8012D392A06D1039A9A42F7D1302216
:10E50000039901360A701A7801321A7038E700222E
:10E510007B4BFEF7A7FE0022002304460D46FFF7C3
:10E5200009F900283FF450AF82E7149BC3F136038A
:10E53000CCE709F1FF34099BA34208DBB9F1000FD6
:10E54000A3EB04040EDBDDF818804B46C1E7099B02
:10E55000109AE31A0994DDF8188000241A444B46F7
:10E560001092B6E7069BA3EB09080023B1E7029ED1
:10E5700071E5099A029970E5029672E5089B012BF4
:10E5800017DC009BABB9019BC3F313039BB9019B41
:10E5900023F00046360D360536B1069B01260133C1
:10E5A0000693079B01330793109B002B7FF470ADFC
:10E5B0001096012075E50026F6E73FF486AD1C3382
:10E5C000069A1A4498440692079A1A4407927CE5E0
:10E5D0000346F4E7049B002B2BDC089B022B09DC91
:10E5E00027E0B9F1000F1DDC089B022B1ADD3E4627
:10E5F000CDF81090049B002B7FF40CAE2146052231
:10E60000584609F01FFE0146044602980CF002FD30
:10E6100000287FF7FFADDDF80CA0312301360AF8A2
:10E62000013BFBE50D9B3E46CDF81090002B7FF49F
:10E6300083AD039F214602980CF013FB039B00F16E
:10E640003009049A07F8019BFB1A9A4240F3CB80E9
:10E6500000230A220299584609F0F4FD0290E9E7E6
:10E660002A6905F10C010C30023292000CF019F904
:10E6700001223946584609F047FF039BA846054644
:10E6800003F1010ADDE9032313440793009B03F020
:10E69000010309930AF1FF332146029804930CF019
:10E6A000E0FA4146069000F1300902980CF0B2FC05
:10E6B0002A4621460746584609F092FFC26801469D
:10E6C00002B3584609F09CFD002F3ADA0122029964
:10E6D000584609F019FF214602900CF09BFC0028D7
:10E6E00003DC29D119F0010F26D0B9F1390F1DD162
:10E6F00032E02846C1E700BF60BA010000001440C4
:10E70000000024400A9002980CF084FC0A990C90B6
:10E71000584609F075FD0C9A5ABB089B53B9099BE2
:10E7200043B9B9F1390F17D0002F05DD069B03F16E
:10E73000310901E0002F2ADADDF810A00AF8019B68
:10E740006EE5089B3B4304D1009B03F00103002BC3
:10E75000BCD0B9F1390F36D1049F392307F8013BFA
:10E76000BA46013F1AF8013C392B5AD001333B70AD
:10E7700056E5002F06DB089B3B4306D1009B03F0C8
:10E78000010313B9002AA1DCD6E7002AE1DC079BCC
:10E7900057460AF8019C53452ED000230A220299BD
:10E7A000584609F04FFDA84502904FF000034FF086
:10E7B0000A02414658460BD109F044FD8046054601
:10E7C0000AF1010A66E7DDF810A009F10109B5E7D1
:10E7D00009F038FD2946804600230A22584609F0F0
:10E7E00031FD0546ECE7049B4FF00008002BCCBF41
:10E7F0001F460127039B1F4401220299584609F036
:10E8000083FE214602900CF005FC0028A8DC02D112
:10E8100019F0010FA4D1BA4617F8013D302BFAD0F8
:10E82000FEE4039BBB429BD13123039A0136137054
:10E83000F6E4219B002B7FF425AA014BFFF744BA95
:10E840009AE8010010B543681A68012303FA01F140
:10E850000A4203D083685B69984710BD074C40F2B9
:10E860007D632246064907480AF0A4FB06480AF0E1
:10E87000A1FB40F27D6120460AF095FB28BB010018
:10E880005CBB01009CBB0100BCBB010010B5164B7A
:10E8900001221A700BF090FF0022431821D213447A
:10E8A000124CA4FB032C2CF0030202EB9C029B1ADB
:10E8B000C01A61F100014FF0CC3200FB02F204FB00
:10E8C0000122A0FB04042244400840EAC272084925
:10E8D000084809F0C1FF084B19791868FFF7B2FF23
:10E8E00010BD0122DBE700BFF0080020CDCCCCCC6E
:10E8F000D0BB0100D8BB01000000002070B58368C8
:10E90000456806699C69002C72D002F4C003B3F517
:10E91000C00F1DD063B302F0E863B3F1C86F37D006
:10E9200002F0C863B3F5800F42D02D6801238B40FD
:10E930001D424DD012F4000F04D035682B4201D097
:10E9400082F0C06202F0C06302F0B072A04770BDF6
:10E95000294C40F26F332246284929480AF02AFB05
:10E9600028480AF027FB40F26F3120460AF01BFBD3
:10E97000214C40F273332246234921480AF01AFB06
:10E9800022480AF017FB40F2733120460AF00BFBD5
:10E99000194C40F2763322461D4919480AF00AFB09
:10E9A0001C480AF007FB40F2763120460AF0FBFAD9
:10E9B000114C40F27D332246174911480AF0FAFA09
:10E9C00016480AF0F7FA40F27D3120460AF0EBFAD9
:10E9D000094C40F287332246114909480AF0EAFA05
:10E9E00010480AF0E7FA40F2873120460AF0DBFAD5
:10E9F0006FF05700ABE700BF28BB0100FCBB010074
:10EA00009CBB010040BC01006CBC010098BC010033
:10EA1000C4BC010048BD01009CBD0100E8BD01006F
:10EA20005CBB0100BCBB0100F8B58668476804699F
:10EA300012F0FC6F33D1134602F03002302A3ED080
:10EA4000504A1A40504DAA4249D003F00602042A07
:10EA500055D013F4402202D013F4003F5CD0B2F53D
:10EA6000402F69D013F4801F05D022B113F0010F9D
:10EA700001D083F4402323F480123D684FF0010C51
:10EA80000CFA01FC15EA0C0F66D013F0010F73D0DD
:10EA900023684CEA0303236033689847F8BD3B4C76
:10EAA0004FF4737322463A493A480AF083FA3A48D7
:10EAB0000AF080FA4FF4737120460AF074FA334C6E
:10EAC00040F2CF332246354932480AF073FA3448CF
:10EAD0000AF070FA40F2CF3120460AF064FA2B4C6B
:10EAE00040F2D33322462F492A480AF063FA2E48CF
:10EAF0000AF060FA40F2D33120460AF054FA234C6F
:10EB000040F2D6332246294922480AF053FA40F20D
:10EB1000D63120460AF047FA1C4C40F2D93322463F
:10EB200023491C480AF046FA22480AF043FA40F208
:10EB3000D93120460AF037FA144C40F2DD33224630
:10EB40001D4914480AF036FA1C480AF033FA40F21C
:10EB5000DD3120460AF027FA0C4C40F2E933224618
:10EB600017490C480AF026FA16480AF023FA40F230
:10EB7000E93120460AF017FA236823EA0C032360E0
:10EB80008AE700BF020003000200010028BB010069
:10EB900030BE01009CBB010090BE0100B4BE01006C
:10EBA000F0BE010030BF010078BF0100C8BF010006
:10EBB000FCBF010044C0010080C00100C4C00100CE
:10EBC0005CBB0100BCBB010038B541480BF0ECFC5C
:10EBD00000283ED04FF480313E4809F030FE044614
:10EBE00000283ED14FF0B86209213948FFF786FE70
:10EBF000044600283DD13849384B4B604FF4007330
:10EC00008B60334D284609F010FE092229683448EC
:10EC100009F022FE334B186818B10BF0C5FC002830
:10EC20002FD0304B1B6883B14FF400312D4809F0D1
:10EC300006FE014600282ED02A4C2268237912684D
:10EC4000294809F009FE00232360284809F004FE42
:10EC50002CE01F4B1968264809F0FEFD00242046D1
:10EC600038BD09231A4A12680146224809F0F4FD0A
:10EC7000F5E70923164A126801461F4809F0ECFD22
:10EC8000EDE7184D2B681A6821461C4809F0E4FD91
:10EC900000232B60C5E7134B19681A7909681848D7
:10ECA00009F0DAFDD1E7174B00221A70154B1B78DB
:10ECB000002BFBD01449154809F0CEFD01200AF0C5
:10ECC000C5FA01460028EED0114809F0C5FDEAE773
:10ECD00010B10100B4C20100000700208DE800005F
:10ECE0007CC1010000000020CCC101001CC2010059
:10ECF000F0C0010018C1010044C1010098C1010029
:10ED000000C20100F0080020D0BB010030C20100A9
:10ED100088C2010008B5024B1B68984708BD00BFB8
:10ED200008000020014B1860704700BF0800002059
:10ED300000B583B002460B4600210091024800F066
:10ED4000E5FE03B05DF804FB15ED0000F8B5B2F583
:10ED5000802F01D2042A2BD9B2F5802F38D3082373
:10ED6000D21ACC1D24F007040A4422F00702121B19
:10ED7000D108172A2ED90460A1600023E360B2F500
:10ED8000802F37D308200830A1EBD0030133B3FA2A
:10ED900083F3C3F1200CC3F124039B0003F1070E9E
:10EDA0004FEADE0606EBD000884225D8002338E083
:10EDB000414C4FF4F9732246404941480AF0FAF8B1
:10EDC00040480AF0F7F84FF4F97120460AF0EBF8E2
:10EDD0000423C5E7384C40F2FB1322463A49384831
:10EDE0000AF0E8F837480AF0E5F840F2FB1120464F
:10EDF0000AF0D9F80420C6E72F4C4FF403732246DB
:10EE000032492F480AF0D6F82E480AF0D3F84FF4CA
:10EE1000037120460AF0C7F8181D002544F8205059
:10EE200001336345F8DB7300B2F5802F31D36360A3
:10EE3000B2F5802F2FD300232360B2F5802F2DD37E
:10EE4000636843F001036360881B47002EF00703EB
:10EE5000E518B2F5802F26D36F60A568B5F5004F91
:10EE600023D3E65022F007032244A568B5F5004FEE
:10EE70001DD300255560A268B2F5004F1AD3E050AB
:10EE80000122204609F000FD3146204609F06AFDC6
:10EE9000F8BD6380CCE700232380CEE7638843F08E
:10EEA00001036380D0E76F80D7E7E652DAE70025F9
:10EEB0005580E0E7E052E3E7BCC2010090C30100E7
:10EEC0009CBB0100B4C30100D0C30100FCC301001E
:10EED00010B504468C46838B002A12DB03F007032F
:10EEE0005A1F012A19D9042B50D1002109F063FDC2
:10EEF000204609F08AFD78B1A38B43F02003A38359
:10EF00000AE0D0E900018CE803000023236063607D
:10EF10000121204609F04FFD10BDD0E900018CE829
:10EF20000300002222606260062B0FD0052B20D147
:10EF30000021204609F03FFD204609F066FD00282B
:10EF4000EAD0A38B43F02003A383E5E7DCF800308D
:10EF500053B1E28B0132E2831A461B68002BF7D0D3
:10EF6000002AF5D11346F3E70221204609F023FDDC
:10EF7000E2E70D4C40F2091322460C490C480AF016
:10EF800019F840F2091120460AF00DF8064C40F23B
:10EF90001B132246074906480AF00CF840F21B11E1
:10EFA00020460AF000F800BF28C401004CC401004C
:10EFB0009CBB010040C001002DE9F04782B0838B6B
:10EFC000E1B10446154603F0070603F008020846BF
:10EFD00092B301291FD0022921D143F02003A3833A
:10EFE0001434204605F0D2FB002800F09F8185F301
:10EFF0001188BFF36F8F02B0BDE8F087BA4C40F2C2
:10F0000033132246B949BA4809F0D4FF40F233110C
:10F01000204609F0C8FF43F01003A383E0E7B24C99
:10F020004FF49E732246B349B14809F0C3FF4FF431
:10F030009E71204609F0B7FF00230093019358E02A
:10F04000204609F0E2FC56E0D4F818904A4669469A
:10F050002046FFF73DFF0027A38B03F00708B045CC
:10F0600000F00981A268002A00F00581012643F022
:10F070000803A38304F1140A504605F087FB002817
:10F0800000F0028185F31188BFF36F8F002E40F0EE
:10F090000C81009B2BB14B4642466946204609F045
:10F0A000F5FC17B194492046B8474FF02003EFF321
:10F0B000118583F31288BFF36F8F504605F056FB1E
:10F0C000002800F0F880504605F070FBA38B23F079
:10F0D0000803A383A38B13F0100F00F0FB8023F031
:10F0E0001003A3830120A68B06F0070600283FF437
:10F0F00077AF0228A4D000283FF472AF013804286B
:10F1000000F2AC8001A353F820F000BF49F00000EA
:10F110005DF2000021F1000089F10000F3F1000030
:10F120005EB92368B3B123691F6807B3062120467F
:10F1300009F041FC4FF000098EE76B4C4FF4AB73C4
:10F1400022466E496A4809F035FF4FF4AB712046FC
:10F1500009F029FF644C40F257132246684964487D
:10F1600009F028FF40F25711204609F01CFF5E4CC1
:10F170004FF4AD73224663495D4809F01BFF4FF41D
:10F18000AD71204609F00FFF022E0BD1E38BB3B90E
:10F1900023695F6807B30421204609F00CFC4FF097
:10F1A000000959E7504C40F25D1322465649504839
:10F1B00009F000FF40F25D11204609F0F4FE4A4CD0
:10F1C0004FF4AF7322465149494809F0F3FE4FF41A
:10F1D000AF71204609F0E7FE434C40F2611322462E
:10F1E0004849434809F0E6FE40F26111204609F023
:10F1F000DAFE012E0BD12368B3B123699F6807B3F0
:10F200000521204609F0D7FB4FF0000924E7364CD2
:10F210004FF4B27322463E49354809F0CBFE4FF415
:10F22000B271204609F0BFFE2F4C40F26513224612
:10F2300033492F4809F0BEFE40F26511204609F01F
:10F24000B2FE294C4FF4B47322462E49284809F0E7
:10F25000B1FE4FF4B471204609F0A5FE224C40F2F5
:10F260006B1322462B49224809F0A4FE40F26B1191
:10F27000204609F098FE009A0AB10026F7E6002F12
:10F280003FF428AF0026F2E6234C40F23113224629
:10F290002249174809F08EFE5146214809F08AFE9E
:10F2A00040F23111204609F07EFE4A464146204692
:10F2B00009F089FBEDE6184C8823224619490C48D1
:10F2C00009F078FE5146184809F074FE882120465E
:10F2D00009F069FE13F0200F04D023F02003A3836C
:10F2E000022000E70020FEE628C4010074C40100EB
:10F2F0009CBB010084C4010061F3000098C40100BC
:10F30000A4C40100C8C40100E0C40100F8C40100A5
:10F3100008C5010040C0010020C5010050C5010022
:10F3200068C5010080C5010098C50100084D40F284
:10F3300031132A460749084809F03CFE2146074890
:10F3400009F038FE40F23111284609F02CFE00BFCA
:10F3500020C5010050C501009CBB010068C501002B
:10F36000F8B504460D4600F114064FF02003EFF304
:10F37000118783F31288BFF36F8F304605F0F6F9DB
:10F3800048B1304605F012FAA5613A4601212046FF
:10F39000FFF712FEF8BD074C8823224606490748AE
:10F3A00009F008FE3146064809F004FE882120468F
:10F3B00009F0F9FD20C5010080C501009CBB0100DA
:10F3C00098C501002DE9F84F0446884609F036FB40
:10F3D000061E48DB04F114074FF02003EFF3118AF7
:10F3E00083F31288BFF36F8FD346384605F0BEF91A
:10F3F0008146A8B1384605F0D9F9A58B05F0070577
:10F40000E38B4FF6FF7293424BD02E46022D16D05F
:10F41000062D39D8DFE805F0314C3838312A310073
:10F420003B4C882322463B493B4809F0C3FD394603
:10F430003A4809F0BFFD8821204609F0B4FD0133A8
:10F44000E38300231A4642B10022C8F80020626814
:10F45000AAB3C2F80080C4F80480ABB352460221BC
:10F460002046FFF7A9FD3046BDE8F88F6FF085060E
:10F470004FF000094B464A46E5E7B5FA85F35B09CC
:10F480004A464FF00009DEE7254C4FF4E47322466C
:10F490002449214809F08EFD4FF4E471204609F01B
:10F4A00082FD6FF00A064FF000094B464A46CAE754
:10F4B0006FF004064FF000094B464A46C3E7C4F814
:10F4C0000480C4F80080C8E7384605F05FF968B1E9
:10F4D0008BF31188BFF36F8FB9F1000FC3D00023F6
:10F4E0002A464146204609F0BEFABCE7084C40F2E5
:10F4F000311322460C49084809F05CFD39460B4897
:10F5000009F058FD40F23111204609F04CFD00BFD2
:10F5100020C5010080C501009CBB010098C5010009
:10F5200028C4010008C5010050C5010068C50100DC
:10F5300010B50346426802F003028160022A11D02E
:10F54000032A0CD0012A10D00C4C452322460C492A
:10F550000C4809F02FFD4521204609F024FD0468E0
:10F56000002004E00068002401E00024204600227E
:10F570005A6008B107F07CFB204610BDB0C5010001
:10F5800040C001009CBB010084460268002006E0E8
:10F5900000EB8000013203EB4003A3F1300013784D
:10F5A0000349C95C11F0040FF2D1CCF80020704778
:10F5B00055E7010084460846012226E09CF8003009
:10F5C00043F004038CF80030F2B101301CE09CF8E9
:10F5D000003043F008038CF80030F5E79CF8003069
:10F5E00043F010038CF80030EEE79CF8003043F055
:10F5F00020038CF80030E7E79CF8003043F040032C
:10F600008CF80030E0E7002242B30378203B102B57
:10F61000F9D801A151F823F0DDF5000007F600004C
:10F6200007F60000EBF5000007F6000007F6000003
:10F6300007F6000007F6000007F6000007F60000D6
:10F6400007F60000CFF5000007F60000BDF500004A
:10F6500007F6000007F60000F9F500009CF80030FE
:10F6600003F04403442B00D070479CF800306FF344
:10F6700086138CF80030F7E72DE9F84F05460C4665
:10F68000934699460A9FD078254B13F800A00AF0BC
:10F69000030A09F03AFC064615E0BAF1010F20D042
:10F6A000D2B25732D2B207F8012D3246434628462D
:10F6B0002146FEF7AFF8B54274F1000415D34F456B
:10F6C00013D905460C464FF00008324643462846FB
:10F6D0002146FEF79FF8092ADFD8D2B23032D2B2E3
:10F6E000E1E7D2B23732D2B2DDE79BF8003013F057
:10F6F000200F03D0082E04D0102E09D03846BDE8C4
:10F70000F88F9BF8023043F008038BF80230F5E7DE
:10F710009BF8023043F010038BF80230EEE700BF95
:10F7200055E701002DE9F04F87B055EC104B074627
:10F730000E46994621462B1E06DB007810F0080F76
:10F7400012D02B20107001E02D20107097F803804C
:10F75000C3F30A54C3F313030491059354B951EA54
:10F76000030227D1002206E010F0100FEED0202077
:10F770001070EBE7002240F2FF7084421CD0B8F119
:10F78000460F5DD0DB0243EA5153C9020491059351
:10F7900023F000430593214343EAE473194307D060
:10F7A000002A51D1A4F2FE34059B43F00043059397
:10F7B00000256AE00122DEE70B4324D19D4B13F8BC
:10F7C000083003F00303012B11D0692389F80030BE
:10F7D0006E2389F8013009F10302662389F80230AB
:10F7E0003B786FF386133B70109B1A6078E14923D6
:10F7F00089F800304E2389F8013009F103024623CD
:10F8000089F80230ECE78B4B13F8083003F0030360
:10F81000012B0AD06E2389F80030612289F801207B
:10F8200009F1030289F80230DAE74E2389F8003043
:10F83000412289F8012009F1030289F80230CFE75B
:10F840004FF066089EE7013C049B059ADB18524185
:10F8500004930592002AF6DAA4E7059B049A52085D
:10F8600042EAC3725B080492059321460134B3F166
:10F87000333FF2D29C0044EA92749000801843EB2C
:10F880000403049005938C1C013D14F1020FE4DB8A
:10F8900014E0049B0233059A42F10002049305929E
:10F8A00004A809F0ECFA013C0135049A059B921872
:10F8B0005B4104920593013C002BF6DA002CE8DC56
:10F8C000C4F10401059A1C34A1F12000049BCB4033
:10F8D00002FA04F4234322FA00F00343CA400493DB
:10F8E0000592B8F1670F14D0B8F1470F11D04FF05F
:10F8F000000BB8F1660F2AD006F1010A102303931A
:10F900009A4500DD9A4600224FF00063CDE90023BE
:10F9100029E015F1030F01DBB54211DDA8F1020862
:10F920005FFA88F8002E00DD013E3B78C3F3401BF0
:10F9300013F0200F08D1002EDBDD4FF0010BD8E7CC
:10F94000761B4FF06608F0E74FF0000BD1E715EBA0
:10F95000060AD3D5102303934FF0000AD3E7684675
:10F9600009F0A9FAA2460AF1FF34BAF1000FF6D164
:10F97000049B009A9B18059A019942EB010204939B
:10F9800005924FF0FF3199426FF07043934106D3D7
:10F99000B8F1660F38D1002D31DD4C460BE004A8DC
:10F9A00009F089FA0135F3E703A904A809F08FFAF1
:10F9B00004F8010B013D002D02DD039B002BF3DC5D
:10F9C0007D6055463B7813F0200F01D1002E02DDFB
:10F9D0002E2304F8013B002D35DA002E33DD6B4277
:10F9E0007B609E4200DA7E607B68F61A002BD4BFF3
:10F9F00000230123BA7863F34512BA7023E04C4622
:10FA0000302304F8013BDDE703A904A809F05FFAFD
:10FA10004C4604F8010B302800D0013D3B7813F030
:10FA2000200F01D1002E0EDD09F102042E2389F8EA
:10FA3000013008E055E7010003A904A809F047FADE
:10FA400004F8010B013E002E02DD039B002BF3DCCA
:10FA5000BE60BBF1000F09D00023BB6023461C46EB
:10FA600013F8012D302AFAD02E2A3DD0B8F1650FB7
:10FA700002D0B8F1450F26D184F80080002D35DB87
:10FA8000A21C2B236370632D0CDD1E4981FB053105
:10FA9000EB17C3EB611303F1300102F8011B642182
:10FAA00001FB1355184981FB0531EB17C3EBA1038B
:10FAB00003F13001144604F8021B03EB8303A5EBAA
:10FAC0004303303353707B68002B14DD4FF0010A81
:10FAD000BB786AF38613BB70109B1C6000232370F5
:10FAE000484607B0BDE8F08F1C46BFE76D42A21C38
:10FAF0002D236370C7E7BB68002BE9DD4FF0010AD7
:10FB0000E6E700BF1F85EB51676666662DE9F04F9B
:10FB100095B006460D4690460393002498F80000E1
:10FB2000002800F04583252808D008F1010829465F
:10FB3000B0470028C0F23D830134EFE7002306936D
:10FB40000793089309930A930B930DF14D020592C5
:10FB50008DF81330414608A809F06FF981469DF8E9
:10FB6000213013F0010F00F09E80039B1A1D0392B9
:10FB70001F68002FC0F28F809DF8213013F0040F12
:10FB800000F0A380039B1A1D0392D3F800A0BAF1E2
:10FB9000000FC0F29180002309930A939DF8223050
:10FBA00003F00703042B00F099809DF8223003F046
:10FBB00007039DF82120C2F3C302012B00F09E80B1
:10FBC000022B00F0E380042B00F03481032B00F0C3
:10FBD0004B819DF8202012F0030F40F04B819DF8DF
:10FBE0002330253B532B00F2FC81DFE813F04F015B
:10FBF000FA01FA01FA01FA01FA01FA01FA01FA012D
:10FC0000FA01FA01FA01FA01FA01FA01FA01FA011C
:10FC1000FA01FA01FA01FA01FA01FA01FA01FA010C
:10FC2000FA01FA01FA01FC01FA01FA01FA01FC01F8
:10FC3000FC01FC01FA01FA01FA01FA01FA01FA01E8
:10FC4000FA01FA01FA01FA01FA01FA01FA01FA01DC
:10FC5000FA01FA01B101FA01FA01FA01FA01FA0115
:10FC6000FA01FA01FA01FC01FA019C01A501FC016B
:10FC7000FC01FC01FA01A501FA01FA01FA01FA01FD
:10FC8000F501B101DC01FA01FA015701FA01B101F4
:10FC9000FA01FA01B1019DF8203043F004038DF818
:10FCA00020307F4268E79DF92030002B02DB4FF0C7
:10FCB000FF3761E7099F5FE79DF821306FF341034C
:10FCC0008DF821304FF0FF3A65E713F0020F02D0B4
:10FCD000DDF828A05FE74FF0FF3A5CE79DF82130A0
:10FCE00013F0020F7FF461AF9DF92130002B02DB8E
:10FCF0004FF0060A59E74FF00D0A56E7D31E042BC2
:10FD000004D8DFE803F00B1D29353500039B191DCE
:10FD100003911B68D9170693079106E0039B191DF1
:10FD200003911B68D91706930791012A28D0022A4C
:10FD30007FF44FAFBDF91830DA170693079248E702
:10FD4000039B073323F0070303F108010391D3E971
:10FD50000001CDE90601E8E7039B073323F0070321
:10FD600003F108010391D3E90001CDE90601DCE7C5
:10FD7000039B191D03911B68D91706930791D4E7BC
:10FD80009DF91830DA170693079222E7D31E042B49
:10FD900004D8DFE803F00B1F35414100039B191D18
:10FDA00003911B680693002307931EE09DF8233000
:10FDB000632B07D0039B191D03911B680693002337
:10FDC000079312E0039B191D03911B680693002300
:10FDD00007930AE0039B073323F0070303F10801AD
:10FDE0000391D3E90001CDE90601012A1CD0022AC2
:10FDF0007FF4EFAEBDF81830069300230793E8E6D2
:10FE0000039B073323F0070303F108010391D3E9B0
:10FE10000001CDE90601E8E7039B191D03911B686A
:10FE2000069300230793E0E79DF81830069300231C
:10FE30000793CEE6082A0BD0039B073323F0070372
:10FE400003F108020392D3E90023CDE90623C0E6BB
:10FE5000039B073323F0070303F108020392D3E95E
:10FE60000023CDE90623B4E6039B1A1D03921B6809
:10FE70000693AEE64B4642462946304609F079F8ED
:10FE80000028C0F296810444C84647E6294625204A
:10FE9000B0470028C0F28D810134A2E0DDF818805F
:10FEA000BAF1000F3ADA4046FDF71CFE40440590D7
:10FEB000B8F1000F00F09580059BA3EB08039DF8B7
:10FEC000130000B101339DF8221011F0100F00F063
:10FED00097800233099A134411F0400F01D00A9A17
:10FEE0001344002F40F3A480FF1A9DF8203013F034
:10FEF000040F40F09D8013F0400F00F09280002826
:10FF000000F092802946B0470028C0F252810134A7
:10FF100000238DF813304FF0300A87E051464046F9
:10FF20000AF093FEC2E7069B8DF834300DF13503DD
:10FF300005930DF13408BFE712F0080F23D02B23EF
:10FF40008DF81330069A079B002B23DB069207934C
:10FF5000059B00930DAB08AADDE90601FFF78CFBBA
:10FF60008046BAF1000FA3DB059BA3EB08039DF8C5
:10FF700020206FF386128DF820209A4598D9AAEB9D
:10FF80000303099394E712F0100FDBD020238DF8C0
:10FF90001330D7E72D218DF81310524263EB430342
:10FFA00006920793D4E7069820B9834B0593A3F1F3
:10FFB000050881E7059B00930DAB08AA0021FFF718
:10FFC0005BFB80469DF8223043F010038DF8223011
:10FFD00078238DF82330C4E72246069908A808F054
:10FFE000A9FFC8469AE505AB00930DAB0DF11302CE
:10FFF000514608A89DED060BFFF794FB804657E796
:020000040001F9
:1000000011F0080F3FF466AF013363E701343B465C
:100010005F1E002B0CDD29465046B0470028F5DA5C
:10002000C7E04FF0200A01E04FF0300A3B46EFE70F
:100030009DF8130028B12946B0470028C0F2B980C6
:1000400001349DF8223013F0400F74D09DF9213017
:10005000002B0FDB98F80000584B1B5C13F0040FCB
:1000600015D008F101082946B0470028C0F2A18048
:100070000134EFE798F80000702845D008F1010836
:100080002946B0470028C0F294800134F2E7DDF839
:1000900024A09DF8223013F0200F12D098F8000011
:1000A0002E281DD098F80000444B1B5C13F0040F61
:1000B0002AD008F101082946B047002879DB01342D
:1000C000F0E70AF1FF3BBAF1000F07DD29463020C7
:1000D000B04700286DDB0134DA46F2E7DA46DDE7A7
:1000E00008F101082946B047002862DB01340AF113
:1000F000FF3BBAF1000FD5DD29463020B04700287C
:1001000057DB0134DA46F2E70A9B03F1FF3A002B92
:1001100007DD29463020B04700284ADB013453462A
:10012000F3E7059B42462946304608F022FF0028A7
:100130003FDB044432E09DF82230C3F30012C3F3E6
:10014000C0031A4305D029463020B047002830DBD1
:1001500001349DF8223013F0100F06D029469DF887
:100160002300B047002824DB0134099B03F1FF3A48
:10017000002B07DD29463020B047002819DB013469
:100180005346F3E7059B42462946304608F0F1FE08
:1001900000280EDB044401E00134013F002F05DD9F
:1001A00029462020B0470028F6DA02E0C846B5E428
:1001B000204615B0BDE8F08FD9C5010055E7010014
:1001C000014B036000207047DCC50100844600231A
:1001D00000E00133074A12689A4208DD1A01064915
:1001E000096801EB03108A5C6245F2D100E000204F
:1001F000704700BFDCC501000C00002038B50C4B77
:100200001B687BB10C46FFF7E1FF054668B1C0688B
:1002100028B10AF0C9F910B12560002038BD6FF08F
:100220001200FBE76FF00C00F8E76FF00100F5E754
:100230000C00002030BFFFF7FDBF00BF044B9968E2
:100240009869884203D003494FF080520A60704792
:100250008008002004ED00E038B51546204B9B6A6D
:1002600013F4805F19D116241D4B9B6A13F4006FA1
:1002700000D018241A4B9B6A13F4007F10D0184B3F
:100280009A6B9B6A13F4004F09D0D9B1144A936A50
:1002900023F400439362192402E01724E4E71924AD
:1002A0000F4B9B6A13F4806F00D01A240C4B9B6A8F
:1002B00013F4807F08D10A4B9B6A13F4005F04D0CB
:1002C0001C2402E01924EBE71B24054A936A43F43B
:1002D0007F439362012108F0ECFE2870204638BD70
:1002E00000ED00E01A4B9B6A13F0007F2BD11D201C
:1002F000174B9B6A13F0807F00D01F20144B9B6A22
:1003000013F4801F00D00220114B9B6A13F4002FBE
:1003100000D021200E4B9B6A13F4802F00D02220A6
:100320000B4B9B6A13F4003F00D02320084B9B6AC1
:1003300013F4803F09D1064A936A6FEA03436FEAD8
:100340001343936270471E20D2E72420F3E700BFD7
:1003500000ED00E081690D4B5A6942F480725A61E8
:10036000BFF34F8FBFF36F8F31F8021C5A6922F42D
:1003700080725A61BFF34F8FBFF36F8F4DF60273D8
:10038000994201D0002070470120704700ED00E045
:1003900038B51446324B9B6A13F0100F1AD1102552
:1003A0002F4B9B6A13F0080F00D012252C4B9B6A31
:1003B00013F0020F11D02A4B5A6B9B6A13F0800F77
:1003C0000AD0002938D0264A936A23F0800393622A
:1003D000132502E01125E3E71325214B9B6A13F057
:1003E000010F00D014251E4B9B6A13F0200F25D15E
:1003F0001B4B9B6A13F0100F04D1194B9B6A13F02F
:10040000020F04D0164B9B6A13F0100F18D1144B37
:100410009B6A13F0200F04D0114A536A23F400534F
:1004200053620F4A936A43F0FF039362012108F07D
:1004300040FE2070284638BD1325CEE71525D7E7A6
:10044000084C40F2631322460749084808F0B2FD01
:10045000074808F0AFFD40F26311204608F0A3FD05
:1004600000ED00E050C6010084C601009CBB010005
:10047000D0C6010038B5054600230B702A4BD86A58
:1004800010F002004DD10C46DB6A002B4ADB264BF4
:10049000DB6A13F0804F34D02846FFF75BFF08B1CA
:1004A00028683FE0204B9B6A13F0FF0F0DD11E4BD5
:1004B0009B6A13F47F4F0ED11B4B9B6AB3F5803FB1
:1004C0000FD32846FFF70EFF2CE0224601212846D5
:1004D000FFF75EFF26E0224601212846FFF7BCFE1B
:1004E00020E0124C40F22A3322461149114808F00C
:1004F00061FD114808F05EFD40F22A31204608F007
:1005000052FD0A4C40F22E3322460949094808F0B0
:1005100051FD0A4808F04EFD40F22E31204608F009
:1005200042FD002038BD00BF00ED00E050C60100D4
:1005300040C001009CBB010034C7010058C7010046
:1005400070B59CB00C46284B5968C1F308010023D4
:1005500083F31188BFF36F8F02F07F43B3F17F4FB6
:1005600016D102F00C03082B12D012F0080F0CD099
:1005700000266CB10DF16F02204608F09FFD054684
:100580009DF86F30A3B11CB070BD04460126F0E7A2
:10059000164C4FF48B6322461549164808F00AFDA5
:1005A000154808F007FD4FF48B61204608F0FBFC6E
:1005B0006822214601A80AF074F94EB1089BC3F3E2
:1005C00008025AB96FEA53236FEA4323089305E000
:1005D000089B23F4FF7323F00103089301A9284625
:1005E00008F057FDCFE700BF00ED00E050C6010066
:1005F00088C701009CBB01009CC70100044B5A69DD
:1006000042F010025A615A6942F480625A6170479E
:1006100000ED00E0EFF30880EFF3098101B57246C9
:10062000FFF78EFF01BD00BF0020154908700020B4
:1006300080F31488BFF36F8F002080F30A8880F363
:100640000B8800F043FE00200E490860BFF34F8F77
:100650000D4880F3088800F041F8202080F31188CD
:100660000A484FF40061401880F30988EFF31480C2
:100670000221084380F31488BFF36F8F00F058F90C
:10068000F208002094ED00E0384E0020F808002029
:10069000BFF34F8F0549CA6802F4E062044B13436D
:1006A000CB60BFF34F8F00BFFDE700BF00ED00E060
:1006B0000400FA05084BD3F89000C0F3072000238C
:1006C00006E0054AC2F898300021C2F8A0100133B4
:1006D0008342F6DB704700BF00ED00E010B572B654
:1006E000002484F31388FFF7E5FF234608E003F1B5
:1006F00020010E4A4FF0FF3042F821000133DBB2F7
:100700000F2BF4D9002308E003F16001074A4FF0F2
:10071000FF3042F821000133DBB20F2BF4D962B66F
:10072000BFF34F8FBFF36F8F10BD00BF00E100E03C
:1007300008B50A4B9B68834202D005F073FE08BDE2
:10074000EFF30583002BF8D0054B5A6842F0805236
:100750005A605A6A22F400425A62EEE7800800208A
:1007600000ED00E00A4A9368C3F8AC006FF00A019C
:10077000C3F8B01007494B6843F080534B60002327
:1007800083F31188BFF36F8F9368D3F8B00070477D
:100790008008002000ED00E023498A6882F8F5E037
:1007A0004FF030001044EFF3098C80E8F01F1EF08A
:1007B000100F03D102F1B40080EC108A202080F3E6
:1007C0001288BFF36F8F194F4FF000668A698A60F5
:1007D0003E6092F9F5E0D2F8AC000023C2F8AC30EC
:1007E00080F311881EF0100F03D00023E1EE103AC1
:1007F00003E002F1B40090EC108AEFF3148323F0CD
:10080000040383F31488BFF36F8F02F1300090E884
:10081000F01F8CF3098802F1000004B508F08DFC8C
:10082000BDE80440704700008008002004ED00E0AF
:100830001EF0040F0CBFEFF30880EFF3098081690D
:1008400011F8021C0229FFD001B508F026FC01BDF9
:10085000002807DB00F01F02400901239340024AF1
:1008600042F82030704700BF00E100E0002808DBBC
:100870004901C9B200F1604000F5614080F8001301
:10088000704700F00F004901C9B2014B195470477D
:1008900014ED00E04209054B53F8222000F01F0040
:1008A000012303FA00F01040704700BF00E100E0B0
:1008B00070B505460C460131072903D800B2FFF791
:1008C000D5FF70BD084E582332460849084808F045
:1008D00071FB07232A462146064808F06BFB582186
:1008E000304608F060FB00BFDCC7010014C80100FF
:1008F0009CBB010030C801000C4BD3F8882022F4C7
:100900007002C3F88820D3F8882042F4A002C3F80C
:10091000882003F500734FF040425A63BFF34F8FB6
:10092000BFF36F8F0023E1EE103A704700ED00E057
:1009300008B5094B23F07F03084A9360BFF34F8F3C
:10094000BFF36F8FFFF7D8FF03F03EFE05F06EFE9A
:1009500000F094F803F0A0FE00C8000000ED00E0F5
:1009600010B4A2F12004114942F8081C21F0010141
:1009700042F8081C42F8203C019B42F81C3C029BB8
:1009800042F8183C039B42F8143C4FF0807342F845
:10099000043C04650023C0F8AC30C0F8F430FD23FB
:1009A00080F8F5305DF8044B704700BF7588010092
:1009B000134B9B6883421CD1EFF30583E3B94FF0DF
:1009C0002003EFF3118283F31288BFF36F8F037B51
:1009D00023F002030373EFF3148323F0040383F380
:1009E0001488BFF36F8F82F31188BFF36F8F0020DD
:1009F00070476FF0150070476FF01500704700BF2B
:100A00008008002008B504460E46154608F087FB0E
:100A1000094B9C60D4F89C3083F30B88284686F3FE
:100A20000988002163B681F31188BFF36F8F00221C
:100A3000002307F01FFF00BF80080020014910229B
:100A40000A60704710ED00E072B6404080F31188F4
:100A5000BFF36F8FBFF34F8F30BF62B6BFF36F8F9F
:100A6000704700BF72B6494081F31188BFF34F8FC2
:100A700020BF80F3118862B6704700BF002206E0F5
:100A800003F00F030949194420230B760132B2F514
:100A9000877F0ADC13B2002BF2DB03F1604303F51E
:100AA0006143202183F80013F0E77047FCEC00E07D
:100AB00001B5EFF30580A0F110004FEAC000044932
:100AC000014409C99847BDE80140024908470000B0
:100AD00060B101003D02010010B584B00A4C23460C
:100AE0000A4A01210A4800F003FA00230193029305
:100AF0000393084B0193E41A0294012101A800F02A
:100B000019FA04B010BD00BF00000420000000204E
:100B100070C80100D0030020024B034AC3F8C02074
:100B2000704700BF00ED00E0AAFF4400034BC3F88C
:100B30009800C3F89C10C3F8A020704700ED00E0B7
:100B40000E4BC3F89800C3F89800D3F89C000A7ABB
:100B500060F304020A72D3F8A020C2F34202087ABA
:100B600062F347100872D3F89C2022F01F020A603B
:100B7000D3F8A03023F01F03CB60704700ED00E0F6
:100B8000084BD3F89030C3F30723013B984205D8B4
:100B900010B5044608F0E0FA204610BD6FF01500CD
:100BA000704700BF00ED00E02DE9F04F87B08146AF
:100BB000009101931446002734E0D84565D12946B9
:100BC000C0B208F0EFFA2CE0584AC2F89860D2F8A8
:100BD0009C3003F01F0321F01F010B43C2F89C302F
:100BE0002946E0B208F0DEFA044610F1160F00F0D4
:100BF0009680013415E0013B4C49C1F89860D1F86A
:100C0000A02002F01F0223F01F031343C1F8A030FD
:100C10002946E0B208F0C6FA044610F1160F7ED05D
:100C200001340137009B9F4279DA07EB47054FEA11
:100C3000850A09EB85056E68002EF2D0019B23B171
:100C4000284608F09DFA002865D0314659F80A0078
:100C500008F0C7FA064610F1160F5FD0A04262DA1C
:100C6000324BC3F89800D3F89C2022F01F02C3F83F
:100C70009800D3F8A03043F01F0859F80A3069688B
:100C8000194401F1FF3B9A4297D09A429CD0D84533
:100C9000B1D0013B2549C1F89860D1F8A02002F0FD
:100CA0001F0223F01F031343C1F8A0302946E0B20E
:100CB00008F078FA044610F1160F30D001301B4BC3
:100CC000C3F89860D3F89C109DF8102061F30402DB
:100CD0008DF81020D3F8A030C3F34203D2B263F3EF
:100CE00047128DF8102059F80A306A6813440293AD
:100CF00023F01F03A8EB0B084344013B23F01F0321
:100D0000059302A9C0B2FFF73BFF044610F1160F8E
:100D100005D0013485E76FF0150400E00446204655
:100D200007B0BDE8F08F6FF01504F8E700ED00E0C4
:100D300010B5034C01232278FFF736FF207010BD59
:100D4000F108002070B505460E46002400E001348D
:100D5000A6421EDD04EB44039A0005EB83035968A9
:100D60000029F4D0A85808F03CFA04EB84030B4A9D
:100D700042F8230010F1160F0CD0094B1B78984253
:100D800009DA04EB840302EB83010431FFF7D8FE98
:100D9000DDE7002070BD6FF01500FBE70C070020B9
:100DA000F1080020F0B587B0054605A8FFF708FA5E
:100DB0000646002421E05768095827F01F0392686F
:100DC0001344013B23F01F03019702919DF80C206F
:100DD000012161F304028DF80C20D2B261F34712B5
:100DE0008DF80C20049301A92878FFF7C9FE00288C
:100DF00015DB2B7801332B700134A64257D9200123
:100E0000059901EB0412D3681B0D1B05B3F5001FF8
:100E100009D0B3F5800F31D0B3F5801FCBD06FF080
:100E2000150007B0F0BD5768095827F01F039068F8
:100E30000344013B23F01F03019702919DF80C101E
:100E4000012060F304018DF80C10C9B2022060F398
:100E500047118DF80C100493D36813F0010FC2D022
:100E6000144C702322461449144808F0A3F814487F
:100E700008F0A0F87021204608F095F85768095846
:100E800027F01F0392681344013B23F01F030197CF
:100E900002919DF80C20022161F304028DF80C20D0
:100EA000D2B26FF347128DF80C2004939BE7002019
:100EB000B7E700BF7CC80100ACC801009CBB0100C3
:100EC000D4C80100044B0522C3F89420BFF34F8F10
:100ED000BFF36F8F704700BF00ED00E0BFF35F8F7F
:100EE000024B0022C3F89420704700BF00ED00E0E1
:100EF00038B50C46FFF71CFF10F1160F00D038BDB7
:100F0000084D40F26D132A460749084808F052F888
:100F10002146074808F04EF840F26D11284608F0C7
:100F200042F800BF7CC8010040C001009CBB01002A
:100F300004C9010038B50C46FFF704FF10F1160F85
:100F400000D038BD084D40F27D132A4607490848B5
:100F500008F030F82146074808F02CF840F27D11DF
:100F6000284608F020F800BF7CC8010040C00100FE
:100F70009CBB010030C9010038B5254B1D68254BCD
:100F8000D3F89030C3F307239D4205D8FFF7A6FF9F
:100F9000FFF7C2FD00241DE01F4C4FF4D273224620
:100FA0001E491F4808F006F81A4BD3F89020C2F3E8
:100FB000072229461B4807F0FDFF4FF4D271204657
:100FC00007F0F1FF124B596801EB0411204608F0BD
:100FD000C3F80134A542F5D813480570FFF7E2FEC7
:100FE00010F1160F03D0FFF76DFF002038BD0A4C3B
:100FF0004FF4E77322460949094807F0DBFF0B4825
:1010000007F0D8FF4FF4E771204607F0CCFF00BF90
:10101000C0C9010000ED00E07CC8010040C0010033
:101020009CBB010060C90100F108002094C90100C7
:101030000C4BC3F1005303F58023B3F5006F01D3CC
:101040000020704710B5084C802322460749084805
:1010500007F0B0FF074807F0ADFF8021204607F0FA
:10106000A2FF00BF38620020F8C9010028CA0100B1
:101070009CBB010070CA0100014B1860704700BFA3
:101080001400002070B506460D46002400E001342F
:10109000AC4208DA054B1B68984730550A2801D046
:1010A0000D28F4D10134204670BD00BF100000208F
:1010B000F8B505460F46002404E0094B1B6830785C
:1010C00098470134BC4208DA2E192B5D0A2BF4D163
:1010D000034B1B680D209847EFE73846F8BD00BF6B
:1010E000140000200246084B1968084BC8180A442F
:1010F000C3F1005303F580239A4202D2024B1A60D7
:1011000070474FF0FF307047200700203862002002
:1011100010B540B10446142006F0AAF8206078B15A
:1011200009F092FA10BD0E4C40F2791322460D4997
:101130000D4807F03FFF40F27911204607F033FFDA
:10114000074C40F2811322460849074807F032FF56
:10115000074807F02FFF40F28111204607F023FFD8
:10116000F8C90100F8CA01009CBB01000CCB0100CA
:101170004CCB010010B530B14FF0FF324FF0FF33D0
:1011800003F008FD10BD064C4FF4D3732246054909
:10119000054807F00FFF4FF4D371204607F003FF17
:1011A000F8C90100F8CA01009CBB010010B510B1DC
:1011B00003F00CFE10BD064C4FF4E17322460549C6
:1011C000054807F0F7FE4FF4E171204607F0EBFE0B
:1011D000F8C90100F8CA01009CBB010008B51D2236
:1011E0000449022008F019F8404080F311884FF0BC
:1011F000030002DF70CB010008B5044807F02CFBA8
:10120000404080F311884FF0040002DF90CB0100D2
:1012100068B108B5064A074B1B680749A1FB0313D1
:101220009B0C00FB03F042F00103984708BD704798
:1012300030BA01002400002083DE1B4308B501F012
:10124000AFFA00F045F81D4AD2F8A03523F00103AB
:10125000C2F8A0351A4BD3F82416C1F3080383F45F
:101260008073883303EB4302C3EBC20343F6F0728F
:1012700002EA113213449A0A13F4007F00D00132BB
:101280001049C1F804290E4BD3F82006C0F3080218
:1012900082F4807202F21722262303FB02F240F648
:1012A000FC7303EA903303EB92031B0AC1F81C376B
:1012B000054B01221A63002008BD00BF00B0045096
:1012C00000C0FF000000125000E0105001F080BA92
:1012D000024B0122C3F80424704700BF002008E03D
:1012E0000048704780070020014BC01A401170472A
:1012F0003807002030B583B005460C46FFF7F4FFF1
:101300000146402300932346054A064808F011F899
:10131000011E01DB03B030BD2846A047FAE700BF3D
:101320007B930100E8B0010010B54FF02003EFF30C
:10133000118483F31288BFF36F8F084A136823F078
:101340000201116013F0010F04D084F31188BFF380
:101350006F8F10BD08F023F8F7E700BF900700205B
:1013600030B1002202604260826001224260704718
:1013700010B5064C4FF4857322460549054807F021
:1013800019FE4FF48571204607F00DFE9CCB01003D
:10139000CCCB01009CBB01008446D9B101290BD103
:1013A000D0F80C0400F48033C0F30040EAB1B3FA83
:1013B00083F35B091370704710B50C4C4FF47473D2
:1013C00022460B490B4807F0F5FD4FF47471204697
:1013D00007F0E9FDD0F84C04C0F300402AB1DCF876
:1013E0004C3403F00303137070477047E4CB0100E3
:1013F00040C001009CBB010010B582B04FF020033B
:10140000EFF3118483F31288BFF36F8F134A1368CD
:1014100043F00201116013F0010F09D1002384F39E
:101420001188BFF36F8FA3B907F0AFFF02B010BDF3
:101430000DF1070201210A48FFF7AEFF9DF80730C2
:101440000BB10023EBE7FFF74BFF07F04DFF012344
:10145000E5E70021034807F05AFFE7E7900700207F
:1014600000E01050E8B0010010B5C9B2012905D85C
:1014700007F0F4FE806800F0070010BD054C7A23E9
:1014800022460549054807F095FD7A21204607F0D8
:101490008AFD00BF18CC010058CC01009CBB0100A4
:1014A00070B505461646CCB2214607F0D7FE012C92
:1014B0000DD83146083007F0E0FE002806DB214653
:1014C000284607F0D2FE43689847002070BD064CBE
:1014D00040F25D1322460549054807F06BFD40F2D6
:1014E0005D11204607F05FFD18CC010058CC0100CB
:1014F0009CBB010038B505460C46FFF7F5FE0146DA
:1015000040220348FFF7CCFF01462846A04738BDDC
:10151000E8B0010010B501280FD0042812D0F0B9AE
:101520000021154807F09AFE836813F0070F08D1D1
:101530000021114807F0EBFE03E001210E4807F0FF
:10154000E6FE10BD0D4C40F26E2322460C490D48BC
:1015500007F030FD40F26E21204607F024FD074CD5
:1015600040F2722322460649064807F023FD40F266
:101570007221204607F017FDE8B0010018CC0100E9
:1015800040C001009CBB010070B582B00546012837
:1015900006D12D4BD3F8503403F00303012B4CD06C
:1015A00009F01AF8044618B9284B1B78002B39D1DA
:1015B0004FF02003EFF3118683F31288BFF36F8F90
:1015C00001241CB9204B0422C3F808230DF10702A3
:1015D00000211D48FFF7E0FE28B19DF80730012BE0
:1015E00026D0012D24D0FCB13046FFF73BFA164B34
:1015F000D3F8403413F0FF0FE8D1134BD3F8083180
:10160000002BE3D0104B0022C3F80821D3F80821A7
:101610000122C3F840240E494FF48040C1F8A001D4
:101620001A61D3E70026CCE7012007F0C7FEDEE70A
:101630002CB186F31188BFF36F8F02B070BD024BDF
:101640000422C3F80423F8E700E01050F208002059
:1016500000E100E000B587B0CDF800D0CDF804D0AF
:10166000002302930123039304AB049305936B4679
:10167000064A07F07AFE002805DB41F28832002393
:10168000684603F089FC07B05DF804FBDD930100B8
:1016900070B50646002201214FF48770FFF708F964
:1016A000114801F099F9114B984219D101F0A6F9AE
:1016B0000024012C12D82146304607F0CFFD054604
:1016C0002146304607F0D5FD094907F0F6F9002814
:1016D00005DB0123AB601C44E4B2EAE7002070BDE7
:1016E0006FF00400FBE700BF151501000000AD0B13
:1016F00088CC010070B504461C4B0121D3E8EF2FC4
:10170000C3E8E01F0028F9D142B134B1631EDBB257
:10171000012B1ED82046FFF737FF70BD144807F095
:10172000A8FD0546134E3046FFF71AFE311F284626
:10173000FDF748FE0028E8DA0F4C4FF40C73224600
:101740000E490F4807F036FC4FF40C71204607F0A5
:101750002AFC094C40F2422322460A49084807F075
:1017600029FC40F24221204607F01DFC34070020EE
:10177000E8B001002807002018CC01007CCC010053
:101780009CBB010040C0010010B504460A2806D0E9
:10179000E1B2064883685B689847204610BD03485D
:1017A00083685B680D219847F2E700BF38B10100FC
:1017B00010B5044C2046FFF75FFC2046FDF7B2FA57
:1017C00010BD00BF8917010008B5054808F0ECFE00
:1017D00018B1FFF7EDFF002008BD6FF01200FBE726
:1017E00038B10100004870474CCD0100024B0B603E
:1017F00001231360704700BF54CD010008B51046A7
:101800001A4600290ADB0C4B99420DD8C1F5BE13CC
:1018100003F580539A4209D9002300E000233BB12D
:1018200009F03FF8002008BD0023F8E70123F6E7A0
:101830006FF01500F7E700BFFFCF17004A78202AA6
:1018400005D80B7843EA0223C0F80035704710B57D
:10185000064C4FF4F37322460549064807F0AAFBED
:101860004FF4F371204607F09EFB00BFD0CC01007F
:1018700004CD01009CBB010070B582B005460C464A
:10188000164601238DF8043000238DF8053001A998
:101890000C48FFF7D3FF7CB132462146284609F0B9
:1018A00000F8BFF35F8F00238DF8043001A90548CD
:1018B000FFF7C4FF02B070BD3246FF21284609F091
:1018C0002AF8EEE700B004500B88B3F5805F07D22A
:1018D0008A789AB14FF000421343C0F80C35704734
:1018E00010B5074C40F2F91322460649064807F0A6
:1018F00061FB40F2F911204607F055FB0022EBE7AF
:10190000D0CC01002CCD01009CBB0100F8B50E46E7
:101910001546041E0ADB144B9C420CD8C4F5BE13BA
:1019200003F58053934208D2002300E00023C3B1A3
:101930002DB90020F8BD0023F9E70123F7E70B4F8D
:101940004FF0FF324FF0FF33384603F025FB2A46B5
:1019500031462046FFF790FF384603F0D5FA0020C5
:10196000E8E76FF01500E5E7FFCF170094070020C8
:1019700000B583B001221146064808F06CFE064B04
:101980001B68019301A90548FFF79EFF002003B0E3
:101990005DF804FB9407002020BA010000B0045059
:1019A000022806D0012806D008B904487047002054
:1019B0007047034870470348704700BFFCB0010000
:1019C00024B1010010B1010070B569B1044616469A
:1019D0000D464B68B3B1036813B307F028FD50BB45
:1019E000FEB96FF0150022E0164C3A232246164944
:1019F000164807F0DFFA164807F0DCFA3A212046CD
:101A000007F0D1FA0F4C3B23224612490F4807F04A
:101A1000D1FA114807F0CEFA3B21204607F0C3FA6D
:101A200032B123682B602560636843B1002070BD2C
:101A30006FF01500FBE7002EF3D10020F7E765609B
:101A40000020F4E78CCD0100C8CD01009CBB010053
:101A5000D4CD0100E4CD0100F8CD010038B5054634
:101A60000468204607F0F3FCA8B104F01F032B60C4
:101A70006409012C1CD0022C1CD0ECB10F4C40F29C
:101A80004E3322460E490F4807F094FA40F24E3189
:101A9000204607F088FA094C40F2453322460A49AD
:101AA000084807F087FA40F24531204607F07BFAF4
:101AB000064800E0064838BD0648FCE710CE0100A5
:101AC00040C001009CBB010044CE010000820D50CB
:101AD0000004055000A0105070B50E461546016870
:101AE00021B10C68ACB1A1B90C4612E00C4610E073
:101AF000114C5D2322461149114807F05BFA114849
:101B000007F058FA5D21204607F04DFA234621469A
:101B10001C4681B18A682A4004D04B68002BE7D06C
:101B200030469847002CF1D02368002BEFD0002CD2
:101B3000EDD12346EBE770BD8CCD010068CE0100EE
:101B40009CBB0100F8CD01002DE9F04786B0884626
:101B500015469946446801F01F07237B47EA43175F
:101B6000204607F08AFC002853D0B5F5001F2AD084
:101B70000DF10C0A0026039604964946284607F004
:101B8000B1FC8DF80C00009601960296CDF804A0E9
:101B9000A36823FA08F313F0010F02D1B5F1A07F77
:101BA00018D010346A463946204608F0B8F91C4B64
:101BB000984231D101223946204608F0D4F900205C
:101BC00006B0BDE8F087394604F1100008F0CFF9FF
:101BD0000020F5E7384607F0A1FC0028E1D104F128
:101BE00010050DF117023946284608F0A4F90D4BEF
:101BF000984203D00DF117030493D2E70DF11701BA
:101C0000284608F0ACF9064B9842F3D06FF00B0071
:101C1000D6E76FF08500D3E76FF01500D0E700BF7F
:101C20000000AD0B0400AD0BF0B589B00F461446B3
:101C3000456801F01F062B7B46EA4316104607F065
:101C400021FC8DF81E0040F206332340B3F5837F5C
:101C500053D016D8062B4CD006D9B3F5807F0DD1C2
:101C600001238DF81D3024E003B3022B03D102239E
:101C70008DF81D301DE06FF0150038E06FF0150095
:101C800035E040F2022293423BD0B3F5407F03D1CE
:101C900005238DF81D300CE0B3F5007F03D104233C
:101CA0008DF81D3005E06FF0150020E000238DF861
:101CB0001D3014F4002F28D06A680123BB40536004
:101CC000284607F0DAFB40B310350DF11F0231460C
:101CD000284608F030F9074614F4403F36D1314623
:101CE000284608F034F9434B9F426DD0002009B0DC
:101CF000F0BD08238DF81D30DBE709238DF81D307A
:101D0000D7E706238DF81D30D3E714F4802FD7D002
:101D10006A680123BB409360D2E7C4F340438DF867
:101D2000083014F4803F0CBF012300238DF81030DD
:101D3000002401940DF11D0300930DF11E0304AA6C
:101D400002A9304607F0F9FB2046D0E702AA00239B
:101D500002930393049305930693059204AA3146D4
:101D6000284608F0DCF8234B98421DD114F4003FBC
:101D70001DD09DF81D308DF8103014F4803F0CBF3D
:101D8000012300238DF811309DF81E308DF812309C
:101D9000002304AA3146284608F0C5F8154B98429E
:101DA000A1D06FF01500A2E76FF015009FE70023A8
:101DB0000493059306930DF11E03049304AA314680
:101DC000284608F0ACF8E9E79DF81F10284608F00F
:101DD000C2F8084B984201D1002088E7064CAB239B
:101DE00022460649064807F0E5F8AB21204607F0F1
:101DF000DAF800BF0000AD0B74CE0100A0CE0100E8
:101E00009CBB010010B54468204607F036FB08B9BA
:101E1000002010BD1034204608F095F808B10020CD
:101E2000F7E70021204608F08AF80C4B984211D1C0
:101E300000220B49204608F07AF800220121DB201D
:101E4000FEF736FD0022012140F20D10FEF730FDB5
:101E50000020DEE76FF00400DBE700BF0000AD0B01
:101E6000F195010038B505460468204607F0E8FB07
:101E7000A8B104F01F032B606409012C1CD0022CB4
:101E80001CD0ECB10F4C40F24E3322460E490F48A5
:101E900007F090F840F24E31204607F084F8094CE4
:101EA00040F2453322460A49084807F083F840F2D9
:101EB0004531204607F077F8064800E0064838BD6F
:101EC0000648FCE710CE010040C001009CBB0100A9
:101ED00044CE010000820D500004055000A01050B7
:101EE000F0B583B001900C4617461E4601A8FFF7D7
:101EF000B9FF0199203150F82130094D1D4044EAC5
:101F0000470444EA86039DF8202043EA02239DF813
:101F1000242043EA02432B4340F8213003B0F0BDB4
:101F2000F0F0FCFF2DE9F04F83B006460F469046D7
:101F300000241FE04FF0FF352DE0C8F804564FF0A5
:101F4000010B5946B5F1FF3F12D0B1F1FF3F45D12A
:101F500056F8093013F4005F44D15A46002101912C
:101F6000CDF800A0C3F3C11359462846FFF7B8FFC8
:101F70000134E4B2BC4239D24FEA840956F8243025
:101F8000C3F3432203F07F05082A33D81C4911F814
:101F900002A07F2DCED01B0C032B2ED801A252F80D
:101FA00023F000BF3B1F0100B51F0100C31F01004C
:101FB000CF1F0100C8F80C564FF0000B4FF0FF3157
:101FC000C0E7C8F810564FF0010B5946BAE7C8F8F9
:101FD00008564FF0000B4FF0FF31B3E7284607F0EB
:101FE0005FFBB5E701224FF0000BB7E7002003B01D
:101FF000BDE8F08F6FF01500F9E76FF08500F6E7A8
:1020000044CF010030B583B08DF807104568043522
:1020100012E0154C40F2322322461449144806F0CF
:10202000C9FF144806F0C6FF40F23221204606F0F0
:10203000BAFF114B9C4215D1022301220DF1070179
:10204000284601F0A1FF04460C4B9842E1D00A4B10
:102050009842EED104F0D6F90028EAD0012007F02A
:102060002DFBE6E703B030BD50CF010088CF010063
:102070009CBB0100A8CF01000B00AD0B0A00AD0B0B
:1020800070B50C464668351D0021284602F044F91B
:102090000F4B984218D1B16A0B7823700122284661
:1020A00002F0C2F80A4B984201D1002070BD094CE1
:1020B00040F21D2322460849084806F07BFF40F203
:1020C0001D21204606F06FFF4FF0FF30EEE700BF06
:1020D0000000AD0B50CF0100A0CE01009CBB010061
:1020E00010B543681C1D0122996A204602F09CF835
:1020F000144B98420BD10021204602F003F8114BFB
:10210000984202D00B3398420ED1002010BD0E4CE5
:1021100040F2FA2322460D490D4806F04BFF40F2EB
:10212000FA21204606F03FFF074C40F2FD232246ED
:102130000849074806F03EFF40F2FD21204606F020
:1021400032FF00BF0000AD0B50CF0100A0CE010058
:102150009CBB0100C8CF010070B504464668002151
:10216000706C07F0BBFA002814DB351D002206F165
:102170000C01284601F080FE05460F4B98420AD01C
:102180000E4B9D4212D006339D4212D0073B9D421A
:1021900009D0002070BDB36C13F0020FF0D12046BF
:1021A000FFF79EFFECE76FF01500F3E76FF00F000D
:1021B000F0E76FF00C00EDE70000AD0B0500AD0B94
:1021C000074AD2F8483743F00103C2F84837044BB6
:1021D000D3F84027D3F8443713F0804FF7D1704736
:1021E00000200E50B1F5803F02D2C0F8A41670470F
:1021F00010B5064C40F2295322460549054806F021
:10220000D9FE40F22951204606F0CDFE78D00100DB
:10221000C0D001009CBB0100FF2902D8C0F8AC1659
:10222000704710B5064C40F2345322460549064823
:1022300006F0C0FE40F23451204606F0B4FE00BF66
:1022400078D00100E8D001009CBB010070B582B0DD
:1022500015461C46684601F093FA0098019BA84277
:1022600073EB040443D3234C21686568401A63EB85
:10227000050CC0F31303020D42EA0C32C2F3130241
:102280001344CCF31322134403EB1C731A4AA2FB2E
:102290000362D20802EB820202EB82029B1AC01A8E
:1022A0006CF1000C154B164A00FB02F203FB0C22EA
:1022B000A0FB03031A44800840EA827092080318C6
:1022C00042EB020C1B1842EB0C0C4FEA4C1E4EEA80
:1022D000D36E5E019B194CEB0E0C1B1842EB0C02EB
:1022E000C91845EB02052160656004F005FB02B0EA
:1022F00070BD00BFD00300201F85EB51295C8FC249
:10230000F5285C8F30B585B00446B0F1004F71F10F
:10231000000307D20023012201460A4801F090FB86
:1023200005B030BD0D4602A801F02AFA029BE21862
:102330004FF001030093039B43EB0503014801F0B9
:1023400031FBEDE71800002010B5204CD4F8183709
:1023500023F4403343F48033C4F81837D4F81035ED
:1023600023F00203C4F8103505212046FFF73AFF99
:1023700004212046FFF750FF00220121E420FEF750
:1023800097FA002001F06EFA114B98421AD11149C8
:10239000012001F09FFA0E4B984208D00233984278
:1023A00002D04FF0FF3010BD6FF00B00FBE7FFF7DE
:1023B00007FF094B40F6FF721A600220FFF79AF9F7
:1023C0000020F0E74FF0FF30EDE700BF00200E5097
:1023D0000000AD0B200000202008002000B583B0D5
:1023E000684601F0CDF90098174A13685268C01A80
:1023F000019961EB0201C0F31303020D42EA0132BD
:10240000C2F313021344C1F31322134403EB1173F9
:102410000E4AA2FB03C2D20802EB820202EB820246
:102420009B1AC01A61F10001094A0A4B00FB03F331
:1024300002FB0133A0FB02021344800840EA8370D0
:1024400003B05DF804FB00BFD00300201F85EB51F3
:10245000295C8FC2F5285C8F2DE9F04182B0B0F184
:10246000FF3F71D00128B8BF0120441E684601F02B
:1024700087F9009E019F3A4B18685D68331A67EB35
:10248000050C63334CF1000CC3F31302190D41EA40
:102490000C31C1F313010A44CCF313210A4402EBBB
:1024A0001C723049A1FB02E1C90801EB810101EB7B
:1024B0008101521A9B1A6CF1000C2B492B4A03FB29
:1024C00002F201FB0C22A3FB01310A449B0843EA00
:1024D00082739208D91842EB020CC91842EB0C0C1B
:1024E0004FEA4C1E4EEAD16E4FEA411811EB08013B
:1024F0004CEB0E0CC91842EB0C02801B65EB070578
:10250000471842EB0502E617231946EB06011B1993
:1025100046EB01014D0145EAD3655801181841EB1E
:102520000501001946EB0101C01941EB02016FF0F2
:10253000630383424FF031038B4108D350EA010318
:1025400008D10120002105E06FF000448EE76FF014
:1025500063003121FFF7D6FE02B0BDE8F08100BF75
:10256000D00300201F85EB51295C8FC2F5285C8FBA
:1025700008B51022034908F084F908B1022008BD0B
:102580000120FCE7ACD1010070B584B0064681683B
:10259000103921F0070506F072FD01466C46102245
:1025A000204608F0B8F9074B0FCB84E80F00102342
:1025B00022462946304606F028FD08B904B070BD11
:1025C0000120FBE7ACD1010010B582B00E2A11D872
:1025D00004460E2915D841EA02118DF8071007F0BC
:1025E0009CF8014601230DF10702204607F0D7F8B9
:1025F00002B010BD064B074A4FF4C171064804F003
:1026000007FE064B034A4FF4C171034804F000FE75
:1026100010D1010094D1010024D1010068D1010042
:10262000F0B583B0044617460E4601B10F46694621
:10263000204607F000F9C0B99DF80050022D2DD0BA
:10264000032D11D0012D06D0194B1A4A40F22E212C
:10265000194804F0DDFD46B19DF80330032B04D189
:10266000204607F0D7F800E00EB103B0F0BD2046D9
