:020000040001F9
:100000003DB8F3960000000000020000441001001B
:1000100000000000000000000000000000000000E0
:10002000FFFFFFFFFFFFFFFFFFFFFFFFFFFFFFFFE0
:10003000FFFFFFFFFFFFFFFFFFFFFFFFFFFFFFFFD0
:10004000FFFFFFFFFFFFFFFFFFFFFFFFFFFFFFFFC0
:10005000FFFFFFFFFFFFFFFFFFFFFFFFFFFFFFFFB0
:10006000FFFFFFFFFFFFFFFFFFFFFFFFFFFFFFFFA0
:10007000FFFFFFFFFFFFFFFFFFFFFFFFFFFFFFFF90
:10008000FFFFFFFFFFFFFFFFFFFFFFFFFFFFFFFF80
:10009000FFFFFFFFFFFFFFFFFFFFFFFFFFFFFFFF70
:1000A000FFFFFFFFFFFFFFFFFFFFFFFFFFFFFFFF60
:1000B000FFFFFFFFFFFFFFFFFFFFFFFFFFFFFFFF50
:1000C000FFFFFFFFFFFFFFFFFFFFFFFFFFFFFFFF40
:1000D000FFFFFFFFFFFFFFFFFFFFFFFFFFFFFFFF30
:1000E000FFFFFFFFFFFFFFFFFFFFFFFFFFFFFFFF20
:1000F000FFFFFFFFFFFFFFFFFFFFFFFFFFFFFFFF10
:10010000FFFFFFFFFFFFFFFFFFFFFFFFFFFFFFFFFF
:10011000FFFFFFFFFFFFFFFFFFFFFFFFFFFFFFFFEF
:10012000FFFFFFFFFFFFFFFFFFFFFFFFFFFFFFFFDF
:10013000FFFFFFFFFFFFFFFFFFFFFFFFFFFFFFFFCF
:10014000FFFFFFFFFFFFFFFFFFFFFFFFFFFFFFFFBF
:10015000FFFFFFFFFFFFFFFFFFFFFFFFFFFFFFFFAF
:10016000FFFFFFFFFFFFFFFFFFFFFFFFFFFFFFFF9F
:10017000FFFFFFFFFFFFFFFFFFFFFFFFFFFFFFFF8F
:10018000FFFFFFFFFFFFFFFFFFFFFFFFFFFFFFFF7F
:10019000FFFFFFFFFFFFFFFFFFFFFFFFFFFFFFFF6F
:1001A000FFFFFFFFFFFFFFFFFFFFFFFFFFFFFFFF5F
:1001B000FFFFFFFFFFFFFFFFFFFFFFFFFFFFFFFF4F
:1001C000FFFFFFFFFFFFFFFFFFFFFFFFFFFFFFFF3F
:1001D000FFFFFFFFFFFFFFFFFFFFFFFFFFFFFFFF2F
:1001E000FFFFFFFFFFFFFFFFFFFFFFFFFFFFFFFF1F
:1001F000FFFFFFFFFFFFFFFFFFFFFFFFFFFFFFFF0F
:10020000805B0020DD39010049D10100C9390100BE
:10021000C9390100C9390100C939010000000000D5
:10022000000000000000000000000000C93B0100C9
:10023000C939010000000000393B0100C939010043
:10024000013F0100013F0100013F0100013F0100AA
:10025000013F0100013F0100013F0100013F01009A
:10026000013F0100013F0100013F0100013F01008A
:10027000013F0100013F0100013F0100013F01007A
:10028000013F0100013F0100013F0100013F01006A
:10029000013F0100013F0100013F0100013F01005A
:1002A000013F0100013F0100013F0100013F01004A
:1002B000013F0100013F0100013F0100013F01003A
:1002C000013F0100013F0100013F0100013F01002A
:1002D000013F0100013F0100013F0100013F01001A
:1002E000013F0100013F0100013F0100013F01000A
:1002F000013F0100013F0100013F0100013F0100FA
:1003000001F0FF01102A2BDB10F0070F08D010F8C6
:10031000013B013A8B422DD010F0070F42B3F6D1CA
:10032000F0B441EA012141EA014122F007047FF0E3
:1003300000070023F0E80256083C85EA010586EA3A
:10034000010685FA47F5A3FA87F586FA47F6A5FA76
:1003500087F68EB9EED1F0BC01F0FF0102F0070282
:1003600032B110F8013B013A83EA010313B1F8D12D
:100370000020704701387047002D06BF354603380E
:10038000073815F0010F07D1013015F4807F02BF47
:10039000013015F4C03F0130F0BC0138704700BF98
:1003A00081F0004102E000BF83F0004330B54FEA26
:1003B00041044FEA430594EA050F08BF90EA020F93
:1003C0001FBF54EA000C55EA020C7FEA645C7FEA26
:1003D000655C00F0E2804FEA5454D4EB5555B8BF49
:1003E0006D420CDD2C4480EA020281EA030382EABA
:1003F000000083EA010180EA020281EA0303362D4C
:1004000088BF30BD11F0004F4FEA01314FF4801C1E
:100410004CEA113102D0404261EB410113F0004F30
:100420004FEA03334CEA133302D0524263EB4303E7
:1004300094EA050F00F0A780A4F10104D5F1200E85
:100440000DDB02FA0EFC22FA05F2801841F10001E0
:1004500003FA0EF2801843FA05F359410EE0A5F1B4
:1004600020050EF1200E012A03FA0EFC28BF4CF0E5
:10047000020C43FA05F3C01851EBE37101F000459B
:1004800007D54FF0000EDCF1000C7EEB00006EEBA8
:100490000101B1F5801F1BD3B1F5001F0CD3490832
:1004A0005FEA30004FEA3C0C04F101044FEA445289
:1004B00012F5800F80F09A80BCF1004F08BF5FEA10
:1004C000500C50F1000041EB045141EA050130BDF0
:1004D0005FEA4C0C404141EB0101013C28BFB1F502
:1004E000801FE9D291F0000F04BF01460020B1FA4D
:1004F00081F308BF2033A3F10B03B3F120020CDA20
:100500000C3208DD02F1140CC2F10C0201FA0CF0FD
:1005100021FA02F10CE002F11402D8BFC2F1200C62
:1005200001FA02F120FA0CFCDCBF41EA0C01904018
:10053000E41AA2BF01EB0451294330BD6FEA040461
:100540001F3C1CDA0C340EDC04F11404C4F120024C
:1005500020FA04F001FA02F340EA030021FA04F35E
:1005600045EA030130BDC4F10C04C4F1200220FAB5
:1005700002F001FA04F340EA0300294630BD21FAF3
:1005800004F0294630BD94F0000F83F4801306BFB9
:1005900081F480110134013D4EE77FEA645C18BFAD
:1005A0007FEA655C29D094EA050F08BF90EA020F44
:1005B00005D054EA000C04BF1946104630BD91EA3C
:1005C000030F1EBF0021002030BD5FEA545C05D13F
:1005D0004000494128BF41F0004130BD14F580047E
:1005E0003CBF01F5801130BD01F0004545F0FE41F2
:1005F00041F470014FF0000030BD7FEA645C1ABF27
:10060000194610467FEA655C1CBF0B46024650EA5D
:10061000013406BF52EA033591EA030F41F4002189
:1006200030BD00BF90F0000F04BF0021704730B50F
:100630004FF4806404F132044FF000054FF00001E4
:1006400050E700BF90F0000F04BF0021704730B5A5
:100650004FF4806404F1320410F0004548BF40427A
:100660004FF000013EE700BF42004FEAE2014FEACF
:1006700031014FEA02701FBF12F07F4393F07F4FAA
:1006800081F06051704732F07F4208BF704793F0AD
:100690007F4F04BF41F40021704730B54FF46074C0
:1006A00001F0004521F000411CE700BF50EA0102C3
:1006B00008BF704730B54FF000050AE050EA01026C
:1006C00008BF704730B511F0004502D5404261EBDC
:1006D00041014FF4806404F132045FEA915C3FF41D
:1006E000D8AE4FF003025FEADC0C18BF03325FEABA
:1006F000DC0C18BF033202EBDC02C2F1200300FA6B
:1007000003FC20FA02F001FA03FE40EA0E0021FA8F
:1007100002F11444BDE600BF70B54FF0FF0C4CF47D
:10072000E06C1CEA11541DBF1CEA135594EA0C0F2F
:1007300095EA0C0F00F0DEF82C4481EA030621EA6A
:100740004C5123EA4C5350EA013518BF52EA0335A5
:1007500041F4801143F4801338D0A0FB02CE4FF057
:100760000005E1FB02E506F00042E0FB03E54FF087
:100770000006E1FB03569CF0000F18BF4EF0010E7F
:10078000A4F1FF04B6F5007F64F5407404D25FEA7B
:100790004E0E6D4146EB060642EAC62141EA55512E
:1007A0004FEAC52040EA5E504FEACE2EB4F1FD0C70
:1007B00088BFBCF5E06F1ED8BEF1004F08BF5FEAEE
:1007C000500E50F1000041EB045170BD06F00046A0
:1007D00046EA010140EA020081EA0301B4EB5C044D
:1007E000C2BFD4EB0C0541EA045170BD41F4801145
:1007F0004FF0000E013C00F3AB8014F1360FDEBF6A
:10080000002001F0004170BDC4F10004203C35DA45
:100810000C341BDC04F11404C4F1200500FA05F3C8
:1008200020FA04F001FA05F240EA020001F0004269
:1008300021F0004110EBD37021FA04F642EB0601DF
:100840005EEA430E08BF20EAD37070BDC4F10C0409
:10085000C4F1200500FA04F320FA05F001FA04F2CD
:1008600040EA020001F0004110EBD37041F10001B9
:100870005EEA430E08BF20EAD37070BDC4F12005C4
:1008800000FA05F24EEA020E20FA04F301FA05F22C
:1008900043EA020321FA04F001F0004121FA04F2D4
:1008A00020EA020000EBD3705EEA430E08BF20EAA4
:1008B000D37070BD94F0000F0FD101F000464000DE
:1008C00041EB010111F4801F08BF013CF7D041EA60
:1008D000060195F0000F18BF704703F00046520064
:1008E00043EB030313F4801F08BF013DF7D043EA35
:1008F0000603704794EA0C0F0CEA135518BF95EAEB
:100900000C0F0CD050EA410618BF52EA4306D1D171
:1009100081EA030101F000414FF0000070BD50EA90
:10092000410606BF1046194652EA430619D094EA1A
:100930000C0F02D150EA013613D195EA0C0F05D104
:1009400052EA03361CBF104619460AD181EA030158
:1009500001F0004141F0FE4141F470014FF0000010
:1009600070BD41F0FE4141F4780170BD70B54FF0AB
:10097000FF0C4CF4E06C1CEA11541DBF1CEA13552B
:1009800094EA0C0F95EA0C0F00F0A7F8A4EB05040D
:1009900081EA030E52EA03354FEA013100F0888004
:1009A0004FEA03334FF0805545EA131343EA1263CD
:1009B0004FEA022245EA111545EA10654FEA002682
:1009C0000EF000419D4208BF964244F1FD0404F53B
:1009D000407402D25B084FEA3202B61A65EB030597
:1009E0005B084FEA32024FF480104FF4002CB6EB54
:1009F000020E75EB030E22BFB61A754640EA0C00D4
:100A00005B084FEA3202B6EB020E75EB030E22BF13
:100A1000B61A754640EA5C005B084FEA3202B6EB54
:100A2000020E75EB030E22BFB61A754640EA9C0013
:100A30005B084FEA3202B6EB020E75EB030E22BFE3
:100A4000B61A754640EADC0055EA060E18D04FEAA1
:100A5000051545EA16754FEA06164FEAC30343EA41
:100A600052734FEAC2025FEA1C1CC0D111F4801F0E
:100A70000BD141EA00014FF000004FF0004CB6E707
:100A800011F4801F04BF01430020B4F1FD0C88BFA6
:100A9000BCF5E06F3FF6AFAEB5EB030C04BFB6EBB1
:100AA000020C5FEA500C50F1000041EB045170BDA4
:100AB0000EF0004E4EEA113114EB5C04C2BFD4EBD1
:100AC0000C0541EA045170BD41F480114FF0000E55
:100AD000013C90E645EA060E8DE60CEA135594EAD1
:100AE0000C0F08BF95EA0C0F3FF43BAF94EA0C0FD4
:100AF0000AD150EA01347FF434AF95EA0C0F7FF449
:100B000025AF104619462CE795EA0C0F06D152EA9C
:100B100003353FF4FDAE1046194622E750EA410680
:100B200018BF52EA43067FF4C5AE50EA41047FF491
:100B30000DAF52EA43057FF4EBAE12E74FF0FF3CF6
:100B400006E000BF4FF0010C02E000BF4FF0010CC7
:100B50004DF804CD4FEA410C7FEA6C5C4FEA430C40
:100B600018BF7FEA6C5C1BD001B050EA410C0CBF8F
:100B700052EA430C91EA030F02BF90EA020F0020F1
:100B8000704710F1000F91EA030F58BF994208BF58
:100B900090422CBFD8176FEAE37040F00100704715
:100BA0004FEA410C7FEA6C5C02D150EA013C07D16C
:100BB0004FEA430C7FEA6C5CD6D152EA033CD3D0B7
:100BC0005DF8040B704700BF8446104662468C46B1
:100BD0001946634600E000BF01B5FFF7B7FF0028E4
:100BE00048BF10F1000F01BD4DF808EDFFF7F4FF0D
:100BF0000CBF012000205DF808FB00BF4DF808ED98
:100C0000FFF7EAFF34BF012000205DF808FB00BFBA
:100C10004DF808EDFFF7E0FF94BF012000205DF8DC
:100C200008FB00BF4DF808EDFFF7CEFF94BF012091
:100C300000205DF808FB00BF4DF808EDFFF7C4FF8A
:100C400034BF012000205DF808FB00BF4FEA410CD3
:100C50007FEA6C5C02D150EA013C0AD14FEA430CB6
:100C60007FEA6C5C02D152EA033C02D14FF00000F3
:100C700070474FF0010070474FEA410212F5001231
:100C800015D211D56FF47873B3EB625212D94FEAD3
:100C9000C12343F0004343EA505311F0004F23FABD
:100CA00002F018BF404270474FF00000704750EA12
:100CB000013005D111F0004008BF6FF000407047CF
:100CC0004FF00000704700BF53B94AB9002908BF70
:100CD00000281CBF4FF0FF314FF0FF3000F00CB880
:100CE000ADF1080C6DE904CE00F008F8DDF804E081
:100CF000DDE9022304B07047704700BF2DE9F047DB
:100D000086468C460846089E154674461946002BB2
:100D100040F0C2808542B2FA82F245D94AB1C2F1AE
:100D2000200300FA02FC2EFA03F3954043EA0C0C70
:100D300094404FEA154EA8B2BCFBFEF8230C0EFB04
:100D400018CC08FB00F943EA0C43994528D9EB1865
:100D500008F1FF3704D2994502D9A8F102072B44C4
:100D6000A3EB0903A4B2B3FBFEFC0EFB1C330CFB8C
:100D700000F044EA0344A04214D92C190CF1FF33CB
:100D800004D2A04202D9ACF102032C44241A43EA53
:100D900007401EB1D440002334607360BDE8F08783
:100DA0004746DDE76346F1E792BB431B01214FEA6B
:100DB000154EAFB2B3FBFEFC200C0EFB1C330CFB3C
:100DC00007F840EA0343984562D9EB180CF1FF306D
:100DD00004D2984502D9ACF102002B44A3EB0803DE
:100DE000A4B2B3FBFEFC0EFB1C330CFB07F744EA7A
:100DF0000344A7424ED92C190CF1FF3304D2A74269
:100E000002D9ACF102032C44E41B43EA0040C0E7E2
:100E1000C2F1200320FA03F1954090402EFA03F32B
:100E200003434FEA154EAFB2B1FBFEFC0EFB1C10A4
:100E3000190C0CFB07F841EA0041884504FA02F45A
:100E400022D969180CF1FF3004D2884502D9ACF1DF
:100E500002002944A1EB08019BB2B1FBFEFC0EFB92
:100E60001C110CFB07F743EA01439F420ED9EB1814
:100E70000CF1FF3104D29F4202D9ACF102012B44A4
:100E8000DB1B41EA004192E76046E3E76146F7E792
:100E90006046A3E76346B7E7834206D916B9002147
:100EA00008467BE7C6E900E0F9E7B3FA83F78FB9B4
:100EB000834201D3724508D8BEEB020460EB030302
:100EC00001209C461EB9002168E73846FAE7C6E9CA
:100ED000004CF8E7C7F1200CBB4022FA0CF41C438D
:100EE0002EFA0CF120FA0CF3B84001434FEA1449F2
:100EF0000EFA07F5B3FBF9F81FFA84FE09FB183068
:100F00000B0C08FB0EFA43EA00439A4502FA07F27B
:100F100040D9E31808F1FF3004D29A4502D9A8F16C
:100F200002002344A3EB0A0389B2B3FBF9F809FBDF
:100F3000183308FB0EFE41EA03418E452CD9611897
:100F400008F1FF3304D28E4502D9A8F102032144EF
:100F500043EA0040A0FB0298A1EB0E014145CE46BA
:100F6000434602D306D14D4504D2B9EB020E68EBDD
:100F700004030138002EA6D0B5EB0E0261EB03018D
:100F800001FA0CFC22FA07F34CEA0303F940C6E924
:100F9000003198E74046C5E74346D9E7034613F8D2
:100FA000012B002AFBD1181A0138704700000000FD
:100FB0002DE9F04F9FB08246039116461C4600254E
:100FC000307810B9284600F085BD731C252806939B
:100FD00006D00399D0470028C0F27C8501351BE27A
:100FE0001822002110A80CF055FE7378252B00F074
:100FF000BA800023711C98469E469C4618460F46B0
:1010000011F8012B2B2A00F0DD8000F2D480202A79
:1010100000F0DB80232A00F0DB802BB19DF8483004
:1010200043F040038DF84830B8F1000F05D09DF82B
:10103000483043F020038DF84830BEF1000F05D052
:101040009DF8483043F010038DF84830BCF1000F94
:1010500005D09DF8483043F008038DF8483028B19A
:101060009DF8483043F004038DF848309DF848302F
:1010700003F04401442903D16FF386138DF84830FF
:101080009DF848300E9743F080032A2A8DF84830A7
:1010900040F0A3809DF8493043F001038DF84930BA
:1010A0007B1C1A782E2A9DF849200CBF01210021B3
:1010B00061F341028DF849200CD15A1C0E925A78E6
:1010C0002A2A40F09A809DF8492042F004028DF8C7
:1010D000492002331A786C2A00F0BB8000F29D8010
:1010E000682A00F0A3806A2A00F0BC804C2A00F035
:1010F000C18013F8012B0693782A8DF84B2000F25B
:1011000001816D2A00F2C380692A00F2FB80572A10
:1011100000F2DA80412A04D0A2F14503022B00F24A
:10112000F1809DF84A3002F0DF020421A2F141076C
:1011300061F302037A429DF849108DF84A307A41F2
:1011400062F3C7110A068DF84910CBB200F119817C
:1011500003F07802182A40F003816FF3C6038DF87C
:1011600049300023F2E0B21C06928DF84B309DF816
:101170004930D90740F1078154F8042B0492002A22
:1011800008DA9DF8482042F004028DF84820049ABD
:10119000524204925A0740F1FE8054F8047B002F1B
:1011A00080F2FD809DF849306FF341038DF849309E
:1011B0004FF0FF37F3E02D2A0DD0302A7FF42DAF0A
:1011C00001231CE74FF0010C19E74FF0010E16E761
:1011D0004FF0010813E7012011E70EA802F0B8F85C
:1011E0000E9BBB423FF45DAF9DF848201390C00FAB
:1011F00060F341028DF8482053E70EA802F0A8F8EA
:101200009DF848301490C3F3400242EAD07262F372
:1012100041038DF848300E9B5CE7742A26D07A2A69
:101220007FF467AF9DF8492006210CE05A78682AC0
:101230009DF8492006D1012161F3C6028DF84920AD
:10124000023356E7022161F3C6028DF849200133CB
:101250004FE75A786C2A9DF8492001D10421EBE729
:101260000321F0E79DF849200521ECE79DF849208E
:101270000721E8E7BDF8482022F4F04222F00202FC
:1012800042F4804242F00202ADF84820DFE76E3AB5
:10129000D3B201229A4040F282431A429DF849306B
:1012A00037D112F0240F5FD1D1072BD59DF84A20FA
:1012B00003F07803A3F14000032161F302024342EB
:1012C0008DF84A20434141E0A2F15801C9B2012002
:1012D00000FA01F111F4624F7FF423AF40F60103ED
:1012E00019429DF849301AD111F4043F0AD09DF8F3
:1012F0004A2060F3020203F07803402B8DF84A2065
:101300007FF42FAF9DF8483043F001038DF848304B
:1013100027E79DF84A20022161F30202EBE79DF8DE
:101320004A10022003F0780360F30201402B8DF88D
:101330004A1002BF9DF8481041F001018DF8481095
:10134000632A7FF40EAF003B18BF01239DF84820AD
:10135000C2F340010B4363F341028DF8482006E7D6
:1013600013F0380FCED1FCE69DF84A20032113F08C
:10137000780F61F302028DF84A2014BF0123002385
:10138000E4E70123E2E79DF94820002AB4BF139A5D
:101390004FF0FF32FDE69F077FF50AAF149F9DF8DF
:1013A0004A200023CDE9133302F00703042B9DF8F4
:1013B000493007D1980705D49DF949100029ACBFE1
:1013C00006270D2702F00702012AC3F3C30333D116
:1013D000DA1E042A04D8DFE802F021464621210063
:1013E0002268012B4FEAE271CDE910211CD19DF951
:1013F0004020D117CDE9102104349DF848200792F0
:10140000910750D0069B0399324650460BF017FEC9
:101410000028C0F25F830544069ED1E554F8042BF2
:10142000D117CDE91021E8E7022BE5D111B242F343
:10143000C032CDE91012DFE7022A24D1DA1E042AD5
:1014400004D8DFE802F0181010181800012B54F827
:10145000042B4FF0000114D0022BCDE91021CCD188
:1014600092B21092C9E7073424F00704F4E80201AD
:10147000CDE91001C1E754F8042B1092002211921B
:10148000BBE7D2B2CDE7042A08D1073424F0070421
:10149000D4E900010834CDE91001AEE7032AACD14C
:1014A00054F8042BDDE79DF84BB0BBF1780FB3D8AF
:1014B000BBF1570F49D8BBF1250F00F09180BBF16C
:1014C000240FA9D9BBF1410F03D0ABF14503022B87
:1014D000A2D8DDE91013002BC0F23781079A160756
:1014E00000F13681C2F300194FEA4919C3F30A50DB
:1014F000C3F31303002840F02E8151EA030614BF02
:1015000001260026DB0243EA5153C902BBF1460F14
:1015100040EA010E43EAE07C08BF4FF0660B5EEA4A
:101520000C0CCDE90C1300F09D81002E40F04A8197
:101530000D9B43F00043A0F2FE380D930020DDE93F
:101540000C1306464FF0050C56E1ABF1580120296B
:101550003FF662AF01A050F821F000BFE91601008C
:1015600019140100191401001914010019140100C3
:1015700019140100191401001914010019140100B3
:10158000D3140100191401006D1601008116010029
:10159000D3140100D3140100D31401001914010065
:1015A0008116010019140100191401001914010019
:1015B0001914010023170100E9160100EF160100BC
:1015C0001914010019140100E71501001914010094
:1015D000E91601001914010019140100E9160100AF
:1015E00003995846F6E4002F109E3BDB39463046FF
:1015F0000CF0D4FC002E3FF40FAF3718BB1B4FF09C
:1016000000099DF84A2012F01001059100F0578260
:10161000023312F04002DDF84C80089218BF149A91
:10162000CDF81C80434418BF9B18049A002A40F34D
:101630006182D31A04939DF848305807C3F3800B96
:1016400000F15882590640F14882B9F1000F07D0E5
:1016500003994846D0470028C0F23C820135D9465C
:1016600030233BE23046FFF799FCC6E7109B8DF82C
:101670005C304FF000090DF15D0717AE0123C0E7A4
:10168000079B1A0758BFC3F30019DDE9102354BFA5
:101690004FEA49194FF02B09002B06DA524263EB4F
:1016A0004303CDE910234FF02D090DF1750300938D
:1016B000DDE9100117AB12AA01F060FE0646002F0B
:1016C0000CDB9DF848200DF175039B1B6FF3861210
:1016D0009F428DF8482001D9FB1A1393002E3FF446
:1016E0009BAE0DF175075BE04FF00009DDE7109848
:1016F000002800F0DF810DF17503009312AA17ABEB
:10170000002101F03BFEBDF84A3003F0EF0343F443
:10171000F04343F010030646ADF84A304FF000099D
:10172000CDE7109A072B3FF677AEDFE803F00C0405
:10173000060C08080C0C15706EE615806CE6EB17AD
:10174000C2E9005368E6156066E64FF02D09CDE664
:101750004FF02B09CAE640F2FF76B0422FD10BF1D1
:1017600001029F48D2B20B43825C02F003021ED1F9
:10177000012A0BBF492369234E216E210CBF46224B
:1017800066228DF85C309DF848308DF85D106FF35F
:1017900086138DF85E208DF848300DF15F0717AE87
:1017A000BB1BB9F1000F3FF42CAF013329E7012A2D
:1017B00015BF6E234E23612141211A46E1E7002621
:1017C000A0E6013849185B41002BFADACDE90C1389
:1017D000AEE6490841EAC3715B08B3F1333F4046C6
:1017E00008F10108F5D20CFB03FEA1FB0C1300F17C
:1017F00002087344013E012018F1020FE9DB08B131
:10180000CDE90C13B8F1000FDDE90C312DDCC8F186
:101810000400A0F1200C08F11C08C34001FA08F8EC
:1018200021FA0CFCC1400BF0DF0043EA0803472813
:1018300043EA0C033AD1F01C01DBB7422BDAABF1DF
:101840000202002F5FFA82FB7DDD9DF848008206D0
:1018500007F1FF3777D43A1E18BF0122059207F12E
:1018600001082DE04FF0000868E6023341F1000165
:101870000CA8CDE90C310BF0B3FBDDE90C3108F11C
:10188000FF380136DB184941002908F1FF38F9DA41
:10189000CDE90C31B6E79DF848209006A7EB060786
:1018A0004FD43A1E18BF0122059204E00022BBF17A
:1018B000660F0592D3D117EB06084FF0660B44D4A0
:1018C000B8F1100FA8BF4FF010089FED437B8DEDCE
:1018D0000E7B10200B90DDE90E02B8F1000F37D11E
:1018E000C01842EB0103B3F1805F41D2CDE90C0394
:1018F000079BBBF1660F03F0200340F0BA80002E77
:1019000041DC30218DF85C10002B6BD1002F40F3AF
:10191000B4812E238DF85D3086B17342BB42A8BFDF
:101920003B469DF84A101393002BA7EB0307D4BF47
:101930000023012363F345118DF84A100DF15E0871
:1019400039E00022B0E7002288E74FF00008BCE74A
:10195000400840EAC2705208CDE90E020EA8CDE957
:10196000083108F1FF380BF03BFBDDE90831B2E745
:10197000400840EAC3705B08CDE90C030CA80BF0EB
:101980002FFB0136B4E70DF15C080B99002909DD46
:101990000BA90CA807930BF03BFB013E08F8010BC9
:1019A000079BF2D113969BB9002F40F364812E213F
:1019B00008F8011B0026002F1DDD0B9B002B1ADDF4
:1019C0000BA90CA80BF024FB013F08F8010BF2E770
:1019D0002E2308F8013BEDE700000000000000089E
:1019E000DA0A02002E238DF85D30002EA6D0002FDB
:1019F00093DC0DF15E08059B002B4ED114974746F2
:101A00000BF0DF03452B23D1002EBABF76422D23E6
:101A10002B23632EC8BF64217B70D1BFBA1CB6FBD9
:101A2000F1F3FA1C03F13000C8BF01FB13664FF05D
:101A30000A01C8BFB87087F800B0B6FBF1F31746CB
:101A400003F1300001FB1363303307F8020B5370CE
:101A5000139B002B2CDC149B002BD4BF00230123F1
:101A60009DF84A2063F3861200238DF84A203B70CC
:101A700095E60BA90CA807930BF0CAFA079B8DF803
:101A80005C00302818BF06F1FF3613B9002F40F371
:101A9000F4802E238DF85D3050E7474608F1FF387B
:101AA00017F8013C302BF8D02E2B08BF4746A7E78C
:101AB0000123D5E7724F81467E1F0523A1E511075B
:101AC00048BF0133A5E5184609930399D04700287C
:101AD000099B05DA1FB0BDE8F08F2023DDF810B0B8
:101AE0005A46002A0BF1FF3BEDDC049BCDF810B009
:101AF0002B449D1AB9F1000F05D003994846D047F1
:101B00000028E7DB0135089B002B79D09DF949308F
:101B1000002B29DBDFF86C913346187819F8002088
:101B200052079B4603F101033FD49DF84A30AE1B98
:101B300098065E4407D44246002A08F1FF383BDC91
:101B4000079B33449E1A9BF800002E280AD1039964
:101B5000D0470028BEDBB8F1000F06F1010631DCEA
:101B60000BF1010B5D4638E0B14699F80000702892
:101B7000C84609F1010913D1AE1B149D46443544F2
:101B8000AB1B002B34DC03993B46424650460BF01E
:101B900056FA00289EDB3044049E0546064465E064
:101BA0000399D0470028E0DA94E705930399D047DA
:101BB0000028059BB1DA8DE703993020D047002833
:101BC000B9DA87E703993020D04708F1FF38C0E73A
:101BD0000399D0470028FFF67DAF287819F8003028
:101BE0005907A84605F10105F2D4A6EB0B06C4E798
:101BF00003993020D0470028FFF66CAF0136BFE7CD
:101C00009DF84A30DA0601D41B0706D50399302027
:101C1000D0470028FFF65EAF0135059B3BB1039925
:101C20009DF84B00D0470028FFF654AF0135A8447B
:101C300006E003993020D0470028FFF64BAF01356E
:101C4000A8EB0503002BF4DC03993B4632465046D3
:101C50000BF0F5F90028FFF63DAF28449CE7039907
:101C60002020D0470028FFF635AF0135731B002B2D
:101C7000F5DCFFF7D1BB1E46BDE60DF15D08BAE607
:101C800041F30100DB0A02002DE9F04F476A97B0EB
:101C90008DED000B55EC104B209E089183460C9265
:101CA00012937FB9102009F0C7FB0246CBF824003D
:101CB00020B9A74BEA21A74809F08EFBC0E90177BC
:101CC0000760C760DBF82430196859B15A684A6068
:101CD000012393408B6058460AF074FBDBF82430F4
:101CE00000221A602B1EB9BF23F00043019300238A
:101CF0003360019F984BBCBF01223260BB4319D1B6
:101D0000129A42F20F731360C7F31303234300F0D8
:101D1000DD85219B53B9914B21E0914B039308330F
:101D2000219A1360039817B0BDE8F08F8B4B039393
:101D30000333F5E79DED007B002251EC170B0023E8
:101D40008DED0A7BFEF750FF804650B1129A0123B9
:101D50001360219B13B1219A824B1360824B039332
:101D6000E0E79DED0A0B14AA15A958460AF0ACFD50
:101D7000C7F30A560290002E78D00B9BCDF84C800A
:101D8000C3F31303DDE90A0143F07F5343F4401327
:101D9000A6F2FF3619460022744BFEF705FB66A338
:101DA000D3E90023FEF7B8FC65A3D3E90023FEF7CF
:101DB000FDFA044630460D46FEF744FC62A3D3E923
:101DC0000023FEF7A9FC02460B4620462946FEF7F3
:101DD000EDFA04460D46FEF74FFF002207460023AA
:101DE00020462946FEF70AFF40B13846FEF72AFC96
:101DF00022462B46FEF7F8FE00B9013F162F52D8B7
:101E00005B4B03EBC703D3E90023DDE90A01FEF7CF
:101E1000F5FE002849D0013F00231193149B9B1B22
:101E20005A1E45BFC3F10103069300230023079206
:101E300054BF06930793002F39DB079B10973B4451
:101E4000079300230993089B092B66D8052BC4BF71
:101E5000043B0893089BA3F10203CCBF0024012498
:101E6000032B65D8DFE803F02B383657DDE9146320
:101E70001E4406F23243202BC1BFC3F140039F40F2
:101E800006F2124324FA03F3D6BFC3F1200347EA54
:101E9000030004FA03F0FEF7C5FB0122A1F1F87379
:101EA000013E139276E70123B7E71190B6E7069B50
:101EB000DB1B06937B42099300231093C3E70023A7
:101EC0000D930C9B002B57DC0123049399461A4673
:101ED0000C920CE00123F3E700230D930C9BFB18FD
:101EE00003F1010904934B46012BB8BF0123DBF832
:101EF00024000021042202F114059D4240D94160D2
:101F000058460AF01FFA039000283CD1194B0246AC
:101F10004FF4D571CFE60123DFE7012400230893B6
:101F20000D944FF0FF330493994600221223CFE71C
:101F300001230D93F5E700BF61436F63A787D23F8D
:101F4000B3C8608B288AC63FFB799F501344D33FA8
:101F50002B0C0200420C02000000F07F270C020054
:101F60001E0C0200C5ED0100C4ED01000000F83FA9
:101F7000D0E60100B60C02000C9B04939946B6E72C
:101F800001315200B7E7DBF82430039A1A60B9F147
:101F90000E0F6FD8002C6DD0002F36DDA14B07F04F
:101FA0000F0203EBC20393ED007BF8058DED0E7B72
:101FB0004FEA271417D59C4BDDE90A01D3E9082322
:101FC000FEF7D4FCCDE9000104F00F044FF0030844
:101FD000954D5CB9DDE90E23DDE90001FEF7C6FC95
:101FE000CDE900012BE04FF00208F1E7E10709D548
:101FF000DDE90E01D5E90023FEF78EFBCDE90E01E8
:1020000008F1010864100835E3E700F007817C421D
:10201000844B854D04F00F0203EBC203D3E9002388
:10202000DDE90A01FEF778FBCDE900012411002368
:102030004FF00208002C40F0E580002BD0D1119B1E
:10204000DDE90045002B00F04C81784B0022204652
:102050002946FEF7D3FD002800F04381B9F1000FB7
:1020600000F03F81049B002B00F3E480DDE90A349B
:10207000CDE90034159B002B02DB0E2F40F342828A
:102080000D9A002A40F06782099CDDF8188000252F
:10209000B8F1000F0DD0079B002B0ADD4345069ACF
:1020A000A8BF4346D21A0692079AA8EB0308D31A90
:1020B0000793099B0BB30D9B002B00F0A682002C0D
:1020C00000F0A1822946224658460AF0A3FA029A55
:1020D0000146054658460AF0F3F902990646584665
:1020E0000AF070F9099B1B1B099300F09182099A71
:1020F000314658460AF08EFA0290012158460AF0FD
:10210000C9F9109B0446002B00F084821A46014650
:1021100058460AF07FFA089B012B044603DC009B1B
:10212000002B00F07C820026236904EB83031869EE
:102130000CF0B9F81096C0F12000079B184410F07D
:102140001F0000F09182C0F12003042B40F3818234
:10215000069BC0F11C0003440693079B0344804484
:102160000793069B002B05DD02991A4658460AF094
:10217000ABFA0290079B002B05DD21461A46584614
:102180000AF0A2FA0446119B002B00F07682029816
:1021900021460CF0D7F8002880F26F8200230299C4
:1021A0000A2258460AF030F90D9B02907E1E002B41
:1021B00000F05C82002329460A2258460AF024F9DE
:1021C000049B002B054603DC089B022B00F35E8278
:1021D000B8F1000F05DD2946424658460AF074FA68
:1021E0000546109B002B00F0D082696858460AF023
:1021F000A9F80746002840F07F820D4B024640F2C6
:10220000EA2158E5E20706D5D5E90023FEF784FA6E
:1022100008F101080123641008350BE74FF00208AC
:102220000DE700BFD0E60100A8E601000000F03F86
:10223000B60C02002046AD4B00222946FEF76CFA90
:10224000CDE90001049C7E1E08F101084046FEF71E
:10225000F9F9DDE90023FEF75FFAA54B0022FEF74E
:10226000A5F8A1F15073CDE90E010F93002C3BD1DD
:10227000DDE900019F4B0022FEF796F802460B466F
:10228000CDE90023DDE90E23FEF7D6FC002840F05F
:102290005781DDE90E2101F10043DDE90001FEF780
:1022A000ADFC00283FF4E2AE002425460C9BDDF88F
:1022B0000CA0DE434FF00008214658460AF082F891
:1022C000002D00F0A980B8F1000F05D0A84503D07B
:1022D000414658460AF076F8294658460AF072F800
:1022E0009AE03E464C46B1E7834B03EBC40353E907
:1022F0000201039B1C440D9B002B4AD002460B4657
:1023000000207E49FEF732FBDDE90E23FEF74CF894
:10231000CDE90E01DDF80CA0DDE90001FEF7ACFC13
:102320000546FEF78FF902460B46DDE90001FEF790
:102330003BF83035CDE9000102460B460AF8015B57
:10234000DDE90E01FEF778FC002865D1DDE9002308
:102350006B490020FEF728F802460B46DDE90E0126
:10236000FEF76AFC002840F00D81A24500F0EA80EB
:10237000DDE90E015D4B0022FEF7CEF95B4BCDE9A6
:102380000E010022DDE90001FEF7C6F9CDE90001EA
:10239000C2E7DDE90E23FEF7BFF9CDE90E01DDF856
:1023A0000CA0A046DDE90001FEF766FC0546FEF73D
:1023B00049F902460B46DDE90001FDF7F5FF30352E
:1023C0000AF8015B02460B46A245CDE900234FF017
:1023D000000223D1494BDDE90E01FDF7E7FF02467C
:1023E0000B46DDE90001FEF727FC002840F0CA801B
:1023F000DDE90E2341490020FDF7D6FF02460B46DA
:10240000DDE90001FEF7FAFB70B1C24608F1FF38C2
:102410001AF8013C302BF8D0374655E0334BFEF725
:102420007BF9CDE90001BDE7DDE90A34CDE90034EF
:10243000159B002BFFF628AE0E2F3FF725AE2E4B37
:1024400003EBC70393ED007B0C9B002B8DED047B0E
:1024500002DAB9F1000F64D0DDE90045DDF80CA027
:10246000DDE9042320462946FEF780FAFEF704FC46
:102470000646FEF7E7F8DDE90423FEF74DF90246CC
:102480000B462046294606F13004FDF78DFF0AF879
:10249000014B039CAAEB0404A14502460B4640F005
:1024A0008280FDF783FFDDE9042304460D46FEF735
:1024B000C3FB002865D1DDE9042320462946FEF749
:1024C00093FB08B1F3075CD40299584609F07AFFF0
:1024D00000238AF80030129B01371F60219B002BDC
:1024E0003FF420ACC3F800A01CE400BF000024406F
:1024F00000001C4000001440D0E601000000E03F56
:102500000000F03FA24B03EBC70393ED007B0C9B55
:10251000002B8DED047B9FDAB9F1000F9CDC7FF47A
:10252000C3AE9C4B0022DDE90401FEF7F5F8DDE9BE
:102530000023FEF777FB044600287FF4B5AE3E4645
:102540002546B4E0DDE90A34CDE90034159B002BC3
:1025500001DB0E2FD6DD089A012A36DC139A82B3EE
:1025600003F23343099CDDF81880069A1A44069258
:10257000079A01211A445846079209F08BFF054635
:1025800086E53E4653469A4613F8012D392A06D170
:10259000039A9A42F7D10399302201360A701A78C9
:1025A00001321A7038E77C4B0022FEF7B5F80022A2
:1025B000002304460D46FEF717FB00283FF450AFFA
:1025C00082E7149BC3F13603CCE7099B09F1FF3482
:1025D000A34208DBB9F1000FA3EB04040EDBDDF826
:1025E00018804B46C1E7099B109A0994E31A1A44D4
:1025F000DDF8188010924B460024B6E7069BA3EB4B
:1026000009080023B1E7029E71E5099A029970E575
:10261000029672E5089B012B17DC009BABB9019B6E
:10262000C3F313039BB9019B23F00046360D360517
:1026300036B1069B01330693079B013307930126AE
:10264000109B002B7FF470AD1096012075E50026DD
:10265000F6E73FF486AD069A1C331A440692079AB1
:102660001A44984407927CE50346F4E7049B002B48
:102670002BDC089B022B09DC27E0B9F1000F1DDCE5
:10268000089B022B1ADDCDF810903E46049B002BD0
:102690007FF40CAE21460522584609F0B5FE0146EE
:1026A000044602980BF04EFE00287FF7FFADDDF8E0
:1026B0000CA031230AF8013B0136FBE50D9BCDF858
:1026C00010903E46002B7FF483AD039F0298214675
:1026D0000BF070FC00F1300907F8019B039B049A92
:1026E000FB1A9A4240F3CB80029900230A225846F3
:1026F00009F08AFE0290E9E72A690232920005F1A8
:102700000C010C300BF08BFA01223946584609F0C7
:10271000DBFF039B03F1010ADDE903231344079365
:10272000009B03F00103A846099305460AF1FF3315
:102730002146029804930BF03DFC4146069000F1BF
:10274000300902980BF0FEFD2A46214607465846FE
:102750000AF026F8C268014602B3584609F032FE74
:10276000002F3ADA02990122584609F0ADFF2146BE
:1027700002900BF0E7FD002803DC29D119F0010FCE
:1027800026D0B9F1390F1DD132E02846C1E700BF8C
:10279000D0E6010000001440000024400A90029896
:1027A0000BF0D0FD0A990C90584609F00BFE0C9ADC
:1027B0005ABB089B53B9099B43B9B9F1390F17D0DC
:1027C000002F05DD069B03F1310901E0002F2ADA15
:1027D000DDF810A00AF8019B6EE5089B3B4304D18D
:1027E000009B03F00103002BBCD0B9F1390F36D1A7
:1027F000049F392307F8013BBA46013F1AF8013C10
:10280000392B5BD001333B7056E5002F06DB089B6C
:102810003B4306D1009B03F0010313B9002AA1DC5E
:10282000D6E7002AE1DC079B0AF8019C534557468E
:102830002FD0029900230A22584609F0E5FDA84549
:1028400002904FF000034FF00A02414658460BD168
:1028500009F0DAFD804605460AF1010A66E7DDF86F
:1028600010A009F10109B5E709F0CEFD294680461F
:1028700000230A22584609F0C7FD0546ECE7049BF1
:10288000002BC8BF1F46039BD8BF01271F444FF032
:10289000000802990122584609F016FF21460290CD
:1028A0000BF050FD0028A7DC02D119F0010FA3D1D5
:1028B000BA4617F8013D302BFAD0FDE4039BBB422A
:1028C0009AD1039A312301361370F5E4219B002B32
:1028D0007FF423AA014BFFF742BA00BF1E0C02008F
:1028E0002DE9F04112F0FC6FD0E90147066913466B
:1028F0000ED04249424A43484FF473730AF0BDFB7D
:1029000041480AF0BAFB4FF473713D480AF0AEFB40
:1029100002F03002302A0CD13C49394A394840F2A1
:10292000CF330AF0AAFB3A480AF0A7FB40F2CF31B6
:10293000EBE7384A384D1A40AA420CD13749304AA1
:10294000304840F2D3330AF098FB35480AF095FB43
:1029500040F2D331D9E703F00602042A09D1314904
:10296000274A284840F2D6330AF087FB40F2D63196
:10297000CBE713F4402216D09D030CD42A49204AF9
:10298000204840F2D9330AF078FB28480AF075FB5A
:1029900040F2D931B9E7B2F5402F18D0244A9A4312
:1029A00001D183F44023246801258D40254223F47E
:1029B000801219D11F49124A124840F2E9330AF035
:1029C0005CFB1D480AF059FB40F2E9319DE71B49C9
:1029D0000B4A0C4840F2DD330AF04FFB18480AF06E
:1029E0004CFB40F2DD3190E73468DB074CBF2C43F1
:1029F000AC4334603B68BDE8F0411847A3EB0100ED
:102A000072EB010000EC01001DEC010041EC010043
:102A10007AEC01000200030002000100B7EC0100A3
:102A2000FEEC01004DED010080ED0100C6ED01005E
:102A3000010010006EEE0100ACEE010001EE01009D
:102A400042EE0100174B10B501241C700BF057F833
:102A50004FF47A73A0FB030203FB0122C00B12495F
:102A600040EA424211480AF0ACF9114B18681B7950
:102A700004FA03F143681B6819420ED10D490E4A4E
:102A80000E4840F27D630AF0F8FA0D480AF0F5FAB4
:102A9000094840F27D610AF0E9FA8368BDE8104018
:102AA0005B69184714110020BEEE0100C4EE01005E
:102AB000B00000206EEE010072EB010000EC01009E
:102AC000ACEE010070B54B4D28460AF09CFF044661
:102AD00028B9296848480AF074F9204670BD474A69
:102AE0000B212846FFF7FCFE044630B101462A6858
:102AF00043480B230AF065F9EFE7D5E90126B469ED
:102B00002B692CB3126812050ED43E493E4A3F4849
:102B100040F287330AF0B1FA3D480AF0AEFA3A487B
:102B200040F287310AF0A2FA1B6813F4006F14BF59
:102B30004FF000734FF080634FF0A0720B212846D6
:102B4000A047044638B12A6832480B232146D1E712
:102B50006FF05704F7E73049304B4B604FF4006398
:102B60008B60F36913B10122284698472C4C2D48FD
:102B700029680B220AF025F9206850B10AF043FFBA
:102B8000054630B9236801461A6827480AF019F942
:102B90002560206878B1E288217942F40032FFF79D
:102BA0009FFE23790146E8B12268204812680AF0A6
:102BB00008F9002323601E481E4C1F4D0AF001F93E
:102BC0002378002BFCD029461C480AF0FAF8012093
:102BD0000AF01FFB014610B119480AF0F2F8002371
:102BE0002370EDE72168174809681A460AF0E9F8EA
:102BF000E1E700BF70E40100E5EE01001100010013
:102C00000BEF01006EEE010072EB010000EC010021
:102C1000ACEE010034EF0100B8070020452A0100A6
:102C2000B00000206AEF010086EF0100B9EF01005B
:102C300006F0010014110020BEEE010018F00100A2
:102C40006DF00100EDEF0100014B1B68184700BF5C
:102C5000B8000020014B1860704700BFB80000208A
:102C600007B50B460021024600910348FEF7A0F984
:102C700003B05DF804FB00BF492C0100B2F5802FC2
:102C80002DE9F04110D2042A28D84349434A444848
:102C90004FF4F9730AF0F1F942480AF0EEF94FF4F3
:102CA000F9713E480AF0E2F90823D21ACC1D11440A
:102CB00024F0070421F00701091B17294FEAD10668
:102CC0000ED83949354A364840F2FB130AF0D5F997
:102CD00034480AF0D2F940F2FB11E2E70423E4E7BA
:102CE000002704603146A660E76030460AF0C1F86C
:102CF0000121421D804630460AF0B2F89200D51DEF
:102D0000ED082844B0423AD8B8F1FF3FA2F11002D2
:102D10003946B8BF3A4604F110000AF0BBFF2A4614
:102D2000394620460AF098F83B463A46394620464E
:102D30000AF069F8A6EB05082046394601220AF098
:102D400073F8424629460AF087F82B463A46294648
:102D500020460AF058F8314620460AF07DF84346EE
:102D60003A46314620460AF04EF8314620460122C6
:102D70000AF05AF82946BDE8F0410AF086B80B4936
:102D8000064A07484FF403730AF077F905480AF03A
:102D900074F94FF4037184E764F1010098F00100C5
:102DA00000EC010085F101009EF10100C7F1010076
:102DB0002DE9F84F04460846A38B1907154612D48F
:102DC000022803F0070165D120460AF0A0F888B177
:102DD0000138042800F23781DFE810F05C0035018B
:102DE0008200D400040101280CBF43F0100143F01D
:102DF0002001A1831434204605F0ACFF002840F0E8
:102E00009F819A499A4A9B4840F231130AF035F95A
:102E10002146B1E003F00702501F01281ED8002010
:102E2000062A2768C4E9000014D13A4603E0E08B83
:102E30000130E0831268002AF9D123F0070343F040
:102E40000202A28320460AF062F890B342F0200208
:102E5000A2832EE023F007039AB2F2E7042A33D1CB
:102E600023F007039AB2A28320460AF050F810B16B
:102E700042F02002A283A38B03F00709894540F0AA
:102E8000EC80A18BCA0640F1528121F01003A3838C
:102E900001F00701D4F81880A38BB8F1000FB9DA5C
:102EA0000022276823F00703C4E9002243F001034E
:102EB000A383A38B03F00709894540F0CF80002F3F
:102EC000DFD00026B24644E06B496C4A694840F2C4
:102ED0001B130AF0D2F840F21B1168480AF0C6F83A
:102EE00049B16749654A63484FF4AB730AF0C5F8C6
:102EF0004FF4AB71F1E723684BB962495F4A5D4813
:102F000040F257130AF0B9F840F25711E5E7236988
:102F10001E684EB95C49594A56484FF4AD730AF0E1
:102F2000ACF84FF4AD71D8E7A38B23F0070343F05F
:102F300006039BB2A3830F4688464FF00609A2689A
:102F4000002A40F08D80002F40F08D80002E98D018
:102F5000BA4643F0080304F1140BA383584605F066
:102F6000F9FE002840F09A804049414A414840F229
:102F700031130AF082F8594644480AF07EF840F2CC
:102F80003111AFE0022909D041493C4A394840F2A9
:102F90005D130AF072F840F25D119EE7E78B4FB1C6
:102FA0003C49364A33484FF4AF730AF066F84FF4A1
:102FB000AF7192E723695E684EB933492F4A2D48B5
:102FC00040F261130AF059F840F2611185E7A38BD2
:102FD00023F0070343F004039BB2A383B8464FF0EA
:102FE0000409ACE7012909D02B49244A21484FF4B0
:102FF000B2730AF042F84FF4B2716EE723684BB92E
:1030000020491E4A1B4840F265130AF036F840F288
:10301000651162E723699E684EB91B49174A154836
:103020004FF4B4730AF029F84FF4B47155E7A38B49
:1030300023F0070343F005039BB20027A383B846A0
:103040004FF005097BE70C490C4A0A4840F26B1324
:103050000AF013F840F26B113FE7002700266EE7F5
:103060004FF0010A75E7924673E700BFC2F2010014
:1030700095F2010000EC0100C4ED0100F2F1010045
:1030800014F2010020F2010043F20100D9F2010024
:103090005AF2010070F201007FF2010085F31188FD
:1030A000BFF36F8FBAF1000F1ED1002F2FD116B1D1
:1030B00026492046B0474FF02003EFF3118583F3F4
:1030C0001288BFF36F8F584605F036FE38BB204A92
:1030D00020492148882309F0D0FF59461F4809F0AC
:1030E000CCFF88211A48F9E6A1680029DDD00D68D7
:1030F0000029DAD0D1F804A043464A462046D047FA
:103100001DB12B6829461D46F2E72B46FAE73946E2
:1031100043464A4620463F6809F025FFC5E7584622
:1031200005F028FEA38B23F00803A383A9E68B06F2
:103130007FF560AE21F02003A38301F0070143E691
:1031400085F31188BFF36F8FBDE8F88F61310100FF
:1031500095F20100EEF2010000EC010003F3010022
:10316000F8B504460D4600F114064FF02003EFF3C6
:10317000118783F31288BFF36F8F304605F0DCFDB3
:1031800068B90C4A0C490D48882309F076FF0C48B1
:10319000314609F072FF0748882109F067FF304681
:1031A00005F0E8FDA5613A4620460121BDE8F8405A
:1031B000FFF7FEBD95F20100EEF2010000EC010008
:1031C00003F301002DE9F04704460F4609F0BBFE6A
:1031D000051E69DB04F114094FF02003EFF3118A97
:1031E00083F31288BFF36F8F484605F0A5FD804634
:1031F00060B9394A39493A48882309F03EFF4946BF
:10320000384809F03AFF8821334842E0484605F043
:10321000B1FDE38BA68B4FF6FF72934206F00706D3
:1032200045D0022E15D10133E3833546484605F0DB
:1032300091FD002841D1284A2B49294840F23113F9
:1032400009F01BFF4946294809F017FF40F23111E8
:10325000DAE7062E13D8DFE806F0092D121209046A
:1032600009006FF085054FF00008DFE700233B60A1
:10327000636883B9C4E9007786B13546F3E71C4932
:1032800017481C4A4FF4E47309F0F7FE19484FF44D
:10329000E47109F0EBFE1F606760EDE75246022122
:1032A0002046FFF785FD35462846BDE8F0876FF0DC
:1032B0000A05D8E76FF00405D5E78AF31188BFF354
:1032C0006F8FB8F1000FEFD0002332463946204609
:1032D00009F049FEE8E700BF95F20100EEF20100B7
:1032E00000EC010003F30100C2F20100D9F2010079
:1032F0007FF20100F2F1010008B54268816002F03E
:103300000302022A03460AD0032A4FF0000103D029
:10331000012A0AD1596006E01868596008BD18688A
:1033200000225A6058B90020F8E706490648074AC3
:10333000452309F0A2FE0548452109F097FE07F054
:103340006DFDF0E7C4ED010000EC010019F3010090
:10335000F0B5094E016802460A2700200B460131EC
:103360001C78355D6D0701D41360F0BD07FB004389
:10337000A3F13000F2E700BFDB0A02002DE9F84FAD
:1033800015469A46D378224A12F803B06F2B80462E
:103390000F460BF0030B29D024D8582B0CBF102656
:1033A0000A26DDF828903246002340463946FDF7CC
:1033B0008BFC092AD4B21ED83034B045E4B277F180
:1033C000000709F8014D01D3D14511D82B789B0690
:1033D00005D5082E15D1AB7843F00803AB704846ED
:1033E000BDE8F88F03F0F703702BD7E70826D8E77E
:1033F00080460F46D7E7BBF1010F0CBF3734573477
:10340000DBE7102EEBD1AB7843F01003E6E700BF0B
:10341000DB0A020008B504464FF02002EFF31183E7
:1034200082F31288BFF36F8F02F05CFF204600F03A
:10343000FFFA034809F0C5FC00F03CFDFCE700BFC3
:1034400042F30100014B03600020704798E7010040
:1034500070B5114B1C680D46DCB1104B1968002388
:103460008B4202DB6FF0010070BD224612F8106B38
:10347000864202D001331446F2E7E06810B96FF0DB
:103480001200F1E70AF0BFFA0028F8D02C60002003
:10349000EAE76FF00C00E7E7BC00002098E70100C6
:1034A000014809F0E7BA00BF0CE8010038B504464E
:1034B00018B90F4B0F485B6898476168B1F5683FD2
:1034C00010D0B1F5680F0DD00B4DA9420AD011F400
:1034D0006861206807D00146084805F097FA002384
:1034E0002360656038BD14220AF0D4FBF9E700BF01
:1034F000E80300206BF301002C5F5CA9C40C0020E2
:1035000008B520B34368B3F5683F10D101220368C2
:10351000BFF35B8F53E8001F002903D143E800206D
:103520000028F7D1BFF35B8F0DD1002008BD094AF9
:1035300093420AD000684FF0FF324FF0FF3305F09E
:10354000D5FC0028F1D00448F0E70448EEE76FF41A
:10355000E040EBE72C5F5CA9E98FFFFFEA8FFFFFFC
:1035600008B5D8B14368B3F5683F10D100220368AD
:10357000BFF35B8F53E8001F012903D143E800200C
:103580000028F7D1BFF35B8F0BD1002008BD074A9D
:10359000934208D0006805F019FCF6E76FF4E040AC
:1035A000F4E70348F2E70348F0E700BF2C5F5CA9AB
:1035B000E98FFFFFEA8FFFFF10B5044618B91D4BD6
:1035C0001D485B6898476368B3F5683F2FD0B3F533
:1035D000680F2CD0194A934219D1236803BB1848AD
:1035E0004FF0FF324FF0FF33214605F0A3F908B941
:1035F00023681BB90F4B13485B6898472068142257
:1036000000210AF047FB4FF46863636008E0B3F5FC
:10361000683F0DD83A2B03D040F6BA629342DED110
:1036200020680AF037FA636843F03A03636010BD1C
:10363000054AF3E7E80300206BF301002C5F5CA967
:10364000C40C002091F301003A00003A08B5064985
:103650000648402314220AF0FBF9BDE8084004495B
:10366000044809F079BA00BFC4070020C40C002048
:1036700014E8010028E8010030BFFFF7FDBF00BFDC
:10368000044B99689869884203D003494FF08052EF
:103690000A607047D40E002004ED00E0F8B52F4B0F
:1036A00015469A6A12F0100F9A6A14BF112410245A
:1036B00012F0080F9A6A18BF1224970706460AD517
:1036C000586B9A6A140634D519B19A6A22F08002AE
:1036D0009A62132401E06FF01500204B9A6A12F0F1
:1036E000010F9A6A18BF142412F0200F9A6A18BFAB
:1036F0001524D10602D49B6A9A070AD5174F7B6816
:103700001B0506D5314600F069FBA8B180F3098896
:103710000224124B9A6A920642BF5A6A22F400525D
:103720005A629A6A42F0FF029A6200232B70204686
:10373000F8BD6FF01500CCE7BB6AD906E9D508499A
:10374000084A094840F25D1309F097FC074809F060
:1037500094FC044840F25D1109F088FC00ED00E0A3
:10376000F0F30100BEF3010000EC01003AF40100A7
:10377000134B9A6A12F0007F9A6A14BF1E201D2014
:1037800012F0807F9A6A18BF1F2012F4002F9A6AE5
:1037900018BF212012F4802F9A6A18BF222012F439
:1037A000003F9A6A18BF232012F4803F9A6A6FEA9A
:1037B00002426FEA12429A6218BF2420704700BF8B
:1037C00000ED00E010B5194B0246986A9C6A10F4AF
:1037D000805F14BF1720162014F4006F9C6A18BF76
:1037E0001820A40509D5986B986A000404D51AB16D
:1037F0009A6A22F400429A6219200C4B9A6A12F4D7
:10380000806F9A6A18BF1A20D2050CD49B6A13F4F1
:10381000005F18BF1C20054A936A43F47F439362FC
:1038200000230B7010BD1B20F5E700BF00ED00E08A
:1038300070B5594B5B689CB00546C3F3080300267E
:1038400086F31188BFF36F8F02F07F40B0F17F4F96
:1038500008D102F00C00082804D012074CBF0D4616
:10386000012675B94D494E4A4E484FF48B6309F015
:1038700004FC4D4809F001FC4FF48B61484809F005
:10388000F5FB0022033B8DF80720032B7DD8DFE8F2
:1038900003F002747857404AD46A14F0020474D1D9
:1038A000D36A002B1ADBD36A5B0059D55369A96927
:1038B00043F480735361BFF34F8FBFF36F8F53692E
:1038C00031F8021C23F480735361BFF34F8FBFF3B1
:1038D0006F8F4DF60273994219D12C689DF807300D
:1038E0009BB96822294602A80AF099F9099B002E83
:1038F0004DD0C3F3080222B96FEA53236FEA432382
:10390000099302A9204609F019FC1CB070BD936A06
:10391000DBB23BB10DF1070201212846FFF7BEFEE5
:103920000446DBE7936A13F47F4F05D00DF10701DE
:103930000120FFF747FFF3E7936AB3F5803F02D317
:10394000FFF716FFECE71949154A164840F22A33EB
:1039500009F093FB164809F090FB40F22A318DE7FD
:1039600012490F4A0F4840F22E3309F086FB1148E6
:1039700009F083FB40F22E3180E70DF107020021B0
:10398000CBE70DF107010020D3E70024A6E723F4DD
:10399000FF7323F00103B3E700ED00E05DF40100E5
:1039A000BEF3010000EC010070F40100C4ED010061
:1039B000AEF40100D2F40100024A536943F010034F
:1039C0005361704700ED00E0EFF30880EFF30981E9
:1039D00001B57246FFF72CFF01BD00BF002080F348
:1039E0001488BFF36F8F00F03DFD00200D49086083
:1039F000BFF34F8F0C4880F3088800F03DF820207B
:103A000080F3118809484FF40461401880F3098855
:103A1000EFF314800221084380F31488BFF36F8F03
:103A200000F046F994ED00E0805B00208015002056
:103A3000BFF34F8F0549064BCA6802F4E062134397
:103A4000CB60BFF34F8F00BFFDE700BF00ED00E08C
:103A50000400FA050749D1F890200023C2F3072299
:103A60001846934200DB7047C1F89830C1F8A000B7
:103A70000133F6E700ED00E008B572B6002383F3EA
:103A80001388FFF7E7FF144B4FF0FF32C3F8802095
:103A9000C3F88420C3F88820C3F88C20C3F8902092
:103AA000C3F89420C3F89820C3F89C20C3F8802161
:103AB000C3F88421C3F88821C3F88C21C3F890216E
:103AC000C3F89421C3F89821C3F89C2162B6BFF3D0
:103AD0004F8FBFF36F8F08BD00E100E0084B9B687C
:103AE00083420BD1EFF3058343B1064B5A6842F092
:103AF00080525A605A6A22F400425A6206F0BEBCF2
:103B0000D40E002000ED00E0094A93686FF00A012E
:103B1000D967084998674B6843F080534B6000238E
:103B200083F31188BFF36F8F9368D86F704700BF1E
:103B3000D40E002000ED00E021498A6882F8C1E03F
:103B40004FF030001044EFF3098C80E8F01F1EF0B6
:103B5000100F03D102F1800080EC108A202080F346
:103B60001288BFF36F8F174F4FF000668A698A6023
:103B70003E6092F9C1E0906F0023936780F3118853
:103B80001EF0100F03D00023E1EE103A03E002F123
:103B9000800090EC108AEFF3148323F0040383F386
:103BA0001488BFF36F8F04B5104600F0C9F9BDE863
:103BB000044002F1300090E8F01F8CF30988704750
:103BC000D40E002004ED00E01EF0040F0CBFEFF354
:103BD0000880EFF30980816911F8021C0229FFD0E7
:103BE00001B509F0ADFA01BD40B2002807DB044A77
:103BF0004109012300F01F00834042F82130704743
:103C000000E100E040B200280CDB4309064900F067
:103C10001F0020330122824041F82320BFF34F8F41
:103C2000BFF36F8F704700BF00E100E0054B420912
:103C300000F01F0053F82220012303FA00F0104087
:103C4000704700BF00E100E038B54B1C072B04466D
:103C50000D460FD9114A12491248582309F00DFA9E
:103C6000114829460723224609F007FA0B48582134
:103C700009F0FCF940B20028ACBF00F160400B4AEB
:103C80004FEA4313B8BF00F00F00DBB2AABF00F544
:103C90006140135480F8003338BD00BF02F50100C5
:103CA00039F5010000EC010054F5010014ED00E0CD
:103CB000144A08B5144B22F07F029A60BFF34F8F6D
:103CC000BFF36F8FD3F8882022F47002C3F88820E6
:103CD000D3F8882042F4A002C3F888204FF0404275
:103CE000C3F83422BFF34F8FBFF36F8F0023E1EE91
:103CF000103A04F035FD06F0A3FC00F0F5F804F0EE
:103D000081FD00BF0002010000ED00E0017B89079A
:103D100005D5816E40318166C16E4039C16642F879
:103D2000203C009B42F81C3C0F49019B42F8183C88
:103D3000029B42F8143C21F001014FF0807342F8DD
:103D4000043C42F8081C00238367037B13F0020F36
:103D5000A2F120024FF6085308BF4FF47D430265DD
:103D6000C0F8C030704700BFDDCD0100037B13F009
:103D7000020F194B03D190F8C120D20617D45A6B09
:103D800042F080425A63D0F8C030190709D443F09A
:103D90000803C0F8C030836E40338366C36E403B77
:103DA000C366037B43F002030373802070475A6BA2
:103DB00022F080425A63D0F8C0301A0701D4402064
:103DC000704723F00803C0F8C030836E403B836621
:103DD000C36E4033C366F2E700EF00E00C4A0346CF
:103DE0009068A0B1D0F8C020806E12F0080F0CBF10
:103DF0004022802213F1160F04D0821A9A4205D86D
:103E0000834203D2814228BF0020704700207047C0
:103E1000D40E0020114B9B6883421BD1EFF3058029
:103E2000C0B94FF02002EFF3118182F31288BFF383
:103E30006F8F1A7B22F002021A73EFF3148323F0C0
:103E4000040383F31488BFF36F8F81F31188BFF3EA
:103E50006F8F70476FF01500704700BFD40E0020C1
:103E600008B514460D460022E1EE102AEFF3148245
:103E700022F0040282F31488BFF36F8FBFF36F8FB9
:103E8000084A906000F05CF8204685F3098800211C
:103E900063B681F31188BFF36F8F0022002308F00F
:103EA0009DFF00BFD40E0020014910220A60704718
:103EB00010ED00E072B6404080F31188BFF36F8FC1
:103EC000BFF34F8F30BF62B6BFF36F8F704700BF35
:103ED00072B6494081F31188BFF34F8F20BF80F342
:103EE000118862B6704700BF044800232021C21821
:103EF0000133302B82F80013F9D1704700E100E064
:103F000001B5EFF30580A0F110004FEAC0000449AD
:103F1000014409C99847BDE801400249084700002B
:103F2000E8E4010081360100024B034A0348012105
:103F300000F046B8000004200000002038E801002E
:103F400010B50446FFF712FFA26E03460548D21AC9
:103F5000C0E90023044B8360BDE81040012100F05C
:103F600055B800BFE40C002000000B15084AC2F849
:103F700098000B6823F01F03034343F01003C2F8BB
:103F80009C308B6843F00103C2F8A030704700BF3B
:103F900000ED00E0044B0522C3F89420BFF34F8FDF
:103FA000BFF36F8F704700BF00ED00E0BFF35F8F7E
:103FB000024B0022C3F89420704700BF00ED00E0E0
:103FC00038B50D4D01232A780C4609F0D8F8287031
:103FD00016300FD1094A0A490A4840F26D1309F018
:103FE0004CF80948214609F048F8044840F26D11A0
:103FF00009F03CF838BD00BF1511002094F5010010
:10400000C4ED010000EC0100C3F5010010B5124A37
:10401000002312780C4609F0B2F810F1160F04D004
:104020000E4B0022072810DD10BD0D4A0D490E4829
:104030004FF4C67309F021F80C48214609F01DF829
:1040400007484FF4C67109F011F8C3F89800C3F897
:10405000A0200130E6E700BF1511002000ED00E0D0
:1040600094F50100C4ED010000EC0100EFF5010042
:104070002DE9F043654D2C68082C85B010D9644AB1
:10408000644965484FF4D27308F0F7FF214663484E
:10409000082208F0F2FF4FF4D2715D4808F0E6FF05
:1040A000FFF784FF00200C26844221D15C4EDFF80C
:1040B0008C8134706846FFF7C5F900250746AF428A
:1040C0001DD1FFF767FF574BD3F89030C3F3072399
:1040D000082B00F0978054494D4A4F4840F20F2377
:1040E00008F0CBFF514808F0C8FF40F20F21D4E799
:1040F000696806FB0011FFF739FF0130D4E7009A29
:1041000002EB05132901D3F80C9009EA0804B4F571
:10411000000F63D015D8B4F5001F39D0B4F5800F67
:1041200050D0B4F5801F1CD03A49394A3A484FF470
:10413000E77308F0A2FF3E4808F09FFF4FF4E771D5
:10414000ABE7B4F1807F53D0B4F1007FECD1986835
:104150005C68525809F003F8CDE9014240F4802030
:104160000AE098685C68525808F0F9FFCDE901420E
:1041700040F0885040F43020039030780728D3D89E
:1041800001A9FFF7F3FE337801333370013596E769
:1041900098685C68525808F0E2FF40F0885040F49C
:1041A000002019F0010FCDE901420390E5D021492B
:1041B000174A1948702308F060FF1F4808F05DFF98
:1041C00070216AE798685C68525808F0C8FF40F0B0
:1041D0000070CDE9014240F40030CDE798685C689A
:1041E000525808F0BCFFCDE9014240F08270C3E7AD
:1041F00098685C68525808F0B2FFCDE9014240F07F
:104200008870B9E7002005B0BDE8F08344E80100FC
:1042100094F50100C4ED010000EC01001CF6010062
:104220001511002000ED00E0CFF601001FF701009E
:10423000A5F6010050F6010076F601000000F0FF3F
:1042400008B50B4BC3F1005303F58023B3F5006FA2
:104250000CD20849084A0948802308F00EFF084894
:1042600008F00BFF0448802108F000FF002008BD83
:10427000407000207FF701004FF7010000EC0100C3
:10428000C6F70100014B1860704700BFE400002032
:10429000F8B5084F06460D460024AC4208DA3B68E4
:1042A00098470A28305504F1010401D00D28F4D1B3
:1042B0002046F8BDE0000020F8B50A4F0D46461E26
:1042C000C0F10104A3199D4201DC2846F8BD7378B2
:1042D0000A2B02D13B680D2098473B6816F8010F66
:1042E0009847EFE7E400002010B5074C2368C21898
:1042F0000648C0F1005101F580218A423ABF226090
:10430000C0184FF0FF3010BDF00C002040700020AE
:1043100010B5044658B91149114A124840F27913B0
:1043200008F0ABFE40F279110D4808F09FFE142012
:1043300007F082F8206060B90B49094A094840F249
:10434000811308F09AFE094808F097FE40F28111A7
:10435000EAE7BDE8104009F09DBB00BF4EF8010040
:104360004FF7010000EC01004DF8010089F8010051
:1043700010B558B909490A480A4A4FF4D37308F0EE
:104380007CFE08484FF4D37108F070FE4FF0FF3206
:10439000BDE810404FF0FF3304F0A8BD4EF8010017
:1043A00000EC01004FF7010008B558B9074908486B
:1043B000084A4FF4E17308F060FE06484FF4E171DB
:1043C00008F054FEBDE8084004F000BD4EF80100BE
:1043D00000EC01004FF7010008B51D210448FFF76C
:1043E0006BFF404080F311884FF0030002DF00BFF5
:1043F000ACF8010008B5044808F0E3FC404080F345
:1044000011884FF0040002DFCAF801000E4A0123B0
:10441000C2F840354FF080424FF08051C2F87835F5
:10442000D1F83001082808D1D1F83411052904D871
:104430000648415C09B1C2F838364FF0804301228A
:10444000C3F880250020704700E00140D3F8010048
:1044500020B1034B800143F001031847704700BFB0
:10446000A0E6010002F072B8054B0122C3F8002556
:1044700090F88E1009B1DA6070471A605A60704780
:1044800000700040087970B500F01F04072C20D898
:104490000B780B2B1DD8DFE803F0070707071C0676
:1044A0001C1C1F211C2304234A78032A1AD0042A27
:1044B0000FD100254A8844F20A06B24246D013D8EA
:1044C00044F20306B2423DD044F20506B2423BD06C
:1044D000E2B36FF0150034E00523E5E70623E3E7D8
:1044E0000723E1E70125E5E744F21406B2422FD0A5
:1044F00044F22806B2422DD044F20F06B242E8D16F
:104500000322C0F340101B0243EA005343EA053381
:1045100043EA0243220102F1804202F5E042002018
:10452000C2F81835230103F1804303F5E0438A798B
:10453000C3F81425C3F81005074B4A79234483F8C0
:10454000A82070BD0022DCE70122DAE70222D8E7CA
:104550000422D6E70522D4E700000020F7B546681C
:10456000731EFE2B05463CD800235348534F1A4672
:1045700026FA03F111F0010126D017F803C0BCF1AF
:10458000000F2ED000EB031E6C7CDEF81815003CEB
:1045900018BF012421F0807141EA0461CEF818159A
:1045A00003F151010901013240F801C0D2B20133D7
:1045B000082BDDD12B7C083B062B12D8DFE803F05B
:1045C000091119111511170003F1510424010151AA
:1045D000EDE700233849012AC1F8F0356B7C0AD990
:1045E0005BB16FF0150003B0F0BD0223F2E70323C7
:1045F000F0E70123EEE7082BF3D8C1F8F43529687A
:10460000530011B1898901FB0333E96899424FD303
:10461000294BA968C3F82C162F46C3F830260FCFB4
:10462000274C04F17C060FC63B68336000262667E2
:104630002B682746B3B30FCB04F1900585E80F0034
:10464000E567A4F8A06068B3BFF35B8F57E8003F4D
:1046500047E80062002AF9D1BFF35B8F1949D4F80B
:104660009050194A4FF400400F463146E5FB007167
:1046700000233846FCF728FB0022CDE90001002387
:1046800004F1080006F006FB94F8783073B90F487F
:104690004FF0FF324FF0FF3304F03EFD00B12067D2
:1046A000206FA0E70648FFF7DFFEEDE700209AE75E
:1046B0006FF00B0097E700BF00700040A8000020DB
:1046C000000000203F420F0040420F005800002031
:1046D00070B50C4616460C4D0C484FF0FF324FF0AB
:1046E000FF3304F019FD0123204685F878306E670A
:1046F000FFF734FF95F87830044603B110B1034852
:1047000004F0C6FC204670BD0000002040000020E0
:1047100038B50C460C4D0D484FF0FF324FF0FF33CB
:1047200004F0FAFC0023204685F878306B67FFF729
:1047300015FF95F87830044603B110B1034804F032
:10474000A7FC204638BD00BF00000020400000202C
:1047500010B50E4B0024C3F80441D3F80421C3F86C
:104760001041D3F810211222C3F804230720FFF7C9
:104770003BFA224601210720FFF766FA0448836CC2
:1047800013B9403004F084FC002010BD00700040DC
:104790000000002038B5344BD3F80421002A56D04D
:1047A0000022C3F80421D3F80411304C0121996090
:1047B000C3F80025E36F2546D3B3D4F89430B4F89A
:1047C000A02033B104F17C019847012814D00228BD
:1047D00028D0B4F8A030B4F89C209A4222D90133F2
:1047E000A4F8A030204BD3F82C26D3F8341689B285
:1047F00002EB4102C3F82C26D4F8903023B9BDE86F
:1048000038401A48FFF730BEBFF35B8F55E8003FD2
:104810005A1E45E800210029F8D1BFF35B8F012B18
:10482000EDDC38BDD4F8903013B1114809F069F9C6
:1048300094F878304BB1606F10B1002106F0EEFAB9
:104840000C48BDE8384004F023BC0B48F9E7D3F826
:1048500010110029E5D0C3F81021D3F8102101224E
:104860009A601A605A60DCE7007000400000002087
:1048700008000020400000205800002037B50C46FA
:104880000A490B4A411A4023009349110546234621
:10489000084808F0F2FC011E05DA2846234603B05A
:1048A000BDE83040184703B030BD00BF080D002000
:1048B000E7D2010048E40100C9B2012908B509D9CD
:1048C00008490948094A7A2308F0D7FB07487A21A2
:1048D00008F0CCFB03690C2201FB0233986C00F05A
:1048E000070008BD23F9010000EC0100E6F8010013
:1048F00070B5C9B2012903690BD9194919481A4A77
:1049000040F25D1308F0B9FB174840F25D1108F062
:10491000ADFB4FF02004EFF3118584F31288BFF351
:104920006F8F0C2606FB0134A46C14F0C00408D071
:10493000A24206D085F31188BFF36F8F4FF0FF308E
:1049400070BD06FB013301229A6485F31188BFF321
:104950006F8F436803EBC1035B6898470020EFE764
:1049600023F9010000EC0100E6F8010070B50D46E6
:104970000649411A0446491105484022FFF7B8FF8D
:104980002B4601462046BDE870401847080D002020
:1049900048E40100002270B5012104461046FFF7EB
:1049A00053F90F4801F082FF0E4B984215D101F0E8
:1049B0008DFF26690C49304608F0EBFA00280BDB26
:1049C0000125B5642469084904F1200008F0E1FAE2
:1049D000002801DB6565002070BD6FF00400FBE777
:1049E000214A01000000AD0B74E8010070B50146DA
:1049F0000C2309484B43C418D4E91056483300220D
:104A00001844226408F026FC2DB132462B46034898
:104A1000BDE87040184770BD080D002048E4010053
:104A2000012808B506D0042808D098B90F4B9B6C14
:104A30005B0719D1BDE80840FFF7D8BF0C490D4A04
:104A40000D4840F26E2308F018FB40F26E21094831
:104A500008F00CFB0649074A074840F2722308F0A9
:104A60000CFB40F27221F2E708BD00BF080D0020E8
:104A7000C4ED0100E6F8010000EC010008B54FF0BC
:104A80002003EFF3118183F31288BFF36F8F124A73
:104A9000136843F002001060DA0708D481F311882C
:104AA000BFF36F8F0120BDE8084001F035BF4FF024
:104AB0008043D3F80C24D3F80C34DB07EED5074839
:104AC00008F0C8FB81F31188BFF36F8F0020BDE8A9
:104AD0000840FFF78BBF00BF600D0020500D002085
:104AE0007FB500220123CDE9022304ABCDE90433D5
:104AF000094ACDF800D06B46CDF804D008F0ECFBA5
:104B0000002805DB4FF480420023684604F004FBD4
:104B100007B05DF804FB00BFFFD2010010B54FF0F5
:104B20002003EFF3118483F31288BFF36F8F074ADA
:104B3000136823F00201DB07116002D4012001F0A9
:104B40005DFF84F31188BFF36F8F10BD600D0020EF
:104B50002DE9F0414549BFF35B8F0646012251E83C
:104B6000003F41E800200028F9D1BFF35B8FA3B9D3
:104B70003F4940484B60CB608A60FEF723FB00282A
:104B80000BDA3D493D4A3E484FF40C7308F075FA84
:104B90004FF40C71394808F069FA76B3731E012B93
:104BA00059D8012E07D14FF08043D3F81C3403F0BD
:104BB0000303012B21D008F05AFF0546F8B9314B09
:104BC0001B78E3B14FF080430222C3F80823074665
:104BD000DFF8B8804FF08044D4F81824D4F81834A3
:104BE000D20316D503F00303012B01D0012E10D1FF
:104BF0005DB387F31188BFF36F8FBDE8F0814FF08D
:104C00002003EFF3118783F31288BFF36F8F012521
:104C1000DEE7ADB13846FFF75BF9D4F81835002B65
:104C2000DAD1D4F80421002AD6D0C4F80431D4F85B
:104C300004310123C4F81835C8F88031A360CBE7EC
:104C40000021212005F0E0FBE7E74FF0804302223E
:104C5000C3F80423D1E70C49084A094840F242232B
:104C600008F00BFA40F2422194E700BF040D002047
:104C7000F40C0020280D002047F90100E6F801009F
:104C800000EC010029150020C4ED010000E100E066
:104C900008B5074808F0B7FE38B10648FFF7F2FA42
:104CA0000448FDF7D7FF002008BD6FF01200FBE7B6
:104CB00084E40100B94C01000A2838B5074D0446C8
:104CC00004D1AB680D215B6828469847AB68034860
:104CD0005B68E1B29847204638BD00BF84E401001C
:104CE00000F1744000F5A6000A289ABF024B33F980
:104CF00010006FF00F0070474CEB0100024B0B608F
:104D000001231360704700BF2CE901000048704781
:104D1000ACE801000268154BFF2A08BF4FF0FF32D4
:104D2000C3F824254268FF2A08BF4FF0FF32C3F8BA
:104D300028258268FF2A08BF4FF0FF32C3F83025CC
:104D4000C268FF2A08BF4FF0FF32C3F8342502695A
:104D5000FF2A08BF4FF0FF32C3F838254269FF2A07
:104D600008BF4FF0FF32C3F83C2570470090024067
:104D70002DE9F04743685D6B90B007460AAA002111
:104D8000284608F0B7FB041E6FDB0A9B2A681979D6
:104D9000186800F079FE041E67DB0022012129203B
:104DA000FEF752FFD7F804803A695549404602F0B1
:104DB00061FEFFF795FF041E52DB524D0FCD0AAC8A
:104DC0000FC495E8030000260DF1040984E80300F0
:104DD0000196AB23C9E901668DF804304A4BD3F83C
:104DE0002425D2B20492D3F82825D2B20592D3F862
:104DF0003025D2B20692D3F83425D2B20792D3F836
:104E00003825D2B20892D3F83C350AA8DBB2099310
:104E1000FFF780FF012002F0D3FE04AD01462846D3
:104E2000FFF778FF394B994223D13146484608F0C5
:104E300072FA041E14DB232008F0E1FD4FF0030A90
:104E40009F2331460AA8CDE90A66CDF81090CDF827
:104E500014A08DF828300C9508F05DFA041E0BDACA
:104E600002F0F8FE08B102F0CFFE204610B0BDE817
:104E7000F0876FF00404F3E75246494608F130002A
:104E800008F0BDFE0446002834D17A68537F023B07
:104E9000012B2DD9167F033E012E8CBF0026012643
:104EA00008F06AFA002828DBC2B2C0F380108642FC
:104EB000D6D00023012182F040020AA8ADF80030CC
:104EC0000A938DF80020CDF810D005910C938DF841
:104ED00028100B9508F01FFA04460028C0D108F0EE
:104EE0004BFA041E01DBE307F9D404EAE474B7E7E4
:104EF0000126D5E76FF01204B2E70446B0E700BF21
:104F00000BD3010070E60100009002400000AD0BE1
:104F1000054B994206D14FF0FF324FF0FF3330304E
:104F200004F0FAB8704700BF0000AD0B2DE9F84F50
:104F3000074645680E46C1F30B039246002A59D036
:104F4000C2F30B0252EA030454D1002952DBEA6A8D
:104F500001EB0A0393424DD808F053FA2046D7F8E4
:104F6000048008F024FA0446C8B9DFF89490D8F811
:104F70002C30534519D102F0D9FED3460546386985
:104F80002946FFF7C5FF4D4524D1BAEB0B0A5E4415
:104F9000EDD1012008F00BFA002C08BF044638467A
:104FA00008F01AFA2046BDE8F88FBAF5803F09D319
:104FB000B3B2A3B93146012002F056FE4FF4803B54
:104FC0000546DCE7BAF5805F09D20C4938690B4D1C
:104FD000FFF79EFF2846FFF783FE0446D9E7C6F396
:104FE0000B000028F1D1314602F03EFE4FF4805B09
:104FF0000546C4E76FF01504D4E700BF0400AD0B0D
:105000000000AD0B2DE9F3470F46054641681E46EB
:105010009046002A79D0002B77D0042B01D9B30712
:1050200073D117F0030470D1002F6EDBCA6ABB196D
:1050300093426AD8284608F0E4F9204608F0B7F908
:10504000044648B1012008F0B2F9284608F0C4F936
:10505000204602B0BDE8F087032E1ED804213A4650
:105060000DEB010008F01CFC044601462869FFF71F
:105070004FFF274B9C4235D13246414601A808F0EC
:10508000CEFD04213A460DEB010008F006FC044673
:1050900001462869FFF73CFF24E008F06043B3F1C4
:1050A000005F02D118F0030F2BD0DFF864A0042EAC
:1050B000B14628BF4FF004094A46414601A808F00E
:1050C000AEFD3A46494601A808F0E7FB0446014612
:1050D0002869FFF71DFF544504D1B6EB0906C84403
:1050E0004F44E4D12046FFF7FBFD0446012008F0C1
:1050F0005EF90646284608F06FF9002C08BF3446D2
:10510000A6E73A4631464046BFE76FF015049FE7F1
:105110000000AD0B2DE9F04F824685B088461C4655
:105120001746002A00F08F80002B00F088800029AD
:10513000C0F289804268D26ACB18934200F2838021
:10514000C8F1000505F0030508F05BF9A54228BF8A
:1051500025467B4203F0030307F0030658BF5E4277
:10516000764206F00306A64228BF2646631BA41B10
:1051700024F0030423F00309A145C8BFA14603F0AE
:10518000030BC8BFA3EB040BB9F1000F18D0BB1978
:1051900008EB050249461846019308F081FB0446D6
:1051A0000146DAF81000FFF7B3FE284A94423DD1D9
:1051B000B54205D0019B4A461946781908F050FDC2
:1051C000C5B1C5F10406A8EB0602042102A808F047
:1051D00067FB04460146DAF81000FFF799FE1B4B07
:1051E0009C4223D106F108032A460DEB0301384601
:1051F00008F015FDBBF1000F17D0082108EB0502E0
:105200004A440DEB010008F04BFB04460146DAF876
:105210001000FFF77DFE0D4B9C4207D109EB050006
:105220005A4602A9384408F0FAFC084C504608F0E7
:10523000D3F8204605B0BDE8F04FFFF751BD184642
:1052400005B0BDE8F08F6FF01500F9E70000AD0B79
:10525000024B0B6001231360704700BF640D0020F8
:105260000048704748E9010010B501221146064880
:10527000064C08F016FC08F00CFB206008F005FB5B
:105280006060002010BD00BF6C0D0020640D002088
:105290000A48037883B14FF08042D2F81015D2F853
:1052A000103501F01E0123F01F030B4343F00103EF
:1052B000C2F8103500230370704700BF161100209C
:1052C0004FF08053D3F83031082B20D14FF080427B
:1052D000D2F81015CB071AD5D2F8103501F01E01FF
:1052E00023F01F030B43C2F81035D2F808315BB12D
:1052F000D2F8103523F01F030B4343F00103C2F82B
:1053000010356FF08B007047024B01221A7000209D
:10531000704700BF16110020F8B50D46164608F07C
:10532000B4FA31460746284608F07AF848B3B5FB88
:10533000F7F307FB135323BBB6FBF7F407FB146427
:10534000FCB9B74218D84FF0FF324FF0FF330E4888
:1053500003F0E2FE08F099FA0746FFF7B1FF0446B2
:1053600060B9284602F04CF8FFF792FFF61B3D4467
:10537000F3D1054803F08CFE2046F8BD6FF08B0496
:10538000F7E76FF01504F7E76C0D0020F8B50D4650
:105390002846194616461C4608F042F8002847D011
:1053A000002C43D024484FF0FF324FF0FF3303F07E
:1053B000B3FE15F0030711D0C7F10407A74228BFB9
:1053C0002746FFF77DFF60BB314628463A4602F08C
:1053D00085F8FFF75DFF3D443E44E41B2544032C64
:1053E000A5EB040711D84CB1FFF76AFFC8B92246F4
:1053F0003146384602F072F8FFF74AFF0F4AD2F8FA
:105400000034DB07FBD500240DE0FFF759FF40B95E
:1054100056F8041B384602F02BF8043CFFF738FF1F
:10542000DDE76FF08B04044803F032FE2046F8BD40
:105430006FF01504FAE700BF6C0D002000E001409A
:1054400010B5036961B92049204A21483A2307F081
:1054500014FE204807F011FE3A211C4807F006FE12
:10546000486850B91C49194A19483B2307F005FE02
:105470001A4807F002FE3B21EFE75868F8B188426E
:1054800019D19C6808685860A14200D1986000203A
:1054900008602AB15A680A609A68596002B999602E
:1054A000002010E0814206D108682060986881429F
:1054B000EDD19C60EBE7044600680028F2D1002A99
:1054C000E8D16FF0150010BDC2F9010086F90100A6
:1054D00000EC0100CBF90100DAF90100ECF9010060
:1054E00038B545682B69B3B11035284601F0F2FD97
:1054F000044680B90146284601F0AEFD084B9842AB
:105500000BD108492246284601F074FD22460521A8
:105510000620FEF799FB002038BD6FF00400FBE782
:105520000000AD0B0558010008B503685909024693
:1055300014D0012906D103F01F034FF6FF71D940A3
:10554000C80713D40B490C480C4A40F2453307F006
:1055500094FD0A4840F2453107F088FD4FF0FF31D5
:10556000D940C907EED54FF0A04000E004481360D1
:1055700008BD00BF36FA010000EC010003FA01008B
:1055800000030050F0B54068057B01F01F0444EAB9
:105590004514056987B0002D5CD0B2F5001F00F1FD
:1055A000100506D12146284608F053F9002007B01F
:1055B000F0BD01AE0027B2F5800F0197776034D1BE
:1055C000B3F1007F14BF052304238DF804300023BA
:1055D000CDE9046303938368CB40D90717D4B2F1B4
:1055E000A07F14D168460094FFF79EFF009B03F54F
:1055F000E07350F82330DB0709D46A462146284679
:1056000001F0FEFC164B98421AD0CDF808D003AA40
:105610002146284601F0BEFB124B98421DD10122C3
:105620002146284601F06CFDC0E7B3F1C06F05D0FC
:10563000B3F1007F14BF01230223C6E70323C4E7AD
:105640006946284601F056FD064B9842DDD06FF0C2
:105650000B00ACE76FF08500A9E76FF01500A6E737
:105660000400AD0B0000AD0B2DE9F043466840F29D
:105670000635337BD00687B001F01F0702EA050527
:1056800047EA431754BFC2F340130323B5F5837FA2
:1056900014468DF8033044D00FD8062D18D007D803
:1056A000B5B1022D3FD06FF0150007B0BDE8F08313
:1056B000B5F5807FF7D101250AE040F2022295423C
:1056C00033D0B5F5407F32D0B5F5007FEBD1022560
:1056D00022032ED5726801238B40C2F80835336946
:1056E0007BBB03A80397FFF71FFF039B00EB83001F
:1056F00084F48033C3F30043C4F34044D0F800275C
:1057000044EA43049DF8033022F4E16244EA83044E
:1057100022F0070244EA05231343C0F800370020B3
:10572000C3E70725D4E70425D2E70525D0E70325FD
:10573000CEE7630341BF012372688B40C2F80C358A
:10574000CDE710360DF102023946304601F058FC23
:1057500014F4403F804617D13946304608F077F8B8
:10576000244B9845DBD19DF80210304601F0BCFC7B
:105770004045D4D020492148214AAB2307F07DFC85
:105780001F48AB2107F072FC01AB4FF0000903AAE0
:1057900039463046CDE90439CDE90199CDF80C9070
:1057A00001F0F8FA134B98427FF47DAF14F4003304
:1057B00015D09DF803308DF80E3084F48034C4F396
:1057C00000444B4603AA394630468DF80C508DF8FC
:1057D0000D4001F093FB074B9842C1D063E7CDE940
:1057E000043303AA0DF1030339463046039301F055
:1057F000D1FAF0E70000AD0B85FA010000EC0100E2
:1058000059FA0100420970B5034602D0012A1ED0A0
:1058100070BD144E326951680029F9D003F01F039E
:1058200001250C689D400029F2D08A682A4012D0D8
:105830004B6873B90C490D4A0D485D2307F01DFCF8
:105840000C4807F01AFC09485D2107F00FFC0A4ECE
:10585000E0E7304698471CB1236821461C46E2E742
:105860002346FAE770E401006E00020086F90100A9
:1058700000EC0100ECF901005CE4010008B54368AC
:105880001B68D3F80805D3F80C1502F037FE034B5C
:10589000984214BF6FF00F00002008BD0000AD0B50
:1058A00037B50446002201210320FEF7CDF96368D5
:1058B0009D6901AA0021284607F01CFE002814DB80
:1058C000019B2A681979186800F0DEF800280CDBC3
:1058D00060682369064A00F1080102F0DFFB054B0E
:1058E000984214BF6FF00F00002003B030BD00BF1E
:1058F000F95801000000AD0B0378012B08D0022BF2
:1059000008D04BB9054B0B6301F1180003F0C0BB85
:10591000034BF8E7034BF6E7034BF4E70000AD0B4E
:105920000100AE0B0200AE0B0100AD0B2DE9F04FF4
:105930008BB005460C4691460193476806694FF0C7
:10594000FF324FF0FF33304603F0E6FB06F1180A52
:1059500000220023504603F0DFFB384602F000FC33
:10596000DFF8C4B04FF00008C14501D800242EE094
:10597000237A039313F008014DD112220DF1160082
:10598000029108F087F9039B60680199069003F083
:10599000010220688DF8151013F0020F02998DF89E
:1059A000142008901DD109F1FF33434502D9237D0E
:1059B0005B0718D57ABB202205A9384602F028FCDF
:1059C000584512D0174B984228D06FF0040438463F
:1059D00002F0ECFB304603F05BFB20460BB0BDE869
:1059E000F08F0A46E8E74022E6E74FF480420023C2
:1059F000504603F091FB30B1384602F0D7FB284601
:105A0000FFF73CFFE1E7336B5B4504F10C04DCD1AD
:105A100008F10108A8E76FF08504D8E76FF00F04DC
:105A2000D5E700BF0B00AD0B0000AD0B08B5036858
:105A30005909024614D0012906D103F01F034FF67D
:105A4000FF71D940C80713D40B490C480C4A40F2E7
:105A5000453307F012FB0A4840F2453107F006FBD8
:105A60004FF0FF31D940C907EED54FF0A04000E01C
:105A70000448136008BD00BF36FA010000EC0100C5
:105A800003FA0100000300502DE9F04FDFF8949174
:105A9000DFF894A185B01546834600EB8108D84510
:105AA00003D1002005B0BDE8F08FDBF80030D90449
:105AB000C3F3432203F07F0400F1AE807F2C4FEA52
:105AC000134319F8027008BF4FF0FF34222B00F285
:105AD000A680DFE803F0122228422B3242A4A4A4BD
