:020000040000FA
:10C000003DB8F39600000000000800004C910300CA
:10C010000000000000000000000000000000000020
:10C02000FFFFFFFFFFFFFFFFFFFFFFFFFFFFFFFF20
:10C03000FFFFFFFFFFFFFFFFFFFFFFFFFFFFFFFF10
:10C04000FFFFFFFFFFFFFFFFFFFFFFFFFFFFFFFF00
:10C8000028970020BDB30200B3B10300A9B3020012
:10C81000A9B30200A9B30200A9B30200A9B30200A0
:10C82000000000000000000000000000A9B50200A8
:10C83000A9B302000000000011B50200A9B3020074
:10C8400005B8020005B8020005B8020005B80200EC
:10C8500005B8020005B8020005B8020005B80200DC
:10C8600005B8020005B8020005B8020005B80200CC
:10C8700005B8020005B8020005B8020005B80200BC
:10CA500005B80200C5CF030005B8020005B8020002
:10CA600005B8020005B80200F5CF030005B80200C2
:10CA700005B8020005B8020005B8020005B80200BA
:10CA800005B8020005B8020005B8020005B80200AA
:10CA900005B8020005B8020005B8020005B802009A
:10CAA00005B8020005B8020005B8020005B802008A
:10CAB00005B8020005B8020005B8020005B802007A
:10CAC00005B8020005B8020005B8020005B802006A
:10CAD00005B8020005B8020005B8020005B802005A
:10CAE00005B8020005B8020005B8020005B802004A
:10CAF00005B8020005B8020005B8020005B802003A
:10CB000005B8020005B8020005B8020005B8020029
:10CB100005B8020005B8020005B8020005B8020019
:10CB200005B8020005B8020005B8020005B8020009
:10CB300005B8020005B8020005B8020005B80200F9
:10CB400005B8020005B8020005B8020005B80200E9
:10CB500005B8020005B8020005B8020005B80200D9
:10CB600005B8020005B8020005B8020005B80200C9
:10CB700005B8020005B8020005B8020005B80200B9
:10CB800005B8020005B8020005B8020005B80200A9
:10CB900005B8020005B8020005B8020005B8020099
:10CBA00005B8020005B8020005B8020005B8020089
:10CBB00005B8020005B8020005B8020005B8020079
:10CBC00005B8020005B8020005B8020005B8020069
:10CBD00005B80200DFCF030005B8020005B8020067
:10CBE00005B8020005B8020005B8020005B8020049
:10CBF00005B8020005B8020005B8020005B8020039
:10CC000005B8020005B8020005B8020005B8020028
:10CC100005B8020005B8020005B8020005B8020018
:10CC200005B8020005B8020005B8020005B8020008
:10CC300005B8020005B8020005B8020005B80200F8
:10CC400005B8020005B8020005B8020005B80200E8
:10CC500005B8020005B8020005B8020005B80200D8
:10CC600005B8020005B8020005B8020005B80200C8
:10CC700005B8020005B8020005B80200FFFFFFFF7B
:10CC800081F0004102E000BF83F0004330B54FEA7D
:10CC900041044FEA430594EA050F08BF90EA020FEA
:10CCA0001FBF54EA000C55EA020C7FEA645C7FEA7D
:10CCB000655C00F0E2804FEA5454D4EB5555B8BFA0
:10CCC0006D420CDD2C4480EA020281EA030382EA11
:10CCD000000083EA010180EA020281EA0303362DA3
:10CCE00088BF30BD11F0004F4FEA01314FF4801C76
:10CCF0004CEA113102D0404261EB410113F0004F88
:10CD00004FEA03334CEA133302D0524263EB43033E
:10CD100094EA050F00F0A780A4F10104D5F1200EDC
:10CD20000DDB02FA0EFC22FA05F2801841F1000137
:10CD300003FA0EF2801843FA05F359410EE0A5F10B
:10CD400020050EF1200E012A03FA0EFC28BF4CF03C
:10CD5000020C43FA05F3C01851EBE37101F00045F2
:10CD600007D54FF0000EDCF1000C7EEB00006EEBFF
:10CD70000101B1F5801F1BD3B1F5001F0CD3490889
:10CD80005FEA30004FEA3C0C04F101044FEA4452E0
:10CD900012F5800F80F09A80BCF1004F08BF5FEA67
:10CDA000500C50F1000041EB045141EA050130BD47
:10CDB0005FEA4C0C404141EB0101013C28BFB1F559
:10CDC000801FE9D291F0000F04BF01460020B1FAA4
:10CDD00081F308BF2033A3F10B03B3F120020CDA77
:10CDE0000C3208DD02F1140CC2F10C0201FA0CF055
:10CDF00021FA02F10CE002F11402D8BFC2F1200CBA
:10CE000001FA02F120FA0CFCDCBF41EA0C0190406F
:10CE1000E41AA2BF01EB0451294330BD6FEA0404B8
:10CE20001F3C1CDA0C340EDC04F11404C4F12002A3
:10CE300020FA04F001FA02F340EA030021FA04F3B5
:10CE400045EA030130BDC4F10C04C4F1200220FA0C
:10CE500002F001FA04F340EA0300294630BD21FA4A
:10CE600004F0294630BD94F0000F83F4801306BF10
:10CE700081F480110134013D4EE77FEA645C18BF04
:10CE80007FEA655C29D094EA050F08BF90EA020F9B
:10CE900005D054EA000C04BF1946104630BD91EA93
:10CEA000030F1EBF0021002030BD5FEA545C05D196
:10CEB0004000494128BF41F0004130BD14F58004D5
:10CEC0003CBF01F5801130BD01F0004545F0FE4149
:10CED00041F470014FF0000030BD7FEA645C1ABF7E
:10CEE000194610467FEA655C1CBF0B46024650EAB5
:10CEF000013406BF52EA033591EA030F41F40021E1
:10CF000030BD00BF90F0000F04BF0021704730B566
:10CF10004FF4806404F132044FF000054FF000013B
:10CF200050E700BF90F0000F04BF0021704730B5FC
:10CF30004FF4806404F1320410F0004548BF4042D1
:10CF40004FF000013EE700BF42004FEAE2014FEA26
:10CF500031014FEA02701FBF12F07F4393F07F4F01
:10CF600081F06051704732F07F4208BF704793F004
:10CF70007F4F04BF41F40021704730B54FF4607417
:10CF800001F0004521F000411CE700BF50EA01021A
:10CF900008BF704730B54FF000050AE050EA0102C3
:10CFA00008BF704730B511F0004502D5404261EB33
:10CFB00041014FF4806404F132045FEA915C3FF474
:10CFC000D8AE4FF003025FEADC0C18BF03325FEA11
:10CFD000DC0C18BF033202EBDC02C2F1200300FAC2
:10CFE00003FC20FA02F001FA03FE40EA0E0021FAE7
:10CFF00002F11444BDE600BF70B54FF0FF0C4CF4D5
:10D00000E06C1CEA11541DBF1CEA135594EA0C0F86
:10D0100095EA0C0F00F0DEF82C4481EA030621EAC1
:10D020004C5123EA4C5350EA013518BF52EA0335FC
:10D0300041F4801143F4801338D0A0FB02CE4FF0AE
:10D040000005E1FB02E506F00042E0FB03E54FF0DE
:10D050000006E1FB03569CF0000F18BF4EF0010ED6
:10D06000A4F1FF04B6F5007F64F5407404D25FEAD2
:10D070004E0E6D4146EB060642EAC62141EA555185
:10D080004FEAC52040EA5E504FEACE2EB4F1FD0CC7
:10D0900088BFBCF5E06F1ED8BEF1004F08BF5FEA45
:10D0A000500E50F1000041EB045170BD06F00046F7
:10D0B00046EA010140EA020081EA0301B4EB5C04A4
:10D0C000C2BFD4EB0C0541EA045170BD41F480119C
:10D0D0004FF0000E013C00F3AB8014F1360FDEBFC1
:10D0E000002001F0004170BDC4F10004203C35DA9D
:10D0F0000C341BDC04F11404C4F1200500FA05F320
:10D1000020FA04F001FA05F240EA020001F00042C0
:10D1100021F0004110EBD37021FA04F642EB060136
:10D120005EEA430E08BF20EAD37070BDC4F10C0460
:10D13000C4F1200500FA04F320FA05F001FA04F224
:10D1400040EA020001F0004110EBD37041F1000110
:10D150005EEA430E08BF20EAD37070BDC4F120051B
:10D1600000FA05F24EEA020E20FA04F301FA05F283
:10D1700043EA020321FA04F001F0004121FA04F22B
:10D1800020EA020000EBD3705EEA430E08BF20EAFB
:10D19000D37070BD94F0000F0FD101F00046400035
:10D1A00041EB010111F4801F08BF013CF7D041EAB7
:10D1B000060195F0000F18BF704703F000465200BB
:10D1C00043EB030313F4801F08BF013DF7D043EA8C
:10D1D0000603704794EA0C0F0CEA135518BF95EA42
:10D1E0000C0F0CD050EA410618BF52EA4306D1D1C9
:10D1F00081EA030101F000414FF0000070BD50EAE8
:10D20000410606BF1046194652EA430619D094EA71
:10D210000C0F02D150EA013613D195EA0C0F05D15B
:10D2200052EA03361CBF104619460AD181EA0301AF
:10D2300001F0004141F0FE4141F470014FF0000067
:10D2400070BD41F0FE4141F4780170BD70B54FF002
:10D25000FF0C4CF4E06C1CEA11541DBF1CEA135582
:10D2600094EA0C0F95EA0C0F00F0A7F8A4EB050464
:10D2700081EA030E52EA03354FEA013100F088805B
:10D280004FEA03334FF0805545EA131343EA126324
:10D290004FEA022245EA111545EA10654FEA0026D9
:10D2A0000EF000419D4208BF964244F1FD0404F592
:10D2B000407402D25B084FEA3202B61A65EB0305EE
:10D2C0005B084FEA32024FF480104FF4002CB6EBAB
:10D2D000020E75EB030E22BFB61A754640EA0C002B
:10D2E0005B084FEA3202B6EB020E75EB030E22BF6B
:10D2F000B61A754640EA5C005B084FEA3202B6EBAC
:10D30000020E75EB030E22BFB61A754640EA9C006A
:10D310005B084FEA3202B6EB020E75EB030E22BF3A
:10D32000B61A754640EADC0055EA060E18D04FEAF8
:10D33000051545EA16754FEA06164FEAC30343EA98
:10D3400052734FEAC2025FEA1C1CC0D111F4801F65
:10D350000BD141EA00014FF000004FF0004CB6E75E
:10D3600011F4801F04BF01430020B4F1FD0C88BFFD
:10D37000BCF5E06F3FF6AFAEB5EB030C04BFB6EB08
:10D38000020C5FEA500C50F1000041EB045170BDFB
:10D390000EF0004E4EEA113114EB5C04C2BFD4EB28
:10D3A0000C0541EA045170BD41F480114FF0000EAC
:10D3B000013C90E645EA060E8DE60CEA135594EA28
:10D3C0000C0F08BF95EA0C0F3FF43BAF94EA0C0F2B
:10D3D0000AD150EA01347FF434AF95EA0C0F7FF4A0
:10D3E00025AF104619462CE795EA0C0F06D152EAF4
:10D3F00003353FF4FDAE1046194622E750EA4106D8
:10D4000018BF52EA43067FF4C5AE50EA41047FF4E8
:10D410000DAF52EA43057FF4EBAE12E74FF0FF3C4D
:10D4200006E000BF4FF0010C02E000BF4FF0010C1E
:10D430004DF804CD4FEA410C7FEA6C5C4FEA430C97
:10D4400018BF7FEA6C5C1BD001B050EA410C0CBFE6
:10D4500052EA430C91EA030F02BF90EA020F002048
:10D46000704710F1000F91EA030F58BF994208BFAF
:10D4700090422CBFD8176FEAE37040F0010070476C
:10D480004FEA410C7FEA6C5C02D150EA013C07D1C3
:10D490004FEA430C7FEA6C5CD6D152EA033CD3D00E
:10D4A0005DF8040B704700BF8446104662468C4608
:10D4B0001946634600E000BF01B5FFF7B7FF00283B
:10D4C00048BF10F1000F01BD4DF808EDFFF7F4FF64
:10D4D0000CBF012000205DF808FB00BF4DF808EDEF
:10D4E000FFF7EAFF34BF012000205DF808FB00BF12
:10D4F0004DF808EDFFF7E0FF94BF012000205DF834
:10D5000008FB00BF4DF808EDFFF7CEFF94BF0120E8
:10D5100000205DF808FB00BF4DF808EDFFF7C4FFE1
:10D5200034BF012000205DF808FB00BF4FEA410C2A
:10D530007FEA6C5C02D150EA013C0AD14FEA430C0D
:10D540007FEA6C5C02D152EA033C02D14FF000004A
:10D5500070474FF0010070474FEA410212F5001288
:10D5600015D211D56FF47873B3EB625212D94FEA2A
:10D57000C12343F0004343EA505311F0004F23FA14
:10D5800002F018BF404270474FF00000704750EA69
:10D59000013005D111F0004008BF6FF00040704726
:10D5A0004FF00000704700BF53B94AB9002908BFC7
:10D5B00000281CBF4FF0FF314FF0FF3000F00CB8D7
:10D5C000ADF1080C6DE904CE16F04AFADDF804E07E
:10D5D000DDE9022304B07047704700BF2DE9F00772
:10D5E00091E8F807B2E802105B1854EB0C04B2E8BB
:10D5F00002104D4156EB0C06B2E802104F4158EBB9
:10D600000C08B2E8021059EB01095AEB0C0A80E849
:10D61000F80780410130BDE8F00770472DE9F007B9
:10D6200091E8F807B2E802105B1A74EB0C04B2E858
:10D6300002108D4176EB0C06B2E802108F4178EBB8
:10D640000C08B2E8021079EB01097AEB0C0A80E8C9
:10D65000F80780414042BDE8F00770472DE9F00728
:10D66000524290E87800B1E880071740DB1918EAC9
:10D67000020854EB080419EA020955EB09051AEAF5
:10D68000020A56EB0A0678C090E87800B1E88007F5
:10D6900017407B4118EA020854EB080419EA020912
:10D6A00055EB09051AEA020A56EB0A0678C08041D2
:10D6B0000130BDE8F00770472DE9F007524290E8CD
:10D6C0007800B1E880071740DB1B18EA020874EB0A
:10D6D000080419EA020975EB09051AEA020A76EB51
:10D6E0000A0678C090E87800B1E880071740BB418F
:10D6F00018EA020874EB080419EA020975EB090537
:10D700001AEA020A76EB0A0678C080414042BDE878
:10D71000F00770472DE9F00152424FF0040890E8FD
:10D72000300091E8C000A31B1340E41AF618EB1B6D
:10D730001340ED1AFF1830C0C0C1B8F10108EED196
:10D74000BDE8F001704700BF00B592EC080AB1E8EF
:10D75000805707EE101A53EC102A56EC114AA7FB1B
:10D760000251A8FB020BE7FB6310E9FB62B041EC3E
:10D77000145AA8FB0351EAFB6201E7FB64B5E7FB1F
:10D780006605E8FB661505EE10BAA9FB03B6EAFBD1
:10D790006316ECFB6356E8FB640BE9FB641BEAFBD6
:10D7A000645BECFB646B05EE900AACFB023012EE9E
:10D7B000104AEEFB6250E9FB6460EAFB64B0E7FBF1
:10D7C0006431E8FB645112EE904AE8FB6461E9FBC6
:10D7D00064B1EAFB640106EE103AA7FB043213EED3
:10D7E000104AE7FB6462E8FB64B2E9FB6402EAFB0F
:10D7F000641211EE904AE9FB6453EAFB646313EE92
:10D80000904AE7FB64B3E8FB6403E9FB6413EAFBBB
:10D81000642306EE905A17EE109A99E8000610EE6F
:10D82000108AA9FB0854EAFB68B412EE108AECFBDC
:10D830006804EEFB6814E9FB6824EAFB683410EE28
:10D84000908AEEFB6865E9FB68B5EAFB680512EEB5
:10D85000908AECFB6815EEFB6825E9FB6835EAFB6E
:10D86000684507EE106A11EE108AAEFB0876E9FBF8
:10D870006806EAFB681613EE108AECFB6826EEFBDE
:10D880006836E9FB6846EAFB685611EE908AECFBC5
:10D8900068B7EEFB6807E9FB6817EAFB682713EE39
:10D8A000908AECFB6837EEFB6847E9FB6857EAFBB8
:10D8B000686700BD2DE9F04F07EE900AFFF744FFBF
:10D8C00017EE908A07EE90BAA8EC084A88E8FF00A5
:10D8D000BDE8F08F00B591E89857A3FB0352A3FB76
:10D8E0000401E3FB6420E3FB671042EC145AA3FB42
:10D8F0000752E3FB6802E4FB6415E3FB6805E3FB06
:10D900006925A4FB07B6E3FB6926E3FB6A56E4FB43
:10D91000670BE4FB682BE3FB6A5BE3FB6C6B40EC9F
:10D92000151AA4FB0810E4FB6950E3FB6C60E3FBF1
:10D930006EB0E7FB6721E4FB6951E4FB6A61E3FB3E
:10D940006EB1E4FB6E0106EE102AA7FB0832E4FB81
:10D950006A62E4FB6CB2E4FB6E02E7FB6E12E7FB6B
:10D960006853E7FB6963E4FB6CB3E7FB6C03E7FB1D
:10D970006E13E8FB6E2306EE905AA7FB0954E7FBF3
:10D980006AB4E7FB6C04E8FB6C14E8FB6E24E9FB6B
:10D990006E34E8FB6865E7FB6AB5E8FB6A05E8FBFF
:10D9A0006C15E9FB6C25E9FB6E35EAFB6E4507EE6D
:10D9B000106AA8FB0976E8FB6A06E9FB6A16E9FB30
:10D9C0006C26EAFB6C36EAFB6E46ECFB6E56E8FB17
:10D9D00069B7E9FB6907E9FB6A17EAFB6A27EAFB13
:10D9E0006C37ECFB6C47ECFB6E57EEFB6E6700BDD3
:10D9F0002DE9F04F07EE900AFFF76CFF17EE908AC3
:10DA000007EE90BAA8EC084A88E8FF00BDE8F08F5E
:10DA100030B44FF0000310F8014B11F8015B013AEC
:10DA200084EA050443EA0403F5D1A3F101034FEAB4
:10DA3000D37030BC704700BF4FF0000310F8012BCB
:10DA4000013943EA0203F9D1A3F101034FEAD3708C
:10DA5000704700BF30B411F8014B12F8015B6C4005
:10DA600000F8014B013BF6D130BC70472DE9F007BF
:10DA700091E8F807B2E802105B1854EB0C04B2E826
:10DA800002104D4156EB0C06B2E802104F4158EB24
:10DA90000C08B2E8021059EB01095AEB0C0A894153
:10DAA000B3F1FF3374F1FF3475F1FF3576F1000601
:10DAB00077F1000778F1000879F101097AF1FF3A6E
:10DAC00051F100015B184C414D4156F1000657F1F0
:10DAD000000758F1000859EBD1795AEB010A80E8A8
:10DAE000F807BDE8F00770472DE9F00791E8F8075F
:10DAF000B2E802105B1A74EB0C04B2E802108D411C
:10DB000076EB0C06B2E802108F4178EB0C08B2E815
:10DB1000021079EB01097AEB0C0A89415B184C4140
:10DB20004D4156F1000657F1000758F1000859EB36
:10DB3000D1795AEB010A80E8F807BDE8F007704791
:10DB400018EB040859EB05095AEB060A5BEB070BC7
:10DB50005FF0000C4CF1000C18EB050859EB0609BE
:10DB60005AEB070A5BEB070B50EB0C005FF0000C65
:10DB700051EB0C0152EB0C0263414CF1000CB8EB81
:10DB8000070879F100097AF1000A7BEB040BA84140
:10DB9000B141A241B3416CF1000CBBEB050BB041AC
:10DBA000B941AA41BB416CF1000C4CF001068CF06C
:10DBB000020718EB060859EB6C095AEB6C0A7BEB71
:10DBC0006C0B70EB6C0471EB6C0572EB670653EB3E
:10DBD0006C076CEB6C0C18EB0C0059EB0C015AEB5E
:10DBE0000C025BF1000354F1000455F1000556EB03
:10DBF000DC7657EB0C0770472DE9F04F07EE900AE3
:10DC0000FFF7A2FD59EC168A17EE10AAFFF798FF4E
:10DC100059EC148A5BEC15AAFFF792FF17EE908A75
:10DC200088E8FF00BDE8F08F2DE9F04F07EE900A7D
:10DC3000FFF750FE59EC168A17EE10AAFFF780FF87
:10DC400059EC148A5BEC15AAFFF77AFF17EE908A5D
:10DC500088E8FF00BDE8F08F2DE9F047A44E86B0BC
:10DC6000002300F10709F27B80460F4629F00709DF
:10DC7000CDE902338DF80E20727D33788DF81020B7
:10DC8000B27D8DF809308DF811207378F27D8DF812
:10DC90000A308DF81220B378327E8DF80B308DF873
:10DCA0001320F378727E8DF80C308DF814203379C0
:10DCB00096F826208DF80D300AB18DF80F30002F20
:10DCC00002A94FF0000A0CBF4846002000F03EFEBB
:10DCD000337809EB000596F8019054464B445FFAFF
:10DCE00083F95FFA8AF34B45C0F0F080E81C002FFF
:10DCF000214620F0030514BF0020284601F00EF84D
:10DD0000B1782C1871B1E01CF378F27B002F20F071
:10DD100003041A4414BF002020467389D2B201F0D4
:10DD200071F8044496F827308BB1717A79B196F87E
:10DD30002830E01C002B20F0030414BFFF22252212
:10DD4000002F0CBF2046002001F04AF90444317B2B
:10DD500081B1B37823B996F827305BB1737A4BB1B0
:10DD6000E01D002F20F0070414BF002020460EF015
:10DD700093FF04445F4B1B685BB1317949B1E01CF0
:10DD8000002F727B20F0030414BF00202046984728
:10DD90000444594B1B6853B1B17B41B1E01C002FC7
:10DDA00020F0030414BF0020204698470444534B3E
:10DDB0001D6875B1F17B61B1E01C002FB37C20F0D0
:10DDC0000304327C009314BF00202046737CA847D4
:10DDD000044496F8263063B1317951B1E01C002F2C
:10DDE000327D20F0030414BF0020204601F02EF9FC
:10DDF0000444F07F68B10334737EB17D24F00704DE
:10DE000019443B4644F00404C9B2224601F05EF9CD
:10DE1000044496F82010002962D0E01D002F4FF036
:10DE2000FB0220F0070514BF0020284616F032FE42
:10DE30002C181FB9FB21284613F092FDB17E002952
:10DE400050D0B37F002B4DD0E01D002F4FF48C72CB
:10DE500020F0070914BF0020484616F01BFE09EB0E
:10DE60000004337E0334B17DB07F24F007041944ED
:10DE70003B4644F00404C9B2224601F019F90444B7
:10DE80002FB94FF48A72B17E484613F08BFDF36AC6
:10DE900013B107B9F462283496F8241089B1E01D53
:10DEA000002F42F2107220F0070514BF0020284610
:10DEB00016F0F0FD2C1827B942F21071284613F025
:10DEC00077FDA4EB080006B0BDE8F087337A0AF1CD
:10DED000010AF279B179707916F0AEFD044400E7D9
:10DEE0000D46A6E7002FD2D13A4639463846CCE750
:10DEF000500E0020540000205C000020580000203C
:10DF00008FB572B61A4B1D6BE5B9BFF34F8F194928
:10DF1000194BCA6802F4E0621343CB60BFF34F8F22
:10DF200000BFFDE7B4FBF6F4D3B20132002CF9D107
:10DF300003F110026A4402F80C4C0A2433B901A818
:10DF4000A847E2E7044600220A26EDE7013BDBB2E0
:10DF500003F110020DEB0206C2B2B2FBF4F704FBB0
:10DF600017223032B0FBF4F006F80C2CE6E700BFC5
:10DF7000500E002000ED00E00400FA051FB5164C1D
:10DF800002A8237A8DF80930E3798DF80830A37957
:10DF9000ADF80C306379ADF80A300DF031F818B1F6
:10DFA000B5210320FFF7ACFF012301A88DF8043051
:10DFB00017F0A9FF08B1B921F3E7A07C0DF058F8DC
:10DFC00008B1BC21EDE7607C0DF04CF808B1BD2133
:10DFD000E7E704B010BD00BF500E002038B505467D
:10DFE000002842D015F01AFB10B94FF0FF3038BDB1
:10DFF00013F028FEB0F5FA7FF7D81E4C1E482563B3
:10E00000002500F0B5FA26222946204684F834502F
:10E0100084F8355084F8275084F82850E56284F855
:10E0200026501AF043FC1B2240F20113627140F2A9
:10E030001B3223800123E28040F20232A37022814E
:10E040001F222375FB2362814FF40272A383A281F6
:10E0500044F6011263842282EFF3108472B601F059
:10E0600055F82CB962B62046C1E76FF01500BEE73F
:10E070002846BCE7500E00207DDF000010B50028C8
:10E0800040F0A680554C94F83430002B40F09D8031
:10E09000A1B1002A6DD00139142900F29980DFE87E
:10E0A00001F00B191C2C545C75325F6270383E4BCA
:10E0B000507A7D8B8E91820013782370012100208D
:10E0C000FFF7CAFDB0F5803F80F28580012384F818
:10E0D000353010BD13786370F0E79378002B48D08B
:10E0E000D378002B45D013781A2B42D953781A2BAA
:10E0F0003FD91368C4F80530E0E71378E27893421B
:10E1000037D3A370DAE71378A278934231D8E3705B
:10E11000D4E71378A27893422BD8E373CEE7137831
:10E120003BB35378013BDBB2F82B22D813889278AB
:10E1300023822B4B9A70C1E71078E07411F00AFD2E
:10E14000BCE71378ABB12375B8E7137894F82720B0
:10E150000AB1012B0DD96372B0E713886381ADE773
:10E1600013782371AAE794F82610137821B9012BAC
:10E1700004D86FF01500ACE7002BFAD01378637366
:10E180009CE71378082BF4D8A37397E71388FF2B29
:10E19000EFD8237392E7137863758FE713780E2B0C
:10E1A000E7D8A3758AE713680E49C4F81A30536894
:10E1B0004B6013890B8181E71378E3757EE7137851
:10E1C00063767BE71378237678E74FF0FF3080E7BC
:10E1D0006FF02C007DE76FF00B007AE7500E002007
:10E1E000600E00206A0E002070B50D460646F0B1A4
:10E1F000E9B111F007041AD100F0EEF8D0B13046C1
:10E200000E4E15F0D5FA214686F836002846FFF75F
:10E2100023FD1AF0D6F896F83600F16A0CF0FAFFF2
:10E22000FFF7ACFE0123204686F8343070BD6FF056
:10E230001500FBE74FF0FF30F8E700BF500E00205D
:10E2400010B5084C94F834302BB10CF0FFFF94F863
:10E25000360015F0C9FA16F062FD002084F834008B
:10E2600010BD00BF500E002050B1074B03F1140247
:10E2700053F8041B934240F8041BF9D10020704767
:10E280006FF01500704700BF914A0400074B93F8E8
:10E29000352010B532B993F834401CB90CF04CFF5E
:10E2A000204610BD4FF0FF30FBE700BF500E0020AE
:10E2B000074B93F8352010B532B993F834401CB9A8
:10E2C0000CF04EFF204610BD4FF0FF30FBE700BFC3
:10E2D000500E002010B50B4C94F835307BB994F8F3
:10E2E000343063B994F8283033B10CF077FF012350
:10E2F000002084F8273010BD0CF054FFF7E74FF0F2
:10E30000FF30F8E7500E0020074B93F8352010B58A
:10E3100032B993F834401CB90CF0BEFE204610BD53
:10E320004FF0FF30FBE700BF500E0020074B93F883
:10E33000352010B532B993F834401CB90CF09EFE6C
:10E34000204610BD4FF0FF30FBE700BF500E00200D
:10E35000074B93F8352010B532B993F834401CB907
:10E3600017F01AFE204610BD4FF0FF30FBE700BF4C
:10E37000500E0020074B93F8352010B532B993F8B2
:10E3800034401CB917F00BFE204610BD4FF0FF3093
:10E39000FBE700BF500E0020074B93F8352010B567
:10E3A00032B993F834401CB917F0FBFD204610BD7C
:10E3B0004FF0FF30FBE700BF500E002007C8024BB4
:10E3C00083E8070000207047880E0020014B9B68FF
:10E3D000184700BF880E0020024B9868003818BF0D
:10E3E00001207047880E002073B5031D2D4D044693
:10E3F0002B6028460DF0BCFE0228064606D12949AE
:10E40000204615F0B0FC304602B070BD042842D161
:10E410002B78092B0AD0252B1ED02946204615F033
:10E420001EFDB0F5817F2DD3722112E005213E2023
:10E4300015F06CFC0028F0D1EB7801A92A79684628
:10E4400043EA0223ADF8003016F089F80028D0D056
:10E4500053210820FFF754FD1A213E2015F056FCE9
:10E460000028DAD16B68694601A8C3F30F23ADF821
:10E47000043011238DF8063016F085F80028B8D046
:10E480006521E6E70028B4D0A178207815F03EFC9D
:10E490000028B8D1ADE70828B5D10249204615F0CB
:10E4A0009AFCB0E7940E0020074B4FF0FF3141F685
:10E4B000FF72C3E9001205490022C1E900221F21B1
:10E4C000C3E90212704700BF00000020980F00202F
:10E4D0003F280CD801380B4BC0F3421200F01F004C
:10E4E00053F8223023FA00F000F001007047FF28B3
:10E4F00006D04038044BC0F3421200F01F00EFE793
:10E500000120704700000020980F0020074B0146B3
:10E51000006849681A4603C240F48C221A6041F030
:10E52000107242F4FF625A60704700BF0000002082
:10E530000246024B0068516803C37047980F0020E1
:10E540000246024B0068516803C370470800002070
:10E550000138064BC0F3421200F01F0003EB8203A8
:10E560009B6823FA00F000F00100704700000020D3
:10E57000014B1860704700BFA00F002007B5FFF7E0
:10E5800093FF16F07CFF044B1B6813B10190984772
:10E59000019803B05DF804FBA00F002038B5274BAD
:10E5A0000446D3F8A023D3F8A413013106D1D3F83D
:10E5B000A8334FF6FF719BB28B423DD0D3073BD5BA
:10E5C0001E4DD5F8A423D5F8A833C4F80120A4F82B
:10E5D0000530C3F3072363F03F03A371D5F89033ED
:10E5E000013323D0D5F8943301331FD0D5F89833B5
:10E5F00001331BD0D5F89C33013317D000200DF028
:10E600007FF898B9D5F89003D5F89413D5F89823E6
:10E61000D5F89C33C4F80700C4F80B10C4F80F20D9
:10E62000C4F8133001230020237038BD10220021CC
:10E63000E01D1AF03BF9F5E70023F4E700C0FF0006
:10E6400070B5274D102200210446D5F8A0631AF0BA
:10E650002DF910220021A0181AF028F9D5F88033DE
:10E6600001330BD1D5F88433013307D1D5F8883382
:10E67000013303D1D5F88C3301330BD0D5F88003A7
:10E68000D5F88413D5F88823D5F88C3320616161DF
:10E69000A261E36100200DF033F808B9F3071CD440
:10E6A0000F4BD3F8902301320BD1D3F894230132CE
:10E6B00007D1D3F89823013203D1D3F89C23013238
:10E6C0000BD0D3F89003D3F89413D3F89823D3F84E
:10E6D0009C3320606160A260E360002070BD00BFD9
:10E6E00000C0FF0070B50C88C27CA6B2C4F30E0453
:10E6F000531D058804F118021D44825AADB21A4414
:10E7000043882A44013AB2FBF5F202FB054292B279
:10E710009342044B8BBF3340B34313439BB20B80F4
:10E7200070BD00BF0080FFFF10B5114B00EB41042E
:10E730001A786389B3FBF2F303FB0223013A1A440C
:10E74000B2F5706F027928BF00231A448378B2FBB8
:10E75000F3F0194403FB1020091AB1FBF3F003FB9B
:10E76000101313446FEA43436FEA5343638110BDB0
:10E77000A40F0020124B10B5E0B15A78022A04D041
:10E7800040F259111720FFF7BBFB03225A700268B1
:10E7900012F0070102D04FF4AF71F3E75C685A60E2
:10E7A0002244BDE81040026003F10C009A60302260
:10E7B0001AF07CB80122C3E901005A7010BD00BFF5
:10E7C000A40F00202DE9F041264E96F801E00EF04E
:10E7D000FD0CBCF1010F04D040F273111720FFF7BC
:10E7E0008FFB91F80680B8F1080F02D940F275113D
:10E7F000F4E7CF799FB345467B1D7268022D4FEA3F
:10E80000430402EB430338BF02256A1E6D421344E2
:10E81000C8F100022B408D884544013D2A404FF647
:10E82000FE75AA4202D94FF4C071D7E7BEF1030FBB
:10E8300012D106EB80001C1BC56815B140F2851192
:10E84000CCE7C460A770228084F803C0087A096806
:10E850002071080C2181E08007FB02337360BDE862
:10E86000F08100BFA40F00202DE9F047364C6378FB
:10E87000012B65D0032B04D040F295111720FFF730
:10E880003FFBD4E901329A4202D04FF4CC71F5E754
:10E89000002325460B221E46994605F80C3B55F8E9
:10E8A0002200013A58B190F804808178B8F1FF0F46
:10E8B0002FD180F804908E423CBFCEB20123511C70
:10E8C000EDD103B126700B2640F6FF6955F826708E
:10E8D0009FBB013EFAD2042300206370BDE8F0879D
:10E8E00055F82CE0BEF1000F06D09EF804A0C245FA
:10E8F00004BF9EF802E077440CF1FF3CBCF1000F2E
:10E90000EEDA3944FF2907D903B126704FF49A7122
:10E91000B4E794460027F1E70771CCE707EB410322
:10E9200008F101083846A3F80A90FFF7FDFE5FFAE8
:10E9300088F1BB788B42F1D8CBE74FF00008F6E7BF
:10E94000022360686370C9E7A40F00202DE9FF4728
:10E950004A7806468B780C461344FF2B04D940F2C4
:10E96000AB111720FFF7CCFA0B78934202D940F293
:10E97000AF11F6E7DFF8FC81009038B198F801306C
:10E98000022B02D00020FFF7E1FF6846FFF7F2FEFE
:10E990006E4A00270825637801A901924FF45A7244
:10E9A00038468DF80B30ADF808204FF0FF098DF890
:10E9B0000A508DF80C70FFF705FF654A01A9A3788E
:10E9C000012001924FF47A728DF80B30ADF80820D7
:10E9D0008DF80A508DF80C70FFF7F4FE5D4A01A91E
:10E9E000E378022001924FF4AC728DF80B30ADF851
:10E9F00008208DF80A508DF80C90FFF7E3FE564A78
:10EA000001A923790320019290228DF80B30ADF8F3
:10EA100008208DF80A508DF80C90FFF7D3FE63792B
:10EA200001A94E4A04208DF80B3001230192A8223F
:10EA30008DF80C30ADF808208DF80A50FFF7C2FEB3
:10EA4000A379474ACDE9027701928DF80A508DF8F3
:10EA50000B308DF80C901BB111F070F8ADF8080078
:10EA600001A90520FFF7AEFE3E4A0825E3794FF0E5
:10EA7000FF090192802201A906208DF80B30ADF824
:10EA8000082000278DF80C908DF80A50FFF79AFEA9
:10EA9000237A01A9344A07208DF80B300223019212
:10EAA00078228DF80C30ADF808208DF80A50FFF769
:10EAB00089FE2E4A01A9637A284601924FF40A7210
:10EAC0008DF80B30ADF808208DF80A508DF80C70D9
:10EAD000FFF778FE264A01A9A37A092001924FF494
:10EAE0008C72DFF894A0ADF808208DF80B308DF80B
:10EAF0000C904FF488798DF80A50FFF763FEE37AA3
:10EB000001A90A20CDF804A08DF80B30ADF80890CB
:10EB10008DF80A508DF80C70FFF754FE237B01A985
:10EB20000B20CDF804A08DF80B30ADF808908DF8CF
:10EB30000A508DF80C70FFF745FEFFF795FED8F8E8
:10EB40000400801B04B0BDE8F08700BFE381020031
:10EB50003F7F0200F91801008982020061FB010079
:10EB60007B8302007F830200599A0100C59901004E
:10EB7000AD9A0100A40F0020559B0100F8B54FF697
:10EB8000FF7305460380184B03EB8101C868B8B1D9
:10EB900086780379B3FBF6F206FB1233DBB2194633
:10EBA0000A1D00EB4202B2F902705488002F09DB03
:10EBB0000131B1FBF6F206FB1211C9B28B42EFD163
:10EBC0000020F8BDFF29FBD0C4F30E03C4782B80CE
:10EBD00024B940F2C7211720FFF792F95380BDE80E
:10EBE000F84015F008BF00BFA40F00201E4B03EB38
:10EBF000810170B5CC6805464CB3B0F5706F04D395
:10EC000040F2D5211720FFF77BF90146204615F089
:10EC1000D5FEFF28014604D02046BDE8704015F01F
:10EC2000EABEA078B5FBF0F300FB1353DBB2194644
:10EC30000A1D04EB4206B6F90260002E09DB013121
:10EC4000B1FBF0F200FB1211C9B28B42F0D10020EF
:10EC500070BDFF29FBD08B4204EB42021CBF002396
:10EC6000E3705580D8E700BFA40F0020094B03EBE9
:10EC7000810110B5CC680146204615F09FFEFF28A3
:10EC8000014604D02046BDE8104015F0B4BE002077
:10EC900010BD00BFA40F00200F4B03EB810170B526
:10ECA000CC6806460146204615F088FEFF2805463A
:10ECB00010D00146204615F09EFEE28823890146C9
:10ECC000304643EA0243984720462946FFF72CFD89
:10ECD000002070BD0320FCE7A40F002038B50E4BC8
:10ECE0000446827903EB8203D86808B9022038BD54
:10ECF0008278E1799142F9D24B1CE37100EB410338
:10ED00005D89B3F90A30002BF3DBA58015F073FEA3
:10ED100020600020EBE700BFA40F002070B5044680
:10ED200010F003000E4603D049211820FFF7E8F841
:10ED300015F0E9FD054624B103483146046015F09D
:10ED4000E2FD284670BD00BFE00F00202DE9F04F26
:10ED50001E4C85B092469846226881460D46BDF805
:10ED60003830BDF83CB01AB95B211820FFF7C8F85D
:10ED70001A460A215046039315F05AFC06465A4695
:10ED80000921404615F054FC31180746206815F05B
:10ED9000E4FD039BC9F8000018B9286005B0BDE880
:10EDA000F08F84195246314600932C600A23D9F81B
:10EDB000000015F0F0FB0923424639462868CDF8DB
:10EDC00038B005B0BDE8F04F15F0E5BBE00F00200E
:10EDD00070B50E46044615F033FC0546304615F076
:10EDE0002FFC044B2A1821461868BDE8704015F026
:10EDF000DEBD00BFE00F0020014B186815F0A0BD7C
:10EE0000E00F00201144F8B5C9B21C4C10F0030506
:10EE1000217003D04E210920FFF772F81F2B17D85D
:10EE20009B009BB2033323F003039BB208B16060E5
:10EE30002381282264684FF0010C4A438618EFB200
:10EE4000B94212D8D01D03FB010323F00700F8BD1F
:10EE5000FF2B4FEA430204D9FF339342E1DB93B225
:10EE6000E0E77C2AFBDC7C23DCE710B184F800C0FF
:10EE70006660013528341E44E1E700BFE40F00203E
:10EE8000144A002138B553681478C8B2844203D8B4
:10EE9000A9210920FFF734F81846013128330578F5
:10EEA000002DF2D0002101241289051D81704470CB
:10EEB00092088161C16100F12001446821F8022BB0
:10EEC000994245F8044B1444F8D100234361037080
:10EED00038BD00BFE40F00200A4B1B89B3F5FF7F4C
:10EEE0004FEA930006D25A089B1A9BB2984238BF49
:10EEF00018467047B3F5EE6F01D8FF22F4E740F2F1
:10EF00007263F3E7E40F00202DE9F8434B78804665
:10EF10000C4602F0040602F0FB07D3B1DFB12F4B21
:10EF2000D4F804901D89BFBB0123AD084A46211DBA
:10EF3000637004F1280004F12003A761E76123F85E
:10EF4000025B984241F8042B2A44F8D10023636104
:10EF500001E0002FE3D0002E4FF0FF0318BF022680
:10EF6000A370A3191B7D032B03D1022F1CBF0136F5
:10EF7000F6B2A31901221A7506F10C02002304EB64
:10EF8000860624F8123072684046A370C8F8002044
:10EF9000A8F80430BDE8F883002114226170A0189D
:10EFA00019F084FCB5F5FF7F0FD26B08ED1AADB2F6
:10EFB00009EB0502C4F804902584A2606384C4F8B8
:10EFC0000C90A5842261E384C5E7B5F5EE6F4FF0A0
:10EFD000FF03EBD940F27265EAE700BFE40F0020BF
:10EFE0002DE9F7431FFA82F804461FFA81F90F460C
:10EFF00016462E214A46404615F01AFB05465CB1DE
:10F000002E23014642462046CDF8009015F0C3FA63
:10F01000034B1C601F715E71284603B0BDE8F0838E
:10F02000F00F0020024B5A7919791868FFF7D8BF02
:10F03000F00F0020014B1868704700BFF00F002050
:10F04000014B5879704700BFF00F00202DE9F743BE
:10F0500005460C46F7200521904615F0E9FA0646CC
:10F0600085B115F0030703D08F211920FEF748FF63
:10F07000DFF83890C9F81050A5B2A9F81400BBB257
:10F080009D4204D806FB04F003B0BDE8F083B9F854
:10F0900014C00523D9F81000F7223146CDF80080BE
:10F0A00007FB0C00013715F076FAE8E700100020A6
:10F0B00007B5CDE900230B4603490246081D15F0AC
:10F0C00008FE03B05DF804FB1810002013B5064CD1
:10F0D000CDE900230B46024604F1080104F10C00BF
:10F0E00015F0F7FD02B010BD18100020024B0146CC
:10F0F000D3E9002015F05BBC18100020024B01463C
:10F10000D3E9022015F053BC18100020114B012246
:10F110004FF0FF3000215A60C3F80803C3F8001510
:10F12000C3F804255A6041F6FE72C3F80803402074
:10F13000C3F8001503F570330749C3F80825C1F873
:10F140008800BFF34F8FBFF36F8FC1F88801C3F8FA
:10F15000082570470060045000E100E08C4638222A
:10F16000064B00B50CF8032B8E4607CBCEF80300F8
:10F17000CCF80410CCF808205DF804FB3410002013
:10F1800070B5224DE96AAC6A0B78A83403F003032A
:10F19000032B1AD16B8E01202A8E0343207442F474
:10F1A00000626B866B6B2A869847E96A237E013B77
:10F1B00018BF012323764B7833B1D4E922320133CF
:10F1C00042F10002C4E9223270BD002BEED04B7830
:10F1D000002BEBD02A8E42F400622A86AA6B002A0A
:10F1E000F2D0FB2B08D895F83C3063B16B6B002153
:10F1F0002020BDE87040184795F83D3043F01003DB
:10F2000085F83D3070BD01230370CFE72810002042
:10F2100010B5114C11F070FB10F034FF0021636B3E
:10F22000208E9847237E4BB9236C94F83D1094F8B8
:10F230003E009847002384F8443010BD94E807004E
:10F2400004F10C0383E807000222044904F11900C9
:10F2500018F034F8E8E700BF281000205DF1000046
:10F26000034B93F8443003B97047FFF7D1BF00BF99
:10F2700028100020174A92F824307BB180B992F808
:10F280004810C9060ED5FBB10021538E9B0713D53C
:10F29000536DDB78981E18BF012070470128EED00F
:10F2A00000207047D16C906B0978C1F30011C1F157
:10F2B000010120B1002BE8D131B101207047B2F833
:10F2C00050000028F9D1F5E7508E003818BF012012
:10F2D000704700BF2810002008B5094B93F8442060
:10F2E000022A07D1DA7A42F00102DA72BDE8084058
:10F2F000FFF78EBF40F23D212720FEF701FE00BF41
:10F3000028100020F8B5234C0646A56AE36C95F852
:10F31000CB2005F1A807E36294F858300AB1043312
:10F32000DBB2FF2B95F8711004D11EB995F870006F
:10F33000814204D0184611F09DF897F823201AB3A3
:10F34000E06D11F083FE94F82430E16D003BE06A3B
:10F3500018BF012384F88030D7E92223C4E91C2395
:10F3600010F0A4FD3EB995F8710010F00C0018BF24
:10F37000282011F0C9FE95F87010002011F028FF28
:10F38000022384F84430F8BDE06A11F05FFE10F00B
:10F3900079FEE7E72810002070B57F4C002382B08B
:10F3A000A56A8DF8053095F8CB2005F1A80694F8EC
:10F3B00058300AB10433DBB2FF2B11D180B995F874
:10F3C000713095F870108B4202D0FF2011F052F886
:10F3D000B37D032B00F2DA80DFE803F005208474AC
:10F3E00095F87010F1E794F8BA306C48ADF8063033
:10F3F000A5F860300CF020F9002840F09A800DF15B
:10F4000005020DF10601D4F8BC0015F03BF960656A
:10F4100020B196F86130002B00F0A280604B1846B6
:10F420006365F37DDB0003F00802037803F0F30368
:10F430001343327E920002F00402134303F0EF0202
:10F4400003F00303032B027002D1C378022B12D006
:10F45000D4F8BC0015F097F948B9606D027802F055
:10F460000303032B07D00CF00DF9002871D1606D58
:10F47000027842F01002027096F8223013B14378FD
:10F48000002B43D111F0E2FD10F0FCFD666D0DF094
:10F4900011F820B1337803F00303032B5CD095F807
:10F4A0007110012011F094FE626D01233D49108816
:10F4B000927884F8C030A4F8480084F844308A7008
:10F4C00002B070BD35480CF0B7F8002859D0606D17
:10F4D000C3781B2BA5D1012105F1100011F000F814
:10F4E000606D9EE7B5F860300DF105020DF1060183
:10F4F000D4F8BC00ADF8063015F0C4F860650028FB
:10F500008FD140F2D6212720FEF7FAFCE06D11F0F2
:10F510009DFD94F82430B3FA83F3D6E920015B090A
:10F52000C4E91C01616DE06D84F8803010F0BEFC10
:10F53000ACE7638E8020616D43F08003626B63866D
:10F5400090470121606D7174C3781B2B7FF469AF04
:10F55000C2E7606D02788EE7012012F013FB9EE790
:10F560009DF805302BB1BDF8061017F062FE606DF6
:10F5700057E7038001218370606D17F043FD606DD4
:10F58000F1E740F2DF212720FEF7BAFC4FF43B7190
:10F590002720FEF7B5FC00BF281000207C100020BB
:10F5A000B0100020701000202DE9F041454C82B0D1
:10F5B00006460F4694F84430A56A012B5FFA83F89B
:10F5C00005F1A80579D12B7C6BB1638E0021042055
:10F5D00043F0040329746386636B984794F82430DE
:10F5E0000BB185F81280616D0B7803F00303032BD8
:10F5F0003ED04B78EBB10223AB7595F82330F3B1D5
:10F6000094F82430003B18BF012384F88030D5E9FA
:10F610002223C4E91C23A36A94F8582093F871307C
:10F62000013B072B44D8DFE803F0413D433543431A
:10F63000433F0123AB7595F82330002BE0D1012F18
:10F6400011D186B9D4F8C4303046984758B194F8EF
:10F650003D3043B93046FFF70DFE20B902B0BDE89A
:10F66000F041FFF74FBE02B0BDE8F041FFF7D0BD5B
:10F67000AB7D63B9638E022043F002036386636B44
:10F680009847616D0B7803F00303032BB1D103237B
:10F69000AB75B2E702230021022000910A4910F065
:10F6A00095FBCCE70423F6E70023F4E70323F2E716
:10F6B00040F2B9310620FEF723FC40F25C412720DE
:10F6C000FEF71EFC28100020881000200C4B0D4A6D
:10F6D00070B50D4C1A6094F8443063B906460D4677
:10F6E00003F0FF02012104F18800227617F08AFC62
:10F6F000E664E56570BDDF212720FEF701FC00BF51
:10F70000700000206000002028100020044A92F8B9
:10F71000443003F0FF000BB9107670470C2070479F
:10F7200028100020024B012283F83C20704700BFC4
:10F73000281000202DE9F04385B0C44C02AD85E8C7
:10F74000030094F844100C98002940F0D781002B56
:10F7500018BF002A00F0D281002800F0CF8101F00C
:10F76000FF06C4F8C430206404F12403626384F803
:10F770003C6084F83D6084F8C86084F83E6084F89A
:10F78000C0606686268695E8030083E80300A56AC4
:10F7900010F0DAFE10F076FC95F9740005F1A80778
:10F7A00010F0C6FFA86A11F035FC286A10F0C6FFF9
:10F7B00097F8330010F0CCFF94F82430002B00F0C1
:10F7C000AB80042014F0D2F8EA6941F64B539A4218
:10F7D00094BF4D20962010F001FE95F87110012085
:10F7E00011F0A4F9002800F0AB80994B186811F0D3
:10F7F00017FC6B69C4F8BC30AB69C4F8CC3095F821
:10F800007F301BB9A96F002940F0CC80D7F8900059
:10F81000D7F89410D7F89C30DFF83CC2D7F898207E
:10F82000ACE80F00D7F8A0000CF1080CD7F8A41032
:10F8300094F82430ACE80300002B40F08480A36AE5
:10F8400093F8C520263A012A40F2D68093F8C620C4
:10F85000262A00F0D18093F87080B8F1040F08BF19
:10F860004FF0080805F138094146484617F0E4FD15
:10F87000414616F0B0FFB5F84420034695F87110E4
:10F880004846934228BF134684F8BA3017F09AFDD1
:10F8900095F8711097F823800829B5F84C9008BFA7
:10F8A000042116F098FFB8F1000F01D1043080B2A6
:10F8B000484528BF48465FFA80F884F8D0800CF0AD
:10F8C000F9FD20B1B8F12B0F38BF4FF02B0894F899
:10F8D000243084F85880002B40F0A78097F822202D
:10F8E000002A40F0BB800120FFF756FD594BD3F8AA
:10F8F000203523F00803032B00F005810023B98A8B
:10F9000097F83320A360C4E900332B88618022710B
:10F91000238005B0BDE8F083032014F027F8EA69DE
:10F9200041F64B539A4294BF4D20962010F056FD5D
:10F9300095F87010002011F0F9F800287FF455AF09
:10F9400005B0BDE8F083A26A92F8C530A3F12601A4
:10F95000012938D992F8C600262834D0A3F1210114
:10F960001346012900F2C680242865D192F86E3131
:10F9700092F8691092F870800B405A0762D413F025
:10F98000010240F0AF809B077FF56CAFB8F1040F28
:10F9900058D0B8F1080F55D0B8F1010F18BF4FF08B
:10F9A00002085FE7B7F84E20BB8A93427FF42EAF80
:10F9B000B5F87C2013440122A7F84E3095F87E005C
:10F9C00012F0CAF822E792F8B63392F87080002B52
:10F9D0003FF448AFB8F1080F34D0B8F1040F31D07C
:10F9E000082B2FD0042B2DD0B8F1010F01D0012B03
:10F9F00018D14FF0010835E793F81A2393F8708077
:10FA0000002A3FF42FAFB8F1080F1BD0B8F1040F54
:10FA100018D0082A16D0042A14D0B8F1010FE8D063
:10FA2000012AE6D04FF002081CE797F8233083BB89
:10FA30000120FFF767FC59E792F86E3192F8708069
:10FA400059079CD54FF008080CE700BF281000208C
:10FA50007000002000A0085088100020012284F8C7
:10FA6000802095F87020D7E92001013AC4E91C01F3
:10FA7000072A2AD8DFE802F032042930292929058B
:10FA800004230022224904200092FB2210F09EF958
:10FA900029E795F871300122D7E92201013B84F86A
:10FAA0008020C4E91C01072B0FD8DFE803F01904FC
:10FAB0000E130E0E0E050426002133464246022088
:10FAC0000091134910F082F9B2E740F2B9310620F3
:10FAD000FEF716FA0226EFE70223D2E70323D0E768
:10FAE0000326E9E7B8F1080FACD0B8F1040FA9D0AC
:10FAF0009046B7E624287FF4AEAE37E74FF4A871FE
:10FB00002720FEF7FDF94FF4FD712720FEF7F8F9E5
:10FB10008810002010B5184C94F84430EBB194F8DC
:10FB200024308BB194F84430022B20D1A36AD3F84F
:10FB3000F00211F0BFFAA06A90F87F3003F0FF02E4
:10FB40000BB9836F63B910BD94F84430012BF2D028
:10FB500040F20F212720FEF7D3F9FFF759FBEAE720
:10FB6000114690F87E00BDE8104011F0F5BF40F25C
:10FB700013212720FEF7C4F928100020FFF748BB07
:10FB8000014B1876704700BF28100020014B93F8F6
:10FB9000C000704728100020024B188EC0F3802050
:10FBA000704700BF28100020014B93F8C800704731
:10FBB000281000202DE9F0411E4F820782B0054633
:10FBC000BC6A0E4604F1A80411D4EB070CD5217EC3
:10FBD000D4E92232013342F100020129C4E9223280
:10FBE0000CBF00230123237602B0BDE8F081BB6B7C
:10FBF000DBB1B7F850201846F96A033291F801805A
:10FC000018F029FE0DF1020201A9F862D7F8CC0024
:10FC100014F06FFE019814F056FE01223060414648
:10FC2000D7F8CC0014F0FBFDCFE740F24D41272080
:10FC3000FEF766F9281000202DE9F047002386B072
:10FC4000B64C06468DF80F300F46A56ACDE9043351
:10FC500094F84430A835022B5FFA83F840F0AD8168
:10FC6000238E13F0400106D1636B40209847238E0A
:10FC700043F040032386002E5AD095F82330002B02
:10FC800040F02581D4F82CA09AF8011089B2A4F88C
:10FC90005010002940F032810023A3639AF800003D
:10FCA000238EE97DC0F3800243F480739142238662
:10FCB00000F0D980A26A94F8241002F1A80999F8FA
:10FCC0001620EAB1022A00F05E81002389F816307E
:10FCD00021B199F81220002A40F04A8199F8113098
:10FCE000002B40F0218199F81730D4F82CA0012B7B
:10FCF0000CBF0023012389F81730238E9AF80000E7
:10FD000043F48062C0F3C0034FF0000922862A7ECC
:10FD10009A4200F0AF800CF0CDFBC0B19AF80030F1
:10FD200003F00303032B12D1012011F02BFF0EE08F
:10FD300095F82320002A40F0C68043F400734FF06A
:10FD40000009238694F8C830013384F8C83095F848
:10FD500022302BB394F82430B3FA83F35B0984F890
:10FD60008030A36A93F87030D5E92001013BC4E9E3
:10FD70001C01072B00F2F480DFE813F0A20008005A
:10FD8000F2000A00F200F200F2009F004FF00408B7
:10FD900000224346624904200092FB2210F016F82C
:10FDA000002F49D194F8C830012B45D8D4F8C4307D
:10FDB0000120984700283FD094F83D30002B3BD1DC
:10FDC0000120FFF757FA0746002835D1FFF7E4FA7C
:10FDD0009DF80F30002B36D1B9F1000F08D094F800
:10FDE0002430002B60D1B4F809300133A4F8093075
:10FDF00076B3B4F805300022013384F8C820A4F8A3
:10FE0000053048480CF086FE049840B114F05BFDC4
:10FE1000A16A002308220130037217F03DFA059B06
:10FE200033B1A16A002010221872059817F034FA35
:10FE3000A7B906B0BDE8F08711F034FA9DF80F308D
:10FE40000127002BC8D005A90220FFF7B3FEC3E7A6
:10FE5000B4F807300133A4F80730D2E7FFF7D8F938
:10FE600006B0BDE8F087C0F3C0032A7EB1469A42CF
:10FE70007FF451AF0CF01EFB002847D0D4F82CA023
:10FE80009AF8003003F00303013B012B3ED89AF8A7
:10FE9000012094F8D0309A4238D994F83D3043F09C
:10FEA000100384F83D3036E7B4F80530B4F8071095
:10FEB000AA8A0B4313439BD095E74FF0000867E7EE
:10FEC0004FF0030864E710F05BF9238E35E710F07C
:10FED0001FF910F001F9D4F82CA09AF801100028AD
:10FEE0007FF4D4AE002940D09AF800302A7EC3F3C4
:10FEF000C0039A425BD089B2A4F85010D4F8CC0069
:10FF000014F062FCD4F82CA0A063C7E60DF10F003A
:10FF1000FFF736F9D4F82CA0FDE600BF281000202A
:10FF2000881000204C1000204FF0000A89F811A022
:10FF30000BF092FB00284AD0638E5146082043F014
:10FF400008036386636B9847D9F880300133C9F89A
:10FF50008030D9F8843043F10003C9F88430C2E618
:10FF600040F2B9310620FDF7CBFFA4F8501093E61C
:10FF7000194689F81230638E102043F0100363860F
:10FF8000636B9847AAE604A9D4F8BC0014F09CFB64
:10FF9000C0B1D9F8803094F824100133C9F880300A
:10FFA000D9F8843043F10003C9F884308DE6012389
:10FFB00084F83E30FFF72CF93BE740F2CF41272091
:10FFC000FDF79EFF40F2CB312720FDF799FF40F26D
:10FFD000E2312720FDF794FF06220B4603F8032B9E
:10FFE000B0F809C0C27AA1F803C09A70704700BF88
:10FFF00006230B70D0F80F301A88A1F803200022D6
:020000040001F9
:1000000093F8CD304B71024B5B689A67704700BF25
:100010003C19002017220B4603F8032BD0F809C027
:10002000D0F80D20C1F803C05A607047392200F1A2
:100030000903293001F8032B10B51C68103353F85D
:100040000CEC103153F808CC53F8042C834241F8DF
:10005000104C41F80CEC41F808CC41F8042CECD1E0
:100060001B880B8010BD00BF154B421E082953F89A
:1000700021304FEAC21203F2E73310B4114CA4FB53
:1000800003434FEA931313D0042909D002291344E0
:100090005DF8044B14BFF021602101FB0030704774
:1000A00040F2BE2113445DF8044B01FB0030704761
:1000B0004FF4D26113445DF8044B01FB00307047EC
:1000C00018F10300D34D6210D928844628BF4FF0A1
:1000D000D90C0CF1300C1FFA8CFC30B5BCF1FF0FC1
:1000E000BDF80CE028BF4FF0FF0C1EF0030F39D015
:1000F0001EF0020F01F5A57125D0082A00F0B88086
:10010000042A00F02981022A14BF4FF414744FF41A
:10011000967412F00C0F214400F0898001F614440B
:100120001EF0010F04F1980C00F09380082A00F0F3
:10013000DA80042A00F02881022A0CBF6421C02141
:100140008C44604630BD002B5BD0082A00F0C4818F
:10015000042A00F0DF81022A40F6480408BF4FF469
:100160008564D6E701F5A574DBB1082A00F00F819C
:10017000042A00F0F480022A00F0C681D92801F692
:10018000921CDED9A0F1D902B84B92B2F63283FBB1
:1001900002131344DB1140F6921202FB03CC6046BB
:1001A00030BD082A00F00481042A00F0A280022A4F
:1001B00000F0A3810CF1050CD9281FFA8CFC04EB8C
:1001C000CC0C0CF1280CBCD9A0F1D903A84998B2E9
:1001D000A1FB0031431A01EB5301C1F3C711C1EB7D
:1001E000411340F69212C1EBC30302FB01CCC31AC8
:1001F0009BB2002BA5D00833282208209BB20533E0
:10020000FEE0082A00F0BD81042A00F06881022A7D
:1002100000F05B810CF1050C282408251FFA8CFCEA
:100220000CFB054C12F00C0F61447FF477AF082AE9
:100230005CD0042A00F08D80022A14BF4FF4B07401
:10024000B4249C311EF0010F0C4404F1980C7FF48F
:100250006DAF83B1082A00F08881042A00F057812D
:10026000022A00F0D380D92804F50E6C8AD868E7FA
:1002700041F2D0244DE7F128034628BFF123082A94
:1002800000F04B81042A00F03281022A00F0F28053
:100290001333D92899B20CEBC10C0CF1280C7FF662
:1002A00050AFD938724B80B2A3FB0023C21A03EBC4
:1002B0005203C3F3C713C3EB431240F69211C3EBCF
:1002C000C20201FB03CC831A9BB2002B3FF439AF6F
:1002D0000833282008219BB205330CF5A57C03FBCD
:1002E00001039C442DE74FF4CA6129E74FF43564BC
:1002F000A7E70CF1050C4FF4BF7110231FFA8CFC1B
:100300000CFB031CD928A4447FF61BAFA0F1D90332
:100310005749042A98B2A1FB0031A0EB010301EB7D
:100320005301C1F3C71140F08A80C1EB411341F280
:100330000832C1EBC30302FB01CCC31A9BB2002BF2
:100340003FF4FFAE08334FF4BF7210209BB2053369
:1003500056E040F2EE3474E740F2CE54D9E641F272
:10036000BE1CD928A4447FF6ECAED9383F4B042AF2
:1003700080B200F1F60083FB001303444FEAE3135D
:1003800057D141F2083208E740F2AE21D8E644F2F4
:10039000DA32D92801EB020C7FF6D3AEA0F1D901F5
:1003A000324B89B2F63183FB01030B44DB11F4E6D7
:1003B0000CF10503D9289BB204EB831C0CF5C87C17
:1003C0007FF6BFAED9382A4B44F2DA3180B2A3FBB4
:1003D0000023C21A03EB5203C3F3C713C3EB431248
:1003E00001FB03CCC3EBC203C01A80B200283FF468
:1003F000A8AE00F108034FF4C87240209BB2053349
:100400000CF5A57C03FB00239C449AE64FF4856120
:10041000D9288C447FF695AEA0F1D901134B042A5C
:1004200089B201F1F60183FB01030B444FEAE313A8
:10043000A7D0022A7FF4AFAE40F27252ADE6022A94
:100440007FF4CDAEC1EB411340F27252C1EBC30356
:1004500002FB01CCC31A9BB2002B3FF472AE0833EF
:10046000182204209BB20533CAE700BFC9F9A9844A
:1004700091F353091333182104249BB203FB041393
:10048000D9289C447FF65DAED9384D4B042A80B202
:10049000A3FB0013A0EB030103EB5103C3F3C7134A
:1004A00077D1C3EB431241F20831C3EBC20201FB27
:1004B00003CC831A9BB2002B3FF443AE08334FF4B6
:1004C000BF7010219BB2053307E70CF1050C18240F
:1004D00004251FFA8CFCA3E644F2902419E60CF1E3
:1004E000050C4FF4BF7410251FFA8CFC98E61333EB
:1004F0004FF4BF7110249BB2C0E70CF10503182123
:100500001FFA83FC0423FBE64FF4856C29E741F2D4
:10051000BE117DE741F2BE14FBE51333D92899B231
:100520000CEB811C0CF5C87C7FF60BAED938244B44
:1005300044F2DA3180B2A3FB0023C21A03EB520368
:10054000C3F3C713C3EB431201FB03CCC3EBC203DA
:10055000C01A80B200283FF4F4AD00F10803402136
:100560004FF4C8709BB20533B7E644F2283CD92853
:10057000A4447FF6E6ADA0F1D901124B44F2DA3281
:100580000FE70CF1050C4FF4C87440251FFA8CFCE2
:1005900046E6022A7FF48FAEC3EB431240F272515B
:1005A000C3EBC20201FB03CC831A9BB2002B3FF4C6
:1005B000C8AD0833182004219BB205338DE600BF77
:1005C00091F35309C9F9A9842DE9F041314E4FF057
:1005D0000008154684B0D6F800C062F30708074645
:1005E0000C46DCF80F3062F30F280B629CF81530D4
:1005F0009CF814201B0443EA02239CF813201343A5
:100600008B62BCF8190016F044F933680146E061CA
:10061000987D019116F04AF9336801992086B3F864
:10062000170016F061F93368E06202A9B3F81B20E5
:10063000A284B3F81D20E28493F8242002F01F0264
:1006400084F8D920D3F81F0093F82330029004F1E6
:10065000CD008DF80C3016F0B0F9336893F82430E3
:10066000A4F870805B0984F8D832FF2315F00C0FD2
:1006700004F1380014BF0121002184F872300BF01E
:1006800073FE97F91410204616F0ECF804B0BDE89C
:10069000F08100BFFC100020F8B544888C46054668
:1006A000134614F004046246C07F0CBF214605F1D6
:1006B00077010BF0E9F9C207044606D4A30712D468
:1006C00084F00400C0F38000F8BD0123E87F85F8C2
:1006D00068300BF0B3FA0368C5F869308388A5F871
:1006E0006D30A307ECD50127084E05F1770130687E
:1006F00085F8767016F045FA3068394616F055FAE6
:1007000084F00400C0F38000F8BD00BFFC1000209E
:1007100070B500F1090213250B460C46293003F889
:10072000035BD2F800C0103252F80C6C103352F850
:10073000085C52F8041C824243F810CC43F80C6C5D
:1007400043F8085C43F8041CEBD1127801251A70B9
:100750002946A688A5713046FEF788FA48B1E278A6
:1007600042B100880AF02AFF29463046FEF794FA83
:1007700020B970BDBDE8704017F009BC40F24221BD
:100780002D20FDF7BDFB00BF1323F7B50B70002331
:1007900005460C46CB7083691A88D8698A80012285
:1007A0008A7116F063F8AB69608304F10E019A8CCC
:1007B000A283DA8CE28393F8D82284F82020FF22E7
:1007C00084F821206A69128962845A7A012A2DD11B
:1007D000DA7B02F0C002402A28D1D3F80A20C4F8FC
:1007E0000E20DB898B800622134B69465868436DC7
:1007F00054306361838823830023AF690093BE78FC
:10080000ADF80430E67117F0FDFF10B146F00206B6
:10081000E671D7F80330A360B7F80730A381A86961
:1008200040B103B0BDE8F04017F0B1BB0023C4F8FD
:100830000E30D7E703B0F0BD3C19002070B50D466F
:100840000446C869164616F011F8AB8CEA8CA4F879
:10085000A630A4F8A400A4F8A820A37F95F8D82275
:1008600084F8AA201BB194F86830012B24D0002210
:10087000C4F89820A4F89C20204B082E1B681A78F6
:10088000C2F3801284F8912025D0D3F8031004F12C
:1008900092023046C4F89E1004F19101B3F807307B
:1008A000A4F8A2300BF094F818B394F8913043F008
:1008B000020384F8913070BD94F86E3003F0C003E9
:1008C000402BD4D1D4F86920B4F86D30C4F8982006
:1008D000A4F89C30D0E7D3F803000022C4F89200BB
:1008E000B3F80730C4F89E20A4F89630A4F8A220EC
:1008F00070BD40F64A412D20FDF702FBFC100020A0
:100900000B46162203F8032BD0F809C0427BC1F82E
:1009100003C01A71CB781BB130F8AC3C1B0700D573
:10092000704710B5B1F8054001212046FEF79EF949
:1009300038B100880AF042FE01212046FEF7ACF9EA
:1009400000B910BD40F286212D20FDF7D9FA00BF75
:100950002DE9F043874D87B0874B0026AA6A0446ED
:10096000864902A8526804F130070293844B6E71E5
:1009700084F881600592049303912E82AE60AE717B
:1009800010F04EFB0FF0E0FD10F008FC0FF072F9D4
:100990007C480FF0D3FE7C4810F03CFB304612F050
:1009A000E5FF384601F074FB384601F077FB0FF0A5
:1009B000CFFE217925200FF05DFD94F914000FF092
:1009C000B7FE2179304610F0B1F8E86028B901236C
:1009D0002B71002007B0BDE8F08304F15001E06CFA
:1009E00014F0E8F8074604F15801E06C14F007F938
:1009F00006463FB194F82480B8F1000F02D04FF0C2
:100A0000010903E0002E5CD1B046B146A37F13B9C3
:100A1000638859071BD56FF00041D4E918238B4236
:100A200008BFB2F1FF3F54D017F0B7FDD4E9182347
:100A3000904271EB03034CD3414601222046FFF75D
:100A40002BFE00284FD1B9F1000F40F08E803E43BD
:100A500094F88330F6B2DBB2002E6BD1002B69D153
:100A6000286803300AF0FEFF6388A874DB07B0D55E
:100A7000266A00230122FF2106F10A0785F82010CB
:100A8000CDE900338DF806206846FEF727F90028E7
:100A90009FD1009CA642F7D03B46727A04F10A012E
:100AA000607A15F08AFD0028EED0A278374B85F8E1
:100AB0002020D4F80320C5F82120B4F807209A801C
:100AC00087E794F82580B8F1000918BF4FF00109B5
:100AD0009CE7B9F1000FBAD0012220461146FFF77A
:100AE000DBFD002841D00AF06DFF804617F055FD70
:100AF0004FEA48134FEAD862B3EB080362F10002F1
:100B0000520242EAD3525B0213EB080342F1000C9B
:100B10009A014FEA8C1ED21A4EEA936E6EEB0C0CC1
:100B200012EB08034CF10002181842EB0101C4E972
:100B300018018CE76388DA0692D4666CC6F30B263C
:100B40000BF0BEFCC0F30B039E42F9D094F8463084
:100B5000C0F30321002284F8450023F00F030B4368
:100B600084F8463084F883207AE740F614212D205B
:100B7000FDF7C6F9FC10002081120100A90E01004A
:100B8000710D0100D6BE898E555555001D110020EE
:100B900003292DE9F043044685B0164644D090F869
:100BA000803023B10025284605B0BDE8F083052933
:100BB0005BD03D4D4FF00108AF7C002F3DD1337825
:100BC000082B61D0296804F1700394F86F2011F8A4
:100BD000030BC0F3801015F0F0FC2968054611F8EE
:100BE000030BC0F3801015F013FD81460BF038F8AD
:100BF000B9F1080F0CBF002000F0010000283BD124
:100C000001223378082B34D04DB363885907CAD4F6
:100C10000028C7D1002F40D1657D002D18BF454564
:100C20000CBF01250025BEE743889A07BAD51E4DA3
:100C30004FF00208AF7C002FC1D015F0F3FC08285C
:100C4000307021D00DF1070102AA0AF0C1FE30B3C5
:100C500002A99DF8070017F058F80746AFE7E57FAF
:100C6000ED1AB5FA85F56D09CFE74388DB07A0D407
:100C700098E71540EDB2C8E748460AF051FE80F00B
:100C800001030246D8B2BCE7296811F8030BC0F390
:100C9000801017F03AF8074694E73D4683E740F6A0
:100CA0003D712D20FDF72CF9FC10002038B5B0F86F
:100CB000483004462C4D0133AA7CA0F84830B2B924
:100CC00000232B7194F881305BB9637C1BB1B4F8BD
:100CD00048209A4212D220460021BDE8384002F056
:100CE0004DBD20460121BDE8384002F047BD10F05F
:100CF00055FA0EF0BFFF0023AB74E1E70121204657
:100D000002F03CFD6388DB070FD5236A1D880AF0DB
:100D1000B9FA68B921784322637CA4F8B95084F801
:100D2000B81084F8B720A3B111E00AF0ABFA00B113
:100D300038BD4FF0FF3220784321637C84F8B8003F
:100D400084F8B92084F8BA2084F8B7100BB194F86D
:100D5000483004F1AE0084F8BB3002220349BDE8FC
:100D6000384016F099BA00BFFC10002001090100BC
:100D700060B951B1074A084B92F804C0D2E90A1091
:100D800063440A6952F8233018477047014BD86A08
:100D9000FFF78CBFFC100020FCFFFF3F2DE9F04166
:100DA00082B00823052104460DF107028DF80730B3
:100DB000FFF7EEFE00286BD062792046216AFFF72C
:100DC00003FC216A00204FF6FF73FF2284F88D0098
:100DD000088884F8AB20A4F88E0020469DF80720F0
:100DE000A4F8AC30FFF72AFD236A2D491A880D6854
:100DF000A4F8C52093F8CD2084F8C72025B1184663
:100E000001222146A847236A264D00270821286889
:100E1000D0F80320C3F80320B0F80720A3F8072078
:100E20000678D4F82080C6F3801688F80260078020
:100E300015F077FE3946286815F0E8FF3A4628682D
:100E40004FF0030115F0E9FF3A46062304F169016A
:100E5000286815F0B5FF94F86810286815F098FE1A
:100E60003146286815F0A1FE0623012208F103018E
:100E7000286815F0A5FF6179FF200FF0FBFA2868BC
:100E800010F0E4F8092301202B7102B0BDE8F081D5
:100E90002046FFF70BFF012002B0BDE8F08100BF44
:100EA000A4000020FC100020F0B5504C85B0237940
:100EB000022B03D02379032B40F08B80E26A156A62
:100EC0000DB195F8755088B9A37C1BB110F066F987
:100ED0000EF0D0FEE06A02F075FA48B30FF00CFD98
:100EE000A36A9B6805B0BDE8F0401847216802F18D
:100EF000690392F8682011F8096BF00915F05DFBA1
:100F00000028E1D006F00F062068052E26D02946DD
:100F100015F074FE0028D7D02379E06A022B0DD09B
:100F20002379032B0AD040F6C5412D20FCF7E8FFBA
:100F3000E06A05B0BDE8F040FFF7B8BEA36A3146ED
:100F400025795A692A4B2B4452F823309847A37CC1
:100F5000002B43D10028BDD105B0F0BD90F824305E
:100F600003F01F03102BD2D9E76AFB7C002BCED0F5
:100F700008230DF10F02314638468DF80F30FFF788
:100F800007FE0028A0D097F8E130002B9CD1226802
:100F900007F1E201D31C2332D3F800C0103353F819
:100FA0000C6C103153F8085C53F8040C934241F870
:100FB00010CC41F80C6C41F8085C41F8040CEBD102
:100FC0001B88022207F1D9000B800A4916F064F948
:100FD0007AE740F6EC412D20FCF792FF019010F0EB
:100FE000DDF80EF047FE0198B4E700BFFC100020CA
:100FF000FEFFFF3F2D0001002DE9F04104460E46A3
:10100000002940F08980714D0023286894F876709B
:1010100003806388103B0D2B00F2C980DFE803F0EA
:1010200077C7721EC707C7C7C7C7C7C7C70701218A
:1010300015F077FD2868037823F0200343F02003A0
:101040000370002F00F0968004F1770115F099FDF0
:101050002868012115F0A9FD286809E0002115F094
:1010600060FD2868037823F0200343F02003037019
:1010700004F1690115F077FD94F86810286815F0FF
:1010800087FD638823F008039BB2152B60D1286885
:101090000FF0DCFF04232B71FEB16388102B74D09A
:1010A00004F13007D5F80C80384601F08FF8064679
:1010B0003846013E01F062F828226188301AC0B239
:1010C00001F0C4F8638880441B0763D42279414649
:1010D00000200FF063FE002873D06388103B0D2BB7
:1010E0006AD8DFE803F00D6907076907696969696C
:1010F0006969690721790120BDE8F04110F068B8FD
:10110000BDE8F081062115F00CFD2868B0E702214A
:1011100015F007FD2868ABE700F13007384601F00D
:101120002DF8E0B963881A073CD5384601F04EF82F
:101130000546384601F022F8281A244DC0B201F0C5
:101140007FF8AB681844A860384600F0A1FF07E0BC
:1011500094F85420216D286815F031FD97E71B4D58
:10116000384600F09BFF0FF0F3FA217925200FF0AD
:1011700081F949E704F1700115F003FD286894F83E
:101180006F1015F012FD286872E7217900200FF02A
:10119000E5FAA2E7AB68984401F02AF84044C4F8A5
:1011A000180193E72046BDE8F041FFF77FBD40F20C
:1011B00049612D20FCF7A4FE40F675512D20FCF767
:1011C0009FFE40F661512D20FCF79AFEFC10002096
:1011D00038B54388102B1FD0124D0446AB7C63B941
:1011E00028680FF033FF608810F004000BD0002057
:1011F0000FF08AFF02232B7138BD0EF013FD402043
:101200000FF0C0FFECE721790FF0E2FF00200FF0B4
:101210007BFF02232B7138BD0121BDE83840FFF769
:10122000EBBE00BFFC1000200121FFF7E5BE00BFB0
:10123000024B0121D86AFFF7DFBE00BFFC1000207F
:1012400070B50C4E337963B903780546FF2B08D08F
:10125000FFF77EFB044610B93379012B04D12046F9
:1012600070BD0C24204670BD01462846FFF7C4FE21
:10127000204670BDFC1000200121FFF7BDBE00BF5D
:1012800010B5154CA37CEBB9E06A02F09BF8A0B155
:10129000E06A438803F0180383B12379022B02D05C
:1012A0002379032B13D12179A26A0C4BD2680B440A
:1012B000BDE8104052F823301847E06ABDE81040FE
:1012C000FFF7F4BC0FF06AFF0EF0D4FCDCE740F649
:1012D000F4312D20FCF714FEFC100020FEFFFF3F30
:1012E00038B51D4C2379002B35D02379E56A022BC4
:1012F00019D02379032B16D012F07AFB94F83030F2
:10130000F3B1284602F05EF8D0B1E46A63881B07A7
:101310001BD404F1300000F031FFB0B92046BDE825
:101320003840FFF7C3BCA37C002BE5D00FF036FF9D
:101330000EF0A0FC12F05CFB94F83030002BE0D1F2
:101340002846BDE83840FFF7B1BC20460121BDE882
:101350003840FFF751BE38BDFC10002030B50546BF
:10136000086883B0002855D00C4600F02FFF94F891
:1013700010E0627CBEF1040F3BD0294B042A2949BE
:1013800053F82E3003F2E73323D0A1FB0313BEF151
:10139000080F4FEA931C00F1FF334FEAC31325D027
:1013A000BEF1020F14BFF0216021634401FB003144
:1013B000A388284600930023FEF786FEBD30D4E9BB
:1013C0000223824273F100032CBF0120002003B0EE
:1013D00030BDA1FB0323BEF1080F4FF008024FEA16
:1013E000931C00F1FF334FEAC313D9D14FF4D261FC
:1013F000DBE7042A00F1FF3305D0DB014FF02C0CB2
:101400004FF4D261D1E74FF02C0CDB0108224FF4EE
:10141000D261CAE740F2FD312D20FCF771FD00BF1B
:1014200018F10300D34D621090F880302DE9F04799
:1014300084B0002B42D14588044615F001053DD00B
:10144000734EB37C002B40F0C18031684FF0080828
:1014500011F8030BC0F3801016F057FC8146316879
:1014600004F1700394F86F2011F8030BC0F380109F
:1014700015F0A3F83168074611F8030BC0F380108C
:1014800015F0C6F882460AF0EBFBBAF1080F0CBF64
:10149000002300F00103002B40F0AB802846B8F198
:1014A000080F00F0908077B9E07FA0EB0800B0FA59
:1014B00080F04009628852077BD538B9002528465C
:1014C00004B0BDE8F0876288510772D53168514B8E
:1014D00011F8030B96F82020C0F3801015F06DF87A
:1014E00007460028EAD1216A204633681A7891F825
:1014F000CD3003EA5213012203F0010381F8CD300D
:10150000FFF762F8216A84F88D704FF6FF700B8840
:10151000FF274246A4F8AC00A4F88E30204684F899
:10152000AB70FFF78BF902223B4904F1840015F000
:10153000B3FE236A394904F1BC001A88A4F8C52017
:10154000022293F8CD3084F8C73015F0A5FE236A47
:101550001F8809F097FE88B92278637CA4F8B970D7
:1015600084F8B70084F8B820002B49D102222C4916
:1015700004F1AE0084F8BB3015F08EFE294B00223A
:101580001B68327113B12146206A98473368284698
:10159000226AD3F80310C2F80310B3F80710A2F8B8
:1015A00007101B78226AC3F38013937004B0BDE860
:1015B000F087002B82D1B9F1000F87D1637D012B19
:1015C0003FF67CAF82E73840C0B273E715F02AF8E7
:1015D000082880463FF439AF0DF1070102AA0AF04E
:1015E000F7F980B102A99DF8070016F08EFB81463D
:1015F00035E750460AF094F980F00103DBB24EE77C
:1016000094F84830B2E740F63D712D20FCF778FCA5
:10161000FC1000201D11002011070100D9FF00005F
:1016200001090100A400002003292DE9F04385B041
:1016300017D0052911D1694B1B68002B6AD0984738
:1016400080F00100C0B205B0BDE8F0830540EDB206
:101650006288520773D5002D3AD1012005B0BDE84C
:10166000F083438804469807F7D55D4EB37C002B82
:1016700052D13168082711F8030BC0F3801016F01F
:1016800044FB8046316804F1700394F86F2011F830
:10169000030BC0F3801014F090FF3168054611F879
:1016A000030BC0F3801014F0B3FF81460AF0D8FAA0
:1016B000B9F1080F0CBF002300F00103002B6CD11F
:1016C0000120082FC2D0002D43D06288510736D5A3
:1016D000237C002B43D1306800250421058015F0C0
:1016E00020FA04F16901306815F03DFA94F86810A9
:1016F000306815F04DFA94F85C20A16D306815F053
:101700006DFA0523306833710FF0A0FC284605B050
:10171000BDE8F0831846A1E714F084FF08280746C7
:10172000A7D00DF1070102AA0AF052F9002850D003
:1017300002A99DF8070016F0E8FA8046A2E7002B00
:101740008BD1B8F1000FC3D1637D13F0FD0F84D1AD
:10175000BEE7E57FED1BB5FA85F56D0978E794F8EE
:10176000D030002BB7D12378082F84F8D1301BD08C
:1017700004F1D30204F1D20138460AF029F918B372
:1017800094F8D23043F0020384F8D2300222154993
:1017900004F1C80015F080FD9DE748460AF0C0F846
:1017A00080F00103DBB28CE731680B4613F8032BA2
:1017B000C2F3801284F8D220D1F80320C4F8D320D9
:1017C0009B88A4F8D730E1E740F6BA712D20FCF7EA
:1017D00097FB40F63D712D20FCF792FBA000002006
:1017E000FC1000201500010008B590F88C3043B9BA
:1017F00090F8C4302BB990F8B63003F0FF0013B95D
:1018000008BD012008BD09F03DFD80F00100C0B217
:1018100008BD00BF094810B5037913B10C24204658
:1018200010BD03F0FF0424220430214617F03EF8D7
:101830000FF0B4FC0EF01EFA204610BDFC10002084
:10184000002310B50D4C23712379206023B140F2A1
:101850001E312D20FCF754FB03F0FF012422201D34
:1018600017F024F80FF09AFC0EF004FAA36A03B103
:1018700010BD40F221312D20FCF742FBFC1000206E
:1018800030B54FF4AC7285B00D460021044617F018
:101890000DF842F21073FF211322E384217062805D
:1018A000FDF7EEFA00220146E0646846FDF72CFBE6
:1018B00000220121E06C13F060F90422E16C68461B
:1018C000FDF722FB0022E06C114613F056F904F1FB
:1018D0003000257500F0BAFB02A80AF0DBFA30B13F
:1018E00002A904F1360015F068F805B030BD40F2E9
:1018F0003A312D20FCF704FBFF23C86C0B7013F06A
:1019000009B900BF014B024A9A627047FC100020DF
:1019100084000020064A07490748084B10B4084CC9
:101920001160084A04601A605DF8044B704700BFFC
:10193000A400002005370100A00000209C0000202A
:10194000291401009D0D01000078FF3818BF012007
:10195000704700BFF0B5044683B030300E4600F04B
:1019600035FC6588E90611D4AA0721794CBFB4F883
:101970005C70B4F85470FEF777FB62790146334629
:1019800038460095FEF7A0FB03B0F0BD282229469B
:1019900003B0BDE8F04000F02FBC00BF428812F059
:1019A000180F01D00120704710B50B4686B0B0F873
:1019B00004C000F13004ADF80420ADF810C000946C
:1019C000D0E90201CDE9020169461846FFF7C6FCDD
:1019D00006B010BDD0E90201704700BF407D00385D
:1019E00018BF0120704700BF2DE9F0410446807DFB
:1019F000831EDBB2012B8CBF4FF000084FF00108B3
:101A000010F0FD0514BF01270027012B41D9638881
:101A10009A0608D40826002D4DD0637F002B52D1A2
:101A20000020BDE8F0810826E67784F81E8084F85F
:101A3000687009F0C7FF054616F0AFFD00226B0184
:101A40004FEAD56C84F876205B1B6CF1000C4FEAF2
:101A50004C2C4CEAD35C5B025B194CF1000E4FEA54
:101A6000831C4FEA8E16BCEB030C46EA936666EBCA
:101A70000E061CEB050346F10006181846EB01069E
:101A80001146C4E918062046FEF706FE20B3BDE85D
:101A9000F08104F1700194F86F0014F0B9FD6388CF
:101AA00006469B06C0D40828B4D009F045FF00289C
:101AB000BAD0002DB1D1284604F1690109F008FE21
:101AC0000028B1D1ACE7D4F81730C4F86930B4F8C5
:101AD0001B30A4F86D30A7E740F2B6412D20FCF78B
:101AE0000FFA00BF0B680122C0F817308B884277CD
:101AF000A0F81B30704700BF2DE9F04F84469DB021
:101B00000C4690F8058090F812A0054610AF08AE7C
:101B1000BCE80F000FC7BCE80F000FC79CE80F0020
:101B200087E80F00304600F091FA237DA27A013B4E
:101B300061780592DBB22278022B069200F2E080F7
:101B4000724A01F07F07C906134493F8249008D421
:101B5000A37D013BDBB2022B00F2D280134493F849
:101B60002480BAF1010F09D1B9F1080F08BF4FF075
:101B70000409B8F1080F08BF4FF00408617A304635
:101B800000F06CFA237D022B78D00121A27E304632
:101B90000132D2B200F064FA3A0773D500231A4634
:101BA000E86C94F818A0CDE90332A37CAAF1010AED
:101BB000079313F06EF88346E86C13F07AF8BAFADC
:101BC0008AFA58454FEA5A1A38BF584680B2DDE9BA
:101BD000033200283CD10799AC46ADF8427010AFF3
:101BE0008DF855104FF0000E05998DF850A08DF826
:101BF000561006998DF844908DF840108DF8458068
:101C0000129313920FCFACE80F000FCFACE80F0088
:101C100097E80F008CE80F0096E8030095F846302F
:101C20002863A986E27A12F0FD0F14BF01227246E2
:101C300085F86F20E2682A67228AA5F87420E27D81
:101C400062F3071385F8463070461DB0BDE8F08F8B
:101C500017F0180F0A96ADF82C708DF838908DF8A3
:101C60003980CDE90C32B6D10AA9FFF777FBDDE95F
:101C700003320028AFD14FF0450EE5E7617D013119
:101C8000C9B283E7304600F0A1FA63788246DB06EA
:101C900026D52822394600F0AFFA1D4B00F29A22D1
:101CA0002179A3FB0232E37843EA01236179520AE6
:101CB00043EA014340F2712101FB02F201FB03F30D
:101CC0009A420BD9E079A37943EA0023207A43EAC8
:101CD000004301FB03F39A4298BF134600225FE7DB
:101CE000FDF7FAF80346504649469A46FEF7BCF916
:101CF00001230146424650460097FEF7E5F9CCE73E
:101D000040F29A210620FCF7FBF800BF18F103000F
:101D10005917B7D1438813F0100005D013F0040F02
:101D200014BF00201F2070479A0702D4DB0701D59B
:101D3000EE207047FDF7D0B808B5438813F01000C7
:101D400004D083F00403C3F3800008BD9A07FCD4D9
:101D500013F00100F9D1FDF7BFF8003818BF0120DA
:101D600008BD00BF438800221D2BA0F8482008BFF3
:101D700011464174704700BF90F91400704700BFCE
:101D8000408800F0010070474088C0F34000704771
:101D90004088C0F3C00070474388DA0610B509D404
:101DA00083F00203C3F34004C06C12F069FF2043C8
:101DB000C0B210BD0124F7E74088C0F3001070479F
:101DC0004088A0F10900B0FA80F04009704700BFD8
:101DD00040797047024B9A6AD8621368184700BF6F
:101DE000FC10002090F8683001624B72D0F8693026
:101DF000C1F80A30B0F86D30CB81704738B5304C3F
:101E00002379012B01D0002038BDB0F848300546B9
:101E1000A27C0133A0F84830002A36D10023237178
:101E200095F8813063BB6B7C1BB1B5F848209A42B2
:101E300004D20021284601F0A1FCE4E70121284654
:101E400001F09CFC6B88DB0726D52B6A1C8809F007
:101E500019FA0028D7D1297843226B7CA5F8B9401C
:101E600085F8B81085F8B7200BB195F848300222F4
:101E7000144905F1AE0085F8BB3015F00DFAC2E744
:101E80000121284601F07AFCBDE70FF087F90DF03B
:101E9000F1FE0023A374C1E709F0F4F90028B2D1E0
:101EA0004FF0FF32287843216B7C85F8B80085F825
:101EB000B92085F8BA2085F8B710002BD7D0D4E721
:101EC000FC1000200109010038B5B0F84830044684
:101ED0002C4D0133AA7CA0F84830B2B900232B71F5
:101EE00094F881305BB9637C1BB1B4F848209A4206
:101EF00012D220460021BDE8384001F03FBC204608
:101F00000121BDE8384001F039BC0FF047F90DF070
:101F1000B1FE0023AB74E1E70121204601F02EFC65
:101F20006388DB070FD5236A1D8809F0ABF968B910
:101F300021784322637CA4F8B95084F8B81084F85F
:101F4000B720A3B111E009F09DF900B138BD4FF001
:101F5000FF3220784321637C84F8B80084F8B920EC
:101F600084F8BA2084F8B7100BB194F8483004F123
:101F7000AE0084F8BB3002220349BDE8384015F0BA
:101F80008BB900BFFC1000200109010038B543885F
:101F900004461A0732D4DB071AD5236A1D8809F0D4
:101FA00071F988B921783C22637CA4F8B95084F88F
:101FB000B81084F8B720F3B902221B4904F1AE002F
:101FC00084F8BB3015F068F9012384F8813038BDFE
:101FD00009F058F90028F7D14FF0FF3220783C2162
:101FE000637C84F8B80084F8B92084F8BA2084F8B7
:101FF000B710002BE0D094F84830DDE7016A3C20B0
:102000004FF6FF73FF2284F88D00088884F8AB2018
:102010000222A4F88E0004F18400A4F8AC30034935
:1020200015F03AF96388B6E70109010011070100CC
:1020300080F88010704700BFFF2380F8833070471E
:1020400080F8241080F82520704700BF002240F25D
:102050000113C0F802200380704700BF81707047F1
:1020600008B590F802C00170CCF380034270CCF345
:1020700040000CF0010C0344634403FB01F101FB3D
:1020800002F2FE2A00DC08BD5C212E20FBF738FF9F
:1020900000234371A0F80330704700BF08B5827871
:1020A0000346D1070DD5C07810F0010C09D159793C
:1020B00093F801E00131C9B28E45597142D0252013
:1020C00008BD900703D5D97811F0020C23D0510731
:1020D00013D4597958780131C9B28842597108D15D
:1020E000D87800219042597103D11A79D970013200
:1020F0001A7139212E20FBF703FFD97811F0040C57
:10210000E7D1587993F801E00130C0B286455871A3
:1021100026D0272008BD587993F801E00130C0B2DD
:102120008645587101D0262008BD41F0020183F890
:1021300005C08A42D970F6D11A7983F803C00132FA
:102140001A71F0E740F0010083F805C08242D870B0
:10215000B5D11A79252083F803C001321A7108BD60
:1021600041F0040183F805C08A42D970D1D11A79AF
:1021700083F803C001321A71CBE700BF00B5837842
:1021800090F801C0C3F3400EC3F3800103F00103D4
:10219000C278714490F804E019440378A3EB0E036D
:1021A00090F805E003FB0CF0C2F3800301FB00F0A4
:1021B000C2F3400102F001020B44A0EB0E001344F5
:1021C00003FB1C00C0B25DF804FB00BF827890F8EE
:1021D00001C0C2F34001C2F38003007802F00102A3
:1021E0000B440CFB00F0134403FB00F0C0B270473B
:1021F00040F2EF20704700BF0138022808B519D817
:10220000132907D811290CD810290FD10B4B33F8FB
:10221000100008BD152909D1084B03EB40000089C7
:1022200008BD064B03EB4000008A08BDD8212F20D3
:10223000FBF766FECA212F20FBF762FE40F1030088
:1022400040F25A3303FB00F0704700BF08B5431E4D
:10225000DBB2012B01D91D2924D110390D291CD83D
:10226000DFE801F00C1B07071B161B1B1B1B1B1BAE
:102270001B110E4A02EB4303188C08BD0B4A02EBFC
:102280004303188B08BD40F25A3303FB00F008BD2E
:10229000064A02EB4303988B08BD4FF481712F204F
:1022A000FBF72EFEEE212F20FBF72AFE40F1030064
:1022B00040F24F31062008B5FBF722FE70B582B020
:1022C0000446FFF779FD18B9A924204602B070BD75
:1022D0002046FFF755FDD0B1A5269B240DF1060041
:1022E0000FF0B6FB0DF107009DF906500FF0B6FB9D
:1022F0009DF807301D436DB2002D18BF344611F014
:10230000A7FB60B11834A4B2204602B070BD2046CD
:10231000FFF73AFD0028DFD1A2269824DEE711F06E
:10232000F9FA0028D1D00F34A4B2CEE72DE9F0415C
:1023300082B0002800F03E810446082900F2258181
:10234000DFE811F0DA00E80009000900D5002301F8
:10235000CF0001011F01FFF72FFD002800F0FD80D5
:102360002046FFF70DFD002800F01B81A5279B25C7
:102370000DF106000FF06CFB0DF107009DF90660F2
:102380000FF06CFB9DF807301E4376B2002E18BF8D
:102390003D4611F05DFB002800F0FB801835ADB222
:1023A000B4F82A3100210122A4F83851082B84F80E
:1023B000301184F83B2100F2DD801344D4F80C2165
:1023C0009BB2A4F82A3112B1092B00F0D880022365
:1023D00084F83A3116F0E1F8D4F84021D4F84431C9
:1023E0000546171A0E4663EB01080FF031FCB4F8EE
:1023F0003831473303449BB29F4278F1000204DA3C
:102400005B1946F10006C4E9503604F598750021C1
:10241000284614F0AFF994F8503103F0FF01002B77
:1024200040F0A0806FF00043D4E952029A4208BF06
:10243000B0F1FF3F12D02046D4E95067FFF78AFA87
:10244000D4F84831BD30D4F84C219B1B62EB070215
