:020000040001F9
:100000003DB8F3960000000000020000E009020085
:1000100000000000000000000000000000000000E0
:10002000FFFFFFFFFFFFFFFFFFFFFFFFFFFFFFFFE0
:10003000FFFFFFFFFFFFFFFFFFFFFFFFFFFFFFFFD0
:10004000FFFFFFFFFFFFFFFFFFFFFFFFFFFFFFFFC0
:10005000FFFFFFFFFFFFFFFFFFFFFFFFFFFFFFFFB0
:10006000FFFFFFFFFFFFFFFFFFFFFFFFFFFFFFFFA0
:10007000FFFFFFFFFFFFFFFFFFFFFFFFFFFFFFFF90
:10008000FFFFFFFFFFFFFFFFFFFFFFFFFFFFFFFF80
:10009000FFFFFFFFFFFFFFFFFFFFFFFFFFFFFFFF70
:1000A000FFFFFFFFFFFFFFFFFFFFFFFFFFFFFFFF60
:1000B000FFFFFFFFFFFFFFFFFFFFFFFFFFFFFFFF50
:1000C000FFFFFFFFFFFFFFFFFFFFFFFFFFFFFFFF40
:1000D000FFFFFFFFFFFFFFFFFFFFFFFFFFFFFFFF30
:1000E000FFFFFFFFFFFFFFFFFFFFFFFFFFFFFFFF20
:1000F000FFFFFFFFFFFFFFFFFFFFFFFFFFFFFFFF10
:10010000FFFFFFFFFFFFFFFFFFFFFFFFFFFFFFFFFF
:10011000FFFFFFFFFFFFFFFFFFFFFFFFFFFFFFFFEF
:10012000FFFFFFFFFFFFFFFFFFFFFFFFFFFFFFFFDF
:10013000FFFFFFFFFFFFFFFFFFFFFFFFFFFFFFFFCF
:10014000FFFFFFFFFFFFFFFFFFFFFFFFFFFFFFFFBF
:10015000FFFFFFFFFFFFFFFFFFFFFFFFFFFFFFFFAF
:10016000FFFFFFFFFFFFFFFFFFFFFFFFFFFFFFFF9F
:10017000FFFFFFFFFFFFFFFFFFFFFFFFFFFFFFFF8F
:10018000FFFFFFFFFFFFFFFFFFFFFFFFFFFFFFFF7F
:10019000FFFFFFFFFFFFFFFFFFFFFFFFFFFFFFFF6F
:1001A000FFFFFFFFFFFFFFFFFFFFFFFFFFFFFFFF5F
:1001B000FFFFFFFFFFFFFFFFFFFFFFFFFFFFFFFF4F
:1001C000FFFFFFFFFFFFFFFFFFFFFFFFFFFFFFFF3F
:1001D000FFFFFFFFFFFFFFFFFFFFFFFFFFFFFFFF2F
:1001E000FFFFFFFFFFFFFFFFFFFFFFFFFFFFFFFF1F
:1001F000FFFFFFFFFFFFFFFFFFFFFFFFFFFFFFFF0F
:10020000007E00203DDC010073B7020011DC01001C
:1002100011DC010011DC010011DC01000000000014
:10022000000000000000000000000000E5D6010012
:1002300011DC01000000000055D6010011DC0100B6
:10024000A1D8010059BF0200A1D80100A1D8010026
:10025000A1D80100A1D80100A1D80100A1D80100B6
:1002600029BF0200A1D80100A1D8010043BF0200AC
:10027000A1D80100A1D80100A1D80100A1D8010096
:10028000A1D80100A1D80100A1D80100A1D8010086
:10029000A1D80100A1D80100A1D80100A1D8010076
:1002A000A1D80100A1D80100A1D80100A1D8010066
:1002B000A1D80100A1D80100A1D80100A1D8010056
:1002C000A1D80100A1D80100A1D80100A1D8010046
:1002D000A1D80100A1D80100A1D80100A1D8010036
:1002E000A1D80100A1D80100A1D80100A1D8010026
:1002F000A1D80100A1D80100A1D80100A1D8010016
:1003000001F0FF01102A2BDB10F0070F08D010F8C6
:10031000013B013A8B422DD010F0070F42B3F6D1CA
:10032000F0B441EA012141EA014122F007047FF0E3
:1003300000070023F0E80256083C85EA010586EA3A
:10034000010685FA47F5A3FA87F586FA47F6A5FA76
:1003500087F68EB9EED1F0BC01F0FF0102F0070282
:1003600032B110F8013B013A83EA010313B1F8D12D
:100370000020704701387047002D06BF354603380E
:10038000073815F0010F07D1013015F4807F02BF47
:10039000013015F4C03F0130F0BC0138704700BF98
:1003A00081F0004102E000BF83F0004330B54FEA26
:1003B00041044FEA430594EA050F08BF90EA020F93
:1003C0001FBF54EA000C55EA020C7FEA645C7FEA26
:1003D000655C00F0E2804FEA5454D4EB5555B8BF49
:1003E0006D420CDD2C4480EA020281EA030382EABA
:1003F000000083EA010180EA020281EA0303362D4C
:1004000088BF30BD11F0004F4FEA01314FF4801C1E
:100410004CEA113102D0404261EB410113F0004F30
:100420004FEA03334CEA133302D0524263EB4303E7
:1004300094EA050F00F0A780A4F10104D5F1200E85
:100440000DDB02FA0EFC22FA05F2801841F10001E0
:1004500003FA0EF2801843FA05F359410EE0A5F1B4
:1004600020050EF1200E012A03FA0EFC28BF4CF0E5
:10047000020C43FA05F3C01851EBE37101F000459B
:1004800007D54FF0000EDCF1000C7EEB00006EEBA8
:100490000101B1F5801F1BD3B1F5001F0CD3490832
:1004A0005FEA30004FEA3C0C04F101044FEA445289
:1004B00012F5800F80F09A80BCF1004F08BF5FEA10
:1004C000500C50F1000041EB045141EA050130BDF0
:1004D0005FEA4C0C404141EB0101013C28BFB1F502
:1004E000801FE9D291F0000F04BF01460020B1FA4D
:1004F00081F308BF2033A3F10B03B3F120020CDA20
:100500000C3208DD02F1140CC2F10C0201FA0CF0FD
:1005100021FA02F10CE002F11402D8BFC2F1200C62
:1005200001FA02F120FA0CFCDCBF41EA0C01904018
:10053000E41AA2BF01EB0451294330BD6FEA040461
:100540001F3C1CDA0C340EDC04F11404C4F120024C
:1005500020FA04F001FA02F340EA030021FA04F35E
:1005600045EA030130BDC4F10C04C4F1200220FAB5
:1005700002F001FA04F340EA0300294630BD21FAF3
:1005800004F0294630BD94F0000F83F4801306BFB9
:1005900081F480110134013D4EE77FEA645C18BFAD
:1005A0007FEA655C29D094EA050F08BF90EA020F44
:1005B00005D054EA000C04BF1946104630BD91EA3C
:1005C000030F1EBF0021002030BD5FEA545C05D13F
:1005D0004000494128BF41F0004130BD14F580047E
:1005E0003CBF01F5801130BD01F0004545F0FE41F2
:1005F00041F470014FF0000030BD7FEA645C1ABF27
:10060000194610467FEA655C1CBF0B46024650EA5D
:10061000013406BF52EA033591EA030F41F4002189
:1006200030BD00BF90F0000F04BF0021704730B50F
:100630004FF4806404F132044FF000054FF00001E4
:1006400050E700BF90F0000F04BF0021704730B5A5
:100650004FF4806404F1320410F0004548BF40427A
:100660004FF000013EE700BF42004FEAE2014FEACF
:1006700031014FEA02701FBF12F07F4393F07F4FAA
:1006800081F06051704732F07F4208BF704793F0AD
:100690007F4F04BF41F40021704730B54FF46074C0
:1006A00001F0004521F000411CE700BF50EA0102C3
:1006B00008BF704730B54FF000050AE050EA01026C
:1006C00008BF704730B511F0004502D5404261EBDC
:1006D00041014FF4806404F132045FEA915C3FF41D
:1006E000D8AE4FF003025FEADC0C18BF03325FEABA
:1006F000DC0C18BF033202EBDC02C2F1200300FA6B
:1007000003FC20FA02F001FA03FE40EA0E0021FA8F
:1007100002F11444BDE600BF70B54FF0FF0C4CF47D
:10072000E06C1CEA11541DBF1CEA135594EA0C0F2F
:1007300095EA0C0F00F0DEF82C4481EA030621EA6A
:100740004C5123EA4C5350EA013518BF52EA0335A5
:1007500041F4801143F4801338D0A0FB02CE4FF057
:100760000005E1FB02E506F00042E0FB03E54FF087
:100770000006E1FB03569CF0000F18BF4EF0010E7F
:10078000A4F1FF04B6F5007F64F5407404D25FEA7B
:100790004E0E6D4146EB060642EAC62141EA55512E
:1007A0004FEAC52040EA5E504FEACE2EB4F1FD0C70
:1007B00088BFBCF5E06F1ED8BEF1004F08BF5FEAEE
:1007C000500E50F1000041EB045170BD06F00046A0
:1007D00046EA010140EA020081EA0301B4EB5C044D
:1007E000C2BFD4EB0C0541EA045170BD41F4801145
:1007F0004FF0000E013C00F3AB8014F1360FDEBF6A
:10080000002001F0004170BDC4F10004203C35DA45
:100810000C341BDC04F11404C4F1200500FA05F3C8
:1008200020FA04F001FA05F240EA020001F0004269
:1008300021F0004110EBD37021FA04F642EB0601DF
:100840005EEA430E08BF20EAD37070BDC4F10C0409
:10085000C4F1200500FA04F320FA05F001FA04F2CD
:1008600040EA020001F0004110EBD37041F10001B9
:100870005EEA430E08BF20EAD37070BDC4F12005C4
:1008800000FA05F24EEA020E20FA04F301FA05F22C
:1008900043EA020321FA04F001F0004121FA04F2D4
:1008A00020EA020000EBD3705EEA430E08BF20EAA4
:1008B000D37070BD94F0000F0FD101F000464000DE
:1008C00041EB010111F4801F08BF013CF7D041EA60
:1008D000060195F0000F18BF704703F00046520064
:1008E00043EB030313F4801F08BF013DF7D043EA35
:1008F0000603704794EA0C0F0CEA135518BF95EAEB
:100900000C0F0CD050EA410618BF52EA4306D1D171
:1009100081EA030101F000414FF0000070BD50EA90
:10092000410606BF1046194652EA430619D094EA1A
:100930000C0F02D150EA013613D195EA0C0F05D104
:1009400052EA03361CBF104619460AD181EA030158
:1009500001F0004141F0FE4141F470014FF0000010
:1009600070BD41F0FE4141F4780170BD70B54FF0AB
:10097000FF0C4CF4E06C1CEA11541DBF1CEA13552B
:1009800094EA0C0F95EA0C0F00F0A7F8A4EB05040D
:1009900081EA030E52EA03354FEA013100F0888004
:1009A0004FEA03334FF0805545EA131343EA1263CD
:1009B0004FEA022245EA111545EA10654FEA002682
:1009C0000EF000419D4208BF964244F1FD0404F53B
:1009D000407402D25B084FEA3202B61A65EB030597
:1009E0005B084FEA32024FF480104FF4002CB6EB54
:1009F000020E75EB030E22BFB61A754640EA0C00D4
:100A00005B084FEA3202B6EB020E75EB030E22BF13
:100A1000B61A754640EA5C005B084FEA3202B6EB54
:100A2000020E75EB030E22BFB61A754640EA9C0013
:100A30005B084FEA3202B6EB020E75EB030E22BFE3
:100A4000B61A754640EADC0055EA060E18D04FEAA1
:100A5000051545EA16754FEA06164FEAC30343EA41
:100A600052734FEAC2025FEA1C1CC0D111F4801F0E
:100A70000BD141EA00014FF000004FF0004CB6E707
:100A800011F4801F04BF01430020B4F1FD0C88BFA6
:100A9000BCF5E06F3FF6AFAEB5EB030C04BFB6EBB1
:100AA000020C5FEA500C50F1000041EB045170BDA4
:100AB0000EF0004E4EEA113114EB5C04C2BFD4EBD1
:100AC0000C0541EA045170BD41F480114FF0000E55
:100AD000013C90E645EA060E8DE60CEA135594EAD1
:100AE0000C0F08BF95EA0C0F3FF43BAF94EA0C0FD4
:100AF0000AD150EA01347FF434AF95EA0C0F7FF449
:100B000025AF104619462CE795EA0C0F06D152EA9C
:100B100003353FF4FDAE1046194622E750EA410680
:100B200018BF52EA43067FF4C5AE50EA41047FF491
:100B30000DAF52EA43057FF4EBAE12E74FF0FF3CF6
:100B400006E000BF4FF0010C02E000BF4FF0010CC7
:100B50004DF804CD4FEA410C7FEA6C5C4FEA430C40
:100B600018BF7FEA6C5C1BD001B050EA410C0CBF8F
:100B700052EA430C91EA030F02BF90EA020F0020F1
:100B8000704710F1000F91EA030F58BF994208BF58
:100B900090422CBFD8176FEAE37040F00100704715
:100BA0004FEA410C7FEA6C5C02D150EA013C07D16C
:100BB0004FEA430C7FEA6C5CD6D152EA033CD3D0B7
:100BC0005DF8040B704700BF8446104662468C46B1
:100BD0001946634600E000BF01B5FFF7B7FF0028E4
:100BE00048BF10F1000F01BD4DF808EDFFF7F4FF0D
:100BF0000CBF012000205DF808FB00BF4DF808ED98
:100C0000FFF7EAFF34BF012000205DF808FB00BFBA
:100C10004DF808EDFFF7E0FF94BF012000205DF8DC
:100C200008FB00BF4DF808EDFFF7CEFF94BF012091
:100C300000205DF808FB00BF4DF808EDFFF7C4FF8A
:100C400034BF012000205DF808FB00BF4FEA410CD3
:100C50007FEA6C5C02D150EA013C0AD14FEA430CB6
:100C60007FEA6C5C02D152EA033C02D14FF00000F3
:100C700070474FF0010070474FEA410212F5001231
:100C800015D211D56FF47873B3EB625212D94FEAD3
:100C9000C12343F0004343EA505311F0004F23FABD
:100CA00002F018BF404270474FF00000704750EA12
:100CB000013005D111F0004008BF6FF000407047CF
:100CC0004FF00000704700BF53B94AB9002908BF70
:100CD00000281CBF4FF0FF314FF0FF3000F00CB880
:100CE000ADF1080C6DE904CE07F0C0FADDF804E0C0
:100CF000DDE9022304B07047704700BF0EB510480D
:100D0000017A8DF80110C1798DF800108179ADF864
:100D100004104079ADF80200684602F001FC08B109
:100D2000B62108E007480068029002A809F0B1F86F
:100D3000002803D0BA21032000F0D4F80EBD000033
:100D4000400F00206C0F010010B528B11422044997
:100D500009F06EFE002010BD6FF0150010BD000000
:100D6000900F010070B56FF02C05D0BB204C60785F
:100D700008B1A81170BD09B36FF01500002AF9D0B1
:100D80001C4B891E06292DD2DFE801F00306162C24
:100D9000191C1078587019E091780029EAD0D178A0
:100DA0000029E7D011781B29E4D351781B29E1D31E
:100DB0001068C3F8050009E01078987006E0108804
:100DC000588103E01188FF29D4D8197301220949F9
:100DD000002007F0A3FBB0F5803F05DB6FF00B00B0
:100DE00070BDFFE72846FBE70121A170F8E700008E
:100DF00020000020400F002010B5064C607820B184
:100E000002F0FCFC207807F0B1F900F0D9FD0020D9
:100E1000607010BD2000002070B50C46050002D0A7
:100E20000CB1600702D06FF0150070BD00F0C0F883
:100E3000A8B1284607F060F90A4D00220A49287037
:100E4000204607F06BFB09F0AAFA0021287802F08F
:100E5000BFFCFFF753FF01206870002070BD4FF00A
:100E6000FF3070BD20000020400F002030B589B059
:100E700004000CD007F0E8F84FF0FF3520B104F083
:100E800027FBB0F5FA7F05D9284609B030BD6FF0D1
:100E90001500FAE70F4D10486C6000F035F900209E
:100EA0006870A87001462222684609F03BFE2222A3
:100EB0000A49684609F0BCFD22226946084809F043
:100EC000B7FDEFF3108472B600F088FD04B962B686
:100ED0000020DAE720000020FD0C01006E0F010069
:100EE000400F00200EB572B6154A5568DDB10022DC
:100EF00003466E460A2403E0B0FBF4F0521CD2B263
:100F00000028F9D1B0540AE0D8B2B0FBF4F7B3FB33
:100F1000F4F304FB1700521ED2B23030B054002A52
:100F2000F2D13046A847BFF34F8F06480168064A02
:100F300001F4E06111430160BFF34F8F00BFFDE793
:100F4000200000200CED00E00400FA05064810B572
:100F500081784078014302D04FF0FF3010BD02F09D
:100F60005DFC002010BD00002000002001000001F9
:100F70000100001B1B0302001F000800000000000E
:100F80000000000000000000000000000000000061
:100F90000CA35F6BEA0AA26EAA113D3429384BF408
:100FA00029A115B2014A926810470000580E00208E
:100FB0000448416819B1806808B1012070470020D9
:100FC00070470000580E002002490DC881E80D004E
:100FD00000207047580E00207CB5214E0546001DAC
:100FE00030601F4801F054F80446022804D0042C55
:100FF00007D0082C2DD030E01949284607F00FFB08
:101000002BE03078072804D105213E2007F0F7FABD
:1010100050B11349284607F067FBB0F5817F0FD325
:1010200072210820FFF75EFFB6F80300ADF800005C
:1010300001A9684607F0FEFC0028D2D05321F0E752
:101040000028CED0A978287807F0D9FA0028C8D08F
:1010500003E00349284607F010FB20467CBD000052
:10106000640E0020402803D2401EC1B2054805E0AE
:10107000FF2805D04038C1B20248083007F08DBCC7
:101080000120704728000020401EC1B2014807F02F
:1010900084BC000038000020024902680A614068F0
:1010A0004861704728000020054902680A604068CE
:1010B00042F48C220A60034A1043486070470000E3
:1010C00028000020F807400207484FF0FF310022B7
:1010D0000160C90C416000F108011F200A604A60EC
:1010E0000831C1E9000270472800002010B5FFF761
:1010F000EBFF08F09DFF04460248006800B18047FE
:10110000204610BD400000200149086070470000E3
:10111000400000202DE9F04104464FF08050D0F807
:10112000A0701F4D1E4E103D10220021204609F0D8
:10113000F9FC1022002104F1100009F0F3FC2868EA
:10114000401C08D16868401C05D1A868401C02D129
:10115000E868401C07D028686A68A968EB682061C5
:101160006261A161E361002000F00AFD8743F80796
:1011700013D13068401C08D17068401C05D1B0689C
:10118000401C02D1F068401C07D032687068B1681A
:10119000F36822606060A160E3600020BDE8F08138
:1011A0009000001038B54FF0805104462248D1F825
:1011B000A010214D0268143D521C04D14268D24354
:1011C0001204120C35D0C90733D001684068ADF85D
:1011D0000000C4F80110BDF80000A4F80500A079D3
:1011E00040F0C000A0712868401C0CD06868401C0A
:1011F00009D0A868401C06D0E868401C03D0002035
:1012000000F0BEFC40B110220021E01D09F08AFC74
:1012100001202070002038BD2A686968A868EB6842
:10122000C4F80720C4F80B10C4F80F00C4F813303A
:10123000EEE70020EDE70000A4000010022101808D
:101240004180002101710C21417145F6A371C180DB
:1012500001498160002070476BEA0AA22DE9F04144
:10126000114D012055F82030D3B11E79FF2E13D037
:101270000022411E13D400BF55F8214024B1277924
:10128000B74201D1A4782244491EF5D5FF2A06D9D8
:10129000FA211720FFF726FE0021197100E01A71CC
:1012A000401EDFD5BDE8F0815000002030B5034678
:1012B0004FEA020003EB400464898C4209D09C7819
:1012C000401CB0FBF4F504FB1500C0B29042F1D114
:1012D000FF2030BD1CB504460022104664F31740C1
:1012E000CDE900200BE000BFBDF80400214600F06E
:1012F00001F920B140F2D7211720FFF7F3FD68462E
:1013000000F0A8F80028EFD01CBD000070B505461D
:10131000194850F8214064B3B5F5706F04D340F21A
:101320007E211720FFF7DEFD2946204607F082FCCC
:101330000146FF2804D02046BDE8704007F08EBC6F
:10134000A078B5FBF0F100FB1150C6B232464FF663
:10135000F0712046FFF7AAFF0246FF2809D0B242EB
:1013600001D00020E07029462046BDE8704007F01B
:101370005BBC002070BD000050000020084A10B582
:1013800052F821400146204607F054FC0146FF2850
:1013900004D02046BDE8104007F060BC002010BD1E
:1013A000500000202DE9FF410400184E0D46039423
:1013B0002AD03078022802D00020FFF7F3FF03A8DC
:1013C00000F0BCF8124F2B78D7E90010BA6863F32D
:1013D0001F60CDE9001002926946002000F0D2F8AB
:1013E000D7E903106B787A6963F31F60CDE90010C9
:1013F00002926946012000F0C5F800F00BF8706811
:1014000004B0001BBDE8F0810020D9E744000020B3
:101410005416010010B50E4C2078012813D0032873
:1014200002D04FF4A37105E0D4E90101814204D058
:1014300040F249111720FFF755FDFFF70FFF042079
:101440002070002010BD02202070606810BD0000D8
:101450004400002010B5044680790E4951F8200060
:10146000A8B14FF6F073E179827891420FD24A1C0D
:10147000E27100EB410252899A42F4D000EB410242
:101480005289A28007F0EAFB2060002010BD0220F4
:1014900010BD0000500000202DE9F04107464FF636
:1014A000FF703880124850F82140ECB1A5782079BF
:1014B000B0FBF5F105FB110632464FF6F071204600
:1014C000FFF7F4FE0246FF280ED0A81B1044B0FB25
:1014D000F5F105FB11002179084481B239802046DD
:1014E000BDE8F04107F0A0BB0020BDE8F08100009E
:1014F000500000202DE9F04106460F4850F82150D9
:101500003146284607F096FB0446FF2812D0D5F84E
:10151000060021464FEA3047284607F09FFB014668
:101520003046B84705EB44014FF6F0704881002083
:10153000BDE8F0810320FBE75000002010B5104902
:101540000023B8B10A78022A02D04FF4837106E072
:1015500003220A700268540704D040F20B111720CE
:10156000FFF7C0FC4C684A6022448A600260CB608E
:101570000B6110BD012008708B604B6010BD000036
:10158000440000202DE9F041314D2E78012E04D089
:10159000032E02D04FF4907137E08A79082A02D9DD
:1015A0004FF4917131E0CB79002B4ED05F000A37B8
:1015B0006B68022A3B4401D9144601E04FF0020453
:1015C0002344A3F1010301D9144601E04FF00204C2
:1015D000A4F1010423EA04038C881444A2F101025B
:1015E000A4F1010424EA02044FF6FF72944202D3EC
:1015F00040F22D1109E0032E23D1154EDA1B0C36D3
:1016000056F8207027B14FF499711720FFF76AFC44
:1016100046F820201480C87990700120D070087A94
:10162000107108684FF6F076000CD08008881081A1
:10163000002003E002EB4007401C7E81CF79874207
:10164000F8D8C87900FB04306860BDE8F08100007C
:1016500044000020679A0100E80208000000000032
:101660007D93010010010800FF0000002DE9FF4FED
:10167000244C064681B020689A46934650B1017AC0
:10168000B14203D9406850F8260038B1032005B0B4
:10169000BDE8F08FA5211820FFF724FC1946029819
:1016A00007F0FEFA804658460E9907F0EFFA054615
:1016B00008EB0500001D87B22068A1463946006886
:1016C00007F04DFA04001AD0678025802946201DB6
:1016D0000E9D07465A460923009507F0EDF920882C
:1016E000414638440A23029ACDF800A007F0E4F9F5
:1016F000D9F80000406840F826400020C7E70120E4
:10170000C5E700005800002070B5144C23688BB169
:10171000197A814212D95A6852F8201071B1002505
:1017200042F820504A88186807F071FA21680020B2
:101730000A7A0BE0C6211820FFF7D4FB032070BD06
:101740004B6853F8203033B9401CC0B28242F7D8FE
:10175000086807F051FA002070BD00005800002012
:101760002DE9F0410D46040090464FF0000606D0EA
:101770000027A00705D086211820FFF7B3FB01271B
:10178000F7E7CDB11146002007F01AFA0C3000EB54
:1017900085068FB90A4F04F10C00AA003C6025723F
:1017A000606000EB850020600021606809F0BAF9F4
:1017B0004146386807F004FA3046BDE8F081000081
:1017C000580000200A4910B502460968002059B1A6
:1017D0000B7A934207D9496851F82210002902D0A8
:1017E00031F8040B084410BDFA211820FFF77AFBEA
:1017F0005800002070B51E4B456804460022A1B178
:1018000001206070588881085FF0000004EB4003FD
:1018100004EB80061A83198400FB015373602318BC
:10182000401C1A750428F1D370BD62705FF000008F
:1018300004EB40010A830A8404EB80014A6021180A
:10184000401C0A750428F3D35888B0F5FF7F01D2F5
:10185000460800E0FF2607F097FA65602084291803
:10186000A1606684E560A0842161E68470BD00000B
:101870005C0000202DE9F04158B100251144244EB0
:10188000CCB200273470810705D04E210920FFF724
:1018900029FB0125F2E71F2B04D84FF6FF7101EA5F
:1018A000830109E05900FF2B0CD903F1FF02B2EBD1
:1018B000430F00D2114689B24FF6FC72C91C114089
:1018C00035B107E07C22B2EB430FF4D37C21F2E781
:1018D0007060718004EB840207EBC203002276681B
:1018E0004FF0010C0DE04DB902EB820700EB030E47
:1018F00006F837C006EBC707C7F804E0521C0B44D4
:10190000D2B2A242EFD3DB1D23F00700BDE8F08185
:101910005C00002070B5104A00205168127814E075
:1019200000EB800311F833306BB100EB800011EB5A
:10193000C0040CD00025A57001212046FFF75AFFF6
:101940002570204670BD401CC0B29042E8D3A9214A
:101950000920FFF7C7FA00005C000020044810B51A
:101960004088840807F010FA844200D3204610BD56
:101970005C00002030B50D4901204860821EC1F88E
:1019800008230B4988600023C1F80032C1F80823FE
:10199000084C2360251D28608860C1F80823236057
:1019A000286006490448086030BD000000E000409F
:1019B00000F0004000F500400000F63F08F501404F
:1019C00010B5FFF7D7FF07F0B6FA034901480860E2
:1019D00010BD00000000F63F08F5014010B5FFF70C
:1019E000C9FF07F0A8FA00F081F803490148086030
:1019F00010BD00000000F63F08F501402DE9F84F4A
:101A00008246374808F079FFDFF8D4B028B10126C4
:101A10000BF10100FF21017000E000264FF48075FA
:101A2000304C4FF000082F1D01216160C4F8008187
:101A3000C4F80481C4F804A52160DFF8AC901CE070
:101A4000D9F80000C00618D50E2007F083FAEFF38E
:101A50001080009072B603212046C4F80413294672
:101A600007F085FA30B93946204607F080FA08B900
:101A700008F0DAFF009800B962B62946204607F060
:101A800076FA28B93946204607F071FA0028D7D0EF
:101A90003946204607F06BFA0028C5D10025E6B983
:101AA0009BF801008DF80000009800909DF8000060
:101AB00008B1012500E000250BF1010181F800804B
:101AC0000321C4F80813C4F80481C4F800810E206F
:101AD00007F040FA024808F027FF2846BDE8F88FD3
:101AE0006601002000E0004010ED00E010B506485F
:101AF00008F016FF18B130211D20FFF7F3F9024856
:101B00000021417010BD00006601002005498A8C4B
:101B1000824205D1002081F822004FF6FF708884B0
:101B200070470000620F00200A4A10B1012807D058
:101B30000EE0507860B1D2F802000860D08804E06E
:101B4000107828B1906808609089888001207047DB
:101B50000020704768010020084A012338B101289D
:101B600004D1137008689060888890817047537022
:101B70000868C2F802008888D08070476801002099
:101B8000064910B1012802D005E0487800E0087845
:101B900008B1012070470020704700006801002054
:101BA00001490876704700000209002004494A787C
:101BB000824203D9084490F84201704700207047E0
:101BC000880F002004494A78824203D9084490F8DB
:101BD0004A01704700207047880F0020044B00EB3B
:101BE000400203EB42030A4603F5857100F07AB91F
:101BF000880F002008494A78824203D90A1892F8CF
:101C000042210AB10020704700EB400001EB400088
:101C100000F5857070470000880F002006490020FD
:101C20004FF461720870487004490870C8708A8067
:101C30000349087270470000880F002058010020F7
:101C40002A1100200B4B10B55C78844210D918443F
:101C500090F80201C0EBC000184490F852310B70AC
:101C6000D0F853111160B0F857019080012010BDD9
:101C7000002010BD880F0020084B10B55C7884420E
:101C800003D91C1894F84A410CB1002010BD03EB95
:101C90000010801C00F082F8012010BD880F002089
:101CA00001488088704700005801002005494A78A3
:101CB000824203D9084490F83A0108B100207047E5
:101CC00001207047880F00200149C870704700004C
:101CD000580100200246094810B500780B4658B15B
:101CE0000748417841B10BB1801C01E004488230C3
:101CF00001F0E8FD012010BD002010BD58010020BA
:101D0000880F0020084910B5034600204A7806E0F5
:101D10000C1894F802419C4204D0401CC0B282428C
:101D2000F6D8082010BD0000880F0020F0B51A4C2E
:101D30000346002025782BE0C0EBC00222440F7838
:101D400092F853C192F8526187EA0C075E403E4414
:101D50004F7892F854C187EA0C073E448F7892F886
:101D600055C187EA0C073E44CF7892F856C187EAFE
:101D70000C073E440F7992F857C192F8582187EA30
:101D80000C073E444F795740F74204D0401CC0B284
:101D90008542D1D80820F0BD880F0020F0B58DB065
:101DA0000C4605466AB32C4A911F4878135CEBB188
:101DB0002A4B00EB40069F5D3344E7705E78267146
:101DC0009B786371002313548A78401CB0FBF2F3B4
:101DD00002FB1300487021481830007A8DF830005B
:101DE0000C980C909DF8300078B904E04FF48071A5
:101DF0002820FFF777F819481949183007F026FA14
:101E000003E00321E01CFFF7CDF860790D2200F01C
:101E10003F0040F040006071002104A808F082FEFD
:101E2000E0788DF81F0020798DF81E0060798DF81C
:101E30001D0010222946684608F0FAFD684607F0A2
:101E40009BF89DF82F0020709DF82E0060709DF883
:101E50002D00A0700DB0F0BD5E0100201211002019
:101E6000651E0100F0B51D4D89B0A91DAA7806A810
:101E700008F0DEFDA97806A807F0BFF804002BD013
:101E800004EB4400C1B26846FFF78CF8687806A9F5
:101E90001FE0401CB0FBF2F302FB1300C0B200E0F5
:101EA000AA780B5C002BF4D104EB44020C4B1DF818
:101EB00002C000EB40076E4603F807C032443B44C3
:101EC00056785E7092789A7001220A54034B9B1DDB
:101ED0001A54641EE4B2E3D209B0F0BD58010020E8
:101EE00012110020084B10B55C78844203D91C18ED
:101EF00094F842410CB1002010BD03EB0010823079
:101F0000FFF74CFF012010BD880F00202DE9F0479E
:101F1000044600F180054FF0010971B104F1A607F4
:101F20007E1E012929D002294ED0032923D139460A
:101F30003046BDE8F04707F0C4B84FF43A720021CC
:101F400008F0F0FD85F825902449E9662046072130
:101F5000296710F8EC1F21F004010170FE2085F8BC
:101F6000A6007F2068761E48A8600020C5E9000012
:101F7000202084F89402BDE8F0874FF00008A4F810
:101F8000268284F81B82216916480A460844B0FB61
:101F9000F1F0C4F8C40040F6B830A4F8C800638B70
:101FA000284600F021F83946304607F08AF808F054
:101FB00017FD18B1606901F025FA10B184F80D829F
:101FC000D9E784F80D92D6E70169B4F8CA32D4F89B
:101FD000C4222846BDE8F04700F006B82F4904C4E3
:101FE00000E0FCFF7FC3C90110B50024A0F84C40FD
:101FF00030F8504F4C43B4FBF2F420F8104940F253
:102000007124634302EB03135B1EB3FBF2F3C38142
:10201000094BB3FBF2F35B1C83820389634302EB3E
:1020200003135B1EB3FBF2F3436003684B43B3FB44
:10203000F2F1016010BD0000005A6202024991F9FC
:10204000001007F033B8000076010020014A10703C
:1020500051707047760100200CB504A1D1E9000150
:10206000CDE90001684600F005F80CBDFFFFFFFF59
:102070001F0000000549FF220A700A460368C2F8E3
:1020800001300079507100200870704778010020FD
:102090002DE9F84FDFF874915D4F83464FF0010A48
:1020A000002678683546007A8DF800000098009088
:1020B0009DF80010102906D199F8171019B1B9F838
:1020C0001800002873D08DF80060684600F0AAF868
:1020D0009DF800100029F8D1002868D00446007A45
:1020E0008DF80000009800909DF8008004F1080031
:1020F0000521009001704046B8F1080F42D007DC7E
:1021000002280DD0032817D0B8F1040F05D11DE027
:102110000F2852D0B8F1100F57D040F2472163E09A
:10212000626832B1594620469047042060F30705A3
:1021300010E04FF4E07157E0626822B15946204642
:102140009047054606E040F2C9114DE06168B1B123
:1021500020468847C5F30720012848D0EFF31080B8
:1021600072B6217A8DF80010009900919DF8001048
:10217000052940D0A1B366F3070590B33FE040F2D4
:10218000D31131E060685D4698B104882046FFF7BE
:1021900019FB80B10B212970A5F80340A5F805A013
:1021A00085F802A0002106F0B0FC04203E61BDE8E5
:1021B000F88FE32118E0C52116E015218BF80010F7
:1021C000D4F80910CBF80310AFE71248026822B127
:1021D000606838B100885946904702203E61E6E7C2
:1021E00009E00BE040F23D211020FEF77BFE009855
:1021F0004146017003E026723E61BEE762B615F00B
:10220000FF0F3FF44EAFE8B2D1E70000A80E002068
:10221000D80E0020640000200149087000F064B866
:102220007E01002038B50346174900201870086960
:10223000012440B1027A8DF80020009A00929DF8A6
:102240000050002D11D14868027A8DF80020009AC4
:1022500000929DF80050012D06D0EFF3108272B667
:1022600005684D6012B102E0002038BD62B6027A06
:102270008DF80020009A00929DF800500DB1086181
:1022800038BD1C7038BD0000D80E002038B5D0B164
:10229000416000F108010A70EFF3108372B6104C30
:1022A0000460211F4A684AB1127A8DF80020009A12
:1022B00000929DF80050012D00D10C600A6810605A
:1022C00008602BB105E040F272211020FEF70AFEF3
:1022D00062B604480078BDE8384005F02BBF000026
:1022E000DC0E00207E01002010B5142200210848D9
:1022F00008F018FC064812220021143808F012FCDD
:10230000034801210173011D4160016010BD0000FF
:10231000D80E002070B50C4DA5F1080408210A481C
:10232000FEF740FE286810B968680028F6D000F073
:1023300013F8206000F010F860602168002901D1D6
:102340000028F4D070BD000070000020014800F0AB
:1023500009B8000068000020014800F003B8000040
:102360007000002010B5D0E90021094B094C5343FF
:102370005443514081EAB21282EA41224FEAF141CC
:10238000C0E9002143EAD46303EB8303184610BD80
:102390006037EFC6BB79379EF8B506F091FF04466B
:1023A0000D466A4600F062F808B10120F8BD0F48FA
:1023B000037841788B4201D10020F8BD1A4641686C
:1023C00008E000BF01EBC206521E56E9027CC6E9D6
:1023D000007CD2B29DF80060B242F3D8F2B201EBB9
:1023E000C2015B1CC1E900450370DEE778000020F4
:1023F00010B5420703D063214820FEF773FD20B1DA
:10240000034A5170506000201070C80010BD0000D9
:102410007800002038B506F053FF6A4600F026F831
:10242000002814D00A4A1078401EC1B211709DF8DD
:102430000000526808E000BF02EBC003401CD3E973
:102440000245C3E90045C0B28842F5D3012038BD3A
:1024500078000020014900200870704778000020B3
:10246000014840787047000078000020F0B5204D0A
:10247000002313702B7823B300245B1EDBB2D5F846
:1024800004C00BE0E5186D080CEBC506D6E9007634
:102490003F1A8E4101D22C4600E02B461D1B012D18
:1024A000F0DC0CEBC406D6E9005680EA050781EAA9
:1024B000060E57EA0E0705D0451B71EB060503D241
:1024C000147010E0147011E00CEBC305D5E9004561
:1024D00080EA040681EA05073E4306D0001BA941B5
:1024E00000D35B1C13700020F0BD13700120F0BD01
:1024F000780000202DE9F0410446007C02283AD003
:10250000032838D00026A8B3022836D00127082592
:102510004FF000085EB194F8570004F1580106F03E
:1025200062FD0546082802D0FFF740FB60B137B3D3
:1025300057B1E07D00281BD0D4F81100C4F8510039
:10254000B4F81500A4F85500267684F85070657626
:10255000FFF7A6FB0E49A0FB012304F1480006F09B
:10256000EDFF84F85E800021204600F0E1FB0120B1
:10257000BDE8F08101E00126C5E70027C7E704F1C7
:1025800051010020FFF7D0FA0028DDD1F0E700006C
:1025900040420F0030B50C468DB00546014624225E
:1025A00002A808F045FA0BA807F025F8A07A8DF8E4
:1025B000180020788DF80800B4F80100ADF800008C
:1025C0009DF8000000F00101C0F3400241EA420121
:1025D000C0F3800241EA8201C0F3C00241EAC201B5
:1025E000C0F3001241EA0211C0F3401241EA421165
:1025F000C0F3801041EA8010ADF80A00207D012868
:1026000006D0022804D040F2A6210620FEF76AFC7C
:102610008DF80C00617A0BA806F0D4FF207D012113
:10262000022802D1607D401CC1B2A07E401CC2B213
:102630000BA806F08EFFBDF80A00000701D50020A8
:1026400020E00BA806F097FFBDF80A10282200F042
:1026500057FD40F2712100F53670B0FBF1F04843B0
:10266000D4F8021040F271230A0A40F271214A4361
:10267000D4F80510090A5943904201D8049204E0A5
:10268000884201D8049000E00491A07C8DF81700E6
:10269000207E012800D000208DF81400286B06F061
:1026A00081FB286B06F026FC242202A9284608F0AC
:1026B000BFF90B98A862BDF83000A885E07A68B130
:1026C00002280BD05FF0010085F85700E068A8658C
:1026D000208AA5F85C000DB0002030BD0020F3E793
:1026E0000A4A10B500211170094C606000F022F810
:1026F00010B140F21D3104E0A068002804D14FF46D
:1027000048712D20FEF7EEFB10BD0000EC0E0020FE
:10271000800000200249014888607047E8300100CD
:1027200080000020024908608968096808470000A5
:1027300080000020084810B5007810B10C24204615
:1027400010BD002418222146034808F0EBF901F0DF
:10275000B1F901F0CFF8F2E7EC0E0020044910B512
:102760000978012901D100F03DFC002010BD0000D6
:10277000EC0E002010B504468078C0F3C00058B1BC
:102780003C2308222046E16900F03EFA0222044977
:1027900004F16A0006F05DFD012084F8690010BDB7
:1027A000C99401002DE9F0410F00044623D004F143
:1027B0002800054606F008FFB0B9A078C0F3C000B5
:1027C00050B3284606F0D7FE0646284606F0FCFE23
:1027D000301AC0B206F04DFF014635484268114438
:1027E0004160284606F00EFF284606F0D0FE01465E
:1027F000204606F098FE2F4D94F85E600021686830
:10280000018006F052FE6088132813D009DC1028DE
:1028100036D0122809D131E02046BDE8F04100F061
:10282000E1BB15280FD01D280DD040F249612D20A5
:10283000FEF758FB0021686806F081FC01216868FA
:1028400006F033FE20E00121686806F078FC0121E3
:10285000686806F02AFE36B104F15F01686806F088
:1028600089FC012106E004F15801686806F082FC49
:1028700094F85710686806F083FC05E0062100E034
:102880000221686806F05BFC204600F00BFC6088C3
:102890001D2807D0152805D094F83820616B68688A
:1028A00006F03DFC39462046BDE8F04100F072BA22
:1028B000EC0E0020800000202DE9F0412A4D2978FF
:1028C000022905D02978032902D040F6ED4121E004
:1028D000264C0027616891F800C00CF00F0638B351
:1028E0002068093100F1510390F850204FEADC10C4
:1028F00006F04CFBE0B13946606806F000FCB8B168
:102900002A7820683146022A07D02A78032A04D080
:1029100040F6C6412D20FEF7E5FAA2682B785269F1
:102920006FF0070606EB8303D2589047064600E097
:102930000126A87B18B101F0BDF800F0DBFF002EE6
:102940000FD0206806F0ABFE30B101F0D5F8A068DA
:102950008068BDE8F04100472068BDE8F04100F024
:1029600041BBBDE8F0810000EC0E0020800000209B
:1029700010B5032902D005290AD102E000F058FB66
:1029800003E00449096809B1884708B1002010BD77
:10299000012010BD8C000020094A0300106801D0FE
:1029A00000F020BB002909D09168064A0969127815
:1029B0006FF00F0303EB820289580847704700004D
:1029C00080000020EC0E002070B5044640881028DE
:1029D00018D00F4DA87B20B100F0ACFF402001F0D3
:1029E00077F80C48406801F0B5FAA078400703D4A6
:1029F0002179002001F03AFB002001F093F9022038
:102A0000287070BD2046BDE870400121FFF7CABEA6
:102A1000EC0E00208000002010B500F027F8114CCB
:102A2000206806F03CFE002820680BD00E490A788A
:102A3000022A0BD00A78032A08D040F6F8312D205C
:102A4000FEF750FABDE8104000F0CCBAA268097851
:102A5000D2686FF0070303EB81015158BDE81040C5
:102A60000847000080000020EC0E0020054810B54B
:102A7000807B002805D001F01DF8BDE8104000F073
:102A800039BF10BDEC0E00202DE9F041584D044631
:102A900086B02878E8BB2078FF284BD04FF000089C
:102AA000A5F80C80C5F8048085F8018085F80280BF
:102AB00084F869804F4B504E0FCB8DE80F00B06803
:102AC00040680390684601F025F901F0B3F900F081
:102AD000F1FF00F00FFF494801F0ECFA484801F01F
:102AE000F3FA04F12800074606F08CFD384606F09C
:102AF0004EFD0146204606F016FD94F90E0001F049
:102B00001DFA2179002001F085F80121A860A8B103
:102B100000E00FE004F13401206B06F0B2F9074643
:102B200004F13C01206B06F0AFF94FB194F820108E
:102B300051B905E00C2006B0BDE8F081297055E0E0
:102B400020B194F8210008B1012700E00027207E81
:102B500010B9A07840071CD5D4E912106FF00042DC
:102B6000504070EA010106D007F08CFED4E9122330
:102B7000801A994100D267B1FFF792F82149A0FB72
:102B8000012304F1480006F0D9FC0121204600F0A1
:102B9000CFF87068C01C06F019FAA873A078C007B7
:102BA00024D04046414660F31741CDE90481FF201F
:102BB000E873E66906F10A0713E0049CB44210D0FA
:102BC000727A607A3B4604F10A0106F0DFF940B1FF
:102BD000A078E873D4F803002861B4F80700A8824D
:102BE00004E004A8FEF736FC0028E6D00020A2E7A7
:102BF000EC0E0020C830010080000020D6BE898E77
:102C00005555550040420F0070B5044680F87330AA
:102C10000888A4F87400FF2084F891004FF6FF7034
:102C200016460D46A4F89200002B43D1286906F001
:102C3000F2F9A4F88A00288BA4F88C00688BA4F819
:102C40008E0095F80E0284F89000207E002188B155
:102C500094F8500001280DD194F85620B0EB921F43
:102C600008D1D4F85100C4F87E00B4F85500A4F897
:102C7000820003E0C4F87E10A4F882101548082EE4
:102C800040680278C2F3801284F8772018D050F898
:102C9000031FC4F884108088A4F8880004F1780227
:102CA000511E3046FEF7CEFF28B114F8770F40F0E2
:102CB0000200207070BD40F64B412D20FEF712F946
:102CC00050F8032FA2678088A4F87C0044F8841F82
:102CD000A18070BD8000002010B50446FFF7D4FE2F
:102CE000002808D104480078012803D0002120469C
:102CF000FFF758FD002010BDEC0E00200A4810B56B
:102D00000A490468087800280CD00878022802D004
:102D10000878032801D1FFF7A9FE2046BDE810403E
:102D200000F060B910BD000080000020EC0E002013
:102D300070B50446007E0E46012570B1607EFEF738
:102D40004DFF50B184F85050607EFEF753FF01688C
:102D5000C4F851108088A4F85500A078400715D514
:102D6000324604F15F01607E0E46FEF785FF0028C3
:102D70000CD084F85E50064C3146606806F0FAF9D3
:102D80006068BDE87040012106F0FAB970BD00002E
:102D9000800000202DE9F041044628480D46406897
:102DA00001F0D8F8264E0420307055B36088102802
:102DB00023D004F128008046B56806F0DCFB074606
:102DC000404606F001FC381A401EC0B26188282235
:102DD00000F0B6F90544A078C0F3C00030B17068C7
:102DE000054406F04AFC2844C4F8D000227929465C
:102DF000002001F0C7F820B90CE02179002000F094
:102E0000CBFE6088132811D007DC102814D01228BC
:102E100007D10BE040F6635105E0152806D01D28C8
:102E200004D040F677512D20FEF75CF82179BDE8FB
:102E3000F041012001F01AB9BDE8F08180000020C6
:102E4000EC0E002038B5044690F8B6000B468DF81D
:102E50000000009800909DF8000000282ED12078F6
:102E600084F8B700082B12D004F1B902511E18469D
:102E7000FEF7E8FE30B194F8B80040F0020084F8A4
:102E8000B80013E040F6BB712D20FEF72BF80C487C
:102E900040680178C1F3801184F8B810D0F80310AD
:102EA000C4F8B910B0F80700A4F8BD0004F1AE00F2
:102EB000BDE838400222034906F0CBB938BD000016
:102EC00080000020139501002DE9FE4316460446BC
:102ED000032904D094F8680008B1012000E0002024
:102EE0000025032903D00127052905D008E0A17892
:102EF0000227C1F3400101E0A178C90700296AD087
:102F0000002868D13548DFF8D890807B80B106F082
:102F100060F83070082814D0C0B26A4602A9FEF7E3
:102F200091FE48B169469DF8080006F0C2F90546D1
:102F30003078082805D00DE040F63E712D20FDF7D1
:102F4000D1FFD9F8041011F8030BC0F3801006F07C
:102F5000B0F90546D9F8041094F8572004F1580345
:102F600011F8030BC0F3801006F010F8D9F8041024
:102F7000804611F8030BC0F3801006F034F8814648
:102F8000FEF794FE30B14846B9F1080F02D0FEF7C3
:102F900019FE38B10021307808280CD0B8F1000FA4
:102FA00005D101E00121F6E7627E824201D10120D4
:102FB00003E0002001E028EA0100A278520701D5D1
:102FC00030B908E039B91DB9E07B08B1B84202D187
:102FD0000120BDE8FE830020FBE70000EC0E00208E
:102FE0008000002070B50446C08D104D401CE08567
:102FF000A87B002620B100F05DFD00F07BFCAE73E5
:103000002E7094F8690008B101210AE0607B38B1A4
:10301000E18D884204D80121204606F052FB70BDA4
:1030200000212046BDE8704006F04BBBEC0E0020AE
:10303000F8B5044608208DF8000001256A460321F2
:103040002046FFF741FFE8B1207B20B19DF800103A
:103050002046FFF7F7FE0D4E002170680180042125
:1030600006F06DF8204600F01DF894F84020E16B62
:10307000706806F09BF8064905200870706800F03B
:1030800069FF00E000252846F8BD00008000002010
:10309000EC0E0020024801210068FFF783BB00000E
:1030A0008000002070B5074D044600F151016868AA
:1030B00006F06DF894F850106868BDE8704006F0AE
:1030C0006CB8000080000020192A0100B928010016
:1030D000992901000000000071290100C92901009F
:1030E000BD940100C3940100D92C0100FD2C010006
:1030F00095300100E4300100DC300100D8300100DF
:1031000010B5421E022A01D9CA2109E0401E102929
:1031100009D012290CD013290AD0152905D0D8219D
:103120002F20FDF7DFFE054904E00449891D01E079
:103130000249891F31F8100010BD0000929601006D
:10314000421E10B5D2B2012A03D91D2901D0EE21A9
:103150000DE0132913D004DC10290BD0122904D15F
:103160000DE0152908D01D290ED04FF481712F20B4
:10317000FDF7B8FE074804E00648083001E00548BE
:10318000001D30F8120010BD40F25A3110FB01F062
:1031900010BD0000809601002DE9F041044690F832
:1031A000E00016460F46002856D121464B4804F051
:1031B00003FD054620284FD05022002104F1C00015
:1031C00007F0B0FC84F8C0500125C4F8C47084F83E
:1031D000E05037B1FFF7C0F800F00700401C87F857
:1031E0003C02204606F06FFBA4F8F000022084F8B1
:1031F000F200A84684F8F350002504F8E85F02F0D6
:10320000B7F82189CE30084487B2E83C204606F062
:1032100016F920B307F0A9F800F5CD6081B2304669
:1032200002F09CF93044C4F8EC00883407F02AFB23
:10323000C0196941C4E91C0184F8408024F8665C27
:10324000012006F016FAD830301A6064681E410872
:10325000C4E91E01883C25E00C20BDE8F081002176
:10326000204606F0FEFADFF87880C4F8EC00002073
:10327000B8F8041049B1618C39B1FFF76DF8B8F8AE
:103280000410B0FBF1F201FB1200074407F0FAFA58
:10329000C0196941C4E93E01BEB1801951EB050175
:1032A000C4E9400194F8C00004F1E80106F009FB0C
:1032B00078B1D4E93E01C4E93601A4F8E250002116
:1032C000204606F0EAF80020C7E74FF0FF3041083B
:1032D000E6E74FF4F6713020FDF704FEA9990100EE
:1032E0009000002001498880704700009000002075
:1032F00005480021017001228270417042F2107174
:10330000818006F01EBA000090000020014908707C
:10331000704700009000002008494FF47A72B1FB1A
:10332000F2F110B501F2652105F0A7FF40F6480162
:10333000884200D3084680B210BD00007D520100D3
:103340002DE9FC41174D0120687000244FF6FF76EF
:103350000BE00021FEF712F807000CD097F894025A
:1033600004F01CFB384606F012FB204664F31740BD
:10337000CDE900400EE04FF491713020FDF7B2FD31
:10338000009838B190F89412202903D00088B042F8
:10339000DFD104E06846FEF75DF80028F0D06C70DD
:1033A000BDE8FC819000002070B544680D2204F552
:1033B0009875002104F1730007F0B4FB4FF4A3707B
:1033C0000021A4F844110155A5F8171069760846A4
:1033D0005FF07F0104EB4002401CC0B282F878101D
:1033E0000228F7D394F97210204606F059FB00200A
:1033F000FF212218401CC0B282F87B100228F8D3AB
:1034000070BD0000F0B56FF01F02010C02EA9026BB
:103410001F25A1F5AA4054380DD0A1F5AA40553872
:1034200009D0A1F52850AA3805D0A1F52A40AA381C
:1034300001D0012000E00020002213464FEA0204E0
:1034400082EA0107FF431F437F1C0FD006F00107EC
:10345000520842EAC73205F001075B0876086D089A
:10346000641C43EAC733162CEAD3F0BD0020F0BD3C
:1034700003494A8802800978817000207047000063
:10348000A80E00202DE9FC410F460546067806F0FF
:1034900060FE00280ED1284606F035FE002809D12E
:1034A00001213046FDF76AFF040005D006F046F919
:1034B00070B10C20BDE8FC8101213046FDF726FFEC
:1034C000040013D0154890F90010204605F05BFF6A
:1034D000204605F0BEFF3870E87429462046FFF705
:1034E00059F80646687EB8B116B115E00720E1E745
:1034F00000226846216B05F058FC00220121206B58
:1035000005F0CDFC04226846216B05F04EFC00223C
:103510001146206B05F0C3FC3046CBE7A400002029
:10352000017871B1417861B141881B2909D3818843
:103530001B2906D3044902680A608088888000201D
:103540007047122070470000A80E00200249006852
:103550008860002070470000A80E0020034AD2E9CE
:10356000001201604260002070470000C83701006F
:10357000044841F64C518160C1601B21017406F082
:103580005CBD0000A80E0020F0B5364C87B00546A3
:10359000A16840F82C1F0646FFF7BEFE074600F064
:1035A00061F9400940EAC160C00706D06188A0887F
:1035B000227C7185B085327204E01B22207C7285EA
:1035C000B2853072778100F04DF988074FF001061F
:1035D00005D58DF8006068460195FFF7E5FE41F6D8
:1035E0004C5129612988ADF80410A17C8DF8061092
:1035F000E17C8DF80710A18AADF8081004A90091AC
:10360000304603AB01AA294606F0F0FD38B1288800
:103610000021FDF76FFF08B340F277511BE09DF8E2
:103620000C008DF814009DF810008DF81500BDF801
:103630000800ADF8160005A9284605F0F2FC6078F0
:1036400000902378A28861882888FEF70FF8002868
:1036500005D040F282513920FDF744FC092007B023
:10366000F0BD0000A80E002010B501210020FDF7DC
:1036700085FE04000AD10121FDF748FE040007D0B1
:10368000064890F90010204605F07DFE204610BD4A
:1036900040F21F313920FDF725FC0000A400002076
:1036A000F8B50C46054605F0D7FE58B1284605F09A
:1036B000C6FE48B1B4F80100122108B1802803D930
:1036C0000846F8BD4221FBE7284605F0ABFE20B1D5
:1036D000284606F033F830B901E00C21F0E728461F
:1036E00005F02DFE08B10C20F8BD2846FEF702FFBC
:1036F00010B3B4F8016042F210704643E1782846F6
:1037000005F087FE284605F096FEB8B10021684610
:10371000FDF7C2FE04001BD00021FEF7F7FBBDF849
:10372000000020802146284605F0ABFE284605F023
:103730008AFE78B1012111E01220F8BD3246002145
:103740002846FFF729FD0028F7D041F2897112E0E1
:103750000D20F8BD284605F092FE01462046FFF7F1
:1037600013FF0028F5D1324621462846FFF714FD05
:1037700020B141F2AC713920FDF7B4FB04488368F5
:1037800023B1002204F59971204698470020F8BD26
:10379000A400002010B50A4800210A4BC17501831E
:1037A0001B221A804FF4A4745C808174C1740323BB
:1037B000037002234370428082808175417410BD82
:1037C000A80E0020A60000200D28110D5900281178
:1037D00010B5FEF721FD054C606806F0BDFDFFF752
:1037E000C7FEFEF797FD0120207010BDB00000203D
:1037F0000148007870470000B000002010B5064C6A
:10380000A06806F0A9FDE06806F0A6FD06F015FC2C
:103810000020207010BD0000B000002010B5054948
:10382000054806F08CFD0448BDE810400349001D22
:1038300006F085BDC0000020B4000020C8000020B4
:103840000148407870470000B000002010B5FEF736
:1038500061FFFFF74DFDBDE810400148FEF740BF96
:10386000331100200149D1E9000170470000002018
:10387000064801880079020642EA112000F00100A2
:103880000018C0B240F001007047000000000020A6
:1038900010B501F01DFE0022084B114633F82140FF
:1038A000844203D303EB8100827803E0491CC9B250
:1038B0000C29F3D30248027010BD00006EA3010072
:1038C0007F01002070B5054616460C46022000F028
:1038D000BDF806490120F61E087005480660044838
:1038E00008380560001F046070BD000080010020E2
:1038F00010F5004010B50C4C207880B10B494FF406
:103900000000086000F06AF8002120B1012060701A
:103910000748006801E061701020A0702170BDE8C8
:103920001040002000F092B88001002008F501400E
:1039300000F4004010B5022000F088F8044901208E
:10394000087000F059F803494FF40000086010BDFA
:103950008001002004F501400348002101704170FE
:10396000102181707047000080010020074810B5C9
:10397000017841B100F032F818B105480068C0B2D2
:1039800010BD102010BD807810BD00008001002007
:1039900000F40040084810B5017859B10748D0F844
:1039A000000128B100F00CF8002800D0012010BD63
:1039B000022010BD407810BD8001002000F00040C2
:1039C0000548D0F8041111B1D0F8080108B1002061
:1039D000704701207047000000F00040054810B516
:1039E000D0F8000120B1FFF7EBFF08B1012010BDB6
:1039F000002010BD00F0004004480021C0F8001174
:103A0000C0F80411C0F808117047000000F0004031
:103A100070B5054D0024287810B100F00FF82C7017
:103A20006C70AC7070BD0000830100200248002162
:103A30000170417081707047830100200249014884
:103A4000086070470000020208F5014010B5044606
:103A500000F020F8002C0ED00B4A0B480B49143212
:103A6000012C05D0022C07D082213D20FDF73AFA27
:103A700002230360116010BD032303601160044939
:103A80004FF40000086010BD00F50040371300201F
:103A900004F50140054810B5002101600160FFF701
:103AA000B7FF03494FF40000086010BD00F5004067
:103AB00008F501400548D0F8001221F04001C0F897
:103AC00000120021C0F8601570470000001000408F
:103AD0000449C1F86005D1F8000240F04000C1F887
:103AE00000027047001000400249085C00F51660B3
:103AF000704700005E470100F8B5244CD4F8040379
:103B000010F0100F01D0012700E000271020C4F8AA
:103B100008030220C4F800021D4800251D4980F852
:103B20003D504FF460200860D4F850054FF488767B
:103B300010F0FF0F19D0FF208DF80000C4F81051CD
:103B40000120206105E000BF9DF80000401E8DF8B7
:103B500000009DF8000028B13146204606F067FCC1
:103B60000028F1D09DF8000058B100F0E1FBC4F846
:103B7000105100F069FD002F02D01020C4F804039A
:103B8000F8BD40F64E013E20FDF7ACF900100040B4
:103B90003809002008F501402DE9F0411A4C07468C
:103BA0000A4694F83D00C10712D0184DD5F800120E
:103BB00041F00101C5F8001240F0020084F83D0018
:103BC0002046012690F822103FB1012F0BD010E0C3
:103BD00040F224713E20FDF785F9104600F096FD75
:103BE000A6702E6005E0104600F070FD0220A07067
:103BF0006E600748C66406480C30D0F84015384659
:103C0000BDE8F04100F0F2BC38090020001000408F
:103C1000008000402DE9F0472C4C0600894694F8BE
:103C20003D002B4D40F0020084F83D002046294F16
:103C300090F822104FF0000802D0012E1FD035E07E
:103C4000484600F063FD0120A0702078012805D1CE
:103C5000D5F8000240F00800C5F80002606B40F49F
:103C6000801060634FF4801038601B4931F81900F0
:103C70004FF47A7100F5FA70B0FBF1F816E048469F
:103C800000F024FD0220A0702078012805D1D5F88D
:103C9000000240F00400C5F80002606B40F4001020
:103CA00060634FF4001038604FF0290800F0A6FB65
:103CB00006F0DFFD20B1FFF71FFF0020BDE8F08711
:103CC0000021304600F092FC4046F7E7380900201A
:103CD0000010004004F501405847010070B504464B
:103CE000006800F0E7F909496068C1F83C05084D33
:103CF000207A85F82200617AA07A213500F0EAF96D
:103D0000607A00F0DBFBE07A287070BD00100040A4
:103D10003809002010B51DC8014981E81D0010BDFB
:103D20002809002070B50F4C03460220207694F835
:103D30003150962094F8301094F82020012D0ED0A8
:103D400000F046FDE06108480021C0F84411E16937
:103D5000E06A08440449091DC1F8400570BD00F03F
:103D600055FDEFE738090020008000402DE9F041C3
:103D700050220021134806F0D5FE00F065FC06F045
:103D8000E8FD114D104E00240F4F0835103628B9AC
:103D900006F0F6FD10B906F0FDFD08B1242206E09C
:103DA00006F038FE10B906F02BFE40B14022FF218C
:103DB000384606F0B7FE2C603460BDE8F08138224A
:103DC000F5E7000038090020000E004010B500F0B3
:103DD000EFFBFFF791FE00F0C3FD30B1401C04D0B3
:103DE00040F2FF413E20FDF77DF80F480F4A416B3E
:103DF00041F044611160002444630476C46284622B
:103E000000F0D6FB0A48C0F84841C0F84441C0F869
:103E10004041C0F84C41012006F0F8FABDE81040DE
:103E2000012006F0E6BA00003809002008F501403C
:103E30000080004070B5012006F0E8FA374C002001
:103E4000C4F8FC0F0120C4F8FC0F06F0B9FD344D96
:103E500018B1286840F48060286006F0A5FD28B1FC
:103E60002868304920F069000843286006F0B8FD52
:103E700038B12B48001D016821F47F4141F4B05155
:103E80000160274928483C31086000F0A3FD40B19B
:103E90004FF08050D0F83003411C02D0204910313F
:103EA00008604FF01020006E411C04D01F490A68C2
:103EB00060F317420A6040F2031140F25B60C4F8FD
:103EC0003415C4F838050120C4F8300500F0F6FABE
:103ED00040F20120C4F850060220C4F80002144940
:103EE0004FF04060086013490020A1F840001031F5
:103EF000C86281F83D00012006F07BFA1020C4F86A
:103F000004034FF0E0210220C1F800010A480068D4
:103F1000002802D0BDE87040004770BD001000408E
:103F20003C170040960000802C0000898C15004052
:103F300004F5014028090020D0000020014981F843
:103F40002100704738090020014951F820007047CE
:103F5000AC4701000649C1F80405064911F83D2F98
:103F600042F0010201F80529086000F013BA0000D0
:103F70000010004038090020014951F82000704726
:103F8000B84701002DE9F047324D8846304F95F88B
:103F90002210060014464FF0010A06D0012E12D05E
:103FA00040F2D1713E20FCF79DFF104600F0AEFBC1
:103FB000294885F802A030F81410404600F04EFB66
:103FC000044638460CE0104600F080FB0220A87042
:103FD00049F6BA71404600F041FB04461C48001DFA
:103FE00000F0F8FADFF87480C8F84045DFF8749004
:103FF0001B48C9F810051020C7F80403686B4FF47C
:10400000002740F4002068631748076000F0F6F9C5
:104010004146C8F84CA011480C30D0F84005A042E9
:1040200010D30020C1F84005C9F81405686B20F4CE
:10403000002068630C48001D0760FFF75DFD00204D
:10404000BDE8F0872146304600F0D0FA0120F7E7BE
:10405000001000403809002058470100008000404F
:104060004081004098F0014004F50140104A10B52D
:1040700003000846D1704FF0000111700AD00221F0
:104080005170012908D0022911D040F608213E20A4
:10409000FCF728FF0121F3E79178022907D192F874
:1040A000221000F03BF9BDE8104000F069BA10BDE5
:1040B000380900200349020EC1F824250002C1F886
:1040C0001C057047001000400149C1F83C057047CD
:1040D00000100040124A10B582F83C00002201296D
:1040E00006D0022902D040F2DF2114E04FF08072A6
:1040F0000C490A430C490A600C4908430A49091D46
:1041000008600B48D0F85005C0B2032801D00B2836
:1041100004D140F2F7213E20FCF7E4FE10BD000080
:1041200038090020080110001415004000000302A7
:1041300000100040014981F8220070473809002032
:104140002DE9F04756484FF0010AC0F84CA05448FA
:104150000C30D0F8406506F08AFB524C002504F183
:10416000400181E8610000F0E3F84F49606B0860AE
:10417000DFF83881656340F21D12D8F800129143D0
:10418000C8F8001284F83D5000F04CF90546444848
:104190000830D0F84005424FE0623F1DD7F8400597
:1041A000A06294F8310094F8200084F83000A078E0
:1041B00084F831004FF000093146284600F096F9A6
:1041C00018B9C8F810A04FF00109364EE807A6F15B
:1041D000100625D1A80734D506F002FC18BB06F05E
:1041E000EFFB00BB32480068C0F3006CC0F34258DC
:1041F00000F00F03C0F30312C0F30321C0F3044027
:10420000BCF1000F0FD00BB102B161B92849091DF3
:104210000968012807D1012905D0B8F1030F02D29E
:104220003068804716E0A06B94F83C1040788842D4
:1042300001D945F0040545F380004946401C7268E9
:1042400007E015F0280F05D045F34011B268484645
:10425000491C9047E80601D5F0688047A0780228FD
:104260001CD1207E002819D0022804D0012806D0B5
:1042700040F63A4109E0E169E06A084408E0E16A91
:10428000E069884204D840F63B413E20FCF72AFE14
:10429000C7F84005BDE8F04700F07CB9BDE8F087FD
:1042A000008000403809002008F50140001000405F
:1042B000501400400A49095C01F51661B1F5166F0A
:1042C00004D2A1F6381141F4807101E0A1F5166124
:1042D000044AC2F8081500F07F00C2F85405704780
:1042E0005E4701000010004008B50B4A6B4692F98A
:1042F000212000F0D7FA9DF9000000F0A7FA0DF197
:10430000010000F051FB002804D040F28B513E2008
:10431000FCF7E8FD08BD000038090020034A527888
:10432000012A01D1FFF7E0BF7047000038090020E3
:104330000D4810B5807801280CD0022813D100F068
:1043400015FB00280FD0401C0DD040F665013E2023
:10435000FCF7C8FD00F01CFB002804D0401C02D074
:1043600040F65F01F3E710BD38090020084800213E
:10437000C0F80011C0F80C11C0F81011C0F80411F9
:10438000C0F81411C0F81811C0F8081170470000E7
:1043900000100040164810B590F83D00C10726D027
:1043A000810714D51348D0F8001241F00101C0F87C
:1043B0000012D0F85005C0B20B2805D00A2803D04F
:1043C000032801D0022812D140F2B4510CE040077A
:1043D0000DD5084808490830C1F8140506F049FA17
:1043E000002804D040F2BC513E20FCF77BFD10BDFC
:1043F000380900200010004098F0014008480146AC
:10440000027891F83D1012B1012A03D006E041F084
:10441000020101E041F0040180F83D10FFF7BABF4E
:10442000380900202DE9F041214D0024287E28B1D3
:104430002048D0F8440108B1012700E00027A878FF
:104440001D4E4FF48671012802D0022806D016E0D6
:10445000304605F0ECFF90B1082410E0304605F03E
:10446000E6FF00B10224D6F80004C04340F3000088
:10447000401C01D144F004040FB144F0010414F0D5
:104480000B0F07D14FF48871304605F0D0FF08B10B
:1044900044F01004FFF76AFFE00606D5200704D4B5
:1044A000A878012801D144F020042046BDE8F0811D
:1044B000380900200080004000100040094910B574
:1044C00081F820000849012806D0022806D040F6CD
:1044D0005A513E20FCF706FD032000E00420C1F8FD
:1044E000100510BD38090020001000402DE9F041F2
:1044F000224C8846617829B110F0110F07D0FFF7E0
:10450000FBFA33E000F0A0F8002020762EE001292D
:1045100001D0012700E00027207801280ED00026D6
:104520002079962160B115480830FFF7D7FB6078F5
:104530006569022808D040F662211BE00126EFE7FA
:10454000384600F099F8054600F07EF846B108F1CB
:104550003B00A84202D90020BDE8F0810120207074
:10456000E27829463846FFF70DFD08B10120F3E750
:1045700040F676213E20FCF7B5FC0000380900200B
:104580000348D0F8001241F48871C0F80012704757
:10459000001000400448416B41F48001416303492D
:1045A0004FF48000086070473809002004F501408E
:1045B000074A002008320649C2F840050A1DC2F821
:1045C0004005C1F8400502490C31C1F8400570476B
:1045D0000080004003490978002902D10249C1F84E
:1045E000140570473809002098F0014010B5144AAE
:1045F00020B1012811D04FF4E1611CE001F1280045
:10460000C2E902100F490E4800F0C8F9002815D081
:10461000401C13D040F2F7610DE001F12900C2E91E
:1046200002100849064800F0A7F9002806D0401CEF
:1046300004D040F204713E20FCF754FC10BD000091
:10464000D400002088470100034800210170417018
:10465000817001717047000038090020054A127806
:10466000012A06D04FF47A7201F5FA71B1FBF2F12A
:10467000401A70473809002070B5134C03460D46A8
:1046800094F8312000205AB1214691F8301063B1DE
:10469000012B11D1012A284612D005F0CDFE09E0E8
:1046A00040F612013E20FCF71DFC012A284604D0EA
:1046B00005F0D0FEE16A084470BD00F0DBF8F9E7D0
:1046C00000F0CAF8F6E700003809002010B50C46E3
:1046D000FFF7F4FE2046FFF7EDFD0A482146C078BB
:1046E000FFF71CFEFFF74CFF06F07AF9002808D10F
:1046F00006F066F9002804D10348016841F4C0219E
:10470000016010BD380900206815004070B50D46E5
:104710000446FFF7D3FE2846FFF7CCFD2946204686
:10472000FFF7E2FD06F05CF900280ED0094A116897
:104730005006022CD0F8200308D0C0F3062000BF9A
:1047400021F4FE4141EA0020106070BDC0F3066014
:10475000F6E700008815004000002CA6E0A1040642
:10476000080A0C0E10121416181C1E2022242628CB
:104770002A2C2E30323436383A3C3E4042444648A9
:104780004A4C4E021A500000010000001011004077
:104790000000000000000000000000000000000019
:1047A00000000000141E0000301100000000000096
:1047B000280000001800000000000000141E000087
:1047C000301100000000000070170000A00F000072
:1047D00070B5054614460846FFF7CEFB05EB4501CC
:1047E000C1EBC511C0EBC101074850F824000844D3
:1047F0004FF47A7100F6B730B0FBF1F52046FFF7C1
:10480000A3FB2844401D70BD9848010070B50E4DB3
:104810001C46083D0C4B35F8111000EB400553F8D1
:104820002230C5EBC01001EBC00003F6B7331844CB
:104830004FF47A71B0FBF1F51046FFF785FB284481
:104840002044401D70BD0000984801000149C0B2DD
:10485000086070470C150040054A32F811104FF4FB
:104860007A7201F2E731B1FBF2F10844801E704721
:1048700090480100054A32F811104FF47A7201F5A0
:104880007A71B1FBF2F108447047000090480100D2
:104890000000DC05E803000000000000141E00001A
:1048A000301100002DE9F8431E4617460C46054618
:1048B00000F0B6F8DFF8A490804699F80000A8420E
:1048C00010D199F801104846A1420BD190F902107D
:1048D000B94207D1C278424504D1818831808079BC
:1048E000B07037E03A462146012D09D0022D09D09B
:1048F000042D09D0082D09D040F2054106200CE016
:10490000002004E0012002E0032000E002206B46CA
:1049100000F00EF918B13D217520FCF7E3FA2046AE
:10492000FFF7E2F80246002331469DF9000000F04F
:1049300047F8014689F807103188A9F80410B178C2
:1049400089F8061089F8005089F8014089F802704A
:1049500089F8038099F90700BDE8F88388010020F1
:104960000148006800680047EC000020014800682A
:1049700040690047EC000020014A1268D2681047E5
:10498000EC00002001490968C96A0847EC000020D2
:104990000148006800690047EC000020014A1268E5
:1049A00092681047EC00002001490968496A0847ED
:1049B000EC00002001490968896A0847EC000020E2
:1049C00030B4034C24686468A44630BC60470000DF
:1049D000EC000020014800787047000090010020A2
:1049E000B7A40100EFA40100D9A40100C7A40100ED
:1049F000D3A40100C1A40100B5A40100B3A4010027
:104A0000EBA40100DFA40100CDA40100BBA40100C0
:104A1000ADA40100A5A40100A9A401009FA4010068
:104A20000148007870470000F000002070B51C4C71
:104A3000607800282DD10120607005F0ABFFD825EB
:104A40006FF0270628B905F0DBFF10B905F0E2FF8B
:104A500038B1144A66F307006260C4E902500820C6
:104A600013E005F06CFF40B905F073FF28B905F0BD
:104A700087FF10B905F098FF60B10A4A66F3070096
:104A800031326260C4E90250042060F30701C4E9D6
:104A9000040170BD4FF4DB71742003F077FA00005D
:104AA000F0000020F2AB0100074A10B55469103243
:104AB00092F90420824205DD00F00AF80349085CFF
:104AC00060F3070460B210BDF0000020E4AB010009
:104AD0000246154810B590F90400904201DC0D2003
:104AE00010BD1148083890F90400904201DB002005
:104AF00010BD01B10121141A0B4810384368185D2C
:104B00000A4C24569442F3D0084C08443F34C0B2B7
:104B1000D2B2A342ECD10029EAD0012A01D0022A64
:104B2000E6D1401CC0B210BD00010020E4AB010082
:104B30002DE9F0411C4690460D4606466FF01507DC
:104B4000042804D81CB105F0D5FCA84202D8384688
:104B5000BDE8F0810548424650F8260018B140579C
:104B6000824200DD024622700020F1E7040F00209F
:104B700070B50D4604000CD094F828600021022086
:104B8000092D6ED2DFE805F008113636667189A668
:104B900094004FF4CB71F7E094F8260004287BD002
:104BA0000328FCD040F2A111EEE094F8260004287E
:104BB00004D0032802D040F2A511E5E0052084F8D6
:104BC000260084F8291094F82400B8BB0021204660
:104BD00005F0F1FC2078012807D0D4E9040100BFDA
:104BE000C4E906010021226A48E094F8270002F097
:104BF0002FFAF5E794F82610042904D0032902D0EF
:104C000040F2C311C0E094F8242022B1214630467E
:104C100005F011FDB0E0042900D0012084F8260041
:104C2000226A022D0BD006213046904700286DD015
:104C3000007800286AD040F2DD11A5E034E00521BB
:104C400030469047002870D0007800286DD04FF48F
:104C5000EC7199E094F82600052803D04FF4F27126
:104C600092E080E00221226A08E094F826000528FC
:104C700002D04FF4F57187E0226A01213046904757
:104C80000146204605F042FC022875D0E8B3012811
:104C90006CD040F22A2177E070E094F826000528D5
:104CA00002D04FF4F8716FE0BDE8704000F09EB89C
:104CB00094F82600052802D040F2F51164E0226A3B
:104CC0000A21304690470146204605F01FFC4FF46C
:104CD000FC7159E094F82620052A07D094F8253075
:104CE0000BB1032A02D04FF4FE714DE094F824205A
:104CF0002AB121463046BDE8704005F09CBC94F8CE
:104D000029209AB184F8291001E032E034E084F8D7
:104D10002600226A082130469047002837D00078C4
:104D2000002834D04FF402712EE030E094F82520B2
:104D30005AB184F8251094F82700214605F039FC73
:104D4000002824D140F20D211EE084F82600226ABA
:104D5000072130469047002819D00078002816D047
:104D60004FF4057110E040F219210DE00421226A90
:104D700084E70321226A81E7002D08D105F079FD3F
:104D8000002804D040F233216A2003F0FFF870BD00
:104D9000002819D003781349134A13B1012B0ED000
:104DA00011E00379012B00D06BB943790BB1012BD2
:104DB00009D18368643B8B4205D2C0680EE0037959
:104DC000012B02D00BB10020704743790BB1012BAE
:104DD000F9D1C368643B8B42F5D280689042F2D827
:104DE000012070473D860100FF3F420F10B5054C82
:104DF000206810B1804700202060BDE8104002F01C
:104E0000FFBE0000080100202DE9F0410E4605001C
:104E100004D000F047F8074600240BE06FF01500BF
:104E2000BDE8F081204600F043F890F8260030B14C
:104E3000641CE4B2BC42F5D36FF00B00F0E72746E8
:104E4000FF2CF9D0204600F033F8044605F00EFCA4
:104E500084F828702146084802F0AEFE84F8270046
:104E6000202806D00120256284F826003770002013
:104E7000D6E76FF02200D3E7714B010010B582072F
:104E800002D06FF00D0010BD054A1170506028B1BE
:104E900001EB41010A01002105F044FE002010BD94
:104EA0000C01002001480078704700000C01002030
:104EB00005490A78904201D300207047496800EB09
:104EC000400001EB001070470C010020030E30B4CD
:104ED00043EA0123DFF838C0090EA3FB0C2501FBD0
:104EE0000C51002403FB041147F6FF7303EA50231F
:104EF00043F6095C13FB0CF3C0F3080010FB0CF045
:104F000000F5807003EB50208018614130BC704781
:104F10000080841E2DE9F047DFF8B0C0089C8C4566
:104F200003D896219B2003F031F8CD0045EA50715B
:104F30004FF22446B1FBF6F8B1FBF6F5DFF890909E
:104F4000C0F34F3709044FEA084AC919A8FB09788A
:104F5000C91BB1FBF6F7B1FBF6F14AEA0701A1FB69
:104F60000CC60025B0EB0C0C4FEA5C3048F23766FB
:104F700000FB06F04FEA1040164E4FEA402806FBB1
:104F800000C6154806FB00F04FEA505708EB070033
:104F900043F6095817FB08F808F5807743F60859D7
:104FA000A6EB5727C844FFB2B6EB582F84BF0027A3
:104FB000401C27700C0A0906081844EB0501C3E9D8
:104FC0000001C2F800C0BDE8F08700000080841E28
:104FD000000024F4F7C2FFFF6F0C0100410B48F200
:104FE000376251430A0C094B510202FB0302084885
:104FF000504300F586306E30400D5B4210FB03F3EA
:10500000B2EB532F88BF491C08447047F7C2FFFF1B
:105010006F0C0100430B48F2376C03FB0CF330B408
:105020001B0CDFF844C05C0203FB0C030F48584321
:105030004FEA505C04EB0C0043F609541CFB04F4EB
:1050400004F5807C43F60855A3EB5C2C2C440CF053
:10505000FF0CB3EB542F84BF4FF0000C401C0860D2
:1050600082F800C030BC7047F7C2FFFF6F0C010030
:105070002DE9F041164C207A002827D04FF480719A
:105080008D05284605F0B6FB80464FF48271284610
:1050900005F0B0FB00260746B8F1000F09D001204B
:1050A000C5F80803207920B12671E06908B180476E
:1050B000E66137B1C5F804610220C5F8080300F0C5
:1050C00015FA4046BDE8F04100F030B8BDE8F08187
:1050D0001401002010B505F046FC30B905F064FC61
:1050E00018B905F097FC002802D002490220086098
:1050F00010BD0000340C004070B500F05BF900F00A
:1051000071FA094C4FF0804530B1FFF7E3FF012001
:1051100028610420607204E0032060720120C5F859
:1051200004030020A07170BD140100202DE9F0419E
:1051300006464FF080454FF48671284605F05AFB2D
:105140001F4C80462778E01D05F0D7FB10B140F2D8
:10515000C51114E046B1607A032805D104206072BD
:10516000FFF7B8FF012028610026B8F1000F18D022
:10517000C5F80C61607A042804D040F2D7116D2084
:1051800002F004FF05F0EFFB28B905F00DFC10B9A3
:1051900005F040FC08B10B4806600220607200F088
:1051A000EDF83FB12670607A022801D1FFF7A4FF25
:1051B00000F0E4F8BDE8F0410148C01D05F0B4BBC3
:1051C00014010020340C00402DE9F041484C002629
:1051D0000746A66181780078A0726171A6714FF0D0
:1051E00001084FF08045052825D2DFE800F01003C4
:1051F00006202200C4F8188009E000F0DBF8012145
:10520000284605F0FCFA0028F9D00220A06105F03C
:1052100024FBC0B100F000FA217E01F003018842B6
:1052200011D1B87960B10220C5F8040344E03148D7
:10523000ECE73148EAE740F21E316D2002F0A6FEAD
:1052400000F0BEF938E0C5F80C80C5F80461A0692B
:10525000C5F8180505F073FB40B905F07AFB28B9CD
:1052600005F08EFB10B905F09FFB38B14FF0805070
:10527000D0F844022149C0F34230086005F05FFBDA
:1052800040B905F066FB28B905F07AFB10B905F0C6
:105290008BFB18B119491031C1F80080C5F808809E
:1052A0000220C5F80403B87930B900F029F80220CB
:1052B000C5F80803C5F80461607970B1387860B941
:1052C00000F090F9074602F0D7FE6FF0004117B1E9
:1052D000C4E9041001E0C4E904010121284605F0F5
:1052E0008EFA08B100F078F96672BDE8F08100002E
:1052F0001401002001000200010003003C050040F1
:105300002DE9F0414FF08045D5F8040310F0020F6D
:1053100011D0164C2068C04340F30016206840F0BE
:10532000100020604FF4827739462846761C05F03D
:1053300061FA28B10AE040F2D5216D2002F026FE84
:1053400005F074FB02E000BF05F06EFB394628460D
:1053500005F050FA0028F7D000F032F9002E03D102
:10536000206820F010002060BDE8F08110ED00E022
:105370000148C089704700001401002010B5EFF308
:10538000108472B60A48417829B14178491E4170AB
:10539000417829B108E04FF496716D2002F0F6FDD6
:1053A000807808B900F02CF9002C00D162B610BD4D
:1053B0001401002010B5EFF3108472B6064841784E
:1053C000491C41704078012801D105F030FA002CC9
:1053D00000D162B610BD000014010020054810B5D0
:1053E000C17821B100210171C170FFF7C7FF002012
:1053F00010BD00001401002070B50C4CE17861B9BB
:105400000125E570E061FFF7D5FF00F0EBF830B162
:10541000E06910B180470020E061002070BD4FF0CE
:1054200080402571C0F80453F7E700001401002004
:105430002DE9F04105006FF015003DD029780429D1
:105440003AD80029697839D0002935D1A9780029BE
:1054500032D1002005F0BDF9002005F0ADF94FF084
:1054600080484FF0FF31C8F808130026C8F80061E3
:10547000C8F80461C8F80C61144C6670A888A08153
:1054800005F0CCF9012708B1E770677001214046AB
:1054900005F0B5F908B100F09FF840F2F550E08151
:1054A0002846FFF791FE2772002005F085F94FF09E
:1054B000E0213046C1F80071BDE8F0810029FBD041
:1054C0002029F9D8A9782129C3D9F5E714010020AA
:1054D0000148808970470000140100200248407A8A
:1054E000002800D00120704714010020F8B51A4CA4
:1054F000A07A00280FD1207E00F0030005F09CF96F
:10550000002808D0EFF3108172B6FFF7E7FF18B15B
:10551000002900D162B6F8BD0120607201B962B6FF
:105520000820C506C5F808034FF42070ADF8000048
:10553000BDF80000411EADF80010F9D20026C5F8F4
:105540000C610548C01D05F0EBF92670FFF7D4FD8E
:105550000820C5F80403F8BD1401002070B5024608
:105560000020002926D0002A24D0A2FB0101401EE1
:10557000114A41F1FF31914203D371216D2002F0B4
:1055800005FD0E4D090341EA10512A0CC0F30F131B
:10559000B1FBF2F4B1FBF2F009042004C918A4FB3A
:1055A0000534C91AB1FBF2F3B1FBF2F140EA030092
:1055B00000F1010070BD000040420F00000024F423
:1055C00010B5044C207E00F0030005F035F90028EA
:1055D000F8D010BD14010020014901200870704767
:1055E000910100204FF08040D0F8000118B9034825
:1055F0000078002800D001207047000091010020B1
:105600004FF08040012141600021C0F800110148A5
:1056100001707047910100200248006800F003000B
:10562000704700001C04004010B531B1012907D0BB
:1056300040F28A3105A002F07DFCD0F8140401E0AC
:10564000D0F8080400F0010010BD00006E72665F23
:10565000636C6F636B2E68002DE9F0470024DFF860
:105660007C901F4D4FF480374FF4A0784FEA04062A
:10567000D5F8042307FA04F008EB8401024217D09E
:10568000174A5258A2B16E5005EB8401D1F840156B
:10569000D9F80020891A21F07F41022902D3B1F5FF
:1056A000000F05D9C5F80803201DC0B201F0E8FCC1
:1056B000601CC4B2022CDBD3D5F8040128B1C5F8B4
:1056C000046108488168491C81604FF0E0214FF473
:1056D0000060C1F88002BDE8F087000004B500401A
:1056E00000B00040080000202DE9F041364D287838
:1056F000FF2863D0A81C0122017851B1012908BFFD
:105700006A7001D0697891B102210170407800F08F
:105710001DFB2E4CD4F8040310F4002F0CD02C48A1
:10572000006848B140F23E416C2002F02FFC40F28C
:1057300052416C2002F02AFCD4F804034FF0000719
:1057400010F4802F4FF480784FF0E0260AD02148E3
:10575000006838B1022000F0F9FAC6F88082022011
:1057600001F08EFCD4F8040310F4003F0AD01A486C
:10577000006838B1012000F0E9FAC6F88082012003
:1057800001F07EFCD4F8040310F4803F08BFBDE8AC
:10579000F08112480068002808BFBDE8F0810020B1
:1057A00000F0D4FAC6F88082FF2028706F60C4F839
:1057B0000072BDE8F041002001F062BCBDE8F0419C
:1057C000062001F05DBC00000800002000800040C1
:1057D0004C810040488100404481004040810040AD
:1057E000012211024FF0E0230020C3F8801103F5DD
:1057F000C073BFF34F8FBFF36F8FC3F800110C4915
:1058000041F8042F431EC1F80433C1F83C05C1F828
:105810003C01084BC3F84005C1F840011B1DC3F80B
:105820004005C1F84401CA60034948707047000050
:10583000008000400480004008000020014800680B
:105840007047000004B500402DE9F05FDFF83081BB
:105850000446A8F1020798F800A0D7E904200E46F4
:10586000BAF1010F06D182EA04017040084308BF73
:10587000BDE8F09F4FF0404042490860BAF1000F88
:1058800007BF4FF4403000234FF400300123DFF80E
:10589000F8C0CCF84803CCF808034FF4A0710025F9
:1058A00043B900BF01EB83004CF80050581C10F0C6
:1058B000FF03F7D04FF4803124F07F400B46CCF843
:1058C0000813CCF84813CCF840513049D1F8009077
:1058D000A0EB090929F07F4B4FF00109BBF1020F42
:1058E0002ED3BBF5000F2BD8CCF84005CCF84433B1
:1058F000BAF1000F05D00868101A20F07F40022886
:10590000F9D3C7F804903D70FFF76AFF2048D0F83C
:10591000041565F30101C0F80415D0F8082502212B
:1059200061F30102C0F80825102191FAA1F1B1FA42
:1059300081F1092909D940F2633116A002F0FAFA7F
:1059400040F20E316C2002F021FBC0F81015C0F8B7
:105950000C907968C0F800124FF0E0204FF480718D
:10596000C0F88012C0F800110D4980040860C7E932
:105970000446042088F8010088F80090BDE8F09FF4
:105980000A00002008F5014000B0004004B50040C6
:10599000008000406E72665F74696D65722E6800EB
:1059A00004F501402DE9F047314CD4E9042382EAA3
:1059B000000C4B405CEA030314BF01230023DFF813
:1059C000B4C09CF80080B8F1020F02D0002B3FD089
:1059D00003E0002B08BFBDE8F0876378BBB3264D1A
:1059E0004FF040432B60254E4FF4803520F07F432D
:1059F0002F46C6F80853C6F848530025C6F840514C
:105A00001F4DD5F80090A3EB090929F07F49B9F1A2
:105A1000020F27D3B9F5000F24D8C6F84035C6F8D1
:105A20004473B8F1000F05D02B68D31A23F07F43DD
:105A3000022BF9D3134D022253072B60C4E9040152
:105A400004208CF801008CF80020BDE8F08704E009
:105A50004FF447716C2002F099FA4FF448716C20B2
:105A600002F094FA4FF44B716C2002F08FFA0000B0
:105A7000080000200A00002008F5014000B00040A6
:105A800004B5004004F501400149D1E90401704723
:105A9000080000202DE9F047DFF8F4C09CF8004032
:105AA000002C07BF4FF4403200214FF40032012197
:105AB0003848C0F84823C0F808230023002908BF4D
:105AC0004FF4A07507D100BF05EB81028350491C3C
:105AD00011F0FF01F8D0022C04D040F237316C20D5
