:020000040001F9
:100000003DB8F39600000000000200005C730000A1
:1000100000000000000000000000000000000000E0
:10002000FFFFFFFFFFFFFFFFFFFFFFFFFFFFFFFFE0
:10003000FFFFFFFFFFFFFFFFFFFFFFFFFFFFFFFFD0
:10004000FFFFFFFFFFFFFFFFFFFFFFFFFFFFFFFFC0
:10005000FFFFFFFFFFFFFFFFFFFFFFFFFFFFFFFFB0
:10006000FFFFFFFFFFFFFFFFFFFFFFFFFFFFFFFFA0
:10007000FFFFFFFFFFFFFFFFFFFFFFFFFFFFFFFF90
:10008000FFFFFFFFFFFFFFFFFFFFFFFFFFFFFFFF80
:10009000FFFFFFFFFFFFFFFFFFFFFFFFFFFFFFFF70
:1000A000FFFFFFFFFFFFFFFFFFFFFFFFFFFFFFFF60
:1000B000FFFFFFFFFFFFFFFFFFFFFFFFFFFFFFFF50
:1000C000FFFFFFFFFFFFFFFFFFFFFFFFFFFFFFFF40
:1000D000FFFFFFFFFFFFFFFFFFFFFFFFFFFFFFFF30
:1000E000FFFFFFFFFFFFFFFFFFFFFFFFFFFFFFFF20
:1000F000FFFFFFFFFFFFFFFFFFFFFFFFFFFFFFFF10
:10010000FFFFFFFFFFFFFFFFFFFFFFFFFFFFFFFFFF
:10011000FFFFFFFFFFFFFFFFFFFFFFFFFFFFFFFFEF
:10012000FFFFFFFFFFFFFFFFFFFFFFFFFFFFFFFFDF
:10013000FFFFFFFFFFFFFFFFFFFFFFFFFFFFFFFFCF
:10014000FFFFFFFFFFFFFFFFFFFFFFFFFFFFFFFFBF
:10015000FFFFFFFFFFFFFFFFFFFFFFFFFFFFFFFFAF
:10016000FFFFFFFFFFFFFFFFFFFFFFFFFFFFFFFF9F
:10017000FFFFFFFFFFFFFFFFFFFFFFFFFFFFFFFF8F
:10018000FFFFFFFFFFFFFFFFFFFFFFFFFFFFFFFF7F
:10019000FFFFFFFFFFFFFFFFFFFFFFFFFFFFFFFF6F
:1001A000FFFFFFFFFFFFFFFFFFFFFFFFFFFFFFFF5F
:1001B000FFFFFFFFFFFFFFFFFFFFFFFFFFFFFFFF4F
:1001C000FFFFFFFFFFFFFFFFFFFFFFFFFFFFFFFF3F
:1001D000FFFFFFFFFFFFFFFFFFFFFFFFFFFFFFFF2F
:1001E000FFFFFFFFFFFFFFFFFFFFFFFFFFFFFFFF1F
:1001F000FFFFFFFFFFFFFFFFFFFFFFFFFFFFFFFF0F
:1002000080300020211A0100AF5C0100F5190100C7
:10021000F5190100F5190100F519010000000000B1
:10022000000000000000000000000000FD160100BA
:10023000F519010000000000A9160100F5190100E0
:10024000AD170100AD170100AD170100AD1701009A
:10025000AD170100AD170100AD170100AD1701008A
:10026000AD170100AD170100AD170100AD1701007A
:10027000AD170100AD170100AD170100AD1701006A
:10028000AD170100AD170100AD170100AD1701005A
:10029000AD170100AD170100AD170100AD1701004A
:1002A000AD170100AD170100AD170100AD1701003A
:1002B000AD170100AD170100AD170100AD1701002A
:1002C000AD170100AD170100AD170100AD1701001A
:1002D000AD170100AD170100AD170100AD1701000A
:1002E000AD170100AD170100AD170100AD170100FA
:1002F000AD170100AD170100AD170100AD170100EA
:1003000053B94AB9002908BF00281CBF4FF0FF317C
:100310004FF0FF3000F00CB8ADF1080C6DE904CEE1
:1003200000F008F8DDF804E0DDE9022304B07047CE
:10033000704700BF2DE9F04F07468C460846099EDE
:1003400015463C461946002B40F0C6808242B2FA60
:1003500082F746D94FB1C7F1200E24FA0EFE00FAFB
:1003600007F3BD404EEA030CBC404FEA15481FFAA4
:1003700085FEBCFBF8F9220C08FB19C309FB0EFA39
:1003800042EA03439A4528D9EB1809F1FF3004D219
:100390009A4502D9A9F102002B44A3EB0A03A4B2A7
:1003A000B3FBF8F208FB123302FB0EFE44EA0344EF
:1003B000A64514D92C1902F1FF3303D2A64501D961
:1003C000931E2C44A4EB0E0443EA00401EB1FC40F3
:1003D000002334607360BDE8F08F4846DDE71346C4
:1003E000F0E702B9FFDE87BB831A01214FEA154E01
:1003F000AAB2B3FBFEFC200C0EFB1C330CFB02F874
:1004000040EA0343984563D9EB180CF1FF3004D25E
:10041000984502D9ACF102002B44A3EB0803A4B227
:10042000B3FBFEFC0EFB1C330CFB02F244EA03445C
:10043000A2424FD92C190CF1FF3304D2A24202D9A7
:10044000ACF102032C44A41ABEE7C7F1200C20FA39
:100450000CF800FA07F324FA0CFCBD404CEA030246
:100460004FEA154EABB2B8FBFEFC110C0EFB1C8024
:100470000CFB03F941EA0040814504FA07F423D953
:1004800028180CF1FF3104D2814502D9ACF10201E8
:100490002844A0EB090092B2B0FBFEFC0EFB1C004E
:1004A0000CFB03F842EA004398450FD9EB180CF116
:1004B000FF3204D2984502D9ACF102022B44A3EBDF
:1004C000080342EA014191E76146E2E76246F6E746
:1004D0006046A2E76346B6E7834205D90EB1C6E996
:1004E00000700021084676E7B3FA83F181B98342B0
:1004F00001D3BA420AD8BC1A60EB030301209C4620
:10050000002E68D0C6E9004C002164E70846F7E7F2
:10051000C1F1200C8B4022FA0CF41C4302FA01F5C5
:1005200000FA01F327FA0CF220FA0CFB4FEA144907
:100530001343BBFBF9F81FFA84FE09FB18BB1A0C26
:1005400008FB0EFA42EA0B42924507FA01F73ED940
:10055000A21808F1FF3004D2924502D9A8F1020096
:100560002244A2EB0A029BB2B2FBF9F809FB182263
:1005700008FB0EFE43EA024296452AD9A21808F16A
:10058000FF3304D2964502D9A8F10203224443EA7C
:100590000040A0FB0593A2EB0E029A42CE4698467D
:1005A00002D306D14F4504D2B9EB050E63EB040824
:1005B000013886B1B7EB0E0362EB080707FA0CFCB3
:1005C000CB404CEA0303CF40C6E900379CE74046E6
:1005D000C7E74346DBE73146FDE600000E4B10B5AA
:1005E00001241C7006F008FA4FF47A73A0FB030292
:1005F00003FB0122C00B40EA42420849084805F0CB
:1006000077F9084B1979186804FA01F18368BDE895
:1006100010405B69184700BF3C0C002012700100BD
:10062000187001000000002070B53F4C204606F015
:1006300068F828B921683D48BDE8704005F058B910
:100640004FF480313A4805F01DF9014630B1226877
:1006500038480B23BDE8704005F04AB92369A66805
:100660001B68B56913F4006F4FF00B010CBF4FF01E
:1006700080634FF000734FF0A0722046A8472568B2
:10068000014618B12C480B232A46E3E72B492C4B93
:100690004B604FF400638B60F36913B10122204675
:1006A0009847284C28480B22294605F021F9206854
:1006B00050B106F026F823680546D8B901461A68F5
:1006C000224805F015F925602148224C224D05F0FD
:1006D0000FF92378002BFCD02048294605F008F9B3
:1006E000012005F057FB10B11D4805F001F900236A
:1006F0002370EEE7002BE7D04FF40031204605F0E1
:10070000C1F82379014638B122681648126805F00D
:10071000EFF800232360D7E72168134809681A46D9
:1007200005F0E6F8D0E700BFB06A010039700100BB
:10073000F86C01005F700100887001004803002020
:10074000DD05010000000020BE700100DA7001002C
:100750005A7101003C0C0020127001006C71010004
:10076000C07101000D71010041710100014B1B6856
:10077000184700BF08000020014B1860704700BFF9
:100780000800002007B50B460021024600910348EF
:1007900000F0E6F803B05DF804FB00BF6D07010050
:1007A0002DE9F84FB0F8189019F008080446934660
:1007B0000DD001290CBF49F0100949F02009A0F81B
:1007C00018908BF31188BFF36F8FBDE8F88F09F095
:1007D0000709022907D1204605F097F80028F0D034
:1007E0000128238B4ED16769218B002F15DA2568EC
:1007F00021F00701C4E9008841F0010121830026AE
:10080000218B01F0070ACA4502D0A368002B5AD1F8
:100810000DB9002E71D0002356E001F007035A1FD6
:10082000012A1ED821F00701062B256889B2C4E9E8
:1008300000880AD13DB1638B2A46126801339BB20E
:10084000002AFAD1638341F002012183204605F09A
:100850005CF806460028D3D0238B43F02003238383
:10086000CDE7042B0CD121F0070189B2218320466A
:1008700005F04BF805460028C1D041F02001218346
:100880000025BCE7032809D1226923F00703166875
:1008900043F00603238300252F46B1E7042806D141
:1008A000226923F00703566843F00403F2E70528A2
:1008B00006D1226923F00703966843F00503E9E7B0
:1008C00000252E46E8E7012341F0080121838BF340
:1008D0001188BFF36F8FFBB985BB16B11F49204646
:1008E000B0474FF02003EFF3118B83F31288BFF36F
:1008F0006F8F238B23F008032383238BDA0625D500
:1009000023F0100323830121B4F8189009F007099C
:1009100000297FF45EAF54E7A1680029DCD0D1F84C
:100920000090D1F804B03B4652462046D847B9F172
:10093000000FD1D04946D9F80090F2E729463B464E
:10094000524620462D6804F0FCFFC5E713F0200155
:100950001EBF23F0200323830221D5E76F59010036
:100960002DE9F04F91B08B46029092461C4600252F
:100970009AF8000008B9284663E325280AF1010720
:1009800007D0029B594698470028C0F25A83013588
:1009900012E2182200210AA805F0DEF99AF80130C7
:1009A000252B78D0002210469646944616463946A6
:1009B00017F8013B2B2B00F09D8000F29480202B38
:1009C00000F09B80232B00F09B802EB19DF83060BF
:1009D00046F004068DF83060BCF1000F05D09DF89C
:1009E000306046F008068DF83060BEF1000F05D08B
:1009F0009DF8306046F010068DF8306028B19DF803
:100A0000300040F020008DF830002AB19DF83020F1
:100A100042F040028DF830209DF8302002F0440072
:100A2000442803D16FF386128DF830209DF83020D2
:100A30002A2B42F080028DF830207BD19DF83120A6
:100A400042F001024B1C8DF831201A782E2A9DF8B5
:100A500031200CBF0121002161F341028DF83120CA
:100A600074D15A782A2A6AD0013300210A261846FE
:100A700010F8012BA2F13007092F40F28E809DF86B
:100A800030200E91C2F3400040EAD17161F341027F
:100A90008DF830205AE00AF102078DF833309DF8C6
:100AA0003130D90740F1498154F8049BB9F1000F66
:100AB00007DA9DF8302042F004028DF83020C9F1A9
:100AC00000095A0740F1428154F8048BB8F1000F35
:100AD00080F241819DF831306FF341038DF8313060
:100AE0004FF0FF3837E12D2B0CD0302B7FF46DAF5A
:100AF00001225CE74FF0010C59E74FF0010E56E779
:100B0000012054E7012652E70CFB0202303A33463B
:100B10001E4616F8010BA0F13007092FF4D99942AF
:100B200093D09DF830100D92D20F62F341018DF8F1
:100B300030108AE70B4600224FF00A0CE8E79DF8D8
:100B4000312042F004028DF8312002331F4617F89D
:100B5000012B6C2A41D025D8682A2BD06A2A46D08E
:100B60004C2A4CD01F4617F8012B9DF831308DF8D8
:100B70003320782A00F2D980572A4DD8412A03D051
:100B8000453A022A00F2D1809DF83230042262F305
:100B900002038DF8323001239EE006FB012130393B
:100BA000034664E7742A26D07A2ADBD19DF83130D7
:100BB00006220DE05A78682A9DF8312006D10121DD
:100BC00061F3C6028DF831209F1CCCE71346022248
:100BD00062F3C6038DF83130C5E75A786C2A9DF868
:100BE000312001D10421EBE713460322F0E79DF801
:100BF00031300522ECE79DF831300722E8E7BDF8F7
:100C0000303023F4F04323F0020343F4804343F0F5
:100C10000203ADF83030A6E7A2F15801202900F216
:100C2000848001A050F821F0ED0C01002B0D010093
:100C30002B0D01002B0D01002B0D01002B0D0100D0
:100C40002B0D01002B0D01002B0D0100890B010064
:100C50002B0D0100ED0C0100AD0C0100890B010012
:100C6000890B0100890B01002B0D0100AD0C010067
:100C70002B0D01002B0D01002B0D01002B0D010090
:100C8000F50C0100ED0C0100110D01002B0D010010
:100C90002B0D0100110D01002B0D0100ED0C0100C9
:100CA0002B0D01002B0D0100ED0C01009DF8321001
:100CB000012003F0780360F30201402B8DF832101D
:100CC00002BF9DF8301041F001018DF83010632A09
:100CD00031D1003B18BF01239DF83020C2F3400101
:100CE0000B4363F341028DF83020D8E69DF83210B3
:100CF0000220DEE79DF8322003F07803A3F14000E4
:100D0000032161F3020243428DF832204341E3E7BD
:100D10009DF83220032113F0780F61F302028DF861
:100D2000322014BF01230023D6E79DF8303043F072
:100D300001038DF830300023CEE79DF93020002AE2
:100D4000B4BFDDF834904FF0FF39BAE69B077FF56A
:100D5000C7AEDDF838809DF831100023CDE90D33A2
:100D60009DF8323003F00703012BC1F3C30135D1E5
:100D7000CB1E042B22D8DFE803F003090921210050
:100D800054F8043BDA17CDE90A3206E0073424F0C0
:100D90000704F4E80223CDE90A239DF8303013F06C
:100DA000030659D002983B465246594604F00DFFBF
:100DB0000028C0F246810544BA46D9E554F8043B00
:100DC00001294FEAE372CDE90A3202D19DF92830B8
:100DD000D8E70229E1D1BDF92830D3E7022B29D188
:100DE000CB1E042B13D8DFE803F0030A0A1212000B
:100DF00022680A920023201D0B930446CDE7E01DD4
:100E000020F00700F0E80223CDE90A23F5E754F8C3
:100E1000043B0A9301294FF000030B9305D19DF881
:100E200028300A9300230B93B7E70229B5D1BDF808
:100E30002830F6E7042B09D1E31D23F0070303F163
:100E40000804D3E90023CDE90A23A6E7032B04BF56
:100E500054F8043B0A93A0E79DF833007828ABD8F8
:100E6000622822D825283FF48CAD5828A4D10DF152
:100E700026030093DDE90A0104AB0CAA04F05FFE2F
:100E80008246B8F1000F0DF126000CDB9DF83020F2
:100E9000A0EB0A036FF3861298458DF8302002D933
:100EA000A8EB03030D9380463EE06338152883D8F2
:100EB00001A252F820F000BF390F01009D0F010080
:100EC000B90D0100B90D0100B90D0100B90D010006
:100ED0009D0F0100B90D0100B90D0100B90D010010
:100EE000B90D0100F70F0100C50F0100C90F010086
:100EF000B90D0100B90D0100110F0100B90D01007C
:100F0000C50F0100B90D0100B90D0100C50F0100A9
:100F1000B8F1000FDDF828A00ADB4146504604F086
:100F2000DEFE0AEB00080026BAF1000F0CD143E701
:100F3000504604F0CDFEF4E70A9B8DF810300026F1
:100F40000DF1100A0DF11108A8EB0A0306B10133E7
:100F50009DF83220D00668D5023352060D9948BF5D
:100F60000E9A0B4448BF9B18B9F1000F76DD9DF82F
:100F70003020A9EB0309C2F38003039353076DD418
:100F8000500661D546B1029B594630469847002825
:100F900057DB039B01351E46302356E01E070FD456
:100FA00013F0100618BF2026DDE90A23002BBFF638
:100FB0005EAF524263EB4303CDE90A232D2656E789
:100FC0002B26F1E7002652E70A9840B30DF12603DD
:100FD00000930CAA04AB002104F0B1FDBDF832303F
:100FE00003F0EF0343F4F04343F010038246ADF8FF
:100FF0003230002645E70A9B07293FF6DDAEDFE8E1
:1010000001F00C04060C08080C0C1D70D4E61D80C1
:10101000D2E6EA17C3E90052CEE61D60CCE6DFF85F
:10102000C8A006460AF105088EE7110748BF01333C
:1010300093E7184603935946029B98470028039B61
:1010400004DA11B0BDE8F08F20234D444A46002A4F
:10105000A5EB090109F1FF39EBDC0D4636B1029B26
:101060005946304698470028EBDB01359DF8323071
:10107000D90601D41A0706D5029B59463020984755
:101080000028DEDB01359DF83230DB0607D59DF800
:101090003300029B594698470028D2DB01350D9E4C
:1010A0002E44731B002B16DC0298434652465946C9
:1010B00004F08BFD0028C4DB0544A944A9EB05031B
:1010C000002B7FF779AE029B5946202098470028D5
:1010D000B7DB0135F2E7029B5946302098470028DC
:1010E000AFDB0135DDE700BFE071010008B54FF06F
:1010F0002002EFF3118382F31288BFF36F8F00F0A9
:101100000FFE034804F0F4FB00F032FAFCE700BFE6
:10111000E671010002F05EB9114B1B6870B50C4618
:101120008BB1104A116800228A4202DB6FF0010085
:1011300070BD1D4613F8106B864207D00132F3E7ED
:1011400025600020F4E76FF00C00F1E7E86818B1C3
:1011500005F0D7FA0028F3D16FF01200E8E700BFDE
:1011600010000020706D01002DE9F84305464FF096
:101170002003EFF3118683F31288BFF36F8F0E4BBA
:101180001C689CB10D4FDFF838804FF00C09D4E992
:101190000132002D08BF13462BB198F8142009FB2B
:1011A00002F2B85C98472468002CF0D186F31188CD
:1011B000BFF36F8FBDE8F88354030020680300205D
:1011C0002C0A002038B51A4B1C7DBFF35B8F04F04E
:1011D0001F0301229A40174B6109D04303EB81039F
:1011E00053E8001F01EA000543E8005CBCF1000F72
:1011F000F6D1BFF35B8F114213D00F4B0F4D8BB164
:101200000C236343EA18E85C517804F0BDFD00202C
:10121000FFF7AAFF0C235C432A1900232B51C2E9D4
:10122000013338BD83F31188BFF36F8FEFE700BF41
:101230002C0A002074030020895D0100680300204F
:101240002DE9F041334B07461D7D4FF02003EFF3AE
:10125000118883F31288BFF36F8F0C242E4B2F4E0F
:101260006C431A19195D002949D007CA06EB040C12
:101270008CE8070000221A5588F31188BFF36F8F9E
:101280000C236B43F218F05CB8B37B1C0FD0D2F880
:1012900008C02348234A4FF4004400210023ECFBFC
:1012A0000401FFF72DF80121381A05F087FB03F040
:1012B0009DFC0120FFF758FFBFF35B8F05F01F0275
:1012C00001219140184A6B0902EB830353E8002F78
:1012D0000A4343E800200028F8D1BFF35B8F134B8B
:1012E00033B10C2068433318305C597804F040FD6A
:1012F000FFF768FF03F04AFE0120BDE8F0810146D8
:10130000284600F015F80028B6D007C8344484E811
:101310000700B1E72C0A00205C03002068030020CE
:101320003F420F0040420F0074030020715D010036
:101330002DE9F04F85B00E4603A900F041F8039B5C
:1013400001931C4BDFF87080D3F800A0441E24B238
:101350004FF400474FF0000B631C04D100252846D2
:1013600005B0BDE8F08F019B144A04EB440503EB84
:101370008505C44668685946E0FB07C100236046FE
:10138000FEF7BEFF8146A8680C4AC4465946E0FBFA
:1013900007C100236046FEF7B3FFBAF1FF3F01D05B
:1013A000824504D9721CDAD04844B042D7D9013CF6
:1013B00024B2D1E70C0000203F420F0040420F0052
:1013C00008B9024B0B600020704700BF006D0100A0
:1013D000014804F0CBB800BF746D010010B504469D
:1013E00018B90D4B0D485B689847616808290DD006
:1013F00031F004030AD011F0020108D00848214658
:1014000005F0C3F9002323600023636010BD20684A
:10141000142204F0A1FCF7E73C0100200F72010048
:101420007803002008B508B34368042B10D10122CB
:101430000368BFF35B8F53E8001F002903D143E823
:1014400000200028F7D1BFF35B8F0BD1002008BD2F
:1014500053B100684FF0FF324FF0FF3303F072FAE0
:101460000028F3D00348F2E70348F0E76FF4E040C8
:10147000EDE700BFE98FFFFFEA8FFFFF08B5D0B1AE
:101480004368042B11D100220368BFF35B8F53E83C
:10149000001F012903D143E800200028F7D1BFF342
:1014A0005B8F074808BF104608BD3BB1006803F0DA
:1014B000C1FA0020F8E76FF4E040F5E70148F3E7F0
:1014C000E98FFFFFEA8FFFFF10B5044618B9164BEE
:1014D00016485B6898476368042B23D0082B21D0FB
:1014E000CBB92368BBB912484FF0FF324FF0FF333E
:1014F000214603F04FF908B923681BB90A4B0D4880
:101500005B68984720681422002104F025FC63687A
:1015100043F002036360206805F075F9636843F0E7
:101520000103636010BD00BF3C0100200F72010089
:10153000780300203572010008B5064906484023AB
:10154000142205F007F9BDE808400449044804F0F6
:101550006DB800BF94030020780300208C6D01005B
:101560007C6D0100014910220A60704710ED00E017
:1015700072B6404080F31188BFF36F8FBFF34F8F77
:1015800030BF62B6BFF36F8F704700BF72B649407D
:1015900081F3118820BF80F3118862B6704700BFC5
:1015A00043B2002B08DB012200F01F0002FA00F01A
:1015B0005B09024A42F82300704700BF00E100E0E7
:1015C00043B2002B0DDB01225B0900F01F0002FA81
:1015D00000F02033034A42F82300BFF34F8FBFF3DC
:1015E0006F8F704700E100E0054B420900F01F00DB
:1015F00053F82220012303FA00F01040704700BF87
:1016000000E100E043B2002BA8BF03F1604301F109
:101610000101B8BF064B4FEA4111ACBF03F561436E
:1016200000F00F00C9B2B4BF195483F8001370471B
:1016300014ED00E030BFFFF7FDBF00BF0B4A08B557
:101640000B4B22F07F029A60BFF34F8FBFF36F8F77
:10165000D3F8882022F47002C3F8882002F0C8FF73
:1016600003F0C4FD00F0D0F903F006F80002010019
:1016700000ED00E0094A0A49936809689967094939
:1016800058674B6843F080534B60002383F3118805
:10169000BFF36F8F9368986F704700BF2C0A0020CC
:1016A000606F010000ED00E012498A684FF03000E1
:1016B0001044EFF3098C80E8F01F202080F312889B
:1016C000BFF36F8F0C4F4FF00066CA698A603E60AF
:1016D000506F0023536780F3118804B5104600F063
:1016E0002FFABDE8044002F1300090E8F01F8CF3BF
:1016F000098870472C0A002004ED00E01EF0040F5A
:101700000CBFEFF30880EFF30980816911F8021C28
:101710000229FFD001B504F0C2FA01BD42F8203C15
:10172000009B42F81C3C0A49019B42F8183C029B72
:1017300042F8143C21F001014FF0807342F8043C60
:1017400042F8081C0023203A02654367704700BF37
:10175000615A0100094A0346906870B113F1160FEF
:10176000406E05D0A0F140029A4205D8834203D2D0
:10177000814228BF00207047002070472C0A0020BB
:1017800008B5094B98600D46144600F0D9F920467B
:1017900085F30988002163B681F31188BFF36F8F49
:1017A0000022002304F05CF92C0A002001B572B677
:1017B0000B4A906900281EBF0021916105F014F8C2
:1017C00062B6EFF30580A0F110004FEAC0000549B2
:1017D000014409C99847BDE8014003490847000092
:1017E0002C0A0020406B0100ED170100044B9968A2
:1017F000D869884203D003494FF080520A6070478D
:101800002C0A002004ED00E038B51C4B14469A6AFF
:101810009A6A9A6A0546900720D5586B9A6A12060A
:101820001CD519B19A6A22F080029A629A6A9A6A61
:101830009A6AD20615D49B6A9B0712D400200F4BDC
:101840009A6A920642BF5A6A22F400525A629A6A0F
:1018500042F0FF029A620023237038BD6FF015003A
:10186000E4E7064B5B681905E8D52946FFF772FFE8
:101870000028E3D080F309880220E0E700ED00E0D3
:101880000D4B9A6A9A6A9A6A920508D59A6B9A6A77
:10189000120404D518B19A6A22F400429A62064BE7
:1018A0009A6A9A6AD20558BF9A6A9A6A002042F4E4
:1018B0007F429A620870704700ED00E0F0B5474B38
:1018C0005B688BB00D46C3F30803002686F31188CE
:1018D000BFF36F8F02F07F41B1F17F4F11D102F062
:1018E0000C0108290DD0120701D40546012600225B
:1018F000033B8DF80720032B54D8DFE803F0045591
:10190000595D3546F3E7354BDC6A14F0020449D1E2
:10191000DA6A002A16DBDC6A14F0804412D0AA6965
:1019200032F8021C4DF6027291420AD09A6AD2B283
:101930000AB30DF1070201212846FFF765FF0446AF
:1019400000E02C689DF807309BB92022294602A8A8
:1019500004F0F7F9099B002E3BD0C3F3080222B92B
:101960006FEA53236FEA4323099302A9204604F048
:1019700094F90BB0F0BD9F6A17F47F4705D00DF1C5
:1019800007010120FFF77CFFD9E79C6A14490C404E
:10199000D8D09A6A9A6A9A6A9A6A9A6A9A6A9A6A83
:1019A0000A439A620024CDE70DF107020021C3E744
:1019B0000DF107010020E5E7084B9A6A9A6A9A6AD6
:1019C0009A6A9A6A9A6A9A6A6FEA02426FEA1242BD
:1019D000E7E723F4FF7323F00103C5E700ED00E020
:1019E0000000FFFF024A536943F010035361704740
:1019F00000ED00E0EFF30880EFF3098101B57246D6
:101A0000FFF75CFF01BD00BF044800232021C2187E
:101A10000133302B82F80013F9D1704700E100E068
:101A2000002080F31488BFF36F8FFFF773FB002053
:101A30000D490860BFF34F8F0C4880F3088800F011
:101A40002BF8202080F3118809484FF404614018D6
:101A500080F30988EFF314800221084380F314888F
:101A6000BFF36F8FFFF7EAFD94ED00E080300020B8
:101A7000403200200749D1F890200023C2F307220A
:101A80001846934200D17047C1F89830C1F8A000C1
:101A90000133F6E700ED00E008B572B6002383F3EA
:101AA0001388FFF7E7FF144B4FF0FF32C3F8802095
:101AB000C3F88420C3F88820C3F88C20C3F8902092
:101AC000C3F89420C3F89820C3F89C20C3F8802161
:101AD000C3F88421C3F88821C3F88C21C3F890216E
:101AE000C3F89421C3F89821C3F89C2162B6BFF3D0
:101AF0004F8FBFF36F8F08BD00E100E0084B9B687C
:101B000083420BD1EFF3058343B1064B5A6842F091
:101B100080525A605A6A22F400425A6203F006BBAD
:101B20002C0A002000ED00E0024B034A034801218B
:101B300000F06EB80000042000000020A06D01003D
:101B4000426E054B403A1A60044A4021C3E9011233
:101B50001846012100F066B89408002000000B151B
:101B6000F0B51F4F00268E4201DB1046F0BD4468E1
:101B70009CB353B104F1FF3C14EA0C0F18D11F2C95
:101B800016D905681CEA050F12D1202C0568D0F87B
:101B900008C0D2B20FD9B4F1004F0ED8013CB4FA4C
:101BA00084F4C4F11F046400072A4CEA040406D933
:101BB0006FF01502D9E70824F6E73E24F4E725F094
:101BC0001F05154345F0100544F00104C7F898209F
:101BD000C7F89C500132C7F8A04001360C30C2E76C
:101BE00000ED00E0044B0522C3F89420BFF34F8FB3
:101BF000BFF36F8F704700BF00ED00E0BFF35F8F52
:101C0000024B0022C3F89420704700BF00ED00E0B3
:101C100010B5034C01232278FFF7A2FF207010BDFE
:101C20003D0C002008B5094A00231278FFF798FF01
:101C300010F1160F02D0064A072800DD08BDC2F8D1
:101C40009800C2F8A0300130F6E700BF3D0C00203C
:101C500000ED00E014490868082810B521D8FFF706
:101C6000CDFF124C49680022904201F10C0105D1D0
:101C70000F4B1870FFF7B6FF002010BDC4F8982076
:101C800051F80C3C23F01F03134343F01003C4F836
:101C90009C3051F8043C43F00103C4F8A0300132F9
:101CA000E2E74FF0FF30E8E7AC6D010000ED00E047
:101CB0003D0C0020014B1860704700BF340000202D
:101CC00010B54FF02003EFF3118083F31288BFF3B8
:101CD0006F8F114A0123C2F840354FF080424FF018
:101CE0008051C2F87835D1F83041082C08D1D1F8AC
:101CF0003411052904D8094C615C09B1C2F83836A1
:101D00004FF080430122C3F8802580F31188BFF390
:101D10006F8F002010BD00BF00E001407172010014
:101D20004FF08043C0B2C3F81C05BFF34F8F054985
:101D3000054BCA6802F4E0621343CB60BFF34F8FD8
:101D400000BFFDE700ED00E00400FA0520B1034B01
:101D5000800143F001031847704700BFF06C010099
:101D6000084B70B5C31A0D4607499B1004465943EA
:101D70000648402204F032F82B4601462046BDE8D2
:101D800070401847B0080020B76DDBB6986A0100B4
:101D900073B50C4C0C4A4023041B00930D460B46B4
:101DA0000A49A41061430646094804F043F8011E9D
:101DB00005DA30462B4602B0BDE87040184702B045
:101DC00070BD00BFB0080020A55E0100B76DDBB696
:101DD000986A0100002270B5012104461046FFF701
:101DE00011FC0F4801F07CFC0E4B984215D104F019
:101DF000A5FB26690C49304603F0D6FD00280BDB15
:101E0000246909490125356404F11C0003F0CCFD67
:101E1000002801DBE564002070BD6FF00400FBE7E3
:101E2000611E01000000AD0BF86D010001460C239E
:101E300009484B4370B5C418D4E90E56002240330C
:101E4000A263184403F0B7FF2DB132462B46034876
:101E5000BDE87040184770BDB0080020986A0100C6
:101E600010B1012804D07047034B1B6C5B0701D1F4
:101E7000FFF7DCBF704700BFB008002008B54FF087
:101E80002003EFF3118183F31288BFF36F8F124A9F
:101E9000136843F0020013F0010310600CD04FF000
:101EA0008042D2F80C34D2F80C2413F0010303D092
:101EB0000A4803F080FF012381F31188BFF36F8F7D
:101EC00023B1BDE808400020FFF7B0BFBDE80840DF
:101ED000012004F040BB00BF00090020F0080020F2
:101EE0001FB500220123CDE90223094ACDF800D015
:101EF0006B46CDF804D003F0CEFF002805DB4FF48D
:101F000080420023684602F0F1FD05B05DF804FB55
:101F1000C35E0100094BBFF35B8F53E8002F22F033
:101F2000020143E800100028F7D1BFF35B8FD3070D
:101F300002D4012004F04CBB704700BF0009002010
:101F40002DE9F0413949BFF35B8F0746012251E883
:101F5000003F41E800200028F9D1BFF35B8F33B97F
:101F6000334934484B60CB608A6003F030FD7B1E00
:101F7000012B2FD8012F07D14FF08043D3F81C3409
:101F800003F00303012B25D004F028FC044618B904
:101F9000294B1B78002B41D14FF02003EFF3118622
:101FA00083F31288BFF36F8F0124DFF890804FF026
:101FB0008045D5F81834D5F81824D2030CD503F091
:101FC0000303012B01D0012F06D10CB386F3118836
:101FD000BFF36F8FBDE8F081ACB13046FFF7D6FAA2
:101FE000D5F81835002BE4D1D5F80421002AE0D02B
:101FF000C5F80431D5F804310123C5F81835C8F8FF
:102000008031AB60D5E70021212003F06FF8E7E7CE
:102010004FF080430222C3F80423DBE74FF08043F4
:102020000222C3F808230646BFE700BF04090020C8
:10203000A0080020CC0800205410002000E100E09F
:1020400008B5084B0848186004F05BFB38B1074836
:10205000FFF730FE0548FEF78FFB002008BD6FF04C
:102060001200FBE708090020F86A01007120010056
:102070000A2838B5074D044604D1286883680D2125
:102080005B68984728688368E1B25B689847204698
:1020900038BD00BF0809002030B54068047B01F05E
:1020A0001F05B2F5001F45EA441585B04FF0000446
:1020B00005D1284601F096FD002005B030BDB2F5EF
:1020C000800FCDE9024434D1B3F1007F0CBF04236B
:1020D00005238DF80830836823FA01F1C9071AD463
:1020E000B2F1A07F17D16A09012A05F01F031C4A2B
:1020F00003F5E07318BF4FF0A04252F82330DB071E
:1021000009D40DF107042146284601F0CFFC154BF8
:10211000984219D003940023194602AA284601F0D8
:102120009FFB114B984218D10121284601F012FD66
:10213000C2E7B3F1C06F05D0B3F1007F0CBF02233B
:102140000123C6E70323C4E7204601F0FDFC064B4C
:102150009842DFD06FF00B00AFE76FF01500ACE7EF
:10216000000300500400AD0B0000AD0B10B501F0F2
:10217000DBFC044668B901F0AFFC084B98420AD179
:102180000748214601F08CFC224605210620FFF776
:1021900039FA002010BD6FF00400FBE70000AD0B22
:1021A000A5210100420970B5034602D0012A15D0CD
:1021B00070BD0B4E326951680029F9D003F01F033E
:1021C00001250C689D408A682A4002D04B68304641
:1021D0009847002CECD021462468F4E7014EE9E74B
:1021E000B06A0100C86A01002DE9F043D0F804800C
:1021F00098F80C3001F01F0685B046EA43160F46EA
:1022000030460DF10301144601F050FC14F4403542
:1022100081460BD1304601F00DFD434B994503D16A
:102220009DF8030001F08AFC002057E000231946C6
:1022300002AA3046CDE9023301F012FB3A4B984234
:1022400002D06FF0150049E0814503D19DF80300ED
:1022500001F074FCA50354D540F206332340B3F5D6
:10226000837F3ED00CD8062B15D004D89BB1022B0F
:10227000E7D104230FE0B3F5807FE2D101230AE028
:1022800040F2022293422ED0B3F5407F2DD0B3F519
:10229000007FD6D102238DF8043084F48033C3F359
:1022A0000043E0068DF8053054BFC4F34013032308
:1022B00021038DF806301AD5D8F80430012101FA2F
:1022C00007F7C3F80875002201A9304601F076FB34
:1022D000154B984214BF6FF01500002005B0BDE803
:1022E000F0830723D7E70523D5E70323D3E762036A
:1022F00041BFD8F80430012101FA07F7C3F80C7583
:10230000E1E7E3064FF0000354BFC4F34014032495
:102310001A4601A930468DF8044001F0A1FA024B9B
:10232000984281D08DE700BF0000AD0B00F17440F2
:1023300000F5A6000A289ABF024B33F910006FF08F
:102340000F007047EC6F0100024B0B60012313601C
:10235000704700BF746E0100004870477C6E01003A
:10236000054B994206D14FF0FF324FF0FF3320303A
:1023700002F0BCBB704700BF0000AD0B70B5056933
:102380000F4E0446284603F0FDFD05F1300003F032
:10239000F1FD33788BB92A460A49606801F0B0FE36
:1023A000FFF7C4FFB0FA80F35B090546337020697C
:1023B000103003F0DFFD284670BD0025F7E700BFB1
:1023C0003E0C0020795F010038B50446006903F037
:1023D000D9FD25690022002305F1300002F086FBBB
:1023E000AB6B4BB90A4D01F0B3FFA8420AD101F023
:1023F000D5FF084B00221A702069BDE83840103024
:1024000003F0B8BD002140F2676002F06FFEEAE71A
:102410000000AD0B3E0C00202DE9F04F074685B0C3
:1024200088461C461646002A00F09A80002B00F0D1
:10243000958000294268C0F293809269CB1893423C
:1024400000F28E80FFF79AFF054600287DD1C8F183
:10245000000505F00305386903F094FDA54228BF87
:102460002546734203F0030306F0030B58BFC3F184
:10247000000BCBF1000B0BF0030BA34528BFA346C9
:10248000631BA4EB0B0424F0030423F00309A14510
:10249000C8BFA14603F0030AC8BFA3EB040AB9F101
:1024A000000F18D006EB0B0308EB0502494618464F
:1024B000019304F017F9044601463869FFF750FF0D
:1024C000294A944239D15D4505D0019B4A461946B7
:1024D000701903F01EFCB5B1C5F1040BA8EB0B029B
:1024E000042102A804F0FEF8044601463869FFF70B
:1024F00037FF1D4B9C4220D102AB2A4603EB0B0158
:10250000304603F01EFCBAF1000F25D0082108EB7D
:1025100005024A440DEB010004F0E4F804460146CC
:102520003869FFF71DFF104B9C4206D109EB0500EF
:10253000524602A9304403F004FC3869103003F01D
:1025400019FD2046FFF7F2FE05463846FFF73CFF2F
:10255000284605B0BDE8F08F034CEEE71D46F7E7CF
:102560006FF01505F4E700BF0000AD0B30B5436810
:102570001D6A87B0044603AA0021284603F02EFEF8
:10258000002851DB039B2A681979186803F043FE81
:10259000002849DB002201212920FFF733F8656874
:1025A00022693249284601F0ABFDFFF7BFFE002843
:1025B0003ADBEB7A023B012B38D9AD7A033D012D92
:1025C0008CBF00250125204603F03BFD00282BDBB6
:1025D000C2B2C0F38010854201AD29D12046FFF779
:1025E000F3FE00230322CDE90223049320469F2318
:1025F0000595CDF804D08DF80C30FFF7BFFE0546E9
:1026000028B9024603A9204603F0C9FC0546204626
:10261000FFF7DAFE35B96068032269461C3003F023
:1026200067FB08B16FF0120007B030BD0125CAE7A3
:10263000002382F04002ADF8003003A98DF800209D
:1026400020460122CDE90223CDF804D005938DF870
:102650000C20049503F0A3FC0028E5D1204603F0EC
:10266000F0FC0028E0DBC307F8D4B7E7795F01008E
:102670002DE9F84F0E1ED0F80490804617466DDB0A
:10268000D9F81830B2189A4268D8002F66D046EAB6
:102690000703C3F30B03002B60D1FFF76FFE044663
:1026A00098BBD8F8100003F074FC2146404603F0B4
:1026B000B3FC044628BBD8F81000DFF8A8A003F04C
:1026C00061FCD9F81830BB4225D104F00EF8BB46A6
:1026D0000546D8F810002946FFF742FE224B9D42DE
:1026E00037D1B7EB0B075E44EBD1D8F810001030B0
:1026F00003F040FC0121404603F08EFC002C08BF93
:102700000446D8F8100003F035FC4046FFF75CFEA5
:102710002046BDE8F88FB7F5803F09D3B3B23BB987
:102720003146012001F08EFE4FF4803B0546D0E794
:10273000B7F5805F09D3C6F30B0030B9314601F01D
:1027400081FE4FF4805B0546C3E74FF0000B554612
:10275000BFE72846FFF7EAFD0446C6E76FF0150419
:10276000D6E700BF0400AD0B0000AD0B2DE9F34729
:1027700005460F461E469046002A00F08580002B35
:1027800000F08280042B01D99A077DD1BB077BD151
:10279000002F6A6878DB9269BB19934274D8284687
:1027A000FFF7ECFD0446002863D1286903F0F1FB34
:1027B0002146284603F030FC0446286903F0E2FB7A
:1027C000002C43D1032E1ED804213A460DEB010004
:1027D00003F088FF044601462869FFF7C1FD2C4B32
:1027E0009C4233D13246414601A803F0AAFA0421A3
:1027F0003A460DEB010003F072FF044601462869DA
:10280000FFF7AEFD22E008F06043B3F1005F37D080
:10281000DFF87CA0042EB14628BF4FF004094A46D9
:10282000414601A803F08DFA04213A460DEB010060
:1028300003F055FF044601462869FFF791FD544512
:1028400004D1B6EB0906C8444F44E3D128691030DF
:1028500003F090FB0121284603F0DEFB06462869C1
:1028600003F088FB002C14BF20463046FFF75EFDC6
:1028700004462846FFF7A8FD204602B0BDE8F087D1
:102880003A4631464046B6E76FF01504F4E700BF1C
:102890000000AD0B024B0B6001231360704700BFBB
:1028A0002409002000487047D06E010010B50122B5
:1028B00011460648064C03F0ADFF03F0FEFE206013
:1028C00003F0F7FE6060002010BD00BF2C0900205F
:1028D000240900200A48037883B14FF08042D2F8DF
:1028E0001015D2F8103501F01E0123F01F030B4321
:1028F00043F00103C2F8103500230370704700BF96
:102900003F0C00204FF08053D3F83031082B22D1F8
:102910004FF08042D2F8101511F001001CD0D2F80F
:10292000100501F01E0120F01F000843C2F8100539
:10293000D2F8080158B1D2F8103523F01F030B4329
:1029400043F00103C2F810356FF08B007047034B62
:1029500001221A7070470020704700BF3F0C002012
:10296000F8B50D46164603F0A4FE31460746284644
:1029700003F082FB48B3B5FBF7F307FB135323BB0C
:10298000B6FBF7F407FB1464FCB9B74218D84FF054
:10299000FF324FF0FF330E4802F0A8F803F089FE33
:1029A0000746FFF7AFFF044660B9284601F048FA32
:1029B000FFF790FFF61B3D44F3D1054802F076F88F
:1029C0002046F8BD6FF08B04F7E76FF01504F7E7CA
:1029D0002C090020F8B50D462846194616461C4617
:1029E00003F04AFB002847D0002C43D024484FF086
:1029F000FF324FF0FF3302F079F815F0030711D0E2
:102A0000C7F10407A74228BF2746FFF77BFF60BB3B
:102A1000314628463A4601F041FAFFF75BFF3D4454
:102A20003E44E41B2544032CA5EB040711D84CB10C
:102A3000FFF768FFC8B922463146384601F02EFA42
:102A4000FFF748FF0F4AD2F80034DB07FBD500241C
:102A50000DE0FFF757FF40B956F8041B384601F068
:102A60000FFA043CFFF736FFDDE76FF08B040448F4
:102A700002F01CF82046F8BD6FF01504FAE700BF1D
:102A80002C09002000E00140F0B54B79012B26D045
:102A9000032B21D110268B79032B1DD1CC790CB1BE
:102AA000012C19D10A7912B1022A15D10E220B6814
:102AB0004568B3F5164F2D6865D02DD8B3F5165F70
:102AC00064D016D8B3F5966F62D00AD8B3F5967F66
:102AD00061D0B3F5167F61D06FF0850052E000261B
:102AE000D9E7B3F5166F5CD0B3F5965FF4D1374BE9
:102AF0003CE0B3F5E14F57D007D8B3F5615F55D04F
:102B0000B3F5964FE8D1324B30E047F61227BB427F
:102B1000E2D14FF4000329E0B3F5613F48D013D868
:102B2000B3F5963F47D009D84DF6C027BB4244D0F5
:102B3000B3F5614FD0D14FF46B0317E0B3F5E13F2C
:102B4000CAD14FF0EB7311E0B3F5612F38D008D83C
:102B5000204FBB4237D0B3F5E12FBDD14FF0E86332
:102B600004E01D4FBB42B7D14FF080530069C5F858
:102B70002435031D03C934432243C5F86C2583E87B
:102B800003000020F0BD4FF41D03EFE7134BEDE70A
:102B90004FF49E23EAE74FF4A033E7E74FF41C33EA
:102BA000E4E74FF41D23E1E70D4BDFE70D4BDDE7D5
:102BB0004FF06C73DAE70C4BD8E74FF46503D5E7B9
:102BC0004FF07063D2E74FF08063CFE700B013009F
:102BD00000A04E0090D0030040420F00005027009C
:102BE00000C0750000F03A0000903A012DE9F7436B
:102BF000D0F804800669D8F80040D8F80C9000217D
:102C0000C4F800150746306001AA484603F0E6FA0A
:102C1000051E55DB019BD9F800201979186803F0CF
:102C2000FAFA051E4CDB311D3846FFF72DFF05462D
:102C3000002845D1D8F80430990719D506F11800B5
:102C400001F06EF9224B98423ED1307EC30003F171
:102C5000804303F5F83304F10C0204F59071C3F8D6
:102C60001015C3F814251B4A01238340C2F804350C
:102C70000823C4F8003598F8083053B9C4F8103167
:102C8000D4F810317369C4F834350123C4F83835E9
:102C90002360D8F804309A075CBF4FF48072C4F800
:102CA0000423DB0644BF4FF48003C4F804333369C4
:102CB000C4F844350023C4F848350123A360E36019
:102CC000284603B0BDE8F0836FF00405F8E700BFC5
:102CD0000000AD0B00F00140F8B5076904460D4651
:102CE00003F07CFD10B92D4B1B788BB94FF02003FE
:102CF000EFF3118683F31288BFF36F8F606831465C
:102D000003F004FA30BB86F31188BFF36F8FEDE751
:102D10006426606803F0FAF970B9012003F00CFC36
:102D2000013EF6D10021212002F0E0F9F0E786F320
:102D30001188BFF36F8FF5E74FF02003EFF3118693
:102D400083F31288BFF36F8F6068314603F0DEF9BA
:102D50000028ECD03B691D70626838691368C3F8BD
:102D600044050120C3F848050020C3F82001D3F82A
:102D70002041C3F858015268D3F85801D20641BF28
:102D80000822C3F800254FF48002C3F8042301226F
:102D90009A6081F31188BFF36F8FF8BD5410002043
:102DA00010B501238340114ABFF35B8FDC4352E827
:102DB000001F01EA040C42E800CEBEF1000FF6D17C
:102DC000BFF35B8F4FF4803202FA00F002F18042D1
:102DD00002F58052C2F80803BFF35F8FBFF36F8F15
:102DE0000B4214BF0120002010BD00BF400900208D
:102DF0001949F8B5044622F07F450868C1E9002367
:102E0000A5F50013101AB3F5400F22D2134B1B681F
:102E10001A0A1B065E19124B42F10007C3E900674C
:102E2000012602F0C1FAA30003F1804303F58833C1
:102E3000D3F84025AA420BD11EB94FF40002C3F8C3
:102E40004025084B4FF4803000FA04F4C3F84443A3
:102E5000F8BD0026E5E700BF380200204409002045
:102E6000200200200010014019B3BFF35B8F012343
:102E7000104A834052E8001F194342E8001CBCF18D
:102E8000000FF7D1BFF35B8F0B4A4FF480338340C1
:102E9000C2F80433094BBFF35B8F1B68BFF35B8F32
:102EA00023FA00F0C30742BF054B4FF40032C3F8CA
:102EB0000021704740090020001001403C0900201B
:102EC00000E100E00D4B1868010A0006BFF35F8FB8
:102ED0000B4BD3F80435181841F10001B3F5801FEE
:102EE0000AD2084BD3E90023904271EB030303D2CB
:102EF00010F1807041F10001704700BF44090020CB
:102F000000100140200200202DE9F04F85B0164648
:102F100098460546FFF744FF0090FFF7D3FFB04205
:102F200071EB080378D2464B301A68EB01019842E6
:102F300071F1000380F08180424B03EB0513D3E96C
:102F400002ABD84508BF564551D04FEA850909F173
:102F5000804905F1500709F58839BF004FF48031E9
:102F600001FA05F3BFB226F07F4207F180470193D3
:102F7000D9F84005344B07F588371446D3F80415C3
:102F8000401A20F07F4021F07F4C0128C9F840C54D
:102F900007D1CDE90221132003F030FDDDE9022144
:102FA000294B01F1020CA4EB0C0020F07F40B0F59E
:102FB000000F88BF64460020386038680198C3F865
:102FC000440324F07F40C9F84005D3F8040581424A
:102FD00006D0201A023820F07F40B0F5000F19D833
:102FE000A41A24F07F4414EB060A48F1000B15499B
:102FF0000E982B0101EB0512C2E902ABC8500F9BE2
:103000005360002428460099FFF72EFF204605B0A4
:10301000BDE8F08F2046B1E701230C4ABFF35B8F78
:10302000AB4052E8001F194342E800100028F8D1D5
:10303000BFF35B8FB246C346D9E76FF01504E1E7F3
:103040000100000128020020001001403C0900207E
:1030500073B5194B194D00244FF0FF304FF0FF317D
:10306000C5F80845C3E902014FF48033C5F80433BD
:10307000134B02264FF400320121C5F804631120DE
:10308000C3F880212246FEF7BDFA1120FEF788FA28
:103090000C4A0123AB602B6013600B4B0B4A00936F
:1030A000019400232046FFF72FFF3046FEF748FF2C
:1030B000204602B070BD00BF280200200010014071
:1030C00000E100E040090020F12D0100FFFF7F003A
:1030D0002DE9F743354CD4F804339A070BD5D4F8CF
:1030E000043143B1324A0023C4F80431D4F8043126
:1030F0001368013313604FF02003EFF3118283F361
:103100001288BFF36F8FD4F80433DB0312D5BFF3FB
:103110005B8F284B53E8001F21F0010043E80006B5
:10312000002EF7D1BFF35B8F002936D1D4F84031A0
:10313000002B32D1002382F31188BFF36F8F4BB382
:10314000FFF7C0FE4FF02003EFF3118C83F31288DA
:10315000BFF36F8F184BD3E90267B04271EB0702E0
:103160004FF0000220D34FF0FF384FF0FF39D3E982
:103170000015C3E902891A604FF48033C4F848335C
:103180008CF31188BFF36F8F21B1009532463B4617
:103190000020884703B0BDE8F0830023C4F8403125
:1031A000D4F840310123C6E71146E9E70010014099
:1031B000440900203C09002028020020431C13B5CC
:1031C00021D0012821DDB0F5000F20DA441EFFF7E1
:1031D00079FE104BD3E90013401AB0F5000F28BF59
:1031E0000024013002190C48824228BF02465218BE
:1031F0004FF0000009490190009143F10003FFF7EF
:1032000083FE02B010BD0448E0E70024DFE7024C73
:10321000DDE700BF38020020FFFF7F00F12D010035
:1032200008B5FFF74FFE024B1B68C01A08BD00BF70
:103230003802002000F01F0140090128044B4FF024
:10324000010218BF4FF0A0438A40C3F80C25704715
:103250000003005030B500F48054002C08BF154620
:103260004FEA0323C0F381121CBF0125002100F0A7
:103270001F0410F0200F43EA8202064842EA0102CE
:1032800008BF4FF0A04004F5E07442EA450240F860
:10329000242030BD0003005000F01F014009012828
:1032A000044B4FF0010218BF4FF0A0438A40C3F80F
:1032B000082570470003005030B5816885B010398B
:1032C00021F00704054602F0DDFC102201466846A5
:1032D00002F042FD07491022684602F032FD102339
:1032E0006A462146284602F09DFC003818BF01209E
:1032F00005B030BD0270010030B50C46816887B062
:10330000102302AA1039054602F077FC002802DAE1
:10331000012007B030BD102202A9284603F036F87C
:1033200090B303232370284603F041F8012301469C
:103330000DF10702284602F060FC0028E8DB9DF84A
:10334000073003F00F021B096270237101220DF197
:103350000701284603F01AF810B96378042B03D943
:103360000123637000232371AA68183A22F0070230
:10337000083AA11C284603F026F80028C8D1E11C11
:10338000284603F07AF8C4E70449102202A802F0A4
:10339000AFFC002814BF02230123C3E70270010021
:1033A0004FF08053D3F83021082A06D1D3F83431B6
:1033B000052B02D8024AD05C70470020704700BF3E
:1033C000EB720100024AD2F80034002BFBD07047A8
:1033D00000E0014010B503F0A5F840B14FF0804384
:1033E0000022C3F80C21C3F81021C3F8382503F0DC
:1033F00099F8002846D04FF08052604BD2F8041460
:10340000C3F82015D2F80814C3F82415D2F80C1408
:10341000C3F82815D2F81014C3F82C15D2F81414D8
:10342000C3F83015D2F81814C3F83415D2F81C14A8
:10343000C3F84015D2F82014C3F84415D2F8241468
:10344000C3F84815D2F82814C3F84C15D2F82C1438
:10345000C3F85015D2F83014C3F85415D2F8341408
:10346000C3F86015D2F83814C3F86415D2F83C14C8
:10347000C3F86815D2F84014C3F86C15D2F8442488
:10348000C3F87025FFF78CFF18B13D4B3D4AC3F8D8
:103490008C26FFF785FF18B13B4BFB22C3F818259C
:1034A000FFF77EFF70B14FF080414FF08053D1F8AD
:1034B000E42ED3F8583222F00F0203F00F03134327
:1034C000C1F8E43EFFF76CFF20B1304B4FF40072BF
:1034D000C3F8402603F026F848B14FF08043D3F8F4
:1034E0000024D20744BF6FF00102C3F800244FF05C
:1034F0008053D3F83021082A0ED1D3F83431052B6C
:1035000002D8234AD35C3BB14FF01023D3F80822F2
:103510004FF08043C3F858254FF01023D3F8002212
:10352000002A03DBD3F80432002B22DA19490123E5
:103530004FF01020C1F804351224FFF743FFC0F804
:103540000042FFF73FFFC0F80442FFF73BFF0023B4
:10355000C1F80435FFF736FFBFF34F8F0E490F4B0D
:10356000CA6802F4E0621343CB60BFF34F8F00BF21
:10357000FDE70B4B0B4A1A6010BD00BF00C00040B6
:10358000005000404881030000F0004000900240DD
:10359000E572010000E0014000ED00E00400FA05E2
:1035A000B00000200090D00370B501250268B2FA87
:1035B00082F3C3F11F035E1CDCB214D0BFF35B8F38
:1035C00005FA03F322EA030350E8006F964204D1A0
:1035D00040E8003CBCF1000FF6D1BFF35B8FE5D1B2
:1035E00002480C7070BD0248FCE700BF0000AD0B44
:1035F0000200AD0B0368CB40DB0710B515D40123E7
:1036000003FA01F10368BFF35B8F41EA030250E85C
:10361000004F9C4204D140E8002CBCF1000FF6D1D1
:10362000BFF35B8FEED1024810BD0248FCE700BF3C
:103630000000AD0B0400AD0BF7B5044618B101282E
:1036400029D003B0F0BD4FF080430222C3F8082315
:10365000C3F80401D3F804210122DA6001239C425B
:103660008DF8073014BF00250DF1070542F21077E1
:103670004FF08046D4B1012CE3D125B1D6F80C34FB
:1036800003F001032B70D6F80C34DB0318D4134B72
:1036900000225A71D5E74FF080430022C3F8080397
:1036A000C3F80021D3F800215860D7E725B1D6F838
:1036B000183403F003032B60D6F81834DA03C0D5AE
:1036C0002DB9012002F038FF013FD3D103E09DF86E
:1036D0000730012BF5D0012CD9D0B2E748090020E2
:1036E000044B1A7922B9012218609A800248704767
:1036F00002487047480900200000AD0B0C00AD0BDC
:103700004FF0804310B5D3F800216AB10022C3F80E
:103710000021D3F800210122C3F80823114B587966
:1037200010B95A711B6898474FF08043D3F80421B1
:1037300072B10022C3F80421D3F80421D3F818246D
:10374000D3F81814920704D10122C3F818259A60FF
:1037500010BD0222C3F80823024BBDE810401B68CD
:103760000120184748090020036803F01F025B0985
:10377000012B0260024818BF4FF0A040704700BF05
:1037800000030050034B083033F81000C0F3401022
:10379000704700BFB400002070B500F108030C4C66
:1037A00034F81330DA0505460E4607D5C3F3432334
:1037B00004EBC30254F8333052689847A3682BB126
:1037C000E26831462846BDE87040184770BD00BF2A
:1037D000B4000020124A083010B432F81030D90575
:1037E0001BD5C3F3432123F4F85322F8103002F120
:1037F0001004002034F8023B13F4807F03D0C3F39D
:103800004323994209D001303028F3D1002342F8F4
:103810003130044810BCFFF7EDBE10BC704700BF4C
:10382000B40000202801002038B50246FFF7AAFFA7
:10383000094C02F1080540B134F8153007495B0B1B
:1038400003F5A273002041F823001046FFF7C2FFE2
:10385000002324F8153038BDB4000020006000407B
:103860002DE9FF41044617461D4621B34E4E00F197
:10387000080836F818309B0706D5FFF783FF18B104
:103880004A4804B0BDE8F0810023CDE900338DF84B
:103890000E308DF80F300DF10F020B4620460DF162
:1038A0000E0102F097FE36F8183023F0020343F0C1
:1038B000010326F8183097B13B4B3E787A6804F143
:1038C000080033F810108F070CD5002AD8D133F830
:1038D000102022F01C0242EA860223F81020CDBB01
:1038E0003348CEE721F02001C904C90C23F8101099
:1038F000002AECD0032EC3D817782EB92D4A07F52D
:10390000A27142F82160E2E7BA0002F1804202F5BA
:10391000C04241EA4731D2F810C52CF0030CC2F87E
:1039200010C5D2F810C52CF44F3C2CF4407CC2F8E2
:1039300010C5D2F810E54FEA042C0CF47C5C4EEA7A
:10394000064E4CEA0E0C41F0200123F81010C2F88C
:1039500010C5BCE7D5E900672046FFF73BFF002E06
:10396000BED0114D2B689E4204D16B689F4201D19D
:1039700000220AE010480DF10F01FFF715FE0C4B75
:1039800098427FF47EAF9DF80F2045F8326005EB3A
:10399000C20308345F6035F8143043EA422343F42D
:1039A000807325F814309BE7B40000200400AD0BB1
:1039B0000000AD0B0060004028010020F0B5044677
:1039C00085B0154619B3334E00F1080736F81720B5
:1039D000930703D4FFF7D6FE002858D112F01C0F2E
:1039E00002D04B78012B52D001238DF80F300023E9
:1039F000CDE900134A1C8B1C20460DF10F0102F08B
:103A0000E9FD36F8173043F0030326F8173015B9EF
:103A1000214805B0F0BD1F4E04F1080736F8170025
:103A2000830734D595F800C06146890020F0200056
:103A300001F18041C00401F5C041C00C26F8170017
:103A40000023C1F810356A78002AE1D0D1F810358A
:103A5000AD7823F4991323F4F853C1F81035D1F855
:103A600010E5230203F47C53120402F4403243EACB
:103A70000E0313432A0502F4801240EA4C3013432C
:103A800040F0200026F81700C1F81035C0E70348C1
:103A9000BFE700BFB40000200000AD0B0400AD0B79
:103AA000014BC3E902017047B400002008B502468B
:103AB000FFF768FE38B1054B0548083233F812307D
:103AC0005B0B0B7008BD0348FCE700BFB40000208F
:103AD0000000AD0B0400AD0B38B50F4C94F87850D6
:103AE000BDB96022294604F1100002F035F9062024
:103AF000FDF756FD094B0A48C3F87C51D3F87C21E9
:103B00004FF00042C3F80423012384F87830636740
:103B100038BD0448FCE700BFB4000020006000404E
:103B20000000AD0B0500AD0B034B93F87800003897
:103B300018BF0120704700BFB400002001460148B3
:103B4000FFF758BD2401002001460148FFF72CBDB6
:103B50002401002037B50446FFF714FE04F10802E3
:103B60001E4B33F81230E8B113F002051AD15B0B8B
:103B70009A0002F1804000F5C24002F1804202F555
:103B8000C04205600068D2F8100540F00100C2F89C
:103B9000100529B1012202FA03F3114AC2F80433D5
:103BA00003B030BDC3F38203042B12D0052B12D017
:103BB00001A80194FFF7D8FD019BD0F81015D9405A
:103BC00001F001010231204603B0BDE8304002F0AF
:103BD00048BD0321F7E70221F5E700BFB40000204C
:103BE0000060004008B50246FFF7CCFDC0B102F10D
:103BF00008010E4B33F81130990711D45B0B0122E9
:103C00009A409B000A4903F1804303F5C043C1F881
:103C10000823D3F8102522F00302C3F8102508BDAD
:103C2000BDE808400021104602F01BBDB400002092
:103C3000006000400E4B00F1080213B533F812305B
:103C4000DB07044611D5FFF7CDFF2046FFF7ECFD5B
:103C500001A80194FFF788FD019B03F5E0730222A0
:103C600040F82320034802B010BD0348FBE700BF23
:103C7000B40000200000AD0B0400AD0B2DE9F04FA7
:103C8000644B65486549002687B0012234461D68AB
:103C900035B1D0F8045315421EBF1C601D68164391
:103CA00004338B424FEA4202F1D1DFF86C81D8F83D
:103CB0007C31002B00F091804FF0A043D3F82025F9
:103CC0000492C3F82025D3F820280592C3F82028B1
:103CD00000270DF110097B0100934FF0010A49E024
:103CE000009B4F4A94FAA4F4B4FA84F41C4404F1FF
:103CF0000803E00832F81330039404F007020AFACC
:103D000002FC19F8002022EA0C0209F8002003A89E
:103D1000C3F382059908FFF727FD039A02F5E072C5
:103D20004B0750F82220AB46C2F3014229D520466A
:103D30005946D5B2FFF730FD03A80394FFF714FDF1
:103D4000039B03F5E07350F82330C3F301439D4216
:103D500007D10021204602F084FC2946204602F0CB
:103D600080FC03A80394FFF7FFFC039B0AFA03F30C
:103D7000C0F8203559F82740002CB1D1CFB9012720
:103D8000A9E7022A0CBF032102212046019202F07A
:103D900068FC032D04D0019A022A06D1012DE0D13E
:103DA00059462046FFF7F8FCDBE7032AD9D1022D5C
:103DB000F5E7C8F87C41D8F87C311A494FF0A043A8
:103DC000D3F820250492C3F82025D1F82035059397
:103DD000C1F8203513437FF47BAF012416B907B037
:103DE000BDE8F08F96FAA6F3B3FA83F304FA03F270
:103DF0009B0003F1804303F5C04326EA0206D3F893
:103E00001005D3F81015C0F30520C1F30141FFF7E9
:103E1000C3FCE3E700610040006000402061004017
:103E2000B400002000030050044AD2F80034DB073D
:103E3000FBD50160BFF35F8F704700BF00E001401A
:103E40004FF080531A69B0FBF2F302FB130373B90E
:103E5000084B0222C3F80425C3F80805D3F8002450
:103E6000D207FBD500220448C3F804257047034855
:103E7000704700BF00E001400000AD0B0A00AD0B31
:103E800010B5054C0123C4F80435FFF7CDFF00231E
:103E9000C4F8043510BD00BF00E001402DE9F8432F
:103EA0001E4B15460122C3F8042510F003030446F7
:103EB0000E4610D0C3F10407AF4228BF2F463A4642
:103EC000A0EB030802F0DCFB01464046FFF7ACFF25
:103ED000ED1B3C443E4425F00308B0443746A4EBB8
:103EE0000609B84513D115F003020AD025F00305E1
:103EF0002C447119204602F0C3FB01462046FFF70F
:103F000093FF064B0022C3F80425BDE8F88309EBB4
:103F1000070057F8041BFFF787FFE2E700E00140C6
:103F200001460148FFF740BB30010020036803F061
:103F30001F025B09012B0260024818BF4FF0A0402E
:103F4000704700BF0003005070B500F06044B4F14A
:103F5000005F4BD1840749D1264C94F83050012D95
:103F600001D09D4244D12568002D2ED0A6682EB3E5
:103F7000E0606161E26100261F4C022B0BBFC4F8B8
:103F80001025C4F80425C4F81405C4F8080507BFB3
:103F9000C4F818150823C4F80C150423BDB903F19F
:103FA000804303F524330122C4F800511A60124AF9
:103FB000D2F80031002BFBD0104870BDA060216109
:103FC000A26184F830300126D6E72E46D4E7002ED1
:103FD000F2D0094903F18043002203F52433C1F8EC
:103FE00000210122C1F804231A60E5E70448E4E750
:103FF0000448E2E750090020009002400000AD0BA9
:104000000A00AD0B0B00AD0B38B5074D6424D5F895
:10401000003133B90A2002F08FFA013CF7D103488E
:1040200038BD0348FCE700BF009002400700AD0B1D
:104030000000AD0B084B9A685A621A699A629A6935
:10404000DA62DA689A6032B15A691A61DA699A6199
:104050000022DA6070477047500900200E4B02388A
:10406000D3F83C26D3F83836072813D8DFE800F019
:10407000110F0D0B0A080604100EC871100C887180
:10408000100A48710A711A0ECA701A0C8A701A0A3C
:104090004A700B70704700BF00900240023807283A
:1040A0001FD8DFE800F02927251123211F04CB7931
:1040B0001B068A7943EA02434A7943EA02230A79D2
:1040C00013430E4AC2F83C36CB781B068A7843EA83
:1040D00002434A7843EA02230A781343074AC2F8A4
:1040E000383670470023E4E70023E5E70023E6E7DE
:1040F0000023EBE70023ECE70023EDE7009002400C
:10410000F7B56F4E96F8303004461546002B40F058
:10411000D280C27C1AB1037D002B40F084802379C9
:10412000FF2B00F0CB806079FF2800F0C780A079DA
:10413000FF2800F0C380E079FF2800F0BF80002A4C
:1041400042D101A80193FFF7F1FE019B03F5E07353
:1041500040F2023740F8237001A863790193FFF71A
:10416000E5FE019B03F5E07340F8237001A8A379F5
:104170000193FFF7DBFE019B03F5E07340F823702A
:1041800001A8E3790193FFF7D1FE019B03F5E073EA
:1041900040F82370237AFF2B08D001A80193FFF782
:1041A000C5FE019B03F5E07340F82370637AFF2B93
:1041B0000AD001A80193FFF7B9FE019B03F5E07354
:1041C00040F2023240F82320237D63BB2379FF2B8A
:1041D00018BF1A463B4B08BF4FF0FF32C3F82425E7
:1041E0006279FF2A08BF4FF0FF32C3F82825A27971
:1041F000FF2A08BF4FF0FF32C3F83025E279FF2ACB
:1042000008BF4FF0FF32C3F83425227AFF2A08BFD7
:104210004FF0FF32C3F83825627AFF2A08BF4FF00B
:10422000FF32C3F83C25274A2368C2F84035237B78
:10423000E77AA07A9B0143EAC7030343607B002827
:1042400014BF802000200343C2F84435D2F8003662
:10425000A07B94F810C0677C23F07F4323F0FF031A
:104260000343E07B43EA4C63002814BF4FF08070A7
:10427000002043EA07730343C2F80036E37C86F864
:1042800031300123C6E90015C2F8083311B12920E5
:10429000FDF786F90B4B01220021C6E9021186F8D1
:1042A0003020C3F80025C3F800111A6003B0BDE840
:1042B000F040FFF7A9BE044803B0F0BD0348FBE798
:1042C00050090020009002400500AD0B0400AD0B2A
:1042D00070B51446194A92F83020012A05462BD1B0
:1042E000174E0022C6F8002111B14078FFF7D6FE24
:1042F0000123C6F80833AB786A781B0343EA02232C
:104300002A781343EA7843EA42332A7943EA82332C
:104310006A7943EAC233C6F83436FFF775FE094BB3
:1043200098420AD00023C6F800311CB168782146B3
:10433000FFF794FE044800E0044870BD50090020D7
:10434000009002400700AD0B0000AD0B0B00AD0B61
:104350001FB50023CDF80A308DF8073005238DF8FE
:1043600008300DF1070202238DF8093011460123B0
:1043700002A88DF80B30FFF7ABFF064B984206D131
:104380009DF8073013F0010F034B18BF184605B016
:104390005DF804FB0000AD0B0B00AD0B2DE9F04107
:1043A0002920FDF70DF9244B244DD3F8342602F4CF
:1043B0004032B2F5803F04BF214AC3F834264FF0A3
:1043C00080510122C3F808231A61D1F8301108295D
:1043D00008BF5A65184B0022C3F80025C3F8002116
:1043E00095F831201ABBD3F82405D3F82885D3F8E3
:1043F0003075D3F83465D3F83845D3F83C15C0B2DE
:1044000002F05FF95FFA88F002F05BF9F8B202F0AF
:1044100058F9F0B202F055F9E0B2FF28C9B201D064
:1044200002F04FF9FF2902D0084602F04AF90023B2
:1044300085F83030BDE8F08100900240500900203E
:10444000000103008B0710B520D1124A14681CB17B
:1044500092F83030012B1BD1042382F830300E4B00
:10446000C3F81C150021C3F82005C3F80011012171
:10447000D96044B9D3F800110029FBD0012382F898
:104480003030064810BDC3F80413FAE70448F9E7D2
:104490000448F7E750090020009002400000AD0BEF
:1044A0000A00AD0B0B00AD0B174BD3F8002110B574
:1044B000E2B10022154CC3F8002194F83020032A01
:1044C00015D0042A15D0022A04D1012384F8203003
:1044D000FFF7B0FDA36813B9012384F83030D4E9A5
:1044E000003100209847002384F8203010BD0223BB
:1044F000ECE7032284F82020D3F81C256262D3F86D
:10450000203584F82830E5E700900240500900206B
:1045100010B5144C144A1549032323616361144BED
:10452000A261E3614FF4806323620023A3626362AC
:10453000E36222660F4A6266E01D1022A2662367CC
:10454000E366636701F0BAFBBFF35F8F0A49204659
:1045500001F0B4FBBFF35F8F2023A371BFF35F8F24
:1045600010BD00BF84090020F1720100FA72010041
:10457000540C0020440C0020FE7201000E4B70B55C
:1045800053F82040013053F82060A64200D870BD97
:10459000D4E900352846984765B1EB6830B100286A
:1045A000B8BF4042FF28A8BFFF2018705A7842F0D9
:1045B00001025A700834E8E74C6F010008B50A4B55
:1045C000012202201A70FFF7D9FF00F069FF0320D3
:1045D000FFF7D4FF00F03EF9FCF726F8034A137BFF
:1045E00023F00103137308BD54100020C002002003
:1045F00008B50348034A0021121A02F0A7F808BDC3
:10460000200200205810002070B5002386B001223F
:10461000CDE90423134E144D01930F22CDE902324C
:104620001249182303FB005506EBC01604464FF44D
:10463000C07000FB04110E4B00954FF4A072304681
:1046400000F0D6F8737B0B482C7523F004037373CA
:104650004FF4046303FB04041C44EE606C6006B07A
:1046600070BD00BF400200202C0A0020C030002096
:104670000D4901004032002080B52E4BA6B083F3D7
:1046800008882D4D2D4E6B692D4F43F400736B61DF
:104690000024E02385F82230EC772C766C76AC761B
:1046A00085F820406B6A43F4E0236B6285F8234071
:1046B000FDF798F9FCF756FF4FF0FF33AB62EB6262
:1046C00006ADFDF7C7FAFDF72FFA40F201132846B1
:1046D000ADF82430CDE91F4400F0DCFEB56002F0F7
:1046E0000FF82046FFF74AFF0120164DFFF746FF5F
:1046F00000F068FC144BF561059301231349009405
:10470000CDE903434FF400523B46CDE9014428462E
:1047100000F06EF86A7B064622F0040228466A73AF
:1047200002F0B2F82046FFF76FFF3A4631462846BE
:10473000FDF726F8803A002000ED00E02C0A00206A
:10474000BD450100C002002005730100801000205B
:1047500070B50E4B0E4CA34201D3002070BDD3E9BF
:10476000030141EA000212F003020BD19D685A6175
:10477000AA4201D11C33EEE75E690E600132596135
:104780000144F5E76FF01500E8E700BFB80100202D
:10479000B801002037B50C464FF02005EFF311812A
:1047A00085F31288BFF36F8F45695DB125602B6873
:1047B0004361836901338361002081F31188BFF372
:1047C0006F8F11E052EA030C03D125606FF00B00EC
:1047D000F3E7CDE900230246083000F049FB18B9A1
:1047E000024B9B685B69236003B030BD2C0A00203C
:1047F0002DE9FF410E9E0673042646730D9E8673B7
:1048000000F158050F46D61DC0E916550C9A002533
:1048100026F007064037C0E90655C0E919768560DD
:10482000C573C56606F1400802920B9A019288444E
:104830000A9A009242460446FCF770FF044B6565F5
:104840009B6803B11B6F2367404604B0BDE8F0814D
:104850002C0A00202DE9F043294C2A4D87B026462A
:10486000AE4204F130040FD300F0C0F9244CDFF85D
:1048700098904FF4004640F2E737AC4220D307B09F
:10488000BDE8F04300F082BB54F8043C059354F8B3
:10489000103C049354F8143C039354F8183C0293CE
:1048A00054F81C3C019354F8203C009354E90C014B
:1048B00054E90A23FFF79CFF54F8303C5E65CEE7CD
:1048C000636A5A1C0DD023EAE37300213846C3FB08
:1048D000060151EAC333D4F8008004D1404600F009
:1048E0006BFA3034C9E74FF47A720023FBF708FD06
:1048F00002460B4608F11800494600F0DBFCF0E7E1
:10490000B8010020B8010020A968010008B50B4CCF
:104910000B4D4FF02002EFF3118382F31288BFF3A7
:104920006F8F02F03BF82B78A06113B9FCF720FEE3
:10493000EFE7FCF785FC0028EBD1F7E72C0A002015
:10494000541000202DE9F341044617461E464FF04F
:104950002003EFF3118883F31288BFF36F8FC368CE
:10496000324A6BB180689168884219D057EA0603D1
:1049700018D188F31188BFF36F8F6FF00F000CE030
:10498000916891F90E1021610133E3609368A3608F
:1049900088F31188BFF36F8F002002B0BDE8F0816B
:1049A0002169F0E791F90E1090F90E309942A8BFF5
:1049B00019466FF07E029142B8BF11468B422EDD40
:1049C00001F019FF0546CDE9007619482246414617
:1049D00000F04EFA0028E0D04FF02003EFF31186EC
:1049E00083F31288BFF36F8F236821699C420AD03A
:1049F0004BB193F90E309942A8BF19466FF07E0370
:104A00009942B8BF1946A06801F0F5FE00B945B15A
:104A10000748314600F0D8F86FF00A00BDE70025DE
:104A2000D1E786F31188BFF36F8FF5E72C0A0020DA
:104A300055100020836870B504466BB3194A92681C
:104A400093422CD1C368012B03D9013BC3600020E2
:104A500070BD4FF02003EFF3118583F31288BFF38D
:104A60006F8F0169806801F0C6FE204601F068FF83
:104A70000026A06050B190F90E202261866701F0F7
:104A800003FF0948294600F09FF8E0E7E06085F35E
:104A90001188BFF36F8FDAE76FF01500D8E74FF09A
:104AA000FF30D5E72C0A00205510002038B5044609
:104AB0004FF02003EFF3118583F31288BFF36F8F5C
:104AC00001F03EFF48B10022826701F0DDFE294679
:104AD0000548BDE8384000F077B8D4E902329A4280
:104AE00018BF0133A360F2E75510002013B54FF053
:104AF0002004EFF3118184F31288BFF36F8F846871
:104B000044B1013C846081F31188BFF36F8F0020B2
:104B100002B010BD52EA030406D181F31188BFF33D
:104B20006F8F6FF00F00F3E7CDE9002302460248D4
:104B300000F09EF9ECE700BF5510002038B5074D96
:104B40002C6854B1FEF76CFB054B04441C612868CB
:104B50000021BDE8384001F031BF38BD5C0A0020BB
:104B60002C0A0020F8B504460D464FF02003EFF361
:104B7000118783F31288BFF36F8F104E00214FF41B
:104B8000004C40F2E730316100234FF47A72E4FBCD
:104B90000C01FBF7B5FB002C094B0ADC1860094B34
:104BA000B0681D60FFF7CAFF87F31188BFF36F8FEE
:104BB000F8BD0228B8BF0220F0E700BF2C0A002091
:104BC0005C0A0020580A002049B9EFF3058030B98B
:104BD000054BDA699B689A4201D0FCF74BBD81F323
:104BE0001188BFF36F8F70472C0A00204FF020030D
:104BF000EFF3118183F31288BFF36F8F044B9A6830
:104C0000D37B013BD37381F31188BFF36F8F704760
:104C10002C0A002038B502460C480D4D01F02EFE3E
:104C2000044600B9EC68AB684AB95A7BD20606D193
:104C3000A26922B9DA897F2A01D9EB6138BD9C4289
:104C400002D02046FFF77AFFEC61F7E74C0A00201C
:104C50002C0A002070B590F90D20437B002A0146F4
:104C600004DA03F07F03437301F0E0FD4B7B154A48
:104C700063F07F034B73D2E9083402F12005AB42A5
:104C80001BD0D3B191F90E6093F90E0086420FD07C
:104C9000801B00280CDD5868C1E9003001605960B4
:104CA0009068431A5842BDE870405841FFF7B2BFC0
:104CB000A34202D01B68002BE6D1C1E90054216059
:104CC0005162EDE72C0A002038B54FF02003EFF3D6
:104CD000118583F31288BFF36F8F174B174A9C68B7
:104CE00011688C4207D12046FFF728FF85F3118811
:104CF000BFF36F8F38BD00211160114A1268C2B135
:104D0000E2897F2A15D8627BD20612D10D4A94F926
:104D10000E10126891420CDB0B4A944209D01A69BA
:104D2000824203DC2046FFF795FFDCE7121A1A6186
:104D3000DCE70022FBE700BF2C0A0020540A002019
:104D40005C0A0020580A00204002002070B490F94C
:104D50000D20437B002A2ADBDA0628D1826932BB88
:104D6000144A63F07F034373D2E9083402F120054B
:104D7000AB4217D0B3B190F90E6093F90E108E428A
:104D80000BD0891B002908DD5A68C0E90032106089
:104D9000586070BC0020FFF73DBFA34202D01B68E3
:104DA000002BEAD1C0E9005420605062F1E770BCEA
:104DB000704700BF2C0A002010B54FF02002EFF31F
:104DC000118482F31288BFF36F8F427B510704D4A2
:104DD00084F31188BFF36F8F10BD22F00402427379
:104DE000FFF7B4FF21460248BDE81040FFF7ECBED4
:104DF0005510002008B590F90D20437B002A01468C
:104E000004DA03F07F03437301F010FD044B98684C
:104E1000431A58425841BDE80840FFF7FBBE00BFA7
:104E20002C0A00202DE9F041064615461C464FF09D
:104E30002003EFF3118783F31288BFF36F8F01F024
:104E400055FD87F31188BFF36F8FB4F1FF3F08BFA3
:104E5000B5F1FF3F08D02A46234606F11800034962
:104E6000BDE8F04100F026BABDE8F081A968010074
:104E700010B5074B9868074B0C4618601146DDE9E2
:104E80000223FFF7CFFF2046BDE81040FCF7F2BB3E
:104E90002C0A0020540A0020F8B504464FF02003E5
:104EA000EFF3118683F31288BFF36F8F437BDA062B
:104EB00049B233D182698ABB03F07F03437301F0A7
:104EC000B5FC437B174A817363F07F03437310463D
:104ED00050F8203F83421BD0D3B1576A93F90E504C
:104EE000A94210D06D1A002D0DDD5A68C4E90032B8
:104EF00014605C600120FFF78DFE012086F31188AD
:104F0000BFF36F8FF8BDBB4202D01B68002BE5D109
:104F1000536AC4E900031C605462EBE7A1730020EC
:104F2000ECE700BF2C0A002070B50446183001F0F1
:104F30001FFD4FF02003EFF3118683F31288BFF3B8
:104F40006F8F94F90D20637B002A05DA03F07F034D
:104F50006373204601F06AFC0B4D637BA86843F045
:104F600010036373031B58425841FFF753FE86F347
:104F70001188BFF36F8FAB68A34203D1BDE87040C7
:104F800001F072BC70BD00BF2C0A002010B54FF0BC
:104F90002003EFF3118483F31288BFF36F8F084B64
:104FA0009A68D37B0133D3730020FFF733FE84F379
:104FB0001188BFF36F8FBDE8104001F055BC00BFF2
:104FC0002C0A0020044B002103F12002C3E908222F
:104FD0000846FFF7C7BD00BF2C0A0020F8B54FF008
:104FE0002003EFF3118583F31288BFF36F8F1A4903
:104FF0008868437B03F07F03437301F017FC8B68E1
:105000005A7B084662F07F025A7350F8202F824282
:105010001CD0DAB14F6A93F90E6092F90E40A642A5
:105020000FD0A41B002C0CDD5168C3E900210B60DC
:1050300053600120FFF7EEFD2846BDE8F840FCF77D
:1050400019BBBA4202D01268002AE6D14A6AC3E903
:10505000000213604B62ECE72C0A002050EA0103C7
:105060002DE9F04105460E4603D1FFF7B7FF0020BA
:1050700033E06FF00104241A4FF0FF3363EB0103B8
:10508000012C73F1000302DA01F0B2FC44194FF075
:105090002003EFF3118883F31288BFF36F8F104F53
:1050A000104BB8681860FFF7A5FEB8680E492A468D
:1050B0003346183000F0FEF8BA68537B43F0100313
:1050C00053734046FCF7D6FA01F092FC201A63EBCA
:1050D0000303012873F10003C9DBBDE8F08100BFC1
:1050E0002C0A0020540A0020A9680100B1F1FF3FFA
:1050F00008BFB0F1FF3F08B506D1084B9868FFF72D
:1051000013FF4FF0FF3008BDFFF7A8FF4FF47A738D
:1051100080FB0303C00B40EA4340F4E72C0A002065
:10512000014B9868704700BF2C0A00202DE9F04120
:1051300004464FF02003EFF3118683F31288BFF388
:105140006F8F037BD9070BD586F31188BFF36F8F61
:10515000404080F311884FF0040002DFBDE8F08189
:10516000437B1A0704D586F31188BFF36F8FF5E7E9
:1051700023F0200242F00801D20920D14173A36834
:1051800013B1204601F05AFB04F1180001F0F0FBC6
:1051900004F158074FF00008A56DBD4200D0B5B925
:1051A0000120FFF737FD104B9B68A342DBD1EFF3E3
:1051B0000583002BD7D13046FCF75CFAD3E703F028
:1051C0005F0343F00803437301F030FBD7E7284641
:1051D00001F034FB05F1180001F0CAFBC5F8788036
:1051E0002846FFF7B3FDD7E72C0A002008B506488C
:1051F000064A0749121A01F0ABFABDE80840054A11
:105200000549064801F0A4BA000000201C02002055
:105210004073010000000000407301000000002006
:10522000034B1B680BB9FDF7FBBF0020704700BFA5
:10523000600A0020104B10B51C689C4208BF002477
:10524000FFF7EEFFA4B1D4E904321B1A62EBE07061
:10525000B3F1004F70F100020ADA0028ACBF184623
:105260000020064B1B6913B19842A8BF184610BD19
:105270006FF00040F5E700BF340100202C0A002049
:1052800030B5036868B10A4A5268904209D043B108
:10529000D3E90421D0E90445121941EB0501C3E922
:1052A0000421426813605A600023C0E9003330BD16
:1052B00034010020B3F1FF3F08BFB2F1FF3FF8B562
:1052C00004461F46154667D081604FF02003EFF378
:1052D000118683F31288BFF36F8F6FF00102531BA7
:1052E0004FF0FF3C6CEB0703002B1BDB2B4BD3E990
:1052F0000013521A6CEB0303551B63EB0703012DDC
:1053000073F10002BCBF01250023C0E90453244807
:10531000D0E9003C834218D1C4E9000CCCF800402D
:10532000446026E0FFF77CFF013547F100072D18A8
:1053300047EBE077C4E90457E9E7521A65EB070544
:105340009C45C4E90425E7D01B68002BE4D0D3E9D1
:105350000417D4E904258A4275EB070EEDDA8A1AA0
:1053600067EB0505C3E904255A68C4E900321460F7
:105370005C60036883420BD09C4209D1FFF75AFF5F
:1053800018B1084B1B69834202D00021FDF716FFBC
:1053900086F31188BFF36F8FF8BD00BF4003002074
:1053A000340100202C0A00202DE9F8430446FFF7C1
:1053B0008BFC4FF02003EFF3118583F31288BFF3CA
:1053C0006F8F244FDFF89080244E3C60D8F80000A7
:1053D0003B684045D6E9002E4FEAE3710BD050B14F
:1053E000D0E9044CA34271EB0C0916DAE41A6CEB19
:1053F000010CC0E9044C9B184EEB01010024C6E9E6
:1054000000313C60FFF716FF2146FDF7D7FE85F31C
:105410001188BFF36F8FBDE8F883A2184EEBE471DB
:10542000C6E9002100230022C0E90423FFF728FF7A
:1054300085F31188BFF36F8F836898474FF020037F
:10544000EFF3118583F31288BFF36F8F3B681B1B4B
:105450003B60BBE7600A00203401002040030020CD
:1054600010B54FF02003EFF3118483F31288BFF3DC
:105470006F8FFFF7D5FE064B0146D3E900030818EE
:1054800043EBE17184F31188BFF36F8F10BD00BF50
:1054900040030020014B0367704700BFB8010020A4
:1054A000024A0349034800F023BA00BFBF7101005C
:1054B0000A7301001773010038B5064C064DAC4263
:1054C00001D3002038BDD4E90112204601F09AFA38
:1054D0001434F4E7B8010020CC01002010B50A4CC8
:1054E00023681BB101232360002010BD00F0CEF81B
:1054F0000028F7D00138062803D8044B53F82000C1
:1055000010BD034810BD00BF640A0020646F010095
:10551000FE8FFFFFBFF34F8F0549064BCA6802F4A9
:10552000E0621343CB60BFF34F8F00BFFDE700BFC6
:1055300000ED00E00400FA0510B4094B09490A4CDB
:105540004FF0FE32C3F800244968C3F80424C3F8BE
:105550000824C3F80C240023C4F8003510BC084705
:1055600000B002503C01002000A00250D0E900121F
:10557000014BC3E9001270473C01002010B50446FE
:1055800030B16368DB0602D500232360636010BD81
:10559000024B03485B689847F3E700BF3C010020DB
:1055A000806F0100B0B1436893B1DB060ED50123D3
:1055B00050E8002F194640E8001C9CF0000FF7D17E
:1055C000012AF5D0BFF35F8F002070470348704772
:1055D000034870476FF4E040704700BFE98FFFFF5A
:1055E000EA8FFFFF68B143683BB1DB0607D5BFF325
:1055F0005F8F0023036018467047034870470348D5
:1056000070476FF4E0407047EA8FFFFFE98FFFFFBC
:1056100010B5044620B1002211232260636010BD42
:105620000148FFF789FFF6E7A86F010070B5D0E9E0
:105630000023134C134D6360D0E90230C4E90230FB
:105640002260114B08681860486858608868986044
:10565000D1E90301D8601961D5F81831DB060DD501
:105660000023C5E94533C5E96E3305F58A709047D7
:10567000236805F5DC70BDE87040184770BD00BFB9
:105680004C0100207C0A00205C01002038B500F0AD
:105690002FF820B1032400F063F8204638BD00F055
:1056A00031F898B900F0ACF898B90F4DD5F8283911
:1056B0001B0EF02B08D1D5F8242A0C4B9A420AD0A5
:1056C000072400F017F8E6E70624FAE7042420464A
:1056D00038BD0024F5E7012000F092F804460028C8
:1056E000F7D1C5F80C0AD8E700B002500000E0205E
:1056F0000020704700207047014BC3F8040A704730
:1057000000B0025010B5114800F048F800B110BDCB
:105710000F4800F043F80028F9D10E4C204600F065
:105720003DF80028F3D10C4B0C481C6000F036F813
:1057300001460028EBD100F02DF8044608B12046C0
:1057400010BD00F03FF82046FAE700BF94010020AA
:105750008801002090010020980100208C01002089
:1057600008B5084800F024F8074800F021F8074879
:1057700000F01EF8064800F01BF8BDE8084000F0F5
:105780000BB800BF94010020880100209001002088
:105790008C01002000207047704700BF08B5034B04
:1057A00002681B6810689847002008BD4C01002063
:1057B00008B5034B02685B6810689847002008BD75
:1057C0004C01002070B5094C094D2069AB68984721
:1057D00018B1084B08485B689847084AEB6820698D
:1057E00000211160BDE87040184700BF5C01002037
:1057F0004C0100203C010020CC6F0100780A002001
:10580000F8B51A4D1A4E0446B26828699047E8B9AF
:10581000184F3B684CB1A3B1012B19D0013B3B6041
:105820002869F36898470020F8BD43B9124A01215E
:10583000C2F800151149D1F81029002AFBD1013313
:105840003B60F368286998470020F8BD0C48F8BD14
:105850000A4AD2F81039002BFBD1074A6FF07E407C
:10586000C2F80035FFF748FF3B68D7E75C0100202E
:105870004C010020780A002000A0025000B0025025
:10588000E98FFFFF70B403460068DA881D790A4388
:1058900001698668012303FA05F40B6812F0010F11
:1058A00014BF2343A3430B603368294670BC1847D9
:1058B000034658B1426802F00302012A03D0032ACA
:1058C00004D1026812B10020986070476FF0150093
:1058D00070474268816002F00302032A4FF0000221
:1058E00003460CBF006810465A607047002070479E
:1058F0000FB407B504A951F8040B0191FAF742FF60
:1059000003B05DF804EB04B07047038B13F007039A
:1059100005D10368002B0CBF002003207047022B29
:1059200005D1438B002B14BF002004207047012BAE
:1059300005D10368002B0CBF002005207047002014
:1059400070472DE9F0410D4607461946281D90463F
:105950001E46FFF7BEFF044638B13346424629468D
:105960003846A446BDE8F0416047BDE8F08110B478
:105970004FF02004EFF3118284F31288BFF36F8F8E
:10598000416110BC0121FAF70BBF10B50C4640B1C4
:1059900039B1081DFFF78CFF28B9A36833F0030362
:1059A00001D06FF0150010BD38B50C46054658B152
:1059B00051B10B6843B14B6833B11C22002100F098
:1059C000CBF92C61002038BD6FF01500FBE770B5F6
:1059D00004460E46FFF7D9FF051E31DB4FF02003CA
:1059E000EFF3118183F31288BFF36F8F638B208BEA
:1059F0004FF6FF75AB4200F007022ED0022A0ED1FF
:105A0000013363831546012381F31188BFF36F8F40
:105A1000B3B1002331462046FFF793FF10E0830720
:105A200001D0062A0ED100233360636893B9C4E91C
:105A30000066154662B90A4620460221FAF7B0FE12
:105A4000284670BD052A0CBF6FF085056FF0040570
:105A50000023D9E71E606660EBE76FF00A05F7E701
:105A6000044608B5084611461A46A047FFF758FBFA
:105A7000FCF744F800EBC100408840087047F8B5D7
:105A80000346FFF7F7FFB0FA80F0C0F11F0003EB09
:105A9000800CCA00DCF81060171D0C4606328DB26F
:105AA00056B9012101FA00F0D9680143D960CCF858
:105AB0001040DD539D52F8BDF1000431585AD853BF
:105AC00003EBC0009E52C5805D52F4E7043ACB1D43
:105AD000114423F0070321F00701F0B4CD1AEA08BE
