:2000000060B2012025210000257000001121000011210000112100001121000011210000D8
:20002000000000000000000000000000ED210000112100000000000011210000112100001C
:200040008D2300008D2300008D2300008D2300008D2300008D2300008D2300008D23000020
:200060008D2300008D2300008D2300008D2300008D2300008D2300008D2300008D23000000
:200080008D2300008D2300008D2300008D2300008D2300008D2300008D2300008D230000E0
:2000A0008D2300008D2300008D2300008D2300008D2300008D2300008D2300008D230000C0
:2000C0008D2300008D2300008D2300008D2300008D2300008D2300008D2300008D230000A0
:2000E0008D2300008D2300008D2300008D2300008D2300008D2300008D2300008D23000080
:200100008D2300008D2300008D2300008D2300008D2300008D2300008D2300008D2300005F
:200120008D2300008D2300008D2300008D2300008D2300008D2300008D2300008D2300003F
:200140008D23000053B94AB9002908BF00281CBF4FF0FF314FF0FF3000F00CB8ADF1080CAA
:200160006DE904CE00F008F8DDF804E0DDE9022304B07047704700BF2DE9F04786468C46F7
:200180000846089E154674461946002B40F0C1808542B2FA82F245D94AB1C2F1200300FA8B
:2001A00002FC954094402EFA03F343EA0C0C4FEA154EA8B2230CBCFBFEF80EFB18CC08FB73
:2001C00000F943EA0C43994528D9EB1808F1FF3704D2994502D9A8F102072B44A3EB09035F
:2001E000A4B2B3FBFEFC0EFB1C330CFB00F044EA0344A04214D92C190CF1FF3304D2A04242
:2002000002D9ACF102032C44241A43EA07401EB1D440002334607360BDE8F0874746DDE765
:200220006346F1E792BB431B01214FEA154EAFB2200CB3FBFEFC0EFB1C330CFB07F840EA17
:200240000343984561D9EB180CF1FF3004D2984502D9ACF102002B44A3EB0803A4B2B3FBD9
:20026000FEFC0EFB1C330CFB07F744EA0344A7424DD92C190CF1FF3304D2A74202D9ACF1F8
:2002800002032C44E41B43EA0040C0E7C2F120039540944020FA03F12EFA03F34FEA154E8F
:2002A0009040AFB20343B1FBFEFC0EFB1C10190C0CFB07F841EA0041884522D969180CF10F
:2002C000FF3004D2884502D9ACF102002944A1EB08019BB2B1FBFEFC0EFB1C110CFB07F7A2
:2002E00043EA01439F420ED9EB180CF1FF3104D29F4202D9ACF102012B44DB1B41EA004192
:2003000093E76046E3E76146F7E76046A4E76346B8E7834206D916B9002108467CE7C6E901
:2003200000E0F9E7B3FA83F78FB9834201D3724508D8BEEB020460EB030301209C461EB984
:20034000002169E73846FAE7C6E9004CF8E7C7F1200CBB400EFA07F522FA0CF42EFA0CF1CF
:20036000BA401C4320FA0CF3B8404FEA144901431FFA84FEB3FBF9F809FB18300B0C08FB99
:200380000EFA43EA00439A4540D9E31808F1FF3004D29A4502D9A8F102002344A3EB0A039D
:2003A00089B2B3FBF9F809FB183308FB0EFE41EA03418E452CD9611808F1FF3304D28E4571
:2003C00002D9A8F10203214443EA0040A1EB0E01A0FB02984145CE46434602D306D14D45A1
:2003E00004D20138B9EB020E68EB0403002EA7D0B5EB0E0261EB030101FA0CFC22FA07F322
:20040000F9404CEA0303C6E9003199E74046C5E74346D9E7F0B5344B344A4921C3F800269F
:200420003348C3F8042685B0C3F80826C3F80C26C3F81026C3F81426C3F81826C3F81C2675
:2004400006F067FD06F002F900F086FA054601A800F03AFD0446284600F08EFA254B1B68A3
:20046000A34205D04521244806F053FD06F0E2F9039A4921214806F04CFD4921204806F062
:2004800048FD4FF48031002002F064FF044620B145211C4806F03DFDFEE769469DF8080068
:2004A00000F034F8009B039D1D44019B1E8902F039FFAF1901F0E6F801F0B6F801F0D0F828
:2004C00084F30B8884F30A88AB5983F3088884F31488BFF36F8FBFF36F8F7B689847452164
:2004E000094806F016FDFEE7008001503546526E5C85000070C50020758500009885000064
:20050000C7850000EC8500001F860000024608B538B105480023452106F0FBFC6FF0150054
:2005200008BD0860FCE700BF4286000021B1012906D06FF015007047044B53F830007047A6
:20054000024B03EBC0035868704700BFD88100002DE9F04F864FDDB01446DDE968891D46E3
:20056000DDF8A8B13E6801F029F80122814B3CA8C3F8002504F088FFB8F1000F07D0B9F12E
:20058000000F04DD4A4641463CA806F0BDFB4FF0000823896289D4F80CA013449A44C24530
:2005A00058D80FA93CA804F0E1FF0022714BC3F80025C3F80025BBF1000F04D0202258468E
:2005C0000FA906F051FD00232A46009321464FF6FF7309A806F03BF8039000284BD12846BC
:2005E0000E9C00F0A3F9844245D84FF0FF34DFF88CB1DFF880910DF11E0307AA08A909A842
:2006000006F073F8002836DB40F0A880BDF81EA0BAF1100F38D1BDF81C80B8F1200F2AD17E
:200620004346284608993CAA06F081FC18BB00F093F9424682463CA90FA800F025F98046BA
:20064000504600F099F94C4B1B68434513D101230393D0E7679BAAEB0809994528BF99463F
:2006600041464B462846669A06F061FC28B10022404BC3F800253E6873E04A4666993CA8CF
:2006800006F042FBC8448AE7BAF1010F3FD1BDF81C30202BEFD8284608993CAA06F047FC9E
:2006A00004460028E7D19DF81C30202B04930AD8DBF80030DFF8C8800593059B9C4205DB53
:2006C0000023C9F800354FF0FF3494E700F076FFC9F800A51FA804F0D7FED8F804201FA8FE
:2006E000126858F8081B06F00FFB17A91FA804F03DFF0022C9F80025049A3CA917A806F016
:20070000A3FC10B9C9F8000575E70134D5E7BAF1220F7FF470AF631C3FF46DAFDBF800301F
:20072000A342D0DDBDF81C30802BA4D8284608993CAA06F0FCFB00289DD100F00DF9E4B2FB
:2007400080462021BDF81C303CAA00940FA800F019F80646404600F00FF9B4E7039B002B31
:2007600089D000F001F930465DB0BDE8F08F00BF6CC500200000845070C50020E0810000F5
:20078000E48100002DE9F04796B016461D469DF87820384B074653F8321003EBC2035B68A2
:2007A00001911868DFF8DC800144302302AA01A8D8F8009006F036FA002851D1DDE901432D
:2007C0001C44214606AB03AA01A806F053FA002846D1049A072A43D12749059806F034FCB3
:2007E00000283DD1079A082A3AD12449089806F02BFCA8BB214602AA01A806F027FA78BB52
:20080000DDE901A30AEB0302944229D1412B27D135443023294603AA02A8029606F002FA24
:20082000E0B9DDE9023213449D4217D32A4602A906A805F0A6FF88B92A4602A90EA805F09B
:20084000A0FF58B99AF80030042B07D12023384606AA0AF1010100F0C9FE38B1D8F80090B1
:2008600000F082F8484616B0BDE8F087044BD3F80090F5E7E48100007186000068860000CE
:2008800070C500206CC5002070B5094B04461D680023934205D1074B1D6800F065F828460A
:2008A00070BDE65CC85C8642F7D10133F1E700BF6CC5002070C50020094A40000B7852F844
:2008C00020108B4209D0013052F82000834214BF4FF0FF304FF4F07070474FF4F0707047ED
:2008E000EC8100001FB50F4B0C4613F8300001F073FA50B92068102381686A46103906F0D6
:2009000016FB28B1206806F011FB4FF0FF3006E010226846044906F097FB0028F2D104B0BB
:2009200010BD00BFEC8100004C85000013B5044605F058FF6A460146204605F06EFE30B1F0
:200940000448452106F0E5FA002002B010BD0098FBE700BF79860000024B1868421C1A6094
:20096000704700BF40C70020024A1368013B1360704700BF40C70020034B1B68834201D060
:2009800005F058BF704700BF40C700202DE9F04F414B8BB0064600200D461C68FFF7C6FD96
:2009A00008A9C0B201F018FA28B1FFF7DDFF20460BB0BDE8F08F2946FFF7B8FD4FF02C0B91
:2009C00009A9C0B20BFB056B01F006FA002844D02C276F4306EB0708D8F8104014F0100413
:2009E0004CD1FFF7B9FF089B81460793FFF7B4FF4FF480720192294A21468246CDE9034418
:200A0000079B0294009220465A46FFF7A1FD04465046FFF7B1FFFFF7A7FF4846FFF7ACFF21
:200A20001F4BF25908989A420CD1D8F80C20B8F808309B1806D28268934203D2194B1B68BE
:200A4000A34222D02DB38268002106F09AFA164A4521164806F05DFA15E0099806F0AEFAA5
:200A60000446099806F062FA0BF1FF330BF1030213F8011FA142ABD19342F9D11DB130469D
:200A8000089905F0C4FF0A4B1C68089806F04EFA8BE7084ADCE700BF6CC50020D438012082
:200AA0003DB8F39670C50020BC860000C686000068C50020B48600007FB50D46002104465C
:200AC0002846CDE9021105F049FF28B32368194EB34203D1204603AA05F0D5FEE36AB342EF
:200AE00004D10121204602AA05F0CDFEDDE90232934288BF0393039BAB60039A2946204666
:200B000000F0B0FB0C4B1A68002A03DD57210B4806F0FFF904B070BD01A9FFF7E3FE0198A3
:200B200005F1080105F069FEAB680198039306F0FDF9E2E73DB8F396A4D50020EE860000D8
:200B40002DE9F84F884691469A460026DFF870B0194C1A4D0B9B9E4201D300200FE00B9BBB
:200B600040469F1BB7F5806F28BF4FF48067144A3B4606EB0A0106F0DAF910B10120BDE85E
:200B8000F88F0A993B465A464846711806F0E4F90028F3D1C4F800563E44C4F80456C4F8CE
:200BA0000856C4F80C56C4F81056C4F81456C4F81856C4F81C56CDE7008001503546526E59
:200BC00044D100202DE9F0410E460021B14B04464362B14B88B003650846FFF7A7FC04F1C1
:200BE00020010546C0B201F0F7F848B100232A46452101900093A94806F08BF905F01AFEA9
:200C000001210020FFF792FC04F14C010546C0B201F0E2F850B101232A4645210190009325
:200C20009E48002306F075F905F004FE9DF817309DF815200499009399489DF8143001F0CF
:200C4000CBFB204605F060FE054668B900222046114605F002FE074628B30022572191483A
:200C600006F057F90123A2E0A02257218E4806F050F901239D4284F85830E7D194F8581086
:200C80008A488DF8171001F0A7FB94F85830042B00F29080012B00F2948000F0A680FF2394
:200CA00084F85830A1E0204605F06EFF0028D9D004A805F04AFE0146204605F0FDFE054645
:200CC00018B13A4657217A48CAE79DF817309DF81520009304999DF81430764801F07CFB0B
:200CE00004A805F03BFE074660BB204604A9FFF7E3FE9DF8173084F85830033B012B06D8A0
:200D0000384600F011F910B1FF2384F858309DF81730023B022B0BD8002000F0EFF838B16B
:200D2000FF2384F858304521634806F0F2F8FEE794F85830FF2BF6D00021204604AA05F089
:200D40008CFD8FE79DF81770012F1ED1284602F095FB831E022B054614D8FFF7FDFD3946F5
:200D600080462046FFF712FE07464046FFF704FE524B1B689F4205D0514B1D68AF4214BFBB
:200D80000525012584F8585078E7FFF7E5FD012107462046FFF7FAFD05463846FFF7ECFD3E
:200DA000464B1B689D4214BF05239DF8173084F8583063E7052B7FF472AF002000F0B4F89B
:200DC00010E0204604A9FFF777FE94F85830023B022B0AD8002000F0A7F800287FF45FAFED
:200DE00000F08CF800287FF45AAF94F85830FF2B05D14521304806F08CF805F01BFD002240
:200E000094F858302F4F012B039217D01146204605F023FD90B13D68102200210DEB020093
:200E200006F02DF9E06C06F081F8206A06F07EF8FFF79AFD284608B0BDE8F081FFF78CFD9D
:200E4000002180462046FFF7A1FD05464046FFF793FDDFF86880D8F800309D42DBD13B686D
:200E60009D42D8D0164B1B689D42D4D0039B01330393039B012B01D005F0DCFC206A05F035
:200E8000CAFB3071236A5B683460D8F80050B360C2E700BF44CC002044C700201D8700006E
:200EA0006A870000EC870000AA8700008D88000018880000428800008188000070C50020C0
:200EC00068C500206CC5002070B50B4E044660220021304606F0D3F8FFF73EFD21460546EF
:200EE0003046FFF76FFE04462846FFF745FDFFF73BFD204670BD00BF44D5002013B5094B54
:200F000001A913F8300000F067FF48B9019806F0AAFB0446019806F009F8204602B010BDA2
:200F20000124FAE7F48100001FB50F4B01A913F8300000F051FFA8B9019802A902F048FA0A
:200F4000044668B99DF80B30032B03D1019806F058FB0446019805F0E9FF204604B010BDCB
:200F60000124F7E70124F8E7F48100002DE9F34106460C4617461D460BB9002628E01846FD
:200F800005F0ECFC0028F8D16946FFF7ABFC009838B90124009805F0C9FF204602B0BDE877
:200FA000F08101A905F029FC0028F2D1009805F0BDFF3046019905F0C9FD736A5E686B7976
:200FC000012B21D1002CD8D12B68834298BF002621460020FFF7AAFA6946C0B200F0FCFE1D
:200FE0000028D6D120233A463146009805F09FFF04460028CDD1002DCCD03C680D4BE41AEA
:2010000018BF4FF0FF34C5E7022BB6D12B68012B05D98342B1D8B4FA84F46409ADE7ACD198
:20102000002CD5D0012CA8D12C79023C18BF0124A3E700BF3DB8F3962DE9F04F07460C469F
:2010400085B0014600201646FFF736FC051E50DB3846E46D05F0C6FB5FFA84F94FF0000A7E
:201060004FF0010B4FF0FF346B1E09FB03089DB9BAF1010F03DD4521204805F04AFF631C9F
:2010800006D09F2C2ADC40F2011301343460B380284605B0BDE8F08F6B1E00934146012359
:2010A00038460DF10F0205F042FF031E019322DB012238460DF10F0106F03EFA019B40B151
:2010C0005B4501D00AF1010A9B46009DA8EB0908CDE7B4F1FF3F08BF2C46F5E70223A03CCA
:2010E0007371631004F001040133013433603471CEE70725CCE70125CAE700BF9E880000AF
:2011000000B589B0032004A906F088FA9DF81020012A41D0254B2649032A08BF0B469DF8DF
:201120001320492102929DF81220224801929DF811200092204A05F0ECFE092006A906F04B
:201140006DFA9DF81820012A28D0184B1849032A08BF0B469DF81B20492102929DF81A2092
:20116000144801929DF819200092144A05F0D1FE9DF81030012B13D19DF81230032B0FD134
:201180009DF81830012B0BD00D48492105F0C1FE022009B05DF804FB0A4BC0E7094BD9E7B9
:2011A0000948492105F0B5FE0020F2E7C1880000CA880000DE880000D08800001F890000D2
:2011C0002F890000C58800004E89000070B54B6814461E4A03F0FF23934206460D4686B0DA
:2011E0002FD10B68012B2CD1204604A902F0F0F89DF81020012A26D0154B1649032A08BFCD
:201200000B469DF81320492102929DF81220124801929DF811200092104A05F07AFE9DF84F
:201220001030032B0DD12146304605F0F0FB204606F0E7F92046A96805F0EDFA204602F0BE
:20124000A7F806B070BD064BDBE700BF00010004C1880000CA880000DE8800001F8900008C
:20126000C58800002DE9F04F16460546ADF54B7D0C469748492105F04CFE3146284605F007
:2012800065FC6B6A81465E6805F053FC334600904A469048492105F03CFE204605F05EFB89
:2012A000F0B1E86D05F099FA0023AF6A013F3344984201D9013FFAE7B94511D357218648C0
:2012C00005F027FE07FB06F3572109FB0662834805F01FFE0123E3710DF54B7DBDE8F08FD2
:2012E000002707A9032000F077FD08A9092000F073FD1C2239460AA8DFF81CB2099705F0AD
:20130000BEFE774B774A09A907981A6005F067FB5946754A09A803F069F9011E08DA73484C
:2013200001F05AF808983946826805F02AFED3E7DBF800106E4AB1F5005F34BF0123C1F31F
:20134000473313706B4A6C4812680092664A127801F042F82146089A2846FFF737FF05F01E
:20136000E8FB49210246654805F0D3FD6379012B51D14F46DFF8A4A147E02168C1F1010325
:201380004B44BB4240D35A4A6B6A127818683A44013A53F8322003EBC70353F8083C121A62
:2013A0001B1A0129DDF81C800392059311D1089B0493E368022B08D04146284605F027FBB8
:2013C00022464146284605F058FB2846049905F01EFB32460399404605F0FFFA039B4246A1
:2013E000414600932846059B0196FFF7A9FB2146284605F0C0FA23680133236020B1DAF82B
:2014000000300133CAF80030013F002FB5D1012323600323637105F08CFB334F0246492130
:20142000374805F076FD4FF43972002111A805F026FE3B780A2B07D1324911A803F05AF8AB
:20144000002827DD02233B7005F073FB492102462D4805F05EFD3B78022B13D111A803F046
:20146000C3FB002816DB294800F0B6FF254ADBF8001011A803F04AFB00280BDB214911A80B
:2014800003F09EF805F055FB49210246204805F040FD01E0042363716379042B10D1DFF893
:2014A00050A01C489AF8001000F096FF0127DFF86CB0B945DDF81C8032D2012323606371A8
:2014C000079805F033FD089805F030FD04E700BF658900008E890000C5890000F48900000C
:2014E000B8380120947F0000DA390120258A00008CC60020B0380120618A0000AC8A000049
:20150000D98A000048360120048B0000298B00004E8B0000738B0000B4380120A4D5002009
:2015200021688F423ED39AF800206B6A3A44013A186853F8322003EBC70353F8083C121A70
:201540001B1A01290592039311D1089B0493E368022B08D04146284605F059FA2246414667
:20156000284605F08AFA2846049905F050FA32460399404605F031FA039B42464146009340
:201580002846059B0196FFF7DBFA2146284605F0F2F923680133236020B1DBF800300133DC
:2015A000CBF80030013784E70A4619B1024B00211B681847704700BF74C5002070B5094DE1
:2015C0002B780BB1002070BD0126074CC4F8006503F0FCFF18B92E70C4F80005F2E74FF08E
:2015E000FF30F0E7D4390120000084502DE9F041ACB01F4606460C461546FFF7DFFF0123EA
:20160000DFF820802A46C8F8003521463346009703A806F03FFC0023C8F800352CB0BDE802
:20162000F08100BF00008450BFF36F8F72B600234FF0FF30094A03F120010133102B42F82C
:201640002100F8D100234FF0FF30044A03F160010133102B42F82100F8D1704700E100E061
:20166000002318460649D1F89020C2F30722934200DB7047C1F89830C1F8A0000133F6E7F1
:2016800000ED00E038B501224FF0FF3400251A4B29465A60C3F84843C3F8084303F5805331
:2016A0005A60C3F84843C3F80843A3F55043C3F800558022C3F80843104805F0E0FC802276
:2016C00029460F4805F0DBFC0E4B8022C3F800552946C3F808430C4805F0D1FC80222946D1
:2016E0000A4805F0CCFC0A4BC3F808454FF05023C3F8084338BD00BF004001508080005031
:201700008081005000900050809000508091005000700150014B1B68184700BF78C50020CC
:20172000014B1860704700BF78C5002007B50B46002102460091034800F014F903B05DF8BB
:2017400004FB00BF151700002DE9F047058B04462807904611D4022905F0070540F0CD80E5
:20176000204605F0FBFA78B10138218B042811D8DFE800F0C3106D85950001290CBF45F0BB
:20178000100545F02005258388F31188BFF36F8FBDE8F08701F0070AAA4500F0A680002724
:2017A000B9463E46A368002B00F0BD8041F00801218388F31188BFF36F8FA168002900F07F
:2017C000BB800D68002900F0B780334652462046D1F80480C047002D76D02B6829461D4666
:2017E000F0E701F007035A1F012A1BD8002221F00701062B276889B2C4E9002209D13B4620
:2018000003E0628B013262831B68002BF9D141F002012046218305F0A1FA00287BD041F0F6
:20182000200177E0042B0AD121F0070189B22046218305F093FA10B141F020012183218BE3
:2018400001F0070AAA4550D00027B946AAE7236921F0070141F00601062DD3F800902183B1
:201860002DD1B9F1000F40D041F00801218388F31188BFF36F8F20463949C84729E021F0EE
:201880000701236941F0040189B2042DD3F804902183E6D000274FF0040A3E4682E721F0E7
:2018A0000701236941F0050189B2052DD3F808902183D6D000274FF0050A3E4672E70027CA
:2018C0004FF0060A3E466DE72B4687E7B9F1000FD1D14FF02003EFF3118883F31288BFF308
:2018E0006F8F238B23F008032383258BEA062ED525F01003238305F007056669218B002E5D
:20190000BFF66FAF00232768C4E9003321F0070141F001012183218B4FF0000901F0070A7C
:20192000AA457FF43FAF002F9BD041F00801218388F31188BFF36F8F002FC7D03D68394631
:2019400033465246204605F035FA2F46F4E7AB067FF51AAF25F02003238305F00705FFE6EA
:20196000E16D00002DE9F04F82464FF000098DB01D46531E01910393039B58785C1C252848
:2019800019D100204FF0FF381E46444603460236029031780396392955D81F2914D8002998
:2019A00000F0EF8101992520D04701993078D04709F10209E0E7002800F0E3810199D0477F
:2019C00009F101090394D7E7A1F12002192AE9D801A757F822F000BF411A0000A519000015
:2019E000A5190000411A0000A5190000C11A0000A5190000A5190000A5190000A51900003D
:201A00000D1B0000411A0000A5190000211B0000CD1A0000A5190000DB1A0000FB1A00009A
:201A2000FB1A0000FB1A0000FB1A0000FB1A0000FB1A0000FB1A0000FB1A0000FB1A0000FE
:201A400008460136A5E7582900F0EB80A1F16302D7B2172FA6D8172AA4D801A757F822F08F
:201A6000C91C0000471B0000A5190000A5190000A5190000271B0000471B0000A519000083
:201A8000A5190000271B0000A5190000A5190000A5190000FD1B0000A5190000A519000078
:201AA0009D1C0000A5190000471B0000A5190000A5190000FD1B0000A5190000271B0000B9
:201AC00025200199D04709F1010955E7029A4FF0000802F0FE020292B3E7002C0DDAB8F111
:201AE000000F0DDA029A002A00F043810A2224EAE47402FB0414303CA3E7B8F1000FF5DB51
:201B00000A2202FB0812A2F130089AE7B8F1000F55F8042B80F22F81002A80F22E815442FF
:201B2000022202928DE7682903D1682B06D1482387E76C2902D16C2B00F02181002B7FF4A2
:201B400031AF0B467DE77A2B06D1752955F8046B14D14FF0000B0CE06C2BF6D04C2BF4D166
:201B6000073525F00703752903F10805D3E9006B06D120283BD1854F013C09E04FEAE67B85
:201B8000BBF1000FF5DA7642814F6BEB4B0B013C0DF12D03059300230493304659460A2289
:201BA0000023FEF7CFFA059BB446303203F8012D5A460593049BBCF10A0F8B4672F100024C
:201BC00003F1FF3106460491E7D2C3F1010B30330DEB0306B8F1000FA6F104066DDA029BE6
:201BE000D9077DD4A8EB0B03A4EB0B0413E02B280ABF684F684F04F1FF34C9E770290FD1A7
:201C000055F8042B0023FAB96FF004034FF0050B614F624E053C029A920770D4A04666E077
:201C200078216C2B03D1002355F8042B08E04C2BF9D1073525F007031D465B6855F8082BD7
:201C4000232825D1880621D5554F023C002601F06001A1F1390B0DF12D0E02F00F01092922
:201C600088BF594430310EF8011D102A4FEA121141EA03714FEA131C73F1000306F1FF30D1
:201C800008D2C6F1010B06F13003A1E7454FDCE7414FDBE706460A466346DEE755F8046B86
:201CA000304605F0CAF9B8F1000F834602DB4045A8BFC3464FF00008374FA8EB0B03002B0A
:201CC00092DDA4EB0804A6E755F8043B4FF0010B8DF81830304F4FF0FF33013C06AE9AE767
:201CE000A046EAE7029320200199D047029BB8F10108F7D524EAE472013C9144A41AB8465A
:201D000006E0049302920199D047029A049B9046424612F8010B0028F3D11A46013A15D5E1
:201D2000002BACBFC7EB03077F425B46013B15D5BBF1000FA8BF5F4426464F44013E14D5DD
:201D4000002CA8BF3F1907EB080915E60493029230200199D047049B029ADFE7029301993E
:201D600016F8010BD047029BE0E701992020D047E4E70122D5E6904663E6144661E64C2305
:201D80005FE648460DB0BDE8F08F00BF2F8C00002D8C0000318C0000C4890000398C00008D
:201DA000338C0000368C0000044608B54FF02002EFF3118382F31288BFF36F8F01F0B2FA68
:201DC000204600F0DFF9034804F0BBFF00F0B8FAFCE700BF3F8C000070B5114B0D461C6875
:201DE000DCB1104B196800238B4202DB6FF0010070BD224612F8106B864202D0144601330B
:201E0000F2E7E06810B96FF01200F1E705F023FD0028F8D000202C60EAE76FF00C00E7E7D4
:201E20007CC500200082000070B588B005460C46C0B269461646FFF7CFFF00281BDB0098CE
:201E4000C8B143682268029383680195CDE903360023CDE906230593C56805F067F86DB196
:201E60002846084901AA05F02AFA079808B9059B236008B070BD6FF01500FAE76FF01200B1
:201E8000F7E700BFCB6F0000014803F04FB800BFA482000030BFFFF7FDBF00BF704700BF6D
:201EA000154B9A6A12F0007F9A6A14BF1E201D2012F0807F9A6A18BF1F2012F4801F9A6A27
:201EC00018BF022012F4002F9A6A18BF212012F4802F9A6A18BF222012F4003F9A6A18BFC6
:201EE000232012F4803F9A6A18BF24206FEA02426FEA12429A62704700ED00E010B5194BC8
:201F00000246986A9C6A10F4805F14BF1720162014F4006F9C6A18BF1820A40509D5986B38
:201F2000986A000404D51AB19A6A22F400429A6219200C4B9A6A12F4806F9A6A18BF1A2001
:201F4000D2050CD49B6A13F4005F18BF1C20054A936A43F47F43936200230B7010BD1B206C
:201F6000F5E700BF00ED00E010B51C4B0246986A9C6A10F0100F14BF1120102014F0080F0F
:201F80009C6A18BF1220A40709D5586B986A000604D51AB19A6A22F080029A6213200F4B19
:201FA0009A6A12F0010F9A6A18BF142012F0200F9A6A18BF1520D40658BF9B6A074B9A6A6F
:201FC000920642BF5A6A22F400525A629A6A42F0FF029A6200230B7010BD00BF00ED00E056
:201FE00070B5444B06465B6800258AB0C3F3080385F31188BFF36F8F02F07F40B0F17F4F1D
:2020000011D102F00C0008280DD010074CBF0E4601250022033B8DF80720032B05D8DFE859
:2020200003F01E5C60592E46F3E700249DF807309BB92022314602A805F016F8099B002DB1
:2020400053D0C3F3080222B96FEA53236FEA43230993204602A904F0DFFF0AB070BD254B5E
:20206000DA6A9107E1D4DA6A002ADEDBDA6A5200DBD55A69B16942F480725A61BFF34F8F12
:20208000BFF36F8F5A6931F8021C22F480725A61BFF34F8FBFF36F8F4DF60272914209D020
:2020A0009A6AD2B242B101200DF10701FFF75CFF0446BBE73468B9E79A6A12F47F4F05D058
:2020C00001200DF10701FFF719FFF1E79B6AB3F5803FAAD3FFF7E4FEEAE700200DF107013B
:2020E000E4E700200DF10701EDE723F4FF7323F00103ADE700ED00E0044B5A6942F01002C4
:202100005A615A6942F480625A61704700ED00E0EFF30880EFF3098101B57246FFF760FF51
:2021200001BD00BF002080F31488BFF36F8F002080F30A8880F30B8800F074F900200E4944
:202140000860BFF34F8F0D4880F3088800F02CF8202080F311880A484FF40061401880F30E
:202160000988EFF314800221084380F31488BFF36F8F00F091F8000094ED00E060B201201E
:20218000605A0120BFF34F8F0549064BCA6802F4E0621343CB60BFF34F8F00BFFDE700BF58
:2021A00000ED00E00400FA0572B6002383F313884FF0FF300C4A03F120010133102B42F871
:2021C0002100F8D100234FF0FF30074A03F160010133102B42F82100F8D162B6BFF34F8FA3
:2021E000BFF36F8F704700BF00E100E01EF0040F0CBFEFF30880EFF30980816911F8021C26
:202200000229FFD001B504F009FF01BD40B2002807DB01234109034A00F01F00834042F891
:202220002130704700E100E040B200280CDB01220649430900F01F008240203341F8232076
:20224000BFF34F8FBFF36F8F704700BF00E100E0054B420953F82220012300F01F0003FAAF
:2022600000F01040704700BF00E100E040B2002801F10101ACBF00F16040064B4FEA411101
:20228000C9B2ABBF00F5614000F00F0080F800131954704714ED00E0144A08B5144B22F0A8
:2022A0007F029A60BFF34F8FBFF36F8FD3F8882022F47002C3F88820D3F8882042F4A002BA
:2022C000C3F888204FF04042C3F83422BFF34F8FBFF36F8F0023E1EE103A01F029FF01F043
:2022E0006BFF00F047F801F02FFF00BF0000000000ED00E00446084611461A460023E1EE59
:20230000103A83F30B880A4B2025A3F5A04686F30B8883F3098863B64FF0000383F31188D5
:20232000BFF36F8FA04785F31188BFF36F8FFEE760B20120014910220A60704710ED00E0B3
:2023400072B6404080F31188BFF36F8FBFF34F8F30BF62B6BFF36F8F704700BF72B64940AB
:2023600081F31188BFF34F8F20BF80F3118862B6704700BF002320210348C2180133412B1E
:2023800082F80013F9D1704700E100E001B5EFF30580A0F110004FEAC0000449014409C953
:2023A0009847BDE80140024908470000A87F00009D1E0000014B1860704700BF80C500203D
:2023C0000239012902D8034B1B6818474FF0FF30704700BF80C500200FB41FB5002106ABDC
:2023E00053F8042B0548009102210393FFF7BAFA05B05DF804EB04B0704700BF97700000F8
:202400000122024B0020C3F8402570470090035020B1034B800143F001031847704700BFC6
:20242000D081000001F0E8B8084B70B5C31A0D4607499B10044659434022064804F049FE46
:202440002B4601462046BDE870401847BCD50020B76DDBB6447F0000402373B50B4C00930C
:20246000041B0B460D460A49A41061430646094A094804F05AFE011E05DA30462B4602B01B
:20248000BDE87040184702B070BD00BFBCD50020B76DDBB69B710000447F000010B54FF0B1
:2024A0002003EFF3118483F31288BFF36F8F074A136823F00201DB07116002D4012005F0A1
:2024C0005EF984F31188BFF36F8F10BD0CD6002070B50022012104460520FFF7C7FE0F482C
:2024E00001F08CF90E4B984215D101F097F926690C49304604F083FC00280BDB0125356432
:202500002469084904F11C0004F079FC002801DB0020E56470BD6FF00400FBE75D25000002
:202520000000AD0BAC82000001460C2300224B4370B50848C41840331844D4E90E56A26349
:2025400004F0B4FD2DB132462B46BDE870400248184770BDBCD50020447F000010B1012886
:2025600004D07047034B1B6C5B0701D1FFF7DCBF704700BFBCD5002008B54FF02003EFF30E
:20258000118183F31288BFF36F8F124A136843F002001060DA0708D481F31188BFF36F8FF3
:2025A000BDE80840012001F04DB94FF05023D3F80C24D3F80C34DB07EED5074804F076FD03
:2025C00081F31188BFF36F8FBDE808400020FFF7ABBF00BF0CD60020FCD500202DE9F843CE
:2025E000012207463449D1E8EF3FC1E8E02F0028F9D133B9314932484B60CB608A6004F0C9
:2026000011FC7B1E012B2DD8012F07D14FF05023D3F81C3403F00303022B23D005F03AF9CD
:20262000054608BB274B1B78F3B14FF0502302220646C3F808234FF050244FF00008DFF80A
:202640008890D4F81824D4F81834D20316D503F00303022B01D0012F10D13DB386F3118878
:20266000BFF36F8FBDE8F8834FF02003EFF3118683F31288BFF36F8F0125DCE73046FFF79A
:202680006DFED4F81835DBB2012BDAD1D4F80421002AD6D0C4F80481D4F804210222C4F87F
:2026A00018252022C9F88021A360CAE74FF050230222C3F80423D5E7B8D50020A8D50020C7
:2026C000D8D50020D939012000E100E008B5074805F0C1F838B10648FFF76CFE0448FFF7A6
:2026E0001FF8002008BD6FF01200FBE7807F0000F52600000A2838B50446074D04D1AB68CC
:202700000D2128465B689847AB6803485B68E1B29847204638BD00BF807F0000024B0B6017
:2027200001231360704700BF10D60020004870470083000010B505F086F8034C206005F008
:202740007FF86060002010BD10D60020F8B50E461946304617461D4604F02FFDB8B146EA00
:20276000050414F0030412D14DB12B19032BA6EB040006D8074AD2F80034DB07FBD500205E
:20278000F8BD3B1B196801F087FC043CEDE76FF01500F5E70090035038B545682B69B3B160
:2027A0001035284601F040FB044680B90146284601F004FB084B98420BD1224628460749E3
:2027C00001F0E4FA224605210D20FFF74FFD002038BD6FF00400FBE70000AD0BE127000013
:2027E000430970B507D10B4B596821B101250C68094E854001B970BD8A682A4002D0304666
:202800004B6898471CB1236821461C46F2E72346FAE700BF18D60020587F00002DE9F043F5
:2028200040F206354668D00648BF0320337B02EA050558BFC2F3401087B001F01F07B5F5C5
:20284000837F144647EA43178DF8030041D00FD8062D18D007D8B5B1022D3CD06FF0150002
:2028600007B0BDE8F083B5F5807FF7D101250AE040F20222954230D0B5F5407F2FD0B5F5C9
:20288000007FEBD1022522032BD5012372688B409360326962BB07F01F037F0975D13D4ACF
:2028A00084F4803102EB8302D2F80032C1F30041C4F3404423F4E16344EA410423F0070366
:2028C0001C4344EA800444EA0524C2F800420020C6E70725D7E70425D5E70525D3E70325EC
:2028E000D1E7630341BF012372688B40D360D0E71036394630460DF1020201F04DFA14F48A
:20290000403F80460CD13946304604F092FF224B9845DCD130469DF8021001F08FFAD6E7D0
:202920004FF0000901AB3946304603AACDE90439CDE90199CDF80C9001F002F9164B984236
:202940008CD114F4003315D09DF8033084F48034C4F300448DF80E3039464B46304603AA15
:202960008DF80C508DF80D4001F098F90A4B9842CDD073E7CDE9043339460DF10303304616
:2029800003AA039301F0DCF8F0E7803352F82330FFDE00BF002584500000AD0BF0B540686E
:2029A00001F01F04057B87B044EA45140569002D5FD0B2F5001F00F1100506D12146284683
:2029C00004F039FF002007B0F0BD0027B2F5800F01AE0197776037D1B3F1007F14BF0523A6
:2029E00004238DF804300023CDE904630393836823FA01F111F0010118D1B2F1A07F15D193
:202A000004F01F03620903F1800338D11D4A52F82330DB070AD40DF103063246214628469D
:202A200001F0BAF9184B984219D002962146284603AA01F085F8154B98421DD10122214692
:202A4000284601F007FABDE7B3F1C06F05D0B3F1007F14BF01230223C3E70323C1E731469C
:202A6000284601F0F1F9094B9842DED06FF00B00A9E76FF08500A6E76FF01500A3E751F87F
:202A80002330FFDE002584500400AD0B0000AD0B2DE9F043594D5A4E5A4F00EB8101814229
:202AA00002D10020BDE8F083046814F4805FC4F3432C04F07F0340F08F807F2B4FEA1444A2
:202AC00008BF4FF0FF3315F80CC0192C00F28780DFE804F00D13191C1F251C8585858536ED
:202AE0006185858585858585858564797C7FC2F80C355C1C5CD10430D1E7C2F814355C1CE9
:202B0000F9D000245DE0C2F80835F2E7C2F81035F5E75C1CC2F80835EDD0002404E05C1C34
:202B2000C2F80C35E7D001245FEA531E5AD14FF00108DFF8CCE008FA03F9CEF80C900AE0C4
:202B4000C2F80835BCF1000FD9D15C1CD3D000244FF0060CA046D0F8009009F4005EBEF140
:202B6000000F1CBF4FF00008012403F01F0E5B093ED106EB8E0EDEF80032C9F3C1193B40C6
:202B800043EA890343EA0C2343EA080343EA4403CEF80032AFE7C2F80C35D3E7C2F86035E2
:202BA000B3F1FF3F0468A6D0C4F38034002CBAD05C091AD10124DFF848E004FA03F8CEF8FD
:202BC0000880A046C7E7C2F86435E9E7C2F86835E6E7C2F86C35E3E76FF0150062E76FF051
:202BE00085005FE70023DB60FFDE00239B60FBE700230EF1800E53F82E30F5E7A28C00006C
:202C000000258450F0F8FCFFF8B504460D46076904F040FE90B92C4B1B787BB1642660681B
:202C200004F0F4FBE0B9012004F047FD013EF6D1F4E786F31188BFF36F8FEFE74FF02003E4
:202C4000EFF3118683F31288BFF36F8F6068314604F0DCFB90B986F31188BFF36F8FEDE752
:202C60004FF02003EFF3118683F31288BFF36F8F6068314604F0CAFB0028DAD03B691D70BE
:202C8000626838691368C3F844050120C3F848050020C3F82001D3F82051C3F8580152681B
:202CA000D3F85801D20608D5082062681268C2F800054FF48002C3F8042301229A6081F3D8
:202CC0001188BFF36F8FF8BDD93901202DE9F7434FF00008476805693C680646C4F80085DE
:202CE0002860D7F80C904146484601AA04F060FB00283CDB019BD9F8002019791868FFF7FE
:202D0000C7FE002833DB6B7A3169012B03D0032B2BD14FF01008AB7A032B26D195F80BC017
:202D2000BCF1000F02D0BCF1010F1ED12A7A12B1022A1AD10E226B687068B3F5164F00688B
:202D400000F0B28034D8B3F5165F00F0B0801AD8B3F5966F00F0AD800CD8B3F5967F00F0BB
:202D6000AB80B3F5167F00F0AA806FF0850003B0BDE8F083B3F5166F00F0A480B3F5965F44
:202D8000F3D15C4B43E0B3F5E14F00F09E8008D8B3F5615F00F09B80B3F5964FE5D1564B88
:202DA00035E047F6122E7345DFD14FF400032EE0B3F5613F00F08D8015D8B3F5963F00F026
:202DC0008B800AD84DF6C02E734500F08780B3F5614FCAD14FF46B0319E0B3F5E13FC4D12C
:202DE0004FF0EB7313E0B3F5612F7AD009D8DFF820E1734578D0B3F5E12FB6D14FF0E8633F
:202E000005E0DFF810E17345AFD14FF08053C0F82435736848EA0C081B6842EA0802C3F815
:202E20006C250B1DD5E9010183E803007B68990712D505F1180000F08FFD304B984256D13B
:202E4000287E04F10C0204F5907104F038FC01202B7E984000F0CCFC0823C4F800353B7A7C
:202E600053B9C4F81031D4F810316B69C4F834350123C4F8383523607B6800209A075CBFB4
:202E80004FF48073C4F804337B68DB0644BF4FF48003C4F804332B69C4F844350123C4F8E0
:202EA0004805A360E36062E74FF41D03AFE7144BADE74FF49E23AAE74FF4A033A7E74FF4CE
:202EC0001C33A4E74FF41D23A1E70E4B9FE70E4B9DE74FF06C739AE70C4B98E74FF4650331
:202EE00095E74FF0706392E74FF080638FE76FF004003CE700B0130000A04E000000AD0B44
:202F00000050270000C0750000F03A0000903A0190D0030040420F000123834070B5DC43F1
:202F20000B4AD2E8EF1F01EA0405C2E8E65F002EF7D14FF4803282400648C0F80823BFF301
:202F40005F8FBFF36F8F0B4214BF0120002070BD28D600200050015070B40E4922F07F4634
:202F6000D1E90034D01AC31844F10004C1E90034A6F50013B3F5400F09D2074B1B681A0A0E
:202F80001B069C19054B42F10005C3E9004570BC01F072B9A8C600202CD60020B0C6002054
:202FA000D9B101230D4A8340D2E8EFCF4CEA030CC2E8E1CF0029F7D14FF48033084A834036
:202FC000C2F80433074BD3E8AF3FC340DB0742BF4FF40012044BC3F80021704728D60020CA
:202FE0000050015024D6002000E100E00D4B1868010A0006BFF35F8F0B4BD3F80435181842
:2030000041F10001B3F5801F0AD2084BD3E90023904271EB030303D210F1807041F10001FB
:20302000704700BF2CD6002000500150B0C600202DE9F04F85B016461F4604469DF840A0B7
:20304000FFF76AFF0190FFF7D1FFB04271EB070352D23B4B301A67EB0101984271F10001DD
:203060004DD2384B03EB0413D3E902239F4208BF964258D04FF48038334908FA04F8204645
:2030800026F07F4BC1F8488304F027FA4FF00309584604F15005AD00ADB205F1502504F514
:2030A000A87305F580350293029A20F07F4341F82230C1F84483D1F80435244AC01A0338B3
:2030C00020F07F4090422ED9286868B1D1F80435A3EB0B0020F07F40B0F5000F039322D9F0
:2030E000204604F0FAF9039BBAF1000F07D109EB030009F10109D7E7BAF1000F09D06FF0A8
:20310000150520460199FFF74BFF284605B0BDE8F08F01230E4AA340D2E8EF0F1843C2E8F2
:20312000E10F0029F8D107490E982301C8500F9B01EB04120025C2E902675360E1E700BF5C
:203140000100800098C6002000500150FDFF7F0024D600207FB500254FF0FF304FF0FF3104
:20316000194C1A4B0226C4F80833C4F84833184BC4F80855C3E902014FF480334FF40012B9
:20318000C4F80433134B0121C4F804631520C3F880212A46FFF76AF81520FFF737F80123C2
:2031A0000D4AA360236013600C4B0D4A009328460023CDE90155FFF73BFF3046FFF70EFA3D
:2031C000284604B070BD00BF0050015003000F0098C6002000E100E028D60020592F000049
:2031E000FFFF7F002DE9F7432E4BD3F8042390070BD5D3F8042142B10022C3F804212A4AC7
:20320000D3F80431136801331360264AD2F80433D90327D5254BD3E8EF1F21F00100C3E84D
:20322000E40F002CF7D1CB0702D4D2F84031CBB100251C4CC4F84051D4F84031FFF7D6FE67
:203240004FF02003EFF3118283F31288BFF36F8F174BD3E90267B042B94106D282F311887E
:20326000BFF36F8F03B0BDE8F0834FF0FF38D3E900104FF0FF391D60C3E902894FF4803370
:20328000C4F84833C4F84051D4F8403182F31188BFF36F8F0029E5D0009032463B462846DA
:2032A0008847DFE7005001502CD6002024D6002098C6002030B5431C124C85B005D08442AC
:2032C000A8BF0446012CB8BF0124FFF78FFE0E4B0C4DD3E90013401AB0F5000F0FD2221847
:2032E000AA4228BF2A46002052180849CDE90100009143F10003FFF79BFE05B030BD2A4690
:20330000F1E700BFFFFF7F00A8C60020592F000008B5FFF76BFE024B1B68C01A08BD00BF39
:20332000A8C60020012310B5074C15206360FEF77BFF4FF40012054BC4F80833C4F8483389
:20334000034BC3F8802110BD0050015003000F0000E100E040EA0103C3F30E0330B58BB964
:2033600040F21515094CC90BC0F3C730994201D1002030BDC218D2B202F5C07244F822502F
:203380000133F3E76FF01500F3E700BF0030005030B5816885B0103921F00704054603F0EC
:2033A0000DFE10220146684603F069FE10226846064903F059FE10236A462146284603F05D
:2033C000CBFD003818BF012005B030BD4C85000030B50D46816887B0102302AA10390446B8
:2033E00003F0A5FD002802DA012007B030BD1022204602A904F0A0F800283AD110221E49D4
:2034000002A803F021FE00280CBF012302232B70204604F07DF8012301460DF10702204672
:2034200003F085FD0028DFDB9DF80730204603F00F021B096A702B7101220DF1070104F048
:203440007BF810B96B78042B03D901236B7000232B71A2682046183A22F00702083AA91CA0
:2034600004F07DF80028BFD12046E91C04F0D0F8BBE70323CBE700BF4C850000F0B5354FD1
:2034800085B046000546694657F8260004F0C6F8044610B1FF2005B0F0BD013657F8260058
:2034A00002A904F0BBF8012837D12A4649212A4803F02FFD294B8DF80C40029300229DF88D
:2034C00000609DF80870264C3146207804F026F850B33946607804F021F828B3A378042B60
:2034E00003D09DF8031099421ED1E378042B03D09DF80B10994217D12379042B10D1627930
:20350000022A1DD1174B18482A46492103F001FD6079831E022BBED9BCE70028CED0B9E7BD
:203520009DF802109942EAD00132032A04F10604CAD10E482A46492103F0EBFC0120AAE799
:20354000032A05D00A4B0B49042A08BF0B46DAE7094BD8E7B8830000E18C000003010303F4
:20356000768D0000C38C00002C8D0000508D0000C88C0000DA8C0000BE8C000008B5EFF3C0
:203580001083012B0C4A07D1126ABFF34F8F511C4A424A41104608BD04F06DF800B172B661
:2035A000126ABFF34F8F531C5A425A4104F063F80028EFD062B6EDE70080FF0008B5EFF319
:2035C0001083012B0B4A06D1D269BFF34F8F02F00102104608BD04F04EF800B172B6D269D7
:2035E000BFF34F8F02F0010204F045F80028F0D062B6EEE70080FF0010B504F03CF830B1F3
:203600004FF050230022C3F81421C3F8182104F041F828B10122524BC3F8382AC3F87825B7
:203620004FF47F02D2F83031D2F83421BFF34F8FC3F30B03092B05D1012A1EBF0122484B60
:20364000C3F8782504F026F818B10E22454BC3F8E42E04F010F830B10022414BC3F80C2731
:203660000122C3F810270022D30003F57F03D3F80013BFF34F8F013108D0D3F8001301323D
:20368000D3F80433B2F5807F0B60EDD1EFF31084FFF794FF00284DD0BFF34F8F324BD3F83D
:2036A0000024012AFBD1C3F80425D3F80024012AFBD1012C03D003F0DEFF00B172B6FFF786
:2036C0007DFF58B1294AD36923F00103D361BFF34F8F254AD2F80034012BFBD1FFF74EFF33
:2036E00068B1224A136A23F0FF0343F020031362BFF34F8F1C4AD2F80034012BFBD1012CCF
:2037000003D003F0B8FF00B162B60022164BC3F80425D3F80024012AFBD1BFF34F8F144929
:20372000144BCA6802F4E0621343CB60BFF34F8F00BFFDE7FFF722FF0028ADD10C4BD3F82D
:203740008C2042F44062C3F88C20D3F8882042F47002C3F88820BFF34F8FBFF36F8F10BDF3
:203760000040005000A00350009003500080FF0000ED00E00400FA0530B50468ACB1B4FA38
:2037800084F30122C3F11F03DBB29A4024EA0202D0E8EF5FA54204D1C0E8EC2FBCF1000FFF
:2037A000F6D1EAD102480B7030BD0248FCE700BF0000AD0B0200AD0B10B50368CB40DB075A
:2037C00010D401238B40026843EA0201D0E8EF4F944204D1C0E8EC1FBCF1000FF6D1F2D1E2
:2037E000014810BD0148FCE70000AD0B0400AD0B014BC3F80405704700700150044B1A79A9
:2038000022B9012218601A71024870470248704730D600200000AD0B0C00AD0B08B5084BF3
:203820001B6833B10520FEF713FD10B90520FEF7EDFC4FF050230122C3F8182508BD00BFDA
:2038400030D6002010B510B1012847D010BD4FF05023D3F81814D3F81824C90322D502F04A
:203860000303022B05D0012B02D0002003F02EFF01234FF050220220C2F8183508224FF497
:203880008273002103F1502319601C68012402F150221460164A126822B34FF05023C3F894
:2038A0000403D3E7D3F81424D207E1D5D3F81C2402F00302013A012AD7D80D4A12681AB102
:2038C0000222C3F80423C1E7D3F80421002AFBD00022C3F80421D3F80431B7E700224FF450
:2038E0008073CEE71A68002AFCD019601B68ADE730D600204FF0502310B5D3F8002152B18C
:203900000020C3F80001D3F800210122C3F80823104B1B6898474FF05023D3F8042182B144
:203920000022C3F80421D3F80421D3F81824D3F81824022102F00302012A03D1C3F8181586
:203940009A6010BDC3F80813024B0120BDE810401B68184730D6002001460148FFF70CBF0E
:20396000BCC50020036803F01F025B090260024818BF0020704700BF0025845070B50D4C33
:2039800000F1080334F813300546DA050E4607D5C3F3432304EBC302526854F8333098474A
:2039A000A3682BB131462846E268BDE87040184770BD00BFC0C50020024611F0010004D08E
:2039C00003490B6A13600B6203B90020704700BF0025845010B4134AC0B2083032F81030C6
:2039E000D9051CD5C3F3432123F4F85322F81030002002F10E0434F8023F13F4807F03D0B7
:203A0000C3F3432399420AD001302028F3D1002342F8313004485DF8044BFFF7CDBE5DF814
:203A2000044B7047C0C5002018C60020F0B5054600200126044607468C420BD1114BD3F83E
:203A40007C2132B10022C3F87C21D3F87C3140F00040F0BDE3B29B0003F580729B0806FA1A
:203A600003F31D420BD002F1A04202F55042D2F800C0BCF1000F02D017601268184301341F
:203A8000DAE700BF00D00050CBB2024608460D49083331F81330990611D599070FD401214C
:203AA00010685B0B9940C0F80813126802EB8303D3F8102522F00302C3F8102570470021B0
:203AC00003F0A8BEC0C50020F7B5194ECDB2083536F815300746DB070C4626D5FFF7D4FF61
:203AE00036F815309A0608D55A0B3B6803EB82030022C3F81025C3F810252046FFF76AFF94
:203B0000002301A826F815300194FFF72BFF019B00EB8300D0F80022064B134043F00203F1
:203B2000C0F80032044803B0F0BD0448FBE700BFC0C50020F0F8FCFF0000AD0B0400AD0B06
:203B40002DE9FF41136807460C461646FBB1DFF84481CDB2083538F8152002F02202222ACE
:203B600022D000222046CDE900228DF80E208DF80F200DF10E010DF10F0203F002FE38F84D
:203B8000153023F0020343F0010328F8153073684BB31A785868DFF8FCC0E3B208333CF86A
:203BA00013108D0702D5B0B138481FE021F02001C904C90C2CF8131068B1032AF4D8706892
:203BC0003D68406890F800E005EB8E058AB9C5F81025C5F810253CF8131021F01C0141EAD6
:203BE00082022CF81320B3682BBB294804B0BDE8F081D5F8108541EA4E3128F00308C5F8C2
:203C000010853D6841F0200105EB8E05D5F810052CF8131020F4473020F44070C5F810054B
:203C20002002D5F8107500F4F85040EA02403843C5F81005CFE72046D3E90067FFF7CAFE1E
:203C4000002ED2D0134DD5E90023964203D19F4201D1002209E010480DF10F01FFF78CFD04
:203C60000B4B9842C2D19DF80F20E4B205EBC20308345F6035F8143045F8326043EA4223A5
:203C800043F4807325F81430AFE700BF0400AD0B0000AD0BC0C5002018C600202DE9FF41D7
:203CA00007460C461E4612B3DFF8D480CDB2083538F81530980701D4990621D413F01C0FAA
:203CC00002D05378012B1BD001238DF80F3000232046CDE900230DF10F01931C013203F003
:203CE00050FD38F8153043F0030328F81530002E44D0234DE1B2083135F81120930703D417
:203D0000204804B0BDE8F081002096F800E03B6822F02002D20403EB8E03D20CC3F8100509
:203D200025F81120C3F8100596F801C04FEA8E08BCF1000F22D03868B6784044D0F810353A
:203D40004FEA0C4C23F4981323F4F853C0F81035230203F4F8530CF4403C3605D0F8107546
:203D600043EA0C0306F48016334342EA4E323B4342F02002C0F8103525F811200248C0E747
:203D8000C0C500200400AD0B0000AD0B014BC3E902127047C0C50020054BC9B2083133F873
:203DA0001130990643BF5B0B0248137002487047C0C500200000AD0B0400AD0B70B5174E4A
:203DC000054696F860403CBB2146402206F1100003F055F921462D68306D884212D10023F9
:203DE00045F30730C5F87C31D5F87C31FEF70EFA4FF00043C5F804330123094886F860307A
:203E0000B36570BDCBB29B0003F580727C2B04BFAC50AB580131E0E70248F2E7C0C5002031
:203E20000000AD0B0C00AD0B034B93F86000003818BF0120704700BFC0C500200148FFF743
:203E4000BBBC00BF14C600200148FFF795BC00BF14C6002073B5CBB20C461D49083331F828
:203E6000133099061AD513F0020617D15B0B05689C0004F580716E50695801682144D1F80F
:203E8000104544F00104C1F810452AB10122016802FA03F3C1F8043302B070BDC3F3820323
:203EA000042B11D0052B11D001A80194FFF75AFD019A0369D34003F00103991C204602B078
:203EC000BDE8704003F0A6BC0321F7E70221F5E7C0C500202DE9F347534B544FD3F804032F
:203EE000396DC0B240F00040FFF7A0FD051E18DA00236846F96D00934FF00108FFF75CFD31
:203F000097F85C30DA0757D4396D4FF00040FFF78DFD6846F96DFFF74FFD0028F0D125F081
:203F200000450124002D66D102B0BDE8F08794FAA4F4B4FA84F4E00804F1080337F81390DF
:203F400004F007021DF8003008FA02F223EA02030DF8003001A80194FFF704FD019B4FEAD8
:203F60009901803350F82360C9F3820A4B07D146C6F3014624D520465146FFF7FFFC01A8E8
:203F80000194FFF7EFFC019BF6B2803350F82330C3F301439E4207D10021204603F03AFCB7
:203FA0003146204603F036FC01A80194FFF7DAFC019B08FA03F30362009C002CB7D1A3E722
:203FC000022E0CD10321204603F024FC0AF00503012BE9D149462046FFF7D0FCE4E70221AA
:203FE000204603F017FCBAF1030FF3D0032EDBD1BAF1020FEDE795FAA5F3B3FA83F304FA20
:2040000003F29B0003F1A04303F55043D3F81005D3F81015C0F30420C1F3014125EA0205FB
:20402000FFF7ACFC7EE700BF00D00050C0C500200022034BC3F88425C3F80425704700BFCB
:2040400000900350044AD2F80834DB07FBD50160BFF35F8F704700BF0090035008B5C0F3AD
:204060000B0383B90222094BC3F88425C3F804254FF0FF320260D3F80024D207FBD5FFF7D6
:20408000D7FF034808BD0348FCE700BF009003500000AD0B0A00AD0B012208B5054BC3F805
:2040A0008425C3F80425FFF7CDFFBDE80840FFF7BFBF00BF00900350104B70B553F8204083
:2040C000013053F82060A64200D870BDD4E9003595B153B12846984738B10028B8BF404264
:2040E000FF28A8BFFF20EB681870EA68537843F0010353700834E6E79847FBE7C083000014
:20410000012208B5084B03201A70FFF7D5FF00F035F90420FFF7D0FFFCF77CF9034A137BAB
:2041200023F00103137308BDD9390120B8C6002008B50348034A0021121A03F0A7FB08BD50
:2041400098C600205C5A012008B50020FFF7B4FF164B03F5006282F3088883F30A88002597
:20416000E023134C84F82230E57725766576A57684F82050636A43F4E023636284F823507B
:20418000FDF7BAFFFEF7D6F84FF0FF33A362E36203F060FB0120FFF78FFF0220FFF78CFF5E
:2041A0002B462A4629460348FEF7A4F8605A012000ED00E00141000008B50648064A07493E
:2041C000121A03F065FBBDE80840054A0549064803F05EBB68C5002097C6002028900000FA
:2041E000000000002890000068C50020034B1B680BB9FFF78DB80020704700BF38D6002026
:2042000010B50E4B1C689C4204D1FFF7EFFF6FF0004010BDFFF7EAFF002CF8D0D4E9043233
:204220001B1A62EBE072B3F1004F72F10001EEDA002AACBF18460020EBE700BF24C60020DD
:2042400030B570B10B4B5B6898420AD0036843B1D3E90421D0E90445121941EB0501C3E940
:204260000421D0E9003213605A600023C0E9003330BD00BF24C600202DE9F84F4FF020038D
:20428000EFF3118783F31288BFF36F8FDFF8B4902A4E4FF0000A3060D9F800004FF0000B5D
:2042A000484508BF0020264C3D46D4E9001E336888B3D0E904874FEAE37C43457CEB070210
:2042C00006DAB8EB030267EB0C07C0E9042722E018EB01014EEBE873C0E904ABC4E900136A
:2042E000FFF7AEFF85F31188BFF36F8F836898474FF02003EFF3118583F31288BFF36F8FF6
:204300003368D9F80000A3EB080348452F463360CAD1D4E9001E59184EEBE373C4E90013CD
:2043200000243460FFF76CFF2146FEF7C3FF85F31188BFF36F8FBDE8F88F00BF38D600206C
:2043400038C7002024C6002010B54FF02003EFF3118483F31288BFF36F8FFFF747FF034651
:20436000054AD2E90001181841EBE37184F31188BFF36F8F10BD00BF38C70020014802F0DC
:20438000E0BC00BF888D00000346F0B560B342B3174D286840BBD3F8C872D3F8D8128F423D
:2043A00013DA144C04F5C046318844F8217001F50057013189B2B1F5805F24F817203180E8
:2043C00003D96FF01E002860F0BDD3F8C8120A44C3F8C822D3F8CC329A42A8BF6FF01D002F
:2043E000F2E76FF02100EFE76FF02000ECE700BF3CD6002044D6002008B5134660B172B1C7
:204400000A46D0F8C0120748006803F04BFA002818BF6FF01C0008BD6FF02000FBE76FF0C4
:204420002100F8E7B83801202DE9F7430F4615460446002855D0002A50D0DFF8B080D8F8B3
:204440000060002E4DD1D0F8C812D4F8D832DFF8A0909942D9F8000039DA06236A46D4F8CD
:20446000DC1203F01FFA88B9D4F8DC12BDF800300631AB42C4F8DC1205D1DDF80220D4F8FB
:20448000C8329A420CD01848FDF7A6FF6FF01D03C8F800306FF01D06304603B0BDE8F0833F
:2044A0002B463A46D9F8000003F0FCF90028EDD1D4F8DC322B44C4F8DC32D4F8C8321D4432
:2044C000D4F8CC32C4F8C8529D42E5DBE2E713463A4603F0E7F90028EFD0DBE76FF02106F9
:2044E000DAE76FF02006D7E7BA8D000040D60020B8380120F0B5294D0F4604462B6887B0A6
:20450000002848D0264A4FF42F211278002610321203C0F8C82202F51F22C0F8CC224FF48E
:204520008032C0E9B421C0F8D8224FF47F221D49C0E9B766C0E9B0121B490E801B4A384649
:2045400000921B491B4A019403F055FB86191FD1D4F8DC324FF400710493D4F8C432164854
:204560000393D4F8C03202934FF4A0230193D4F8D0320093D4F8C8224FF42023FDF72CFFFC
:204580000094334638462A680C4900F033FC0646304607B0F0BD6FF02306CFE7B438012019
:2045A0008CC6002028020B0044360120C778000089430000FD780000D58D0000F94300009B
:2045C00007B50246D2F8C0320092064AA3F53023084612680449A3F50A7300F00BFC03B07A
:2045E0005DF804FBB4380120F94300002DE9F041DFF8B4808CB007460E46154628232549DB
:20460000D8F8000002AA03F04DF90446B0B9029B214A934231D12022394604A802F014FDE3
:2046200028BB0A232B700E23019304231949D8F800000DEB030203F03CF928B16FF024042C
:2046400020460CB0BDE8F0811448FDF7C5FE039B336003F5312203F5302303F50A73C3F31D
:204660000B0302F50A72D21A0D4B1A60E8E70D4802F067FB6FF02504E2E70E2B02D10A23F9
:204680002B70E4E70A2B01D10223F9E7022B08BF2870DCE700020B004E455750678E00001D
:2046A000B03801209C8E0000B83801204FF0A53330B5ADF50B5D8BB00DF500540434D0F81F
:2046C000E052036001464FF43972204602F0CCFC4FF40052264901A802F0C6FC01AB03F5EB
:2046E0000850EAB223493D3002F0BEFC2249234D0B7D04F12C0084F83C32CB694FF40472E6
:2047000063600B6A4431A36051F81C3CE36051F8183C2361D1F82032A361D1F81C326361EA
:2047200011F8043C84F8283051F8083C636251F8103CE36151F80C3C2362114C02F094FC3C
:204740004FF440522968206803F0BAF842F2E4232968206801AA03F0ACF820B1094802F01C
:20476000F0FA6FF01E000DF50B5D0BB030BD00BFDB390120DB59012048360120B0380120CF
:20478000B8380120CF8E00004FF0A53370B504460D460A4E03604FF48052306803F090F8EF
:2047A0004FF4397322462946306803F082F820B1034802F0C6FA6FF01E0070BDB8380120A5
:2047C000E18E00002DE9F04F0446A7B0002800F0D280D0F8DC32002B40F0A6800A221D4624
:2047E000DFF8C4916548B9F8001003929AB2914263D8DFF8B8812A46614802F0A2FAD8F8A9
:20480000003003F580432B44B3F57F2F5BD801262D0B6F1C5B4DD4F8C4124FF48052A1EBE0
:20482000063101362868B6B203F04AF8BE42F2D9731ED4F8C4620027A6EB0336B246DFF8CF
:2048400070B1B9F80020BBB29A4243D84E4B4FF42F221B78D8F8001010331B03C4F8C8324B
:2048600003F51F23C4F8CC324FF48033C4E9B432C4F8D8324FF47F23444A01F54051C4E94E
:20488000B02300232046C4F8E032A9F80030C4F8DC62FFF779FF4FF44052D8F80010286870
:2048A00003F00EF8042303AA3949286803F001F8002818BF6FF0240009E030F8022F013335
:2048C0000632154492E7334802F03BFA1F2027B0BDE8F08FBAB202F500533BF81330286836
:2048E000991D01915BF822100DF11602ADF81030CDF8121002F0D6FF28B1274802F021FAED
:204900006FF01D00E3E75146019B286804AA02F0D0FF013728B1214802F013FA6FF01E0029
:20492000D5E7019B9A448CE70223164D1C48049302F007FA4FF40052D4F8D012286802F093
:20494000BFFFA8B9D4F8E032164AD4F8D012286802F0AFFF0028DED1D4F8E022D4F8D032A9
:20496000C4F8E0021344C4F8D03204AA04239BE76FF02200ABE76FF02000A8E74216012093
:20498000F38E0000B83801208CC6002028020B0000020B00188F00003F8F00004F8F00007E
:2049A000608F0000DB39012044360120B038012044D6002038B5244D0446D0F8D0124FF460
:2049C0000052286802F07CFFC0BBD4F8D012286801F50053C4F8D8321C4A4FF4005302F0D2
:2049E00068FF054630B11A4802F0ABF96FF01E05284638BDD4F8D032D4F8D42203F500536C
:204A00009342C4F8D0321CDAD4F8E0221149A2F50052C4F8E022A1F5005002F025FBD4F87A
:204A2000E0220C4904F23D2002F01EFB0A4B2046196801F54051FFF7A7FED9E76FF022051D
:204A4000D6E76FF01B05D3E7B8380120DB3901207F8F0000DB590120B038012038B5154666
:204A60000446002848D0B2F5805F05D92448FDF7B3FC6FF01E0038BDD0F8E0322148184428
:204A800002F0F2FAD4F8E0321D44B5F5005FC4F8E05201D20020EEE72046FFF707FE1A4976
:204AA0004FF404720B7D04F12C0084F83C32CB694431636051F8243CA36051F81C3CE360AE
:204AC00051F8183C2361D1F82032A361D1F81C32636111F8043C84F8283051F8083C63624C
:204AE00051F8103CE36151F80C3C236202F0BCFA2046FFF75FFFCDE76FF02000BBE700BFD1
:204B0000918F0000DB3901204836012070B5144605462F4AADF5027D0B4601900092204663
:204B20002C4A2D4903F067F8D5F8C0222B4B06469A4245DD2A4802AE4FF400733246294906
:204B4000006802F0AFFE00283ED14FF40073C4F85C62C4E998302046256903F04AF895F8BC
:204B60003C32064623756B684FF40472E361AB6805F12C012362EB6804F14400A3622B6933
:204B8000E362EB6963636B6AE3632B6AA36395F8283084F8403002F067FA6B69C4F86032BA
:204BA000AB69C4F86432D5F8E032B3F5005F03D32846FFF7FFFE0646002E01DA082323755A
:204BC00030460DF5027D70BD6FF01C06F8E700BF5D4A0000FD7800002944000027020B00D5
:204BE000B838012028020B0070B5394DADF50B5D384E8AB0296804463748FDF7EDFB42F290
:204C0000E4232968306801AA02F04CFE48B1334802F097F86FF01E0528460DF50B5D0AB074
:204C200070BD29684FF439732246306801F5405102F038FE05460028E9D1D4F8C0320133F9
:204C400018D0BAAB03F5E853D3F8E412D4F8C8221C33914205D1D3F8DC22D4F8DC329A42E6
:204C60002ED0BAAB03F5E853D3F8EC22D4F8D0329A4225D1BAAB03F5E8514FF439721C3154
:204C8000204602F0F1F94FF4005201A9144802F0EBF980220DF509511248013102F0E4F908
:204CA0006369002BB8D0A2699342B5D8D4F8C03203F50073C4F8C0320023C4E90533ABE797
:204CC000D4F8E022802AEBD8054804F23D21E5E7B0380120B83801209D8F0000BC8F00009B
:204CE000DB390120DB5901202DE9F34100F5177704460DF10601384602F01EFE00284BD13E
:204D00009DF8063003F00F0213F0700FA2613DD138460DF1070102F00FFE054600283BD12F
:204D20004FF006089DF8076006F03F069DF90730002B18DB4FF6FF7327630027A4F844308C
:204D4000676304F1460002F0BCFFBE4214BF01230723144AC4E90876C4F85422124A2375D1
:204D6000C4F8582214E038460DF1070102F0E4FD90B9B8F11B0F12D09DF8073003F07F0373
:204D800003FA08F31E4308F10708CFE76FF00205284602B0BDE8F0816FF01105F8E76FF0AD
:204DA0001805F5E7FB79000053790000002370B50546C0E99833284602F0C8FE0028FAD09B
:204DC0002869FFF7FFFC044640B9D5F854326E6A33B9344621460648FDF7FEFA204670BD49
:204DE00005F13000984704460028F3D1F1E700BFCD8F00002DE9F047ADF5007D06468846FF
:204E000017461D46DDF8209223B1C369D0F860229B1AC3610024AF4204D89CB33046FFF77C
:204E2000C5FF33E0002CF9D1A7EB050ABAF5007F28BF4FF4007A694652464846C047F0B9AD
:204E400052466946304602F0E6FE51460446484602F065FD554402F023FD4FF47A7C642391
:204E6000A0FB0C026B430CFB0122C00B40EA4242B3FBF7F329460848FDF7AEFACBE76FF034
:204E80000904CBE73046FFF791FF044620460DF5007DBDE8F08700BFEA8F000010B50A4CB9
:204EA00023681BB101232360002010BD00F046F80028F7D00138062803D8044B53F82000EE
:204EC00010BD034810BD00BFBC380120D8830000FE8FFFFFBFF34F8F0549064BCA6802F4DC
:204EE000E0621343CB60BFF34F8F00BFFDE700BF00ED00E00400FA0530B44FF0FE320025B5
:204F0000074B084C08494968C3F80024C3F80424C3F80824C3F80C24C4F8005530BC084709
:204F200000108450000084502CC60020024BD0E90012C3E9001270472CC6002038B500F02B
:204F40002FF820B1032400F063F8204638BD00F031F898B900F0ACF898B90F4DD5F82839B3
:204F60001B0EF02B08D1D5F8242A0C4B9A420AD0072400F017F8E6E70624FAE7042420465C
:204F800038BD0024F5E7012000F092F804460028F7D1C5F80C0AD8E7001084500000E020D1
:204FA0000020704700207047014BC3F8040A70470010845010B5114800F048F800B110BDC7
:204FC0000F4800F043F80028F9D10E4C204600F03DF80028F3D10C4B0C481C6000F036F847
:204FE00001460028EBD100F02DF8044608B1204610BD00F03FF82046FAE700BF44C60020E4
:2050000040C600203CC6002034C6002038C6002008B5084800F024F8074800F021F8074850
:2050200000F01EF8064800F01BF8BDE8084000F00BB800BF44C6002040C600203CC6002048
:2050400038C6002000207047704700BF08B5034B02681B6810689847002008BD5CC600206F
:2050600008B5034B02685B6810689847002008BD5CC6002070B5094C094D2069AB6898472F
:2050800018B1084B08485B6898470021074AEB6811602069BDE87040184700BF48C60020A2
:2050A0005CC600202CC60020F4830000C0380120F8B51A4D1A4E0446B26828699047E8B923
:2050C000184F3B684CB1A3B1012B19D0013B3B602869F36898470020F8BD43B90121124A6F
:2050E000C2F800151149D1F81029002AFBD101333B60F368286998470020F8BD0C48F8BD17
:205100000A4AD2F81039002BFBD1074A6FF07E40C2F80035FFF748FF3B68D7E748C6002008
:205120005CC60020C03801200000845000108450E98FFFFF10B5044650B1636813F0685F41
:2051400005D0064A934202D000236260236010BD034B04485B689847EFE700BF2C5F5CA9ED
:205160002CC6002014840000C8B143680D4A934213D013F0685F0ED0012350E8002F1946C0
:2051800040E8001C9CF0000FF7D1012AF5D0BFF35F8F0020704704487047044870476FF498
:2051A000E04070472C5F5CA9E98FFFFFEA8FFFFF034680B1426809498A420AD012F0685FB6
:2051C00005D0BFF35F8F002210461A60704704487047044870476FF4E04070472C5F5CA9E1
:2051E000E98FFFFFEA8FFFFF10B5044620B10023034A2360626010BD0248FFF77DFEF6E7C8
:205200003A00003A3C84000030B10268034B04489A4208BF0020704702487047DD55AABB63
:205220008208F0007108F00038B50D460446B0B1A0220021043002F046FE95B10822294674
:2052400004F1640002F045FE082205F1200104F1840002F03EFE0020034B236038BD0348A7
:20526000FCE70348FAE700BFDD55AABB7108F0008308F0002DE9F74305460E4699461146C0
:20528000FFF7C2FF0446002840F08480002E00F08580002900F08480B9F1200F40F0828066
:2052A00005F14404082205F10408204602F011FE05F1240708223146404602F00AFE06F1E4
:2052C00020010822384602F004FE02A941F8049D4FF4807002F0F1FD002865D14FF48073E5
:2052E000324A0121136093600823314A00F034FB0121052308462F4A00F02EFB0823424608
:2053000001211C2000F028FB08233A460121032000F022FB224608230121022000F01CFB41
:205320000823254A01211A2000F016FB0523234A01211B2000F010FB0823214A012114209D
:2053400000F00AFB08231F4A0121152000F004FB082305F164020121162000F0FDFA08238D
:2053600005F184020121172000F0F6FA0823164A01210B2000F0F0FA00F04AFB04460198AE
:2053800000F0D8FA114B002C18BF1C46A421284602F09BFD204603B0BDE8F0830C4CF9E764
:2053A0000C4CF7E70C4CF5E7084CEFE790108450A0840000188500006084000004850000B7
:2053C000C4840000E4840000808400008408F0007608F0008008F0008108F000C2690C4BBC
:2053E0001A60826943F8042C426943F8082C026943F80C2CC26843F8102C826843F8142CDF
:20540000426843F8182C026843F81C2C704700BF5C1684500C4B1B68C3610C4B1B688361FE
:205420000B4B1B6843610B4B1B6803610A4B1B68C3600A4B1B688360094B1B684360094B2E
:205440001B680360704700BF5C1684505816845054168450501684504C1684504816845088
:20546000441684504016845030B10268034B04489A4208BF0020704702487047DD55AABBDD
:205480000202F0000002F00038B5044668B1051D7021284602F019FD28462022044902F0BE
:2054A00010FD0020034B236038BD0348FCE700BF2C850000DD55AABB0002F0002DE9F04389
:2054C00085B015466F46274B04460E460FCB87E80F002DB94FF00009484605B0BDE8F08396
:2054E0002046FFF7C1FF81460028F5D1231D0193636AA3BB236F8BB1C3F14008A84528BF3E
:20550000A84604F1300031461844424602F0D9FC236F464443442367A5EB0805226F402A91
:2055200006D104F13001384600F0B4FB0023236705F03F0835F03F0505D031462A463846C5
:2055400000F0A8FB2E44B8F1000FC3D04246314604F1300002F0B5FCC4F87080BCE7DFF80E
:205560000890B9E7C08100000C02F0002DE9FF4104466F46134B0E460FCB87E80F002046EF
:20558000FFF772FF8046B0B9CEB1636A251D01953BB90123226F636204F13001384600F04F
:2055A00079FB2B46043E243453F8042B12BAA34246F8042FF8D1404604B0BDE8F081DFF8E0
:2055C0000880F8E7C08100000502F000084B1B681B0EF02B08D1074B1A68074B9A4205D161
:2055E0000020064B18607047052070470620704728198450241A84500000E0200C1A845031
:20560000002230B5134640F6FC754900023802F1A15404F5823490424FEA840402F10102E0
:20562000CABF236025605B181E2AF0D1034A13600B445360024B034A1A6030BD781084503E
:205640008410845020F80F001E4B30B51A4685B0196800910099CC07FAD500F1A15000F5B4
:2056600082308000016813680193019BD807FAD5154B164C186820231F3090FBF3F0144D93
:205680000138002810DA00230130400153B14FF00042A0F12001134204D1013888424FEA8D
:2056A0005202F8D105B030BD13680393039BDB07FAD5431823602B680293029B002BE3D149
:2056C0000138DEE7B4108450AC108450E4108450DC108450F0B51D6885B001F01F040DB9E3
:2056E0001F2C28D1174D2E462F680197019FFF07FAD500F1A15000F58230800000683568DC
:205700000395039DED07FAD51F2C00EB611018BFC9430D4D18BF01F01F0128600B4800687F
:20572000029002981CBF00FA01F111604FF0000108BF1060196010684300C00F136005B063
:20574000F0BD00BFB4108450E4108450DC1084500C4B890118603F3020F03F00403058607E
:2057600099600948D9601961596199611C3382B0196002680192019AD207FAD5196002B013
:20578000704700BF90108450B410845038B5A0F12003B3F5426F05462CD88F2826D800F198
:2057A000470300F16604DB064FEA541400D0013464013F34A409013411B1A1421AD30C461F
:2057C0004FF48050E300B0FBF3F0202828BF202002B110600122084B21461A60FFF710FF57
:2057E00028462146FFF7B4FF002038BD00F11F046409DDE70148F8E71C1884502221F0006E
:20580000464BF0B51D4689B01C680194019CE407FAD5434B002413449B001A680B181E2BB4
:2058200088BFC0F11E011F320B1852095343B3F5806F84BF4FF48061B1FBF2F1274688BFAB
:20584000091ADFF8E4E000F1A150DFF8E0C000F58230A14233DC2B680493049BDB07FAD51E
:20586000304B1B68296805910599CF07FAD52E4C2E49236000231E46934203F1010040D1EA
:205880001946002620F0010228488A423CD8296806910699CE07FAD52549096828680790AF
:2058A0000798C007FAD5216000210C461F488B422DD100201D499A422CD809B0F0BD2B682E
:2058C0000293029BDB07FAD503199B001B682E680396039EF607FAD5CEF800300023934221
:2058E00003F1010306D1164623F00103B34204D80134AEE7CCF80070F1E7CCF80070013654
:20590000F4E70E600346B7E706600131BDE704600131CCE708600133CDE700BFB41084502B
:20592000240421147C108450D4108450D81084507810845008B540B1202801464FF0070255
:2059400028BF20210020FFF75BFF0022014B1A6008BD00BF1C188450F0B5294D85B02C4679
:205960002E680096009EF607FAD500F1A15000F5823080000568206801900198C707FAD5CC
:205980002048214F056002EB8306B24229D100275A1C1D4E22F001029A4227D8236802934E
:2059A000029BDE07FAD5194B0B449B001B681F335B099A4213D2216803910399C907FAD5F6
:2059C00000211544056008469B1A0F4A8B4210D800205A1C0C4922F001029A420CD805B062
:2059E000F0BD52F804CBC7F800C0CEE737600133D2E710600131E9E708600133EDE700BF88
:205A0000B4108450D4108450D8108450240421142DE9F041814BA0B01D68986820331E467E
:205A20001A680192019AD707FAD57D4B7D4A1A6032680292029AD407FAD57B4A1A607B4A88
:205A40001446116803910399C907FAD5784A1168C1F3402137680497049FFF07FAD5754FDE
:205A60001F6027680597059FFF07FAD51768002900F0CF80B90540F1CC8031680691069912
:205A8000CF07FAD56C491960216807910799C907FAD51168C1F3402137680897089FFF075A
:205AA000FAD5664F1F6027680997099FFF07FAD51268002900F0AF80910540F1AC803268E8
:205AC0000A920A9AD207FAD5564A1A6032680B920B9AD707FAD55A4A1A6031680C910C9942
:205AE000CC07FAD55749196031680D910D99C907FAD55549196031680E910E99CF07FAD5D4
:205B00005249196031680F910F99CC07FAD550491960504B1E46196810911099C907FAD573
:205B20003F4C4D4B236033681193119BDB07FAD54A4B236033681293129BDF07FAD5484BD6
:205B400023603A4B9846196813911399C907FAD5324F386033681493149BDB07FAD52260B2
:205B600033681593159BD807FAD53E4B236033681693169BD907FAD53B4B23603368179386
:205B8000179BDA07FAD5394B236033681893189BDB07FAD5364B236033681993199BD80714
:205BA000FAD5344B236033681A931A9BD907FAD5314B236033681B931B9BDA07FAD52F4B40
:205BC000236000F01DFC08BBD8F800301C931C9BDB07F9D53D6033681D931D9BD907FAD511
:205BE000274B236033681E931E9BDA07FAD5254B2360D8F800301F931F9BDB07F9D50C4B95
:205C00001B6813F4805F204B08BF184620B0BDE8F0811E48FAE71E48F8E700BF90108450E6
:205C20008010845000100251C01F7229B410845088108450C0CF0129C01F0E29C03F002928
:205C400040010249003184A800001649400108A180440888B0108450C044708880077A41EC
:205C6000C0077E4100006A498006164940006E4900020021008220214082202180822421DF
:205C800040A161A100C861510308F1000108F1000208F100324B2DE9F74F80469246994660
:205CA00044681A68002AFCD12E4B9B461A68002AFCD14FF0FF30019100F094FC802000F0DC
:205CC00097FC01230720284A284DA2F59E722B60C2F83C011360636A254F264E3B60A36A06
:205CE00020463360D8F8003042F8043CD8F8083098470199D9F80030002BFBD1BAF1000FFE
:205D000020D104221C4B1A60D9F80030002BFBD1DBF800A0BAF1000FFAD1D8F80C30204629
:205D200098473B6863623368A362144BC3F800A0C3F844A1D9F80030002BFBD12B6003B0EC
:205D4000BDE8F08F236A4020012B04BF0B4A13600B4B1960C3F804A000F050FCD4E700BF97
:205D600010198450201C84500019845018188450CC178450D0178450C81784508416845092
:205D8000281C8450544B10B5194698B01A680192019AD207FAD5514B514A1A600A680292D1
:205DA000029AD407FAD54F4A1A600A680392039AD007FAD54C4818600A680492049AD207B5
:205DC000FAD54A4A1A600A680592059AD407FAD5474A1A600A680692069AD207FAD5454AA8
:205DE0001A600A680792079AD407FAD5424A1A600A680892089AD207FAD5404A1A600A6801
:205E00000992099AD407FAD53D4A1A600A680A920A9AD207FAD53B4A1A600A680B920B9A8C
:205E2000D407FAD5384A1A600A680C920C9AD207FAD5364A1A600A680D920D9AD407FAD502
:205E4000334A1A600A680E920E9AD207FAD5314A1A600A680F920F9AD407FAD52E4A1A609C
:205E60000A681092109AD207FAD52C4A1A601A4B19461C681194119CE407FAD5174B18609E
:205E8000086812901298C407FAD51A600A681392139AD007FAD5124A1A600A681492149A2C
:205EA000D207FAD51E4A1A600A681592159AD407FAD51C4A1A600A681692169AD007FAD596
:205EC000194A1A600A681792179AD207FAD5174A1A6018B010BD00BFB0108450801084504A
:205EE0000093652100043190409665900083612100C3302100C36490008161900046102140
:205F0000008111210041442100C320290C4610C80086312100C3602140C128294096652128
:205F20000013319040962529594614C840043249494B10B5194694B01A680092009AD207AC
:205F4000FAD5464B464A1A600A680192019AD407FAD5444A1A600A680292029AD007FAD53D
:205F6000414818600A680392039AD207FAD53F4A1A600A680492049AD407FAD53C4A1A6081
:205F80000A680592059AD207FAD53A4A1A600A680692069AD407FAD5374A1A600A68079259
:205FA000079AD207FAD5354A1A600A680892089AD407FAD5324A1A600A680992099AD207C8
:205FC000FAD5304A1A600A680A920A9AD407FAD52D4A1A600A680B920B9AD207FAD52B4AE0
:205FE0001A600A680C920C9AD407FAD5284A1A600A680D920D9AD207FAD5264A1A600A681F
:206000000E920E9AD407FAD5234A1A600A680F920F9AD207FAD5214A1A600F4B19461C6821
:206020001094109CE407FAD50C4B1860086811901198C407FAD51A600A681292129AD00720
:20604000FAD5174A1A600A681392139AD207FAD5144A1A6014B010BDB010845080108450C9
:2060600080906521000409904096659080806121802008218020649000816190004610215A
:20608000008111210041442180202029024610C800860921802060214021282940966521BF
:2060A00040962529594614C8504B10B51C4696B01A680192019AD207FAD54D4B4D4A1A6038
:2060C00022680292029AD207FAD54B4A1A604B4A42EA804022680392039AD207FAD51860F2
:2060E00022680492049AD007FAD5454A1A60A2F5800242EA814122680592059AD207FAD5C4
:20610000196022680692069AD007FAD53D4A1A6022680792079AD107FAD53B4A1A602268A9
:206120000892089AD207FAD5384A1A6022680992099AD007FAD5364A1A6022680A920A9A4D
:20614000D107FAD5334A1A6022680B920B9AD207FAD5314A1A6022680C920C9AD007FAD5C4
:206160002E4A1A6022680D920D9AD107FAD52C4A1A6022680E920E9AD207FAD5294A1A605F
:2061800022680F920F9AD007FAD5274A1A60216810911099C907FAD51A60144B1A4619686E
:2061A00011911199C807FAD5114B20491960116812911299C907FAD51D4919601168139155
:2061C0001399CC07FAD50B491960116814911499C807FAD517491960116815911599C907C5
:2061E000FAD5154A1A6016B010BD00BFB0108450801084504004419000862929D81001C80F
:206200004014419040142129401465210034409000310C90C0400C90C030202940960D90C8
:2062200000416090031645C80086112100416021594644C84014459040142D90264870B515
:20624000054688B004680094009CE607FAD5234C23480460234C44EA83432C680194019CFC
:20626000E407FAD50360930143EA824242F0104444F4C0442B680293029BDE07FAD50460DD
:206280002B680393039BDB07FAD5174B03608B0143EA814141F0104343F4C0432E68049658
:2062A000049EF607FAD503602B680593059BDE07FAD5046041F058412B680693069BDC07B0
:2062C000FAD5016042F058422B680793079BDB07FAD5026008B070BDB0108450C02102295B
:2062E000801084508071009880611890354B8EB019461A680092009AD207FAD5324B334ABB
:206300001A600A680192019AD007FAD5304A1A600A680292029AD207FAD52E4A1A600A681B
:206320000392039AD007FAD52B4A1A600A680492049AD207FAD5294A1A600A680592059AB3
:20634000D007FAD5264A1A600A680692069AD207FAD5244A1A600A680792079AD007FAD521
:20636000214A1A600A680892089AD207FAD51F4A1A600A680992099AD007FAD51C4A1A60C9
:206380000A680A920A9AD207FAD51A4A1A6008680B900B98C007FAD51A600A680C920C9A51
:2063A000D007FAD5144A1A600A680D920D9AD207FAD5124A0E211A6000200D230F220EB0BB
:2063C000FFF73CBFB0108450801084508043012940633921807001298020542100D1349026
:2063E000C0403490C0302029C0530D9000413890832308C880E3102100413821CF4308C861
:2064000001232DE9F04192B0CDE90333624B1D461A680592059AD207FAD5604B604C236099
:20642000604B19461A680692069AD707FAD55E4B1A68D60400F1A8802A680792079AD0072A
:20644000FAD55A4A22600A680892089AD207FAD51E68C6F30036002E40F098801220FFF7DE
:20646000F3F807461320FFF7EFF887428CBF12201320FFF7E9F8471EFFF738FF03AB01AA99
:2064800039461220FFF726F904AB804602AA39461320FFF71FF900EB4800022832D00328CB
:2064A0003ED0012874D12B680993099BDB07FAD53F4B23602B680A930A9BD807FAD53D4BC4
:2064C00023602B680F930F9BD907FAD53A4B23602B681093109BDA07FAD5384B23602B6879
:2064E0001193119BDB07FAD5354B2360013F25D51023192218210020FFF7A0FE304612B0CB
:20650000BDE8F0812B680B930B9BD907FAD52D4B23602B680C930C9BDA07FAD52A4BCFE730
:206520002B680D930D9BDB07FAD5284B23602B680E930E9BD807FAD5254BC1E703AB01AADD
:2065400039461220FFF7C6F804AB044602AA39461320FFF7BFF810EB440402D1FFF712FCB8
:20656000C4E7FFF7E5FC022C08D0032C09D0012C10D117211620FFF797FDB7E7152114207D
:20658000F9E70F210E20F6E7124EB7E7124EB5E7124EB3E7124EB1E7B010845000084A51BD
:2065A00080108450B41084508810845000084E5100065A4940065E49000442410014424910
:2065C00040042E49000652494006564900063A4940063E490608F1000708F1000408F10028
:2065E0000508F100014B1860704700BF081A8450014B1860704700BF041A8450034A136879
:206600001842FCD0024A106018467047001A8450081A845070470020704730B583680446F7
:206620008B42154685B00ED96368C068194401AA00F041FE28B96268019B9B1A2B60029BC8
:206640006B6005B030BD6FF02100FAE770472DE9F7430E4617469946044628B94FF0FF3834
:20666000404603B0BDE8F0830029F7D0002AF5D0CB680D8938461D44042329460DEB0302AF
:2066800000F055FC80460028E8D146F60812BDF804107389914225D1BDF806109942DDD1DA
:2066A000042338460DEB0302294400F040FC0028D4D146F60713BDF804209A42CED1C4E97B
:2066C00000679DF82830A4F80890A3727389BDF806202B44E360738913442B4404356361D5
:2066E0002561BDE7002BE4D0B8E72DE9F3410E4617461D46044620B94FF0FF3002B0BDE8AC
:20670000F0810368002BF7D04368002BF4D04FF6FF78D4E904239A4216D223685B8923B16A
:20672000E368934204BF043323610423216960680DEB030200F0FBFB0028DDD1A37A2BB190
:20674000D4E903329A4201D30120D7E72389BDF80610434501F1040203D0BDF804C09C4594
:206760000BD115B1BDF804302B802369043333603980236913442361C0E72369134423615F
:20678000C7E773B50C46064611460223204601AA00F048FA0546E8B9019A1F2A0ED9A2F17C
:2067A0002001304620222368194400F05DFC2368019A13442360284602B070BD0146C2F188
:2067C0002002304600F05BFC019A2168C2F120003044EAE76FF00205EDE74FF4F073584323
:2067E0003030704710B5044600F0E1FB4FF4F072A368303B02FB103010BD70B50D460446C0
:2068000000F086FE2A46A0F1080104232046BDE8704000F08CBB13B50446019100F078FED7
:206820000423A0F108010DEB0302204600F0B3FE02B010BDFFF7FEBFFFF7FCBFFFF7FABF01
:20684000FFF7F8BFFFF7F6BFFFF7F4BFFFF7F2BFFFF7F0BFFFF7EEBF704770B513460E46BF
:206860001546002102460446FAF780FB50B92B460121204604F12C02FAF778FB10B1002E26
:2068800008BF002070BD73B5044600200D461646F9F74CFE6946C0B2FBF79EFA30BB2C2384
:2068A00003FB0544E368258900981D44042329460DEB030200F03BFBC0B946F60813BDF861
:2068C000042064899A42009815D1BDF806309C420CD1042361190DEB030200F028FB28B915
:2068E00046F60713BDF804209A4207D0009800F01DFB02B070BD002CF2D0F7E7BDF80610A0
:20690000214429443160F1E737B5A0250446426A01A903200195FBF787FA58B9019B0920E9
:20692000226DA36201A90195FBF77EFA054628B1092500E00125284603B030BD019B206A8D
