:020000040000FA
:1000000000F70020A51F0000A5740000911F00004C
:10001000911F0000911F0000911F000000000000D0
:10002000000000000000000000000000A52000000B
:10003000911F000000000000911F0000911F0000B0
:100040006922000069220000692200006922000084
:100050006922000069220000692200006922000074
:100060006922000069220000692200006922000064
:100070006922000069220000692200006922000054
:100080006922000069220000692200006922000044
:100090006922000069220000692200006922000034
:1000A0006922000069220000692200006922000024
:1000B0006922000069220000692200006922000014
:1000C0006922000069220000692200006922000004
:1000D00069220000692200006922000069220000F4
:1000E00069220000692200006922000069220000E4
:1000F00069220000692200006922000069220000D4
:1001000053B94AB9002908BF00281CBF4FF0FF317E
:100110004FF0FF3000F00CB8ADF1080C6DE904CEE3
:1001200000F008F8DDF804E0DDE9022304B07047D0
:10013000704700BF2DE9F04786468C460846089E6A
:10014000154674461946002B40F0C2808542B2FA2B
:1001500082F245D94AB1C2F1200300FA02FC2EFA1C
:1001600003F3954043EA0C0C94404FEA154EA8B2B5
:10017000BCFBFEF8230C0EFB18CC08FB00F943EA8D
:100180000C43994528D9EB1808F1FF3704D299455B
:1001900002D9A8F102072B44A3EB0903A4B2B3FBD5
:1001A000FEFC0EFB1C330CFB00F044EA0344A042AF
:1001B00014D92C190CF1FF3304D2A04202D9ACF1AE
:1001C00002032C44241A43EA07401EB1D440002302
:1001D00034607360BDE8F0874746DDE76346F1E7CA
:1001E00092BB431B01214FEA154EAFB2B3FBFEFC9D
:1001F000200C0EFB1C330CFB07F840EA0343984528
:1002000062D9EB180CF1FF3004D2984502D9ACF159
:1002100002002B44A3EB0803A4B2B3FBFEFC0EFBCD
:100220001C330CFB07F744EA0344A7424ED92C19B0
:100230000CF1FF3304D2A74202D9ACF102032C44E3
:10024000E41B43EA0040C0E7C2F1200320FA03F1B7
:10025000954090402EFA03F303434FEA154EAFB298
:10026000B1FBFEFC0EFB1C10190C0CFB07F841EA5D
:100270000041884504FA02F422D969180CF1FF30D4
:1002800004D2884502D9ACF102002944A1EB08014F
:100290009BB2B1FBFEFC0EFB1C110CFB07F743EA03
:1002A00001439F420ED9EB180CF1FF3104D29F425B
:1002B00002D9ACF102012B44DB1B41EA004192E779
:1002C0006046E3E76146F7E76046A3E76346B7E7C2
:1002D000834206D916B9002108467BE7C6E900E04B
:1002E000F9E7B3FA83F78FB9834201D3724508D88F
:1002F000BEEB020460EB030301209C461EB9002103
:1003000068E73846FAE7C6E9004CF8E7C7F1200C81
:10031000BB4022FA0CF41C432EFA0CF120FA0CF329
:10032000B84001434FEA14490EFA07F5B3FBF9F858
:100330001FFA84FE09FB18300B0C08FB0EFA43EA87
:1003400000439A4502FA07F240D9E31808F1FF305A
:1003500004D29A4502D9A8F102002344A3EB0A0370
:1003600089B2B3FBF9F809FB183308FB0EFE41EA2A
:1003700003418E452CD9611808F1FF3304D28E4514
:1003800002D9A8F10203214443EA0040A0FB0298ED
:10039000A1EB0E014145CE46434602D306D14D4561
:1003A00004D2B9EB020E68EB04030138002EA6D08C
:1003B000B5EB0E0261EB030101FA0CFC22FA07F324
:1003C0004CEA0303F940C6E9003198E74046C5E727
:1003D0004346D9E7F0B52E4B2E4AC3F800262E48E7
:1003E000C3F8042685B0C3F808264921C3F80C26B3
:1003F000C3F81026C3F81426C3F81826C3F81C2621
:1004000006F0C7FF06F074FB01A800F0ADFC234B1B
:100410001B68834204D02248452106F0BAFFFEE75C
:10042000039A2048492106F0B4FF1F48492106F0ED
:10043000B0FF4FF48031002007F0DCFA044620B111
:100440001A48452106F0A5FFFEE769469DF8080019
:1004500000F030F8009B039D1D44019B1E8903F0B2
:10046000A1F8AF1901F052F801F026F801F0D6FD1D
:10047000AB5983F3088884F31488BFF36F8FBFF3FD
:100480006F8F7B6898470A48452106F082FFFEE798
:10049000000001403546526E48890000D801002016
:1004A0006189000084890000B3890000D8890000B8
:1004B0000B8A000008B5024638B1054800234521E3
:1004C00006F067FF6FF0150008BD0860FCE700BF8D
:1004D0002E8A000021B1012906D06FF01500704767
:1004E000044B53F830007047024B03EBC0035868CD
:1004F000704700BFD88500002DE9F04F7E4FDDB07A
:10050000DDE9688914461D46DDF8A8B13E6800F0B3
:100510009DFF7A4B0122C3F800253CA805F00CFA98
:10052000B8F1000F07D0B9F1000F04DD4A4641468B
:100530003CA806F029FE23896289D4F80CA0134454
:100540009A444FF00008C24551D80FA93CA805F0C5
:1005500065FA6A4B0022C3F80025C3F80025BBF1F9
:10056000000F04D020220FA9584606F0FBFF0023FD
:1005700000932A464FF6FF73214609A806F0B9FA00
:100580000390002844D128460E9C00F079F984425B
:100590003ED8DFF870B1DFF864914FF0FF340DF111
:1005A0001E0307AA08A909A806F0F1FA00282FDB04
:1005B00040F09B80BDF81EA0BAF1100F31D1BDF8FC
:1005C0001C80B8F1200F23D1089943463CAA284645
:1005D00006F0EDFEE0B942463CA90FA806F04FFB3D
:1005E000474B1B68834213D101230393D7E7679BD3
:1005F000669AAAEB0809994528BF99464B46414699
:10060000284606F0D4FE28B13C4B0022C3F8002552
:100610003E686DE066994A463CA806F0B5FDC844C0
:1006200091E7BAF1010F3FD1BDF81C30202BEFD874
:1006300008993CAA284606F0BAFE04460028E7D1ED
:100640009DF81C300493202B0AD8DBF80030DFF82B
:10065000B8800593059B9C4205DB0023C9F8003553
:100660004FF0FF349BE700F0F1FEC9F800A51FA88A
:1006700005F062F9D8F8042058F8081B12681FA882
:1006800006F082FD17A91FA805F0C8F90022C9F8D5
:100690000025049A3CA917A806F054FF10B9C9F820
:1006A00000057CE70134D5E7BAF1220F7FF477AF7C
:1006B000631C3FF474AFDBF80030A342D0DDBDF81B
:1006C0001C30802BA4D808993CAA284606F06FFE5F
:1006D00000289DD1E4B2BDF81C3000943CAA202132
:1006E0000FA800F013F80646BAE7039B002B8FD043
:1006F00030465DB0BDE8F08F0400002000A002503D
:10070000D8010020E0850000E48500002DE9F047D5
:1007100096B016461D469DF87820374BDFF8E880E6
:1007200053F83210019103EBC20307465B68D8F817
:100730000090186802AA0144302301A806F0B2FC18
:10074000002851D1DDE901431C4403AA06AB214630
:1007500001A806F0CFFC002846D1049A072A43D10D
:100760002649059806F0EEFE00283DD1079A082A92
:100770003AD12349089806F0E5FEA8BB02AA214613
:1007800001A806F0A3FC78BBDDE901A30AEB030294
:10079000944229D1412B27D13544302303AA29463D
:1007A00002A8029606F07EFCE0B9DDE902321344AD
:1007B0009D4217D32A4602A906A806F034FA88B942
:1007C0002A4602A90EA806F02EFA58B99AF8003067
:1007D000042B07D1202306AA0AF10101384600F0B4
:1007E0004DFE28B1D8F80090484616B0BDE8F08715
:1007F000044BD3F80090F7E7E48500005D8A000021
:10080000548A0000D801002004000020094A0B7817
:10081000400052F820108B4209D0013052F82000DD
:10082000834214BF4FF0FF304FF4347070474FF4E1
:1008300034707047EC8500001FB50F4B13F8300083
:100840000C4601F0FBF950B92068816810236A4614
:10085000103906F0ACFD28B1206806F0A7FD4FF076
:10086000FF3006E005491022684606F06BFE0028BE
:10087000F2D104B010BD00BFEC8500003889000043
:1008800013B5044606F002FA6A460146204606F011
:1008900016F930B10448452106F07BFD002002B076
:1008A00010BD0098FBE700BF658A00002DE9F0410C
:1008B000364B88B0064600200D461C68FFF70AFE3E
:1008C00006A9C0B201F0BAF9002858D12946FFF7AD
:1008D00001FE2C2407A9C0B204FB056401F0AEF9A7
:1008E000002833D02C276F4306EB0708069BD8F867
:1008F000101011F0100138D14FF480720192244A87
:100900000092CDE90311224602910846FFF7F4FD5B
:100910000446204BF25906989A420CD1D8F80C2084
:10092000B8F808309B1806D28268934203D21A4B5B
:100930001B68A34220D035B38268002106F061FD18
:10094000164A1748452106F024FD13E0079806F0E3
:1009500075FD0746079806F029FD631EE21C13F893
:10096000011FB942BED19342F9D11DB1069930465B
:1009700006F08EFA0B4B1C68069806F017FD204611
:1009800008B0BDE8F081084ADBE700BF04000020A2
:10099000247900203DB8F396D8010020A88A0000F1
:1009A000B28A000000000020A08A00007FB50D463A
:1009B000044600212846CDE9021106F010FA28B3BA
:1009C0002368194EB34203D103AA204606F09CF9CE
:1009D000E36AB34204D102AA0121204606F094F949
:1009E000DDE90232934288BF0393039BAB60039A15
:1009F0002946204600F07CFB0C4B1A68002A03DDD8
:100A00000B48572106F0C5FC04B070BD01A9FFF7E3
:100A100013FF019805F1080106F043F9AB6801984E
:100A2000039306F0C3FCE2E73DB8F3963C150020C3
:100A3000DA8A00002DE9F84FDFF878B01B4C1C4D26
:100A4000884691469A4600260B9B9E4201D3002081
:100A50000FE00B9B174A9F1BB7F5806F28BF4FF421
:100A600080673B4606EB0A01404606F0A0FC10B149
:100A70000120BDE8F88F0A993B465A46711848464E
:100A800006F0AAFC0028F3D1C4F800563E44C4F88E
:100A90000456C4F80856C4F80C56C4F81056C4F8E6
:100AA0001456C4F81856C4F81C56CDE7000001408F
:100AB0003546526EDC100020F0B59E4B43620E4668
:100AC0009D4B0365002189B004460846FFF702FDEF
:100AD00004F120010546C0B201F0B0F8034640BB66
:100AE0000121FFF7F7FC04F14C010546C0B201F00B
:100AF000A5F8034638BB9DF817309DF815200499DA
:100B000000938E489DF8143001F0A6FC204606F0B4
:100B10003CF90546C8B900221146204606F0DEF829
:100B2000074688B386480022572106F032FC01238D
:100B3000A0E00022CDE90023824800232A46452177
:100B400006F027FCFEE70122F4E77F48F022572158
:100B500006F01FFC01239D4284F85830DBD194F845
:100B600058107A488DF8171001F076FC94F8583038
:100B7000042B00F28280012B00F2858000F0978028
:100B8000FF2384F8583092E0204606F03DFA002812
:100B9000CDD004A806F01AF90146204606F0CDF99A
:100BA000054618B16A483A465721BEE79DF8173006
:100BB00000939DF815209DF814300499654801F0C4
:100BC0004BFC04A806F00BF9074660BB04A92046BD
:100BD000FFF7ECFE9DF8173084F85830033B012BEB
:100BE00006D8384600F0E6F810B1FF2384F85830F4
:100BF0009DF81730023B022B0BD8002000F0C4F800
:100C000038B1FF2384F858305348452106F0C1FB22
:100C1000FEE794F85830FF2BF6D004AA00212046B6
:100C200006F05CF883E79DF81770012F17D128466E
:100C300002F064FD831E022B05460DD8394620467E
:100C4000FFF734FE454B1B68984205D0444B1D68A6
:100C5000A84214BF0525012584F858507FE70121DB
:100C60002046FFF723FE3D4B1B6898420CBF9DF8C2
:100C70001730052384F8583071E7052B80D1002008
:100C800000F098F810E004A92046FFF78FFE94F8D2
:100C90005830023B022B0AD8002000F08BF80028C5
:100CA0007FF46EAF00F070F800287FF469AF94F81D
:100CB0005830FF2B04D12848452106F06AFBFEE797
:100CC0000022012B274D039214D01146204606F036
:100CD00005F878B12D68102200210DEB020006F016
:100CE0004CFCE06C06F062FB206A06F05FFB2846D5
:100CF00009B0F0BD00212046FFF7D8FD174F3B6833
:100D00009842E7D12B689842E4D0154B1B68984273
:100D1000E0D0039B01330393039B012B00D0FEE73C
:100D2000206A05F0CAFE3071236A5B6834603D6852
:100D3000B360D0E75C090020DC010020098B0000D3
:100D4000D88B0000498B0000968B0000798C000046
:100D5000048C00002E8C00006D8C0000D801002057
:100D6000000000200400002038B5064D0446602233
:100D70000021284606F001FC21462846FFF79CFE8C
:100D800038BD00BFDC14002013B5094B01A913F8CE
:100D9000300000F053FF48B9019806F0E8FE044621
:100DA000019806F003FB204602B010BD0124FAE7CB
:100DB000F48500001FB50F4B01A913F8300000F0B7
:100DC0003DFFA8B9019802A902F042FC044668B9A7
:100DD0009DF80B30032B03D1019806F096FE0446D4
:100DE000019806F0E3FA204604B010BD0124F7E7AD
:100DF0000124F8E7F48500002DE9F34106460C468E
:100E000017461D460BB9002628E0184605F0E7FFF7
:100E10000028F8D16946FFF70FFD009838B9012482
:100E2000009806F0C3FA204602B0BDE8F08101A99F
:100E300005F037FF0028F2D1009806F0B7FA3046E7
:100E4000019906F0C3F8736A5E686B79012B21D1B2
:100E5000002CD8D12B68834298BF00262146002061
:100E6000FFF738FB6946C0B200F0E8FE0028D6D193
:100E7000009820233A46314606F099FA04460028A5
:100E8000CDD1002DCCD03C680D4BE41A18BF4FF0EB
:100E9000FF34C5E7022BB6D12B68012B05D983425D
:100EA000B1D8B4FA84F46409ADE7ACD1002CD5D044
:100EB000012CA8D12C79023C18BF0124A3E700BF64
:100EC0003DB8F3962DE9F04F074685B00C46014634
:100ED00000201646FFF79AFC051E50DB3846E46DED
:100EE00005F0D4FE5FFA84F96B1E09FB03084FF08E
:100EF000000A4FF0010B4FF0FF349DB9BAF1010F1A
:100F000003DD2148452106F044FA631C06D0EF2C8E
:100F10002ADC013440F201133460B380284605B066
:100F2000BDE8F08F6B1E00930DF10F0201234146C7
:100F3000384606F03CFA031E019322DB01220DF134
:100F40000F01384606F07CFD019B40B15B4501D0A6
:100F50000AF1010A009DA8EB09089B46CDE7B4F110
:100F6000FF3F08BF2C46F5E70223F03C7371631086
:100F700004F001040133013433603471CEE70725F6
:100F8000CCE70125CAE700BF8A8C000000B589B014
:100F900004A9022006F0C6FD9DF81020012A41D0C8
:100FA000254B2649032A08BF0B469DF813200292C1
:100FB0009DF8122001929DF81120214800924921AC
:100FC000204A06F0E6F906A9052006F0ABFD9DF8DB
:100FD0001820012A28D0184B1849032A08BF0B46AD
:100FE0009DF81B2002929DF81A2001929DF819206D
:100FF00000921348144A492106F0CBF99DF81030AD
:10100000012B13D19DF81230032B0FD19DF818300E
:10101000012B0BD00D48492106F0BBF9022009B085
:101020005DF804FB0A4BC0E7094BD9E709484921A1
:1010300006F0AFF90020F2E7AD8C0000B68C00009E
:10104000CA8C0000BC8C00000B8D00001B8D0000C2
:10105000B18C00003A8D000070B54B6814461E4AF2
:1010600003F0FF23934286B006460D462FD10B684E
:10107000012B2CD104A9204602F0EAFA9DF8102099
:10108000012A26D0154B1649032A08BF0B469DF8A6
:10109000132002929DF8122001929DF811200092D7
:1010A0001048114A492106F074F99DF81030032BBD
:1010B0000DD12146304605F0EBFE204606F025FD19
:1010C000A968204605F0FBFD204602F0A1FA06B013
:1010D00070BD064BDBE700BF00010004AD8C0000D3
:1010E000B68C0000CA8C00000B8D0000B18C000093
:1010F0002DE9F04F1646ADF54B7D05460C46984858
:10110000492106F046F93146284605F05FFF6B6A33
:1011100081465E6805F04DFF334600904A4691488F
:10112000492106F036F9204605F059FEF0B1E86D88
:1011300005F0A7FDAF6A0023013F3344984201D96F
:10114000013FFAE7B94511D38748572106F021F945
:1011500007FB06F3854809FB0662572106F019F9DB
:101160000123E3710DF54B7DBDE8F08F07A9022047
:1011700000F064FD002708A9052000F05FFD1C2297
:1011800039460AA8DFF820B2099706F0F6F9784B3D
:10119000784A07981A6009A905F062FE5946764A0E
:1011A00009A803F083FC011E08DA744801F054F921
:1011B00008983946826806F024F9D3E7DBF8001076
:1011C0006F4A7048B1F5005F2CBFC1F3473301236C
:1011D00013706D4A12680092674A127801F03CF968
:1011E000089A21462846FFF737FF05F0E2FE49211D
:1011F0000246664806F0CDF86379012B53D1DFF83B
:10120000ACA14F4649E02168C1F101034B44BB4208
:1012100042D35B4A6B6A12781868DDF81C803A4446
:10122000013A012953F8322003EBC703A2EB000275
:1012300053F8083C0392A3EB0003059311D1089BDC
:101240000493E368022B08D04146284605F020FEAF
:1012500022464146284605F051FE0499284605F0ED
:1012600017FE03993246404605F0F8FD039B0093B4
:101270004246059B019641462846FFF7DBFB214687
:10128000284605F0B9FD23680133236020B1DAF860
:1012900000300133CAF80030013F002FB3D10123E1
:1012A00023600323637105F084FE334F0246492116
:1012B000374806F06EF84FF43972002111A806F095
:1012C0005CF93B780A2B07D1324911A803F072FB75
:1012D000002827DD02233B7005F06BFE4921024602
:1012E0002D4806F056F83B78022B13D111A803F0D5
:1012F000CFFE002816DB294801F0AEF8254ADBF8BE
:10130000001011A803F056FE00280BDB214911A89C
:1013100003F0B6FB05F04DFE49210246204806F0D9
:1013200038F801E0042363716379042B10D1DFF8EE
:1013300050A01C489AF80010DFF870B001F08CF84B
:101340000127B945DDF81C8032D201232360637187
:10135000079806F02BF8089806F028F802E700BF77
:10136000518D00007A8D0000B18D0000E08D0000ED
:1013700008790020188400003A7E0020118E0000B9
:10138000240100204D8E000000790020988E00007E
:10139000C58E000098760020F08E0000158F0000AA
:1013A0003A8F00005F8F0000047900203C15002078
:1013B00021688F423ED39AF800206B6A3A44013A82
:1013C000186853F8322003EBC703121A53F8083C8D
:1013D00005921B1A0129039311D1089B0493E3681A
:1013E000022B08D04146284605F052FD22464146D0
:1013F000284605F083FD0499284605F049FD039928
:101400003246404605F02AFD039B00934246059B69
:10141000019641462846FFF70DFB2146284605F078
:10142000EBFC23680133236020B1DBF8003001338B
:10143000CBF80030013784E70A4619B1024B00218E
:101440001B681847704700BF0800002070B5094DA1
:101450002B780BB1002070BD074C0126C4F8006545
:1014600004F00CFB18B92E70C4F80005F2E74FF039
:10147000FF30F0E7247A002000A002502DE9F0416F
:10148000DFF83080ACB01F4606460C461546FFF725
:10149000DDFF0123C8F800352A4633460097214670
:1014A00003A806F034FF0023C8F800352CB0BDE8CF
:1014B000F08100BF00A00250BFF36F8F72B6124BD5
:1014C0004FF0FF32C3F88020C3F88420C3F888208F
:1014D000C3F88C20C3F89020C3F89420C3F8982058
:1014E000C3F89C20C3F88021C3F88421C3F8882165
:1014F000C3F88C21C3F89021C3F89421C3F8982134
:10150000C3F89C21704700BF00E100E0164A4FF08D
:10151000FF3301215160C2F84833C2F8083302F5A5
:10152000C0425160C2F84833C2F8083302F598321D
:101530005160C2F84833C2F80833A2F508320021DE
:10154000C2F80015C2F8083302F51832C2F80015C7
:10155000C2F80833A2F51042C2F808354FF08042B5
:10156000C2F80833704700BF00B00040014B1B6851
:10157000184700BF0C000020014B1860704700BFE7
:101580000C00002007B50B460021024600910348DD
:1015900000F014F903B05DF804FB00BF6D15000006
:1015A0002DE9F047058B04462807904611D40229FF
:1015B00005F0070540F0CD80204605F00FFE78B11C
:1015C0000138218B042811D8DFE800F0C3106D85A5
:1015D000950001290CBF45F0100545F02005258335
:1015E00088F31188BFF36F8FBDE8F08701F0070A19
:1015F000AA4500F0A6800027B9463E46A368002B06
:1016000000F0BD8041F00801218388F31188BFF309
:101610006F8FA168002900F0BB800D68002900F0E1
:10162000B780D1F80480334652462046C047002D8B
:1016300076D02B6829461D46F0E701F007035A1FB4
:10164000012A1BD8002221F00701062B276889B246
:10165000C4E9002209D13B4603E0628B0132628378
:101660001B68002BF9D141F002012183204605F0CF
:10167000B5FD00287BD041F0200177E0042B0AD192
:1016800021F0070189B22183204605F0A7FD10B1A2
:1016900041F020012183218B01F0070AAA4550D097
:1016A0000027B946AAE7236921F0070141F00601A6
:1016B000062DD3F8009021832DD1B9F1000F40D031
:1016C00041F00801218388F31188BFF36F8F3A49F5
:1016D0002046C84729E021F00701236941F00401B1
:1016E00089B2042DD3F804902183E6D000273E462A
:1016F0004FF0040A82E721F00701236941F0050158
:1017000089B2052DD3F808902183D6D000273E4614
:101710004FF0050A72E700273E464FF0060A6DE7D4
:101720002B4687E7B9F1000FD1D14FF02003EFF33B
:10173000118883F31288BFF36F8F238B23F0080384
:101740002383258BEA062ED525F01003238305F08D
:1017500007056669218B002EBFF66FAF002327684F
:10176000C4E9003321F0070141F001012183218BFD
:1017700001F0070AAA454FF000097FF43FAF002FA0
:101780009BD041F00801218388F31188BFF36F8F4C
:10179000002FC7D03D68394633465246204605F0F3
:1017A00049FD2F46F4E7AB067FF51AAF25F020037D
:1017B000238305F00705FFE6617200002DE9F04F75
:1017C0008DB01D46531E8246019103934FF00009D0
:1017D000039B5878252803F1010419D11E460020E7
:1017E0004FF0FF38023603460290444631780396A4
:1017F000392954D81F2914D8002900F0EE81019905
:101800002520D04701993078D04709F10209DFE758
:10181000002800F0E2810199D04709F10109039401
:10182000D6E7A1F12002192AE9D801A757F822F03A
:1018300099180000FF170000FF170000991800001A
:10184000FF17000019190000FF170000FF17000024
:10185000FF170000FF17000065190000991800002D
:10186000FF1700007919000025190000FF1700007C
:1018700033190000531900005319000053190000D8
:1018800053190000531900005319000053190000A8
:10189000531900005319000008460136A6E75829DD
:1018A00000F0EB80A1F16302D7B2172FA7D8172A57
:1018B000A5D801A757F822F0211B00009F190000AE
:1018C000FF170000FF170000FF1700007F1900003E
:1018D0009F190000FF170000FF1700007F1900008C
:1018E000FF170000FF170000FF170000551A000047
:1018F000FF170000FF170000F51A0000FF17000097
:101900009F190000FF170000FF170000551A000084
:10191000FF1700007F19000001992520D04709F129
:10192000010955E7029A02F0FE0202924FF0000808
:10193000B3E7002C0DDAB8F1000F0DDA029A002A95
:1019400000F0438124EAE4740A2202FB0414303CD0
:10195000A3E7B8F1000FF5DB0A2202FB0812A2F19F
:1019600030089AE7B8F1000F55F8042B80F22F8168
:10197000002A80F22E815442022202928DE76829C9
:1019800003D1682B06D1482387E76C2902D16C2B41
:1019900000F02181002B7FF432AF0B467DE77A2BDC
:1019A00006D1752955F8046B14D14FF0000B0CE0EB
:1019B0006C2BF6D04C2BF4D1073525F00703752995
:1019C000D3E9006B03F1080506D120283BD1854FF0
:1019D000013C09E04FEAE67BBBF1000FF5DA764205
:1019E000814F6BEB4B0B013C0DF12D030593002355
:1019F0000493304659460A220023FEF781FB059BDB
:101A0000303203F8012DB4460593049B5A46BCF1CD
:101A10000A0F8B4672F1000203F1FF310646049172
:101A2000E7D2C3F1010B30330DEB0306B8F1000F21
:101A3000A6F104066DDA029BD9077DD4A8EB0B034F
:101A4000A4EB0B0413E02B280ABF684F684F04F186
:101A5000FF34C9E770290FD155F8042B0023FAB9D8
:101A6000634F644E053C6FF004034FF0050B029A80
:101A7000920770D4A04666E078216C2B03D155F80C
:101A8000042B002308E04C2BF9D1073525F0070380
:101A90001D465B6855F8082B232825D1880621D5DB
:101AA000554F023C01F06001A1F1390B0DF12D0EF3
:101AB000002602F00F01092988BF594430310EF881
:101AC000011D102A4FEA121141EA03714FEA131C5B
:101AD00073F1000306F1FF3008D2C6F1010B06F1E5
:101AE0003003A1E7454FDCE7414FDBE706460A46F6
:101AF0006346DEE755F8046B304605F01CFDB8F18F
:101B0000000F834602DB4045A8BFC346384F4FF065
:101B10000008A8EB0B03002B92DDA4EB0804A6E75A
:101B200055F8043B8DF81830314F013C4FF0FF332E
:101B30004FF0010B06AE9AE7A046EAE7029301993F
:101B40002020D047029BB8F10108F7D524EAE472BF
:101B5000013C9144A41AB84606E00493029201990C
:101B6000D047029A049B9046424612F8010B002887
:101B7000F3D11A46013A15D5002BACBFC7EB0307CA
:101B80007F425B46013B15D5BBF1000FA8BF5F4408
:101B90004F442646013E14D5002CA8BF3F1907EB41
:101BA000080915E60493029201993020D047049B5E
:101BB000029ADFE70293019916F8010BD047029BC6
:101BC000E0E701992020D047E4E70122D5E69046DE
:101BD00063E6144661E64C235FE648460DB0BDE877
:101BE000F08F00BF1B900000199000001D900000B6
:101BF000B08D0000259000001F9000002290000092
:101C000008B504464FF02002EFF3118382F31288E7
:101C1000BFF36F8F01F0C6FC204600F0EDF90348DA
:101C200005F0CFFA00F0FAFAFCE700BF2B900000B5
:101C3000014B0360002070470086000070B5114B17
:101C40001C680D46DCB1104B196800238B4202DB87
:101C50006FF0010070BD224612F8106B864202D070
:101C600001331446F2E7E06810B96FF01200F1E7B3
:101C700006F02EF80028F8D02C600020EAE76FF07C
:101C80000C00E7E7100000200086000070B588B067
:101C900005460C46C0B269461646FFF7CFFF00283E
:101CA0001BDB0098C8B143680293836822680195E2
:101CB000CDE903360023CDE906230593C56805F079
:101CC00075FB6DB12846084901AA05F050FD07983B
:101CD00008B9059B236008B070BD6FF01500FAE7E6
:101CE0006FF01200F7E700BF4B740000014803F0EB
:101CF00075BB00BF7486000030BFFFF7FDBF00BF9B
:101D0000704700BF70B5264B15469A6A12F0100F47
:101D10009A6A14BF1124102412F0080F9A6A18BF8F
:101D20001224920706460AD5586B9A6A140634D5CF
:101D300019B19A6A22F080029A62132401E06FF0CE
:101D40001500174B9A6A12F0010F9A6A18BF1424F3
:101D500012F0200F9A6A18BF1524D20602D49B6A8B
:101D60009B070AD50E4B5B68190506D5314600F076
:101D70001FFA10B180F309880224094B9A6A92066F
:101D800042BF5A6A22F400525A629A6A42F0FF0233
:101D90009A6200232B70204670BD6FF01500CCE7CF
:101DA00000ED00E0134B9A6A12F0007F9A6A14BFAC
:101DB0001E201D2012F0807F9A6A18BF1F2012F487
:101DC000002F9A6A18BF212012F4802F9A6A18BF38
:101DD000222012F4003F9A6A18BF232012F4803F99
:101DE0009A6A6FEA02426FEA12429A6218BF24208E
:101DF000704700BF00ED00E010B5194B0246986A2D
:101E00009C6A10F4805F14BF1720162014F4006F32
:101E10009C6A18BF1820A40509D5986B986A00041D
:101E200004D51AB19A6A22F400429A6219200C4B26
:101E30009A6A12F4806F9A6A18BF1A20D2050CD4DD
:101E40009B6A13F4005F18BF1C20054A936A43F491
:101E50007F43936200230B7010BD1B20F5E700BF8A
:101E600000ED00E070B5454B5B688AB00546C3F3F2
:101E70000803002686F31188BFF36F8F02F07F40BE
:101E8000B0F17F4F11D102F00C0008280DD01007DF
:101E90004CBF0D4601260022033B8DF80720032B83
:101EA00005D8DFE803F01E5D615A3546F3E70024EC
:101EB0009DF807309BB92022294602A805F052FB65
:101EC000099B002E54D0C3F3080222B96FEA5323B2
:101ED0006FEA4323099302A9204605F0DDFA0AB010
:101EE00070BD264BDA6A9107E1D4DA6A002ADEDB9C
:101EF000DA6A5200DBD55A69A96942F480725A61E4
:101F0000BFF34F8FBFF36F8F5A6931F8021C22F471
:101F100080725A61BFF34F8FBFF36F8F4DF602721D
:101F200091420AD09A6AD2B24AB10DF10702012158
:101F30002846FFF7E7FE0446BAE72C68B8E79A6A36
:101F400012F47F4F05D00DF107010120FFF754FF78
:101F5000F1E79B6AB3F5803FA9D3FFF723FFEAE7D8
:101F60000DF107020021E3E70DF107010020EDE785
:101F700023F4FF7323F00103ACE700BF00ED00E0A2
:101F8000024A536943F010035361704700ED00E0CB
:101F9000EFF30880EFF3098101B57246FFF762FFA6
:101FA00001BD00BF002080F31488BFF36F8F00F0E5
:101FB00093FA00200D490860BFF34F8F0C4880F35F
:101FC000088800F03DF8202080F3118809484FF47C
:101FD0000461401880F30988EFF31480022108435C
:101FE00080F31488BFF36F8F00F0B4F894ED00E035
:101FF00000F70020C09E0020BFF34F8F0549064B1D
:10200000CA6802F4E0621343CB60BFF34F8F00BF96
:10201000FDE700BF00ED00E00400FA050749D1F834
:1020200090200023C2F307221846934200DB70473A
:10203000C1F89830C1F8A0000133F6E700ED00E0E8
:1020400008B572B6002383F31388FFF7E7FF144B3C
:102050004FF0FF32C3F88020C3F88420C3F88820F3
:10206000C3F88C20C3F89020C3F89420C3F89820BC
:10207000C3F89C20C3F88021C3F88421C3F88821C9
:10208000C3F88C21C3F89021C3F89421C3F8982198
:10209000C3F89C2162B6BFF34F8FBFF36F8F08BDAB
:1020A00000E100E01EF0040F0CBFEFF30880EFF337
:1020B0000980816911F8021C0229FFD001B505F0E1
:1020C000EDF901BD40B2002807DB044A41090123B4
:1020D00000F01F00834042F82130704700E100E02B
:1020E00040B200280CDB4309064900F01F002033F2
:1020F0000122824041F82320BFF34F8FBFF36F8F3F
:10210000704700BF00E100E0054B420900F01F00EE
:1021100053F82220012303FA00F01040704700BF5B
:1021200000E100E040B20028A8BF00F1604001F1EA
:102130000101B8BF064B4FEA4111ACBF00F5614049
:1021400000F00F00C9B2B4BF195480F800137047F3
:1021500014ED00E0144A08B5144B22F07F029A6097
:10216000BFF34F8FBFF36F8FD3F8882022F4700234
:10217000C3F88820D3F8882042F4A002C3F888204E
:102180004FF04042C3F83422BFF34F8FBFF36F8F3D
:102190000023E1EE103A02F027FA02F06DFA00F0A7
:1021A00057F802F02DFA00BF0000000000ED00E03B
:1021B00010F1160F074B08D0984208D340338342E2
:1021C00005D98B4203D9044870474033F9E7002012
:1021D000704700BF00A7002040A700200446084623
:1021E00011461A460023E1EE103A084B202583F3EE
:1021F000098863B64FF0000383F31188BFF36F8F34
:10220000A04785F31188BFF36F8FFEE740F70020EA
:10221000014910220A60704710ED00E072B640409C
:1022200080F31188BFF36F8FBFF34F8F30BF62B65B
:10223000BFF36F8F704700BF72B6494081F31188BA
:10224000BFF34F8F20BF80F3118862B6704700BF85
:10225000044800232021C2180133302B82F80013D8
:10226000F9D1704700E100E001B5EFF30580A0F17E
:1022700010004FEAC0000449014409C99847BDE86D
:1022800001400249084700002C840000011D0000A5
:10229000024B034A0348022100F030B8000004203A
:1022A000000000207C860000084AC2F898000B68F5
:1022B00023F01F03034343F01003C2F89C308B68E4
:1022C00043F00103C2F8A030704700BF00ED00E00A
:1022D000044B0522C3F89420BFF34F8FBFF36F8FD9
:1022E000704700BF00ED00E0BFF35F8F024B00229C
:1022F000C3F89420704700BF00ED00E010B5034C18
:102300000123227805F0E9F8207010BD257A00201D
:10231000F0B5454D2C68082C85B000F28280FFF79F
:10232000E3FF00200C2684420DD1404D404F2C701D
:102330006846FFF77DFC00240646A6420AD1FFF757
:10234000C7FF00201CE0696806FB0011FFF7ACFF27
:102350000130E8E7009800EB04114FEA041CCB6859
:102360003B40B3F5000F4AD00CD8B3F5001F30D076
:10237000B3F5800F38D0B3F5801F12D06FF0150081
:1023800005B0F0BDB3F1807F42D0B3F1007FF5D14D
:1023900050F80C3088684A6805F08FF840F48020C7
:1023A00009E050F80C3088684A6805F086F840F07B
:1023B000885040F43020039028780728CDE9012385
:1023C000DCD801A9FFF770FF2B7801332B700134A3
:1023D000B3E750F80C3088684A6805F06EF840F0B2
:1023E000885040F40020E6E750F80C3088684A68CE
:1023F00005F063F840F0007040F40030DBE750F87F
:102400000C3088684A6805F058F840F08270D2E7CE
:1024100050F80C3088684A6805F04FF840F0887032
:10242000C9E74FF0FF30ABE794860000257A002023
:102430000000F0FF014B1860704700BF140000203F
:102440000239012902D8034B1B6818474FF0FF30AF
:10245000704700BF140000200FB41FB506AB002169
:1024600053F8042B0548009102210393FFF7A6F9C6
:1024700005B05DF804EB04B0704700BF9375000031
:102480000E4A0123C2F840354FF080424FF0805190
:10249000C2F87835D1F83001082808D1D1F83411C4
:1024A000052904D80648415C09B1C2F838364FF016
:1024B00080430122C3F880250020704700E00140DE
:1024C0006390000020B1034B800143F001031847E3
:1024D000704700BFD085000001F0AAB9084B70B565
:1024E000C31A0D4607499B1004465943064840222B
:1024F00005F06DF82B4601462046BDE870401847B0
:1025000054150020B76DDBB6C883000073B50C4CC2
:102510000C4A4023041B00930D460B460A49A410A5
:1025200061430646094805F07EF8011E05DA30468B
:102530002B4602B0BDE87040184702B070BD00BF26
:102540005415002097760000B76DDBB6C8830000F5
:1025500010B54FF02003EFF3118483F31288BFF31B
:102560006F8F074A136823F00201DB07116002D462
:10257000012005F011FB84F31188BFF36F8F10BDAC
:10258000A4150020002270B5012104461046FFF773
:10259000C9FD0F4801F0E4FA0E4B984215D101F045
:1025A000EFFA26690C49304604F069FE00280BDB7F
:1025B000012535642469084904F11C0004F05FFE1C
:1025C000002801DBE564002070BD6FF00400FBE72C
:1025D000112600000000AD0BB486000070B5014666
:1025E0000C2309484B43C418D4E90E56403300224B
:1025F0001844A26304F0D8FF2DB132462B4603489D
:10260000BDE87040184770BD54150020C883000015
:1026100010B1012804D07047034B1B6C5B0701D13C
:10262000FFF7DCBF704700BF5415002008B54FF01E
:102630002003EFF3118183F31288BFF36F8F124AE7
:10264000136843F002001060DA0708D481F31188A0
:10265000BFF36F8F0120BDE8084001F0A3BA4FF02F
:102660008043D3F80C24D3F80C34DB07EED50748AD
:1026700004F09AFF81F31188BFF36F8F0020BDE84B
:102680000840FFF7ABBF00BFA41500209415002041
:102690002DE9F8433649BFF35B8F0746012251E825
:1026A000003F41E800200028F9D1BFF35B8F33B928
:1026B000304931484B60CB608A6004F0F3FD7B1EEB
:1026C000012B2DD8012F07D14FF08043D3F81C34B4
:1026D00003F00303012B23D005F019FB054608BBCB
:1026E000264B1B78F3B14FF080430222C3F8082336
:1026F0000646DFF88C904FF080444FF00108D4F884
:102700001824D4F81834D20316D503F00303012B90
:1027100001D0012F10D12DB386F31188BFF36F8F35
:10272000BDE8F8834FF02003EFF3118683F312889E
:10273000BFF36F8F0125DCE73046FFF77DFDD4F84E
:102740001835002BDBD1D4F80421002AD7D0C4F8E7
:102750000431D4F80431C4F81885C9F88081C4F86C
:102760000880CCE74FF080430222C3F80423D7E768
:10277000501500204015002070150020397E0020E3
:1027800000E100E008B5074805F0A2FA38B10648B4
:10279000FFF750FE0448FEF7EFFE002008BD6FF083
:1027A0001200FBE704840000AD2700000A2838B5BA
:1027B000074D044604D1AB680D215B682846984755
:1027C000AB6803485B68E1B29847204638BD00BF5C
:1027D00004840000024B0B6001231360704700BFAC
:1027E000A8150020004870470887000010B505F0C4
:1027F0005FFA034C206005F057FA6060002010BDBE
:10280000A81500204FF08042D2F81015D2F81035EC
:1028100001F01E0123F01F030B4343F00103C2F834
:102820001035024B00221A70704700BF267A002034
:102830004FF08053D3F83031082B20D14FF0804235
:10284000D2F81015CB071AD5D2F8103501F01E01B9
:1028500023F01F030B43C2F81035D2F808315BB1E7
:10286000D2F8103523F01F030B4343F00103C2F8E5
:1028700010356FF08B007047024B01221A70002058
:10288000704700BF267A00202DE9F0410D4616461C
:1028900005F00AFA31460746284604F00CFF28B333
:1028A000B5FBF7F307FB135303BBB6FBF7F407FBCA
:1028B0001464DCB9B74213D805F0F6F9DFF83480B8
:1028C0000746FFF7B5FF044668B9284601F0E8FD62
:1028D00098F800300BB1FFF795FFF61B3D44F0D19F
:1028E0002046BDE8F0816FF08B04F9E76FF0150426
:1028F000F6E700BF267A00202DE9F8430E46304661
:10290000194617461C4604F0D6FE30B346EA0405C5
:1029100015F0030521D11CB3DFF84C906319032B8C
:10292000A6EB050807D80F4AD2F80034DB07FBD521
:102930000020BDE8F883FFF77BFF58B97B1B4046BA
:10294000196801F0CDFD99F800300BB1FFF75AFF7F
:10295000043DE3E76FF08B00EBE76FF01500E8E76D
:102960002046E6E700E00140267A0020F0B5406806
:10297000057B01F01F0444EA4514056987B0002D6A
:1029800064D0B2F5001F00F1100506D1214628469B
:1029900005F082F9002007B0F0BD01AE0027B2F5C6
:1029A000800F0197776039D1B3F1007F14BF052301
:1029B00004238DF804300023CDE904630393836876
:1029C00023FA01F111F001011AD1B2F1A07F17D160
:1029D00004F01F03620903F5E0732AD0012A3BD1FA
:1029E0001F4A52F82330DB070AD40DF103063246A2
:1029F0002146284601F0B4FB1A4B98421CD002969F
:102A000003AA2146284601F06DFA174B984220D1BF
:102A100001222146284601F00BFCBBE7B3F1C06F51
:102A200005D0B3F1007F14BF01230223C1E70323C4
:102A3000BFE74FF0A042D4E73146284601F0F2FB51
:102A4000094B9842DBD06FF00B00A4E76FF08500D4
:102A5000A1E76FF015009EE751F82330FFDE00BFBD
:102A6000000300500400AD0B0000AD0B38B5456805
:102A70002B69B3B11035284601F0C4FB044680B978
:102A80000146284601F086FB084B98420BD10849C5
:102A90002246284601F05EFB224605210620FFF76C
:102AA00041FB002038BD6FF00400FBE70000AD0BD8
:102AB000B52A0000420970B5034602D0012A17D09A
:102AC00070BD0D4E326951680029F9D003F01F0323
:102AD00001250C689D400029F2D08A682A4002D066
:102AE0004B68304698472CB1236821461C46F2E7D4
:102AF000024EE7E72346F8E7F0830000DC8300009E
:102B00002DE9F043466840F20635D006337B87B0A6
:102B100002EA050554BFC2F34010032001F01F076D
:102B2000B5F5837F144647EA43178DF8030044D078
:102B30000FD8062D18D007D8B5B1022D3FD06FF0B1
:102B4000150007B0BDE8F083B5F5807FF7D101250A
:102B50000AE040F20222954233D0B5F5407F32D0F0
:102B6000B5F5007FEBD1022522032ED57268012333
:102B70008B40C2F80835326992BB07F01F037F090A
:102B80002BD0012F79D13F4A02EB830284F48033AA
:102B9000D2F80017C3F30043C4F3404444EA4304AB
:102BA00021F4E16144EA800421F0070144EA0523AD
:102BB0000B43C2F800370020C3E70725D4E70425FC
:102BC000D2E70525D0E70325CEE7630341BF012304
:102BD00072688B40C2F80C35CDE74FF0A042D3E7C6
:102BE00010360DF102023946304601F0B9FA14F4FC
:102BF000403F80460CD13946304605F04BF8224B19
:102C00009845D8D19DF80210304601F005FBD2E777
:102C100001AB4FF0000903AA39463046CDE904392B
:102C2000CDE90199CDF80C9001F05CF9164B984272
:102C300085D114F4003315D09DF803308DF80E3093
:102C400084F48034C4F300444B4603AA394630462A
:102C50008DF80C508DF80D4001F0FEF90A4B9842AA
:102C6000CDD06CE7CDE9043303AA0DF10303394657
:102C70003046039301F036F9F0E703F5E07352F8BC
:102C80002330FFDE000300500000AD0B036803F0AB
:102C90001F025B09026004D0012B034818BF00200B
:102CA00070474FF0A0407047000300502DE9F04FEF
:102CB000DFF89881DFF8989185B01546824600EBE1
:102CC0008101514503D1002005B0BDE8F08FDAF84D
:102CD0000030D804C3F3432203F07F0400F1AF8037
:102CE0007F2C4FEA134318F8027008BF4FF0FF34EF
:102CF000222B00F2A780DFE803F0122228432B32B8
:102D000043A5A5A5A54672A5A5A5A5A5A5A5A5A567
:102D100075808386A5A5A5899194979A9D00C5F88D
:102D20000C45601C18D003A80394FFF7AFFF039B6A
:102D3000012606FA03F3C0F80835B3462CE0C5F8BF
:102D40001445631C08D00026F7E7C5F80845E8E7F6
:102D5000621CC5F8084570D10AF1040AB1E7631C8A
:102D6000C5F80C45F8D0012603A80394FFF78EFFA1
:102D7000039B4FF0010B0BFA03F3C0F80C350BE08B
:102D8000C5F81045DDE7C5F80845002FD9D1671C07
:102D9000E2D00026B3460627DAF80030019303F4A8
:102DA0000052002A03A81CBF4FF0000B0126039419
:102DB000FFF76CFF039A019B00EB8200C3F3C11481
:102DC000D0F800273B0243EA840343EA0B0302EAFC
:102DD0000902134343EA4603C0F80037BCE7C5F8CD
:102DE0000C45D2E7C5F86045661CDAF80030B3D070
:102DF000C3F38033002BB6D095E7C5F86445F3E7FD
:102E0000C5F86845F0E7C5F86C45EDE7C5F8244519
:102E1000621CA1D04FF0000B0126BDE7C5F8284584
:102E20007FE7C5F83045F3E7C5F83445F0E7C5F866
:102E30003845EDE7C5F83C45EAE7002694E76FF032
:102E4000150041E76FF085003EE700BFBA90000033
:102E5000F0F8FCFFF8B5044607690D4604F057FF8B
:102E600090B92C4B1B787BB16426606804F02EFD72
:102E7000E0B9012004F084FE013EF6D1F4E786F3C8
:102E80001188BFF36F8FEFE74FF02003EFF3118648
:102E900083F31288BFF36F8F6068314604F016FD2C
:102EA00090B986F31188BFF36F8FEDE74FF02003E1
:102EB000EFF3118683F31288BFF36F8F606831469A
:102EC00004F004FD0028DAD03B691D70626838699F
:102ED0001368C3F844050120C3F848050020C3F86F
:102EE0002001D3F82051C3F858015268D3F8580193
:102EF000D20608D5626812680820C2F800054FF4AF
:102F00008002C3F8042301229A6081F31188BFF381
:102F10006F8FF8BD397E00202DE9F7430646002269
:102F200001210220FFF7FEF80220FFF7CBF87768B7
:102F300035693C684FF00008C4F800852E60D7F86A
:102F40000C9001AA4146484604F092FC002839DB67
:102F5000019BD9F8002019791868FFF7A7FE00280F
:102F600030DB6B7AD6F810C0012B03D0032B27D1AE
:102F70004FF01008AB7A032B22D1E97A09B101296D
:102F80001ED12A7A12B1022A1AD10E226B687068F9
:102F9000B3F5164F006800F0B28034D8B3F5165F71
:102FA00000F0B0801AD8B3F5966F00F0AD800CD861
:102FB000B3F5967F00F0AB80B3F5167F00F0AA80E2
:102FC0006FF0850003B0BDE8F083B3F5166F00F035
:102FD000A480B3F5965FF3D15C4B43E0B3F5E14FCA
:102FE00000F09E8008D8B3F5615F00F09B80B3F5D8
:102FF000964FE5D1564B35E047F6122E7345DFD19B
:103000004FF400032EE0B3F5613F00F08D8015D83A
:10301000B3F5963F00F08B800AD84DF6C02E73456D
:1030200000F08780B3F5614FCAD14FF46B0319E00C
:10303000B3F5E13FC4D14FF0EB7313E0B3F5612F6B
:103040007AD009D8DFF820E1734578D0B3F5E12FC5
:10305000B6D14FF0E86305E0DFF810E17345AFD17A
:103060004FF08053C0F82435736841EA08011B68AB
:103070000A43C3F86C25D5E901010CF1040383E888
:1030800003007B68990712D505F1180001F036FAA4
:10309000304B984256D1287E04F10C0204F5907111
:1030A00004F070FD2B7E0120984000F0F1FC082315
:1030B000C4F800353B7A53B9C4F81031D4F8103154
:1030C0006B69C4F834350123C4F8383523607B6854
:1030D0009A075CBF4FF48073C4F804337B68DB0647
:1030E00044BF4FF48003C4F804332B69C4F844355B
:1030F00000200123C4F84805A360E36062E74FF4B1
:103100001D03AFE7144BADE74FF49E23AAE74FF43E
:10311000A033A7E74FF41C33A4E74FF41D23A1E726
:103120000E4B9FE70E4B9DE74FF06C739AE70D4BEC
:1031300098E74FF4650395E74FF0706392E74FF01F
:1031400080638FE76FF004003CE700BF00B013001E
:1031500000A04E000000AD0B0050270000C075001D
:1031600000F03A0000903A0190D0030040420F0076
:1031700070B5012383400E4ABFF35B8FDC4352E8F6
:10318000001F01EA040542E80056002EF7D1BFF304
:103190005B8F4FF4803282400648C0F80823BFF3AB
:1031A0005F8FBFF36F8F0B4214BF0120002070BDF3
:1031B000CC1500200010014070B40E49D1E9003454
:1031C000D01AC31844F1000422F07F46C1E900344C
:1031D000A6F50013B3F5400F09D2074B1B681A0A76
:1031E0001B069C19054B42F10005C3E9004570BC64
:1031F00001F0A2BA40010020D015002048010020B3
:1032000011B3BFF35B8F0123104A834052E800CF14
:103210004CEA030C42E800C10029F7D1BFF35B8FF1
:103220000B4A4FF480338340C2F80433094BBFF399
:103230005B8F1B68BFF35B8FC340DB0742BF064B4E
:103240004FF40032C3F80021704700BFCC150020B6
:1032500000100140C815002000E100E00D4B186887
:10326000010A0006BFF35F8F0B4BD3F80435181823
:1032700041F10001B3F5801F0AD2084BD3E90023C6
:10328000904271EB030303D210F1807041F1000111
:10329000704700BFD01500200010014048010020F9
:1032A0002DE9F04F85B016461F469DF840A0044614
:1032B000FFF75EFF0190FFF7D1FFB04271EB07030C
:1032C00054D23E4B301A67EB0101984271F1000174
:1032D0004FD23B4B03EB0413D3E902239F4208BFB9
:1032E00096425ED037494FF4803804F1500508FA11
:1032F00004F8AD00C1F848832046ADB204F02FFBBE
:1033000026F07F4B05F1804504F5A87305F5883557
:10331000DC464FF003090293029A2CF07F4341F8F8
:103320002230C1F84483D1F80435274A6FF00200F7
:10333000C01A604420F07F40904232D9286868B1BA
:10334000D1F804350393A3EB0B0020F07F40B0F5D8
:10335000000F26D9204604F002FB039BBAF1000FB0
:1033600007D109EB030C09F10109D5E7BAF1000F08
:1033700009D06FF0150520460199FFF741FF284657
:1033800005B0BDE8F08F0123104ABFF35B8FA34067
:1033900052E8000F184342E800010029F8D1BFF3BA
:1033A0005B8F07490E98230101EB0412C8500F9B55
:1033B0005360C2E902670025DDE700BF010080001D
:1033C0003001002000100140FDFF7F00C8150020E3
:1033D0007FB51C4C1C4BC4F80833C4F848331B4B56
:1033E00000254FF0FF304FF0FF31C4F80855C3E916
:1033F00002014FF48033C4F80433154B02264FF416
:1034000000320121C4F804631120C3F880212A4648
:10341000FEF788FE1120FEF755FE0E4A0123A36039
:10342000236013600C4B0D4A0093CDE90155002336
:103430002846FFF735FF3046FFF72AF9284604B043
:1034400070BD00BF0010014003000F0030010020DC
:1034500000E100E0CC150020B9310000FFFF7F0043
:103460002DE9F7432F4CD4F8043399070BD5D4F842
:10347000043143B12C4A0023C4F80431D4F8043198
:10348000136801331360D4F80433DA032AD5BFF389
:103490005B8F264B53E8002F22F0010143E8001018
:1034A0000028F7D1BFF35B8FD30702D4D4F84031A3
:1034B000C3B10025C4F84051D4F84031FFF7CEFE27
:1034C0004FF02003EFF3118283F31288BFF36F8F65
:1034D000174BD3E90267B042B94106D282F3118893
:1034E000BFF36F8F03B0BDE8F0834FF0FF384FF0AC
:1034F000FF39C3E90289D3E900101D604FF480331E
:10350000C4F84833C4F84051D4F8403182F31188EC
:10351000BFF36F8F0029E5D0009032463B46284626
:103520008847DFE700100140D0150020C8150020B3
:103530003001002030B5431C124C85B005D08442C8
:10354000A8BF0446012CB8BF0124FFF787FE0E4B2D
:103550000C4DD3E90013401AB0F5000F10D2221819
:10356000AA4228BF2A4652184FF00000074900918E
:10357000CDE9010043F10003FFF792FE05B030BD35
:103580002A46F0E7FFFF7F0040010020B93100002C
:1035900008B5FFF763FE024B1B68C01A08BD00BFE9
:1035A0004001002010B5084C012363601120FEF794
:1035B00097FD064BC4F80833C4F84833044B4FF466
:1035C0000032C3F8802110BD0010014003000F003D
:1035D00000E100E030B50C490C4D0B6802460024B8
:1035E00005EB0310D0F80808C0B218B904B10B609D
:1035F000002007E00133072B4FF00104F0D90B60E6
:103600006FF01B00136030BDD415002000E00140B6
:1036100030B5816885B0103921F00704054603F004
:103620000DFF10220146684603F0A7FF074910224C
:10363000684603F097FF10236A462146284603F0A8
:10364000CBFE003818BF012005B030BD388900001E
:1036500030B50D46816887B0102302AA10390446A0
:1036600003F0A5FE002802DA012007B030BD1022C9
:1036700002A9204604F0E4F900283AD11E4910229C
:1036800002A803F05FFF00280CBF012302232B7068
:10369000204604F0C1F9012301460DF1070220463E
:1036A00003F085FE0028DFDB9DF8073003F00F02F2
:1036B0001B096A702B7101220DF10701204604F0ED
:1036C000BFF910B96B78042B03D901236B70002369
:1036D0002B71A268183A22F00702083AA91C20466A
:1036E00004F0C1F90028BFD1E91C204604F014FA07
:1036F000BBE70323CBE700BF38890000F0B5354FA7
:10370000460085B00546694657F8260004F00AFAD7
:10371000044610B1FF2005B0F0BD013602A957F8EC
:10372000260004F0FFF9012837D12B482A46492109
:1037300003F02FFE294B02938DF80C409DF800609A
:103740009DF80870264C00222078314604F06AF972
:1037500050B36078394604F065F928B3A378042B98
:1037600003D09DF8031099421ED1E378042B03D0B7
:103770009DF80B10994217D12379042B10D162794F
:10378000022A1DD1174B18482A46492103F001FE91
:103790006079831E022BBED9BCE70028CED0B9E7E2
:1037A0009DF802109942EAD00132032A04F106047E
:1037B000CAD10E482A46492103F0EBFD0120AAE7B1
:1037C000032A05D00A4B0B49042A08BF0B46DAE747
:1037D000094BD8E7A4870000F3900000030103031E
:1037E00088910000D59000003E9100006291000099
:1037F000DA900000EC900000D09000004FF0805371
:10380000D3F83021082A06D1D3F83431052B02D859
:10381000024AD05C70470020704700BFA0910000B2
:10382000024AD2F80034002BFBD0704700E0014080
:1038300010B54FF08053D3F83021082A4ED14FF005
:1038400080420021C2F80C11C2F81011C2F83815DC
:1038500002F54042D3F80414C2F82015D3F8081436
:10386000C2F82415D3F80C14C2F82815D3F8101494
:10387000C2F82C15D3F81414C2F83015D3F8181464
:10388000C2F83415D3F81C14C2F84015D3F820142C
:10389000C2F84415D3F82414C2F84815D3F82814F4
:1038A000C2F84C15D3F82C14C2F85015D3F83014C4
:1038B000C2F85415D3F83414C2F86015D3F838148C
:1038C000C2F86415D3F83C14C2F86815D3F8401454
:1038D000C2F86C15D3F84434C2F87035FFF78EFF88
:1038E00018B1414B414AC3F88C26FFF787FF18B146
:1038F0003F4BFB22C3F81825FFF780FF70B14FF054
:1039000080414FF08053D1F8E42ED3F8583222F0A2
:103910000F0203F00F031343C1F8E43EFFF76EFFFD
:1039200020B1344B4FF40072C3F840264FF080535F
:10393000D3F83031082B09D14FF08043D3F800245D
:10394000D20744BF6FF00102C3F800242A4AD2F81C
:10395000883043F47003C2F88830BFF34F8FBFF351
:103960006F8F4FF08053D3F83021082A0ED1D3F84F
:103970003431052B02D8214AD35C3BB14FF01023E0
:10398000D3F808224FF08043C3F858254FF0102396
:10399000D3F80022002A03DBD3F80432002B22DA0A
:1039A000174901234FF01020C1F804351224FFF706
:1039B00037FFC0F80042FFF733FFC0F80442FFF7BB
:1039C0002FFF0023C1F80435FFF72AFFBFF34F8F05
:1039D00009490C4BCA6802F4E0621343CB60BFF3A1
:1039E0004F8F00BFFDE710BD00500040488103002D
:1039F00000F000400090024000ED00E09A910000CD
:103A000000E001400400FA0530B50468CCB1BFF312
:103A10005B8FB4FA84F3C3F11F03DBB201229A4037
:103A200024EA020250E8005FA54204D140E8002CDD
:103A3000BCF1000FF6D1BFF35B8FE6D102480B70EB
:103A400030BD0248FCE700BF0000AD0B0200AD0B2B
:103A500010B50368CB40DB0714D401238B40026808
:103A6000BFF35B8F43EA020150E8004F944204D158
:103A700040E8001CBCF1000FF6D1BFF35B8FEED124
:103A8000014810BD0148FCE70000AD0B0400AD0B80
:103A9000014BC3F80405704700F00140F7B5044638
:103AA00018B1012823D003B0F0BD4FF080430222AB
:103AB000C3F808230122DA60C3F80401D3F8043103
:103AC000064601238DF8073042F210754FF080470B
:103AD000D4B1012CE7D1D7F80C3403F48033AEBB5A
:103AE00083B3012004F04CF8013DF4D12AE04FF0FB
:103AF00080430022C3F808035860C3F80021D3F8BC
:103B000000310DF10706DCE7D7F8183403F48033F1
:103B10003EB9002BC7D0012004F032F8013DF3D1AB
:103B2000C1E7D7F8182402F003023260002BBAD0A4
:103B30009DF80700012803D104F022F8013DC7D108
:103B4000012CB0D1054B00225A71ACE7D7F80C24F8
:103B500002F001023270002BEAD1F3E7D815002001
:103B6000044B1A7922B9012218609A8002487047E2
:103B700002487047D81500200000AD0B0C00AD0BBB
:103B800008B5074B1B682BB10020FEF7BDFA08B93A
:103B9000FEF798FA4FF080430022C3F8182508BDBD
:103BA000D815002010B510B1012843D010BD4FF03A
:103BB0008043D3F81814D3F81824C80321D502F091
:103BC0000303012B04D013B10020FFF767FF00238C
:103BD0004FF080420220C2F8183508224FF4827359
:103BE00003F180430021196002F180421C68012426
:103BF0001460154A12680AB34FF08043C3F80403F7
:103C0000D4E7D3F81424D107E1D5D3F81C249207C4
:103C1000DAD40D4A12681AB10222C3F80423C5E7A8
:103C2000D3F80421002AFBD00022C3F80421D3F8E2
:103C30000431BBE700224FF48073D1E71A68002AF1
:103C4000FCD019601B68B1E7D815002010B54FF003
:103C50008043D3F800216AB10022C3F80021D3F8D1
:103C600000210122C3F80823114B587910B95A7169
:103C70001B6898474FF08043D3F8042172B10022AB
:103C8000C3F80421D3F80421D3F81824D3F8182456
:103C9000920704D10122C3F818259A6010BD0222B0
:103CA000C3F80823024BBDE810401B6801201847E9
:103CB000D8150020036803F01F025B09026004D0DE
:103CC000012B034818BF002070474FF0A0407047F9
:103CD00000030050034A430900F01F00D35C18445E
:103CE000C0B27047A691000070B50546FFF7F2FF1D
:103CF0000C4C08300E4634F81030DA0508D5C3F302
:103D0000432304EBC302284654F8333052689847E3
:103D1000A3682BB1E26831462846BDE870401847D9
:103D200070BD00BF3400002008B5FFF7D3FF034B80
:103D3000083033F81000400B08BD00BF34000020ED
:103D400008B5FFF7C7FF034B083033F81000C0F386
:103D5000400008BD3400002008B5FFF7BBFF034B4F
:103D6000083033F81000C0F3401008BD34000020C4
:103D7000034611F0010010B5CCB20DD1A207C4F377
:103D8000400012D5094AD2F820055860C2F8200533
:103D9000003818BF012008E04FF0A041D1F82025DD
:103DA0001A60C1F82025002AE8D010BD0003005099
:103DB00010B5FFF78FFF124A083032F81030D905DE
:103DC0001CD5C3F3432123F4F85322F8103002F139
:103DD0000E04002034F8023F13F4807F03D0C3F3B5
:103DE000432399420AD001303028F3D1002342F80E
:103DF00031300448BDE81040FFF72ABE10BD00BFB7
:103E000034000020AC000020F0B505460020044638
:103E1000012607468C420BD1114BD3F87C2132B1DD
:103E20000022C3F87C21D3F87C3140F00040F0BD83
:103E3000E3B29B0003F580729B0806FA03F31D4270
:103E40000BD002F1804202F5C042D2F800C0BCF1B2
:103E5000000F02D01760126818430134DAE700BF80
:103E600000600040F7B506460846FFF733FF194FDC
:103E700000F108050C4637F81530DB0727D530462A
:103E800003F0E4FE2046FFF767FF40B12046FFF74E
:103E90004BFF316800F5A270002341F82030204626
:103EA000FFF786FF002301A827F815300194FFF7DC
:103EB00001FF019B00EB8300074BD0F80027134064
:103EC00043F00203C0F80037044803B0F0BD0448D3
:103ED000FBE700BF34000020F0F8FCFF0000AD0B52
:103EE0000400AD0B2DE9FF41164680460846FFF75A
:103EF000F1FE0D463168044609B32846FFF720FF5E
:103F000018B12846FFF728FF10BB0023CDE9003386
:103F10008DF80E308DF80F300DF10F020B4628464C
:103F20000DF10E0103F03AFE474A04F1080132F8A0
:103F3000113023F0020343F0010322F811307368BB
:103F400063B328461F785968FFF7FAFE10B1D1B164
:103F50003E4826E03C4A04F1080032F8103023F0D5
:103F60002003DB04DB0C22F8103061B1032FEFD803
:103F70007168496891F800C0D8F80010A7B90CF52D
:103F8000A27C41F82C70304A04F1080132F811305B
:103F900023F01C0343EA870322F81130B3684BBBBC
:103FA0002B4804B0BDE8F08101EB8C0143EA4C33AF
:103FB000D1F810E52EF0030EC1F810E5D8F8001086
:103FC00001EB8C0E43F02003DEF8101522F81030C0
:103FD00021F44F3121F44071CEF810152902DEF89A
:103FE000108501F47C5141EA074141EA0801CEF80D
:103FF0001015C8E7D3E900672846FFF7D9FE002E61
:10400000CED0114DD5E90023964203D19F4201D174
:10401000002209E00F480DF10F01FFF7F5FC0C4BF2
:104020009842BED19DF80F2045F8326005EBC203DF
:1040300008345F6035F8143043EA422343F4807358
:1040400025F81430ACE700BF340000200400AD0BAD
:104050000000AD0BAC0000202DE9F0430C4685B00C
:104060008046204611461E46FFF734FE054629B31A
:104070002046FFF765FE18B92046FFF76DFE18BB16
:10408000314F05F1080937F8193013F01C0F02D031
:104090004B78012B18D001238DF80F300023CDE988
:1040A00000134A1C8B1C20460DF10F0103F076FD16
:1040B00037F8193043F0030327F81930002E41D0A8
:1040C0002046FFF73DFE18B9204805B0BDE8F08353
:1040D00096F800C0D8F800301B4F0CF5A2720021F2
:1040E00043F8221005F1080237F8121021F02001E0
:1040F000C904C90C27F8121075781DB3D8F8000050
:10410000B67800EB8C002D04D0F8103523F4991309
:1041100023F4F853C0F81035230203F47C5305F45C
:1041200040353605D0F810E52B4306F4801641EAF9
:104130004C31334341F0200143EA0E0327F81210BB
:10414000C0F810350248C0E7340000200400AD0B71
:104150000000AD0B014BC3E9021270473400002090
:1041600010B508461446FFF7F7FD50B10846FFF7B3
:10417000B1FD054B083033F8103004485B0B237059
:1041800010BD0348FCE700BF340000200000AD0B69
:104190000400AD0B70B5184E96F8804005464CBB38
:1041A0002146602206F1100003F0E7F92D68306F18
:1041B0002146884212D10023C5F87C3145F30730EF
:1041C000D5F87C31FDF77EFF4FF00043C5F804338E
:1041D0000A48012386F88030B36770BDCBB29B00DC
:1041E00003F580727C2B08BFAC5001F1010108BFC0
:1041F000AB58DEE70248F0E7340000200000AD0BCA
:104200000C00AD0B034B93F88000003818BF012061
:10421000704700BF340000200148FFF719BC00BF01
:10422000A80000200148FFF7EFBB00BFA800002056
:1042300073B5054608460C461646FFF78DFD00B3DC
:104240000846FFF77DFD0146D8B92046FFF76CFD13
:1042500004B2A40004F580720346286881502968DE
:1042600082582144D1F8102542F00102C1F81025EE
:104270002EB12968012202FA03F3C1F8043302B017
:1042800070BD2046FFF726FD0F4B083033F8103085
:10429000C3F38203042B12D0052B12D001A8019482
:1042A000FFF708FD019AD0F81035D34003F0010361
:1042B000991C204602B0BDE8704003F0B8BC032151
:1042C000F7E70221F5E700BF340000202DE9F04FA9
:1042D000694BDFF8B081D3F80403D8F87010C0B28E
:1042E00089B040F00040FFF78FFD051E2FDAC2466F
:1042F00000235AF87C1F06A8CDE90633FFF738FDE6
:104300005E4B01930DF118094FF0000B019A12F862
:10431000013B0192DA0803F007031AF8022022FA9F
:1043200003F3DA071CD409F10409BBF1000F14D020
:10433000D8F870104FF00040FFF766FDD8F87C10F9
:1043400006A8FFF715FD0028DAD125F00045012465
:10435000002D79D109B0BDE8F08F4FF0010BD5E702
:10436000474B5B440293D9F800100029DBD0029B35
:1043700091FAA1F11C78B1FA81F141EA4414204686
:10438000FFF7A8FC0830059438F81070C808BB087F
:1043900019F80020039301F00701012303FA01F14A
:1043A00022EA010209F8002005A8FFF783FC059A1C
:1043B000039B02F5E072C7F3820650F822205B07E8
:1043C0003746C2F3014224D520463946D6B2FFF71C
:1043D0008BFC05A80594FFF76DFC059B03F5E073C6
:1043E00050F82330C3F301439E4207D100212046F9
:1043F00003F01DFC3146204603F019FC05A8059486
:10440000FFF758FC059B012202FA03F3C0F82035A0
:10441000A9E7022A0CD10321204603F008FC06F08C
:104420000503012BEAD139462046FFF75DFCE5E79D
:1044300002212046039203F0FAFB032EF3D0039AE5
:10444000032ADBD1022EEDE795FAA5F3B3FA83F345
:1044500004FA03F29B0003F1804303F5C04325EA0D
:104460000205D3F81005D3F81015C0F30520C1F3E9
:104470000141FFF739FC6BE700600040B691000096
:10448000B691000034000020044AD2F80034DB0763
:10449000FBD50160BFF35F8F704700BF00E00140B4
:1044A0004FF080531A69B0FBF2F302FB130373B9A8
:1044B000084B0222C3F80425C3F80805D3F80024EA
:1044C000D207FBD500220448C3F8042570470348EF
:1044D000704700BF00E001400000AD0B0A00AD0BCB
:1044E00010B5054C0123C4F80435FFF7CDFF0023B8
:1044F000C4F8043510BD00BF00E00140014601488A
:10450000FFF782BAB800002010B5144CA822002191
:10451000204603F032F803232361114A6361114BF3
:10452000A261E3614FF4806323620023A3626362AC
:10453000E36222660C4A62661022A2662367E36683
:104540006367BFF35F8F094A12F8011DE15401331D
:10455000102BF9D1BFF35F8F10BD00BFE015002015
:10456000B8910000397A0020297A0020D19100000A
:10457000104B70B553F82040013053F82060A6422C
:1045800000D870BDD4E9003595B153B1284698479D
:1045900038B10028B8BF4042EB68FF28A8BFFF2011
:1045A0001870EA68537843F0010353700834E6E763
:1045B0009847FBE7AC87000008B5094B01220320B0
:1045C0001A70FFF7D5FF00F039F90420FFF7D0FF8C
:1045D000FBF700FF034A137B23F00103137308BDAD
:1045E000397E00205001002008B50348034A00210D
:1045F000121A03F088FB08BD30010020BC9E002089
:1046000008B50020FFF7B4FF184B83F30888184C57
:10461000636943F4007363610025E02384F822306A
:10462000E57725766576A57684F82050636A43F4AD
:10463000E023636284F82350FDF7A2FCFDF7E8FD58
:104640004FF0FF33A362E362FDF762FEFDF720FE49
:1046500003F03DFB0120FFF78BFF0220FFF788FFEF
:1046600004482B462A462946FDF7B8FD00A700203E
:1046700000ED00E0B945000008B50648064A0749C4
:10468000121A03F042FBBDE80840054A05490648F6
:1046900003F03BBB000000202F01002074940000B9
:1046A000000000007494000000000020034B1B6811
:1046B0000BB9FEF76DBF0020704700BF88160020C1
:1046C00010B50E4B1C689C4204D1FFF7EFFF6FF052
:1046D000004010BDFFF7EAFF002CF8D0D4E9043207
:1046E0001B1A62EBE072B3F1004F72F10001EEDAD7
:1046F000002AACBF18460020EBE700BFBC0000203A
:1047000030B570B10B4B5B6898420AD0036843B177
:10471000D3E90421D0E90445121941EB0501C3E9AD
:104720000421D0E9003213605A600023C0E900334D
:1047300030BD00BFBC0000202DE9F84F4FF0200332
:10474000EFF3118783F31288BFF36F8FDFF8B49014
:104750002A4E2B4C3060D9F800004FF0000A484533
:1047600008BF00204FF0000BD4E9001E33683D461F
:1047700088B3D0E904874FEAE37C43457CEB07022A
:1047800006DAB8EB030267EB0C07C0E9042722E066
:1047900018EB01014EEBE873C0E904ABC4E9001368
:1047A000FFF7AEFF85F31188BFF36F8F83689847DB
:1047B0004FF02003EFF3118583F31288BFF36F8F5F
:1047C0003368D9F80000A3EB080348452F4633604F
:1047D000CAD1D4E9001E59184EEBE373C4E90013A3
:1047E00000243460FFF76CFF2146FEF7A3FE85F33B
:1047F0001188BFF36F8FBDE8F88F00BF88160020C7
:10480000D0010020BC00002010B54FF02003EFF3D2
:10481000118483F31288BFF36F8FFFF747FF064AB7
:104820000346D2E90001181841EBE37184F31188C3
:10483000BFF36F8F10BD00BFD0010020014802F010
:10484000C0BC00BFD2910000F0B5034660B342B3D4
:10485000174D286840BBD3F8C872D3F8D8128F42DE
:1048600013DA144C04F5C046318844F8217001F580
:104870000057013189B2B1F5805F24F817203180EB
:1048800003D96FF01E002860F0BDD3F8C8120A44A7
:10489000C3F8C822D3F8CC329A42A8BF6FF01D00EB
:1048A000F2E76FF02100EFE76FF02000ECE700BFC8
:1048B0008C1600209416002008B5134660B172B122
:1048C0000A46D0F8C0120748006803F028FA00280A
:1048D00018BF6FF01C0008BD6FF02000FBE76FF001
:1048E0002100F8E7087900202DE9F7430F46154627
:1048F0000446002855D0002A50D0DFF8B080D8F800
:104900000060002E4DD1D0F8C812D4F8D832DFF8AC
:10491000A0909942D9F8000039DAD4F8DC120623C5
:104920006A4603F0FCF988B9D4F8DC12BDF800300F
:104930000631AB42C4F8DC1205D1DDF80220D4F810
:10494000C8329A420CD01848FDF786FD6FF01D035F
:10495000C8F800306FF01D06304603B0BDE8F083A4
:10496000D9F800002B463A4603F0D9F90028EDD1DA
:10497000D4F8DC322B44C4F8DC32D4F8C8321D44FD
:10498000D4F8CC32C4F8C8529D42E5DBE2E71346C6
:104990003A4603F0C4F90028EFD0DBE76FF02106B8
:1049A000DAE76FF02006D7E70492000090160020A7
:1049B00008790020F0B5294D87B02B680F460446D2
:1049C000002848D0264A127810321203C0F8C822B4
:1049D00002F51F22C0F8CC224FF42F214FF4803271
:1049E000C0E9B4211F49C0F8D8224FF47B22C0E9A6
:1049F000B0121D490026C0E9B7660E801B4A00921E
:104A00001B491C4A0194384603F032FB86191FD11A
:104A1000D4F8DC320493D4F8C4320393D4F8C0320F
:104A200002934FF498230193D4F8D0320093D4F832
:104A3000C82211484FF420234FF40071FDF70CFDFC
:104A4000009433462A680D49384600F029FC064692
:104A5000304607B0F0BD6FF02306CFE704790020A1
:104A60002401002028020B0094760020417D0000E4
:104A700049480000777D00001F920000B9480000FF
:104A800007B502460846D2F8C0320092054A0649E8
:104A90001268A3F53023A3F50A7300F001FC03B0FC
:104AA0005DF804FB04790020B94800002DE9F041CD
:104AB000DFF8B4808CB007460E46D8F800002549D0
:104AC0001546282302AA03F02AF90446B0B9029B2E
:104AD000214A934231D12022394604A802F032FD06
:104AE00028BB0A232B700E23019304231949D8F8FD
:104AF00000000DEB030203F019F928B16FF0240454
:104B000020460CB0BDE8F0811448FDF7A5FC039BDE
:104B1000336003F5312203F5302303F50A73C3F341
:104B20000B0302F50A72D21A0D4B1A60E8E70D4822
:104B300002F047FB6FF02504E2E70E2B02D10A23B7
:104B40002B70E4E70A2B01D10223F9E7022B08BFFF
:104B50002870DCE700020B004E455750B192000070
:104B600000790020E69200000879002030B5ADF50C
:104B70000B5D8BB00DF5005404344FF0A533D0F825
:104B8000E052036001464FF43972204602F0EAFC1D
:104B900024494FF4005201A802F0E4FC01AB03F5F4
:104BA0000850EAB22049214D3D3002F0DBFC20499B
:104BB0000B7D84F83C32CB6963600B6AA3608B6A1F
:104BC000E360CB6A2361D1F86432A361D1F860322B
:104BD000636191F8403084F82830CB6B63624B6B93
:104BE000E3618B6B236204F12C00124C4FF40472CE
:104BF000443102F0B7FC296820684FF4405203F0BA
:104C00009CF82968206842F2E42301AA03F08EF898
:104C100020B1094802F0D5FA6FF01E000DF50B5DCA
:104C20000BB030BD3B7E00203B9E00200079002071
:104C300098760020087900201993000070B54FF095
:104C4000A5330B4E036004460D464FF48052306886
:104C500003F073F830684FF439732246294603F0A5
:104C600065F820B1034802F0ACFA6FF01E0070BD89
:104C7000087900202B9300002DE9F04F0446A7B0DF
:104C8000002800F0D280D0F8DC32002B40F0A68063
:104C9000DFF8C8916648B9F800100A2203921D4651
:104CA0009AB2914263D8DFF8B88162482A4602F08E
:104CB00088FAD8F8003003F580432B44B3F57B2FF6
:104CC0005BD82D0B6F1C5C4D0126D4F8C4122868EC
:104CD000A1EB063101364FF48052B6B203F02DF845
:104CE000BE42F2D9731ED4F8C462DFF878B1A6EBE5
:104CF0000336B2460027B9F80020BBB29A4243D827
:104D00004E4BD8F800101B7810331B03C4F8C83280
:104D100003F51F23C4F8CC324FF42F224FF4803315
:104D2000C4E9B432464AC4F8D8324FF47B23C4E90C
:104D3000B0230023C4F8E03201F54051A9F8003057
:104D40002046C4F8DC62FFF779FF4FF44052D8F8F0
:104D50000010286802F0F1FF042303AA39492868EB
:104D600002F0E4FF002818BF6FF0240009E030F8DB
:104D7000022F06321544013392E7334802F021FA3C
:104D80001F2027B0BDE8F08FBAB202F500532868A3
:104D90003BF81330ADF81030991D01915BF82210EB
:104DA000CDF812100DF1160202F0B9FF28B1274814
:104DB00002F007FA6FF01D00E3E7019B286804AAE0
:104DC000514602F0B3FF013728B1214802F0F9F94A
:104DD0006FF01E00D5E7019B9A448CE7164D1D48E5
:104DE0000223049302F0EDF9D4F8D01228684FF4AE
:104DF000005202F0A2FFA8B9D4F8E032164AD4F863
:104E0000D012286802F092FF0028DED1D4F8E02208
:104E1000D4F8D032C4F8E0021344C4F8D03204AA63
:104E200004239BE76FF02200ABE76FF02000A8E7B8
:104E3000925600203D9300000879002024010020B4
:104E400028020B0000020B0062930000899300000F
:104E500099930000AA9300003B7E002094760020E6
:104E6000007900209416002038B5244DD0F8D012D7
:104E700004464FF40052286802F05FFFC0BBD4F82C
:104E8000D01228681E4A01F50053C4F8D8324FF4F6
:104E9000005302F04BFF054630B11A4802F091F979
:104EA0006FF01E05284638BDD4F8D032D4F8D4228D
:104EB00003F500539342C4F8D0321CDAD4F8E02250
:104EC0001149A2F50052C4F8E022A1F5005002F009
:104ED00049FBD4F8E0220C4904F23D2002F042FBE9
:104EE0000A4B1968204601F54051FFF7A7FED9E7A4
:104EF0006FF02205D6E76FF01B05D3E70879002095
:104F00003B7E0020C99300003B9E002000790020DA
:104F100038B515460446002842D0B2F5805F05D961
:104F20002148FDF799FA6FF01E0038BDD0F8E03245
:104F30001E48184402F016FBD4F8E0321D44B5F5C3
:104F4000005FC4F8E05201D20020EEE72046FFF7F0
:104F50000DFE17490B7D84F83C32CB6963600B6A08
:104F6000A3608B6AE360CB6A2361D1F86432A361EA
:104F7000D1F86032636191F8403084F82830CB6B0F
:104F800063624B6BE3618B6B23624FF404724431B9
:104F900004F12C0002F0E6FA2046FFF765FFD3E7A4
:104FA0006FF02000C1E700BFDB9300003B7E0020D4
:104FB0009876002070B5ADF5027D054614462E4A60
:104FC00001900B4600922D492D4A204603F050F8DF
:104FD000D5F8C0222B4B9A42064645DD2A482B497C
:104FE000006802AE4FF40073324602F098FE0028CB
:104FF0003ED12569C4F85C624FF40073C4E998306F
:10500000204603F033F895F83C3223756B68E36172
:10501000AB682362EB68A3622B69E362EB696363AD
:105020006B6AE3632B6AA36395F8283084F84030F9
:1050300006464FF4047205F12C0104F1440002F01D
:1050400091FA6B69C4F86032AB69C4F86432D5F880
:10505000E032B3F5005F03D32846FFF705FF0646AD
:10506000002E01DA0823237530460DF5027D70BD50
:105070006FF01C06F8E700BF114F0000E948000080
:10508000777D000027020B000879002028020B0022
:1050900070B53A4D3A4E2968ADF50B5D8AB00446BD
:1050A0003848FDF7D9F92968306842F2E42301AAAB
:1050B00002F035FE48B1344802F083F86FF01E0567
:1050C00028460DF50B5D0AB070BD296830684FF4B5
:1050D0003973224601F5405102F021FE05460028B1
:1050E000E9D1D4F8C032013319D0BAAB03F5E85393
:1050F000D4F8C822D3F8E412914203F11C0305D17D
:10510000D3F8DC22D4F8DC329A422ED0BAAB03F5C5
:10511000E853D3F8EC22D4F8D0329A4225D1BAAB76
:1051200003F5E8514FF439721C31204602F01AFAA7
:105130004FF4005201A9154802F014FA0DF5095177
:1051400013488022013102F00DFA6369002BB7D0B9
:10515000A2699342B4D8D4F8C03203F50073C4F8FE
:10516000C0320023C4E90533AAE7D4F8E022802A3C
:10517000EBD8064804F23D21E5E700BF00790020A6
:1051800008790020E7930000069400003B7E002091
:105190003B9E00202DE9F34100F5177704460DF101
:1051A0000601384602F005FE00284BD19DF8063076
:1051B00003F00F0213F0700FA2613DD10DF1070152
:1051C000384602F0F6FD054600283BD19DF8076001
:1051D0004FF0060806F03F069DF90730002B18DB5C
:1051E0004FF6FF7327630027A4F84430676304F188
:1051F000460002F0A3FF164AC4F85422BE42154AE4
:10520000C4F8582214BF01230723C4E90876237584
:1052100014E00DF10701384602F0CBFD90B9B8F16A
:105220001B0F12D09DF8073003F07F0303FA08F339
:105230001E4308F10708CFE76FF00205284602B0C9
:10524000BDE8F0816FF01105F8E76FF01805F5E79C
:10525000757E0000CD7D0000002370B5C0E9983355
:105260000546284602F0AFFE0028FAD02869FFF76D
:1052700003FD044640B9D5F854326E6A33B934465A
:1052800006482146FDF7E8F8204670BD05F13000DC
:10529000984704460028F3D1F1E700BF17940000B7
:1052A0002DE9F047ADF5007D0646DDF820928846F1
:1052B00017461D4623B1C369D0F860229B1AC3610B
:1052C0000024AF4204D89CB33046FFF7C5FF33E05B
:1052D000002CF9D1A7EB050ABAF5007F28BF4FF4DF
:1052E000007A524669464846C047F0B95246694678
:1052F000304602F0CDFE51460446484602F04CFDD1
:10530000554402F00AFD4FF47A7CA0FB0C020CFB22
:105310000122C00B64236B4340EA42422946B3FB9F
:10532000F7F30848FDF798F8CBE76FF00904CBE7EF
:105330003046FFF791FF044620460DF5007DBDE89D
:10534000F08700BF3494000010B50A4C23681BB1ED
:1053500001232360002010BD00F048F80028F7D09A
:105360000138062803D8044B53F8200010BD034829
:1053700010BD00BF0C790020C4870000FE8FFFFF26
:10538000BFF34F8F0549064BCA6802F4E06213432E
:10539000CB60BFF34F8F00BFFDE700BF00ED00E023
:1053A0000400FA0510B40A4B0A490B4C4FF0FE32C8
:1053B000C3F800244968C3F80424C3F80824C3F8D8
:1053C0000C240023C4F800355DF8044B084700BFE7
:1053D00000B00250C400002000A00250D0E900122A
:1053E000014BC3E900127047C400002038B500F03B
:1053F0002FF820B1032400F063F8204638BD00F0F8
:1054000031F898B900F0ACF898B90F4DD5F82839B3
:105410001B0EF02B08D1D5F8242A0C4B9A420AD047
:10542000072400F017F8E6E70624FAE704242046EC
:1054300038BD0024F5E7012000F092F8044600286A
:10544000F7D1C5F80C0AD8E700B002500000E02000
:105450000020704700207047014BC3F8040A7047D2
:1054600000B0025010B5114800F048F800B110BD6E
:105470000F4800F043F80028F9D10E4C204600F008
:105480003DF80028F3D10C4B0C481C6000F036F8B6
:1054900001460028EBD100F02DF8044608B1204663
:1054A00010BD00F03FF82046FAE700BFDC00002006
:1054B000D8000020D4000020CC000020D000002024
:1054C00008B5084800F024F8074800F021F807481C
:1054D00000F01EF8064800F01BF8BDE8084000F098
:1054E0000BB800BFDC000020D8000020D400002052
:1054F000D000002000207047704700BF08B5034B64
:1055000002681B6810689847002008BDF40000205E
:1055100008B5034B02685B6810689847002008BD17
:10552000F400002070B5094C094D2069AB6898471C
:1055300018B1084B08485B689847084AEB6820692F
:1055400000211160BDE87040184700BFE000002056
:10555000F4000020C4000020E08700001079002043
:10556000F8B51A4D1A4E0446B26828699047E8B952
:10557000184F3B684CB1A3B1012B19D0013B3B60E4
:105580002869F36898470020F8BD43B9124A012101
:10559000C2F800151149D1F81029002AFBD10133B6
:1055A0003B60F368286998470020F8BD0C48F8BDB7
:1055B0000A4AD2F81039002BFBD1074A6FF07E401F
:1055C000C2F80035FFF748FF3B68D7E7E00000204E
:1055D000F40000201079002000A0025000B002501A
:1055E000E98FFFFF10B5044650B1636813F0685FA0
:1055F00005D0064A934202D000232360626010BDAA
:10560000034B04485B689847EFE700BF2C5F5CA939
:10561000C400002000880000C8B143680D4A9342CE
:1056200013D013F0685F0ED0012350E8002F194605
:1056300040E8001C9CF0000FF7D1012AF5D0BFF321
:105640005F8F0020704704487047044870476FF42C
:10565000E04070472C5F5CA9E98FFFFFEA8FFFFFF6
:1056600080B14368094A93420AD013F0685F05D0BD
:10567000BFF35F8F002303601846704704487047EC
:10568000044870476FF4E040704700BF2C5F5CA98E
:10569000E98FFFFFEA8FFFFF10B5044620B1044BEE
:1056A00063600022226010BD0248FFF77BFEF6E730
:1056B0003A00003A2888000030B10268034B0448E1
:1056C0009A4208BF0020704702487047DD55AABBC8
:1056D0008208F0007108F00038B50D460446B0B1FC
:1056E000A0220021043002F02BFE95B108222946A9
:1056F00004F1640002F02AFE082205F1200104F101
:10570000840002F023FE044B2360002038BD0348D0
:10571000FCE70348FAE700BFDD55AABB7108F000BB
:105720008308F0002DE9F74305460E4699461146D9
:10573000FFF7C2FF0446002840F08480002E00F0EE
:105740008580002900F08480B9F1200F40F082802C
:1057500005F14404082205F10408204602F0F6FD94
:1057600005F1240708223146404602F0EFFD06F11C
:1057700020010822384602F0E9FD02A94FF48070AA
:1057800041F8049D02F0D6FD002865D1334A4FF45C
:1057900080731360012193600823314A00F02EFBCF
:1057A0000121084605232F4A00F028FB0823424622
:1057B00001211C2000F022FB08233A46012103208E
:1057C00000F01CFB224608230121022000F016FBFA
:1057D0000823254A01211A2000F010FB0523234A43
:1057E00001211B2000F00AFB0823214A012114207B
:1057F00000F004FB08231F4A0121152000F0FEFAE7
:10580000082305F164020121162000F0F7FA0823AD
:1058100005F184020121172000F0F0FA0823164A4E
:1058200001210B2000F0EAFA00F044FB0446019845
:1058300000F0D2FA114B002C18BF1C46A4212846B8
:1058400002F080FD204603B0BDE8F0830C4CF9E780
:105850000C4CF7E70C4CF5E7084CEFE790B0025022
:105860008C880000048900004C880000F08800004B
:10587000B0880000D08800006C8800008408F00028
:105880007608F0008008F0008108F0000C4BC26937
:105890001A60826943F8042C426943F8082C0269B3
:1058A00043F80C2CC26843F8102C826843F8142C7F
:1058B000426843F8182C026843F81C2C704700BF5C
:1058C0005CB602500C4B1B68C3610C4B1B688361B8
:1058D0000B4B1B6843610B4B1B6803610A4B1B6836
:1058E000C3600A4B1B688360094B1B684360094B0C
:1058F0001B680360704700BF5CB6025058B6025088
:1059000054B6025050B602504CB6025048B602503F
:1059100044B6025040B6025030B10268034B04480E
:105920009A4208BF0020704702487047DD55AABB65
:105930000202F0000002F00038B5044668B1051D0F
:105940007021284602F0FEFC28462022044902F07D
:10595000F5FC044B2360002038BD0348FCE700BF82
:1059600018890000DD55AABB0002F0002DE9F043C4
:10597000284B04460E4615460FCB85B06F4687E888
:105980000F002DB94FF00009484605B0BDE8F0837F
:105990002046FFF7C1FF81460028F5D1231D019362
:1059A000636AA3BB236F8BB1C3F14008A84528BF2E
:1059B000A84604F1300031461844424602F0BEFCCD
:1059C000236F434446442367A5EB0805226F402A12
:1059D00006D104F13001384600F0AEFB0023236706
:1059E00005F03F0835F03F0505D031462A463846D8
:1059F00000F0A2FB2E44B8F1000FC3D0424631465E
:105A000004F1300002F09AFCC4F87080BCE7DFF8C3
:105A10000890B9E7C08500000C02F0002DE9FF41B5
:105A2000144B04460E460FCB6F4687E80F00204606
:105A3000FFF772FF8046B0B9CEB1636A251D0195AC
:105A40003BB901236362226F04F13001384600F054
:105A500073FB2B46043E243453F8042B12BAA342A2
:105A600046F8042FF8D1404604B0BDE8F081DFF8D5
:105A70000880F8E7C08500000502F000084B1B68AD
:105A80001B0EF02B08D1074B1A68074B9A4205D121
:105A9000064B0020186070470520704706207047AD
:105AA00028B9025024BA02500000E0200CBA02507B
:105AB000002230B549001346023840F6FC7502F169
:105AC000A05404F52C44A400904202F10102CABF84
:105AD000236025605B181E2AF1D1044A13600B4431
