:20000000E8F300208D24000069720000792400007924000079240000792400007924000048
:20002000000000000000000000000000812500007924000000000000792400007924000043
:20004000BD260000BD260000BD260000BD260000BD260000BD260000BD260000BD26000088
:20006000BD260000BD260000BD260000BD260000BD260000BD260000BD260000BD26000068
:20008000BD260000BD260000BD260000BD260000BD260000BD260000BD260000BD26000048
:2000A000BD260000BD260000BD260000BD260000BD260000BD260000BD260000BD26000028
:20046000BD260000BD260000BD260000BD260000BD260000BD260000BD26000053B94AB938
:20048000002908BF00281CBF4FF0FF314FF0FF3000F00CB8ADF1080C6DE904CE00F008F80E
:2004A000DDF804E0DDE9022304B07047704700BF2DE9F04786468C460846089E15467446C3
:2004C0001946002B40F0C1808542B2FA82F245D94AB1C2F1200300FA02FC954094402EFA82
:2004E00003F343EA0C0C4FEA154EA8B2230CBCFBFEF80EFB18CC08FB00F943EA0C439945AC
:2005000028D9EB1808F1FF3704D2994502D9A8F102072B44A3EB0903A4B2B3FBFEFC0EFB67
:200520001C330CFB00F044EA0344A04214D92C190CF1FF3304D2A04202D9ACF102032C4418
:20054000241A43EA07401EB1D440002334607360BDE8F0874746DDE76346F1E792BB431BE3
:2005600001214FEA154EAFB2200CB3FBFEFC0EFB1C330CFB07F840EA0343984561D9EB18A0
:200580000CF1FF3004D2984502D9ACF102002B44A3EB0803A4B2B3FBFEFC0EFB1C330CFB9D
:2005A00007F744EA0344A7424DD92C190CF1FF3304D2A74202D9ACF102032C44E41B43EA6D
:2005C0000040C0E7C2F120039540944020FA03F12EFA03F34FEA154E9040AFB20343B1FBCA
:2005E000FEFC0EFB1C10190C0CFB07F841EA0041884522D969180CF1FF3004D2884502D942
:20060000ACF102002944A1EB08019BB2B1FBFEFC0EFB1C110CFB07F743EA01439F420ED9D2
:20062000EB180CF1FF3104D29F4202D9ACF102012B44DB1B41EA004193E76046E3E76146F6
:20064000F7E76046A4E76346B8E7834206D916B9002108467CE7C6E900E0F9E7B3FA83F768
:200660008FB9834201D3724508D8BEEB020460EB030301209C461EB9002169E73846FAE758
:20068000C6E9004CF8E7C7F1200CBB400EFA07F522FA0CF42EFA0CF1BA401C4320FA0CF3EA
:2006A000B8404FEA144901431FFA84FEB3FBF9F809FB18300B0C08FB0EFA43EA00439A4571
:2006C00040D9E31808F1FF3004D29A4502D9A8F102002344A3EB0A0389B2B3FBF9F809FBD3
:2006E000183308FB0EFE41EA03418E452CD9611808F1FF3304D28E4502D9A8F1020321442E
:2007000043EA0040A1EB0E01A0FB02984145CE46434602D306D14D4504D20138B9EB020E78
:2007200068EB0403002EA7D0B5EB0E0261EB030101FA0CFC22FA07F3F9404CEA0303C6E97D
:20074000003199E74046C5E74346D9E77FB549211F4806F007FD05F083FA01A800F066FC01
:200760001C4B1B68834204D045211B4806F0FAFCFEE7039A4921194806F0F4FC4921184844
:2007800006F0F0FC69469DF8080000F02DF8009B039C1C44019B1D8901F080F9661901F060
:2007A00061F901F0B5FE002383F30B8883F30A88625982F3088883F31488BFF36F8FBFF3D3
:2007C0006F8F736898474521064806F0CBFCFEE7648E0000400200207D8E0000A08E00007E
:2007E000CF8E0000F48E0000024608B538B105480023452106F0B6FC6FF0150008BD08600D
:20080000FCE700BF178F000021B1012906D06FF015007047044B53F830007047024B03EBD7
:20082000C0035868704700BF488A00002DE9F04FDFF8ACB1D9B038A8DDE9648916461C468A
:20084000669FDBF8005001F0E1F8B8F1000F07D0B9F1000F04DD4A46414638A806F014FB81
:200860004FF0000833897289D6F80CA013449A44C24544D838A90CA806F02CFB27B12022DC
:2008800038460CA906F04BFD00232246009331464FF6FF7306A805F0E4F9804660BB2046D4
:2008A0000B9E00F063F9864226D84FF0FF37DFF834910DF1120304AA05A906A805F01FFA41
:2008C000002819DB40F08580BDF81230102B2ED1BDF81060202E0FD133462046059938AAE4
:2008E00006F04EFC40B9324638A90CA805F07FFA3D4B1B68834217D0DBF800506CE0639B20
:20090000AAEB0809994528BF994641464B462046629A06F035FC0028EED14A46629938A89A
:2009200006F0B2FAC844A3E74FF00108C1E7012B31D1BDF81030202BDED82046059938AA85
:2009400006F01EFC07460028D6D19DF810A0BAF1200F02D94FF0FF37ABE7D9F80030234EF8
:200960000393039B9F42F5DA1CA801F04FF872681CA8126856F8081B06F086FA1CA914A817
:2009800006F0A8FA524638A914A806F0A1FC00288FD00137E5E7222B8BD17B1C89D0D9F802
:2009A0000030BB42D6DDBDF81030802BA4D82046059938AA06F0E4FB00289DD1FFB22021F8
:2009C000BDF81030009738AA0CA800F011F80546C0E7B8F1000F8FD0284659B0BDE8F08F58
:2009E00004000020508A000040020020548A00002DE9F04798B016461D469DF88020394BAC
:200A0000074653F8321003EBC2035B6803911868DFF8D4800144302304AA03A8D8F80090F6
:200A200005F0EBFB002849D1DDE903431C44214608AB05AA03A805F008FC00283ED1069AE9
:200A4000072A3BD12949079806F042FC002835D1099A082A32D126490A9806F039FC68BBAF
:200A6000214604AA03A805F0DCFB38BBDDE903A30AEB0302944221D1412B1FD135443023A1
:200A8000294605AA04A8049605F0B7FBA0B9DDE9043213449D420FD32A4604A908A805F01C
:200AA0007AF948B92A4604A910A805F074F918B99AF80030042B05D0D8F80090484618B03E
:200AC000BDE8F08700F0B4FE20220090394608AB0AF1010006F075F80128EDD1054BD3F8F3
:200AE0000090EBE7548A000004000020468F00003D8F000040020020094A40000B7852F82F
:200B000020108B4209D0013052F82000834214BF4FF0FF304FF4407070474FF4407070470A
:200B20005C8A00001FB50F4B0C4613F8300001F00DFB50B92068102381686A46103906F07F
:200B40001FFB28B1206806F01AFB4FF0FF3006E010226846044906F0BBFB0028F2D104B043
:200B600010BD00BF5C8A0000548E000013B5044605F044F96A460146204605F058F830B15A
:200B80000448452106F0EEFA002002B010BD0098FBE700BF4E8F00002DE9F041364B88B010
:200BA000064600200D461C68FFF72EFE06A9C0B201F0CCFA002858D12946FFF725FE2C24CF
:200BC00007A9C0B204FB056401F0C0FA002833D02C276F4306EB0708D8F81010069B11F01E
:200BE000100138D14FF480720192244A08460092CDE9031122460291FFF718FE0446204B3F
:200C0000F25906989A420CD1D8F80C20B8F808309B1806D28268934203D21A4B1B68A34262
:200C200020D035B38268002106F0D4FA164A4521164806F097FA13E0079806F0E6FA0746AD
:200C4000079806F09CFA631EE21C13F8011FB942BED19342F9D11DB13046069905F0D1F9F4
:200C60000B4B1C68069806F08AFA204608B0BDE8F081084ADBE700BF04000020647A002059
:200C80003DB8F39640020020918F00009B8F000000000020898F00007FB50D460021044600
:200CA0002846CDE9021105F053F928B32368194EB34203D1204603AA05F0DEF8E36AB34206
:200CC00004D10121204602AA05F0D6F8DDE90232934288BF0393039BAB60039A2946204681
:200CE00000F068FB0C4B1A68002A03DD57210B4806F038FA04B070BD01A9FFF713FF01989F
:200D000005F1080105F085F8AB680198039306F036FAE2E73DB8F396A4160020C38F000087
:200D20002DE9F04B0E46904699460024099FDFF844B0BC4201D300200EE03D1BB5F5806FF1
:200D400028BF4FF4806530462B460A4A04EB090106F016FA10B10120BDE8F08B08992B4636
:200D60005A464046611806F020FA0028F3D12C44DFE700BF44120020F0B50E4600219E4B6A
:200D8000044643629D4B89B003650846FFF73CFD04F120010546C0B201F0D8F9034640BB85
:200DA0000121FFF731FD04F14C010546C0B201F0CDF9034638BB9DF817309DF815200499B8
:200DC00000938F489DF8143001F01AFE204605F094F80546C8B900222046114605F036F812
:200DE000074690B300225721864806F0BBF90123A1E00022CDE90023452100232A468248EE
:200E000006F0B0F9FEE70122F4E74FF4807257217E4806F0A7F901239D4284F85830DAD195
:200E200094F858107A488DF8171001F0E9FD94F85830042B00F28280012B00F2858000F02F
:200E40009780FF2384F8583092E0204605F087F90028CCD004A805F072F80146204605F097
:200E600025F9054618B13A4657216A48BDE79DF817309DF81520009304999DF81430664895
:200E800001F0BEFD04A805F063F8074660BB204604A9FFF701FF9DF8173084F85830033B1B
:200EA000012B06D8384600F0E7F810B1FF2384F858309DF81730023B022B0BD8002000F0BB
:200EC000C5F838B1FF2384F858304521534806F049F9FEE794F85830FF2BF6D0002120469D
:200EE00004AA04F0B3FF82E79DF81770012F17D1284602F09BFB831E022B05460DD839468E
:200F00002046FFF749FE464B1B68984205D0454B1D68A84214BF0525012584F858507FE7BF
:200F200001212046FFF738FE3D4B1B68984214BF05239DF8173084F8583071E7052B80D164
:200F4000002000F099F810E0204604A9FFF7A4FE94F85830023B022B0AD8002000F08CF861
:200F600000287FF46EAF00F071F800287FF469AF94F85830FF2B04D14521284806F0F2F8E4
:200F8000FEE70022012B284D039214D01146204604F05CFF78B12D68102200210DEB020019
:200FA00006F0C8F9E06C06F0EAF8206A06F0E7F8284609B0F0BD00212046FFF7EDFD184F55
:200FC0003B689842E7D12B689842E4D0154B1B689842E0D0039B01330393039B012B00D04C
:200FE000FEE7206A04F021FE3071236A5B6834603D68B360D0E700BF440A002044020020E8
:20100000F28F0000C1900000329000007F90000062910000ED90000017910000569100002E
:2010200040020020000000200400002038B5064D044660220021284606F07CF9214628462F
:20104000FFF79AFE38BD00BF4416002013B5094B01A913F8300001F079F848B9019806F0E1
:2010600090FB0446019806F08AF8204602B010BD0124FAE7648A00001FB50F4B01A913F8CE
:20108000300001F063F8A8B9019802A902F078FA044668B99DF80B30032B03D1019806F0FF
:2010A0003EFB0446019806F06AF8204604B010BD0124F7E70124F8E7648A00002DE9F34196
:2010C00006460C4617461D460BB9002628E0184604F03EFF0028F8D16946FFF723FD0098E3
:2010E00038B90124009806F04AF8204602B0BDE8F08101A904F08DFE0028F2D1009806F03A
:201100003EF83046019905F00DF8736A5E686B79012B21D1002CD8D12B68834298BF002640
:2011200021460020FFF770FB6946C0B201F00EF80028D6D120233A463146009806F020F800
:2011400004460028CDD1002DCCD03C680D4BE41A18BF4FF0FF34C5E7022BB6D12B68012B54
:2011600005D98342B1D8B4FA84F46409ADE7ACD1002CD5D0012CA8D12C79023C18BF012449
:20118000A3E700BF3DB8F3962DE9F04F07460C4685B0014600201646FFF7AEFC051E51DBAD
:2011A0003846E46D04F02AFE5FFA84F94FF0000A4FF0010B4FF0FF346B1E09FB03089DB97A
:2011C000BAF1010F03DD4521204805F0CBFF631C06D0FF2C2ADC40F2011301343460B3801F
:2011E000284605B0BDE8F08F6B1E00934146012338460DF10F0205F0C3FF031E019323DBEA
:20120000012238460DF10F0106F024FA019B40B15B4501D00AF1010A9B46009DA8EB0908E5
:20122000CDE7B4F1FF3F08BF2C46F5E70223A4F580747371631004F0010401330134336004
:201240003471CDE70725CBE70125C9E77391000000B589B0022004A906F06EFA9DF810209D
:20126000012A41D0254B2649032A08BF0B469DF81320492102929DF81220224801929DF8EF
:2012800011200092204A05F06DFF052006A906F053FA9DF81820012A28D0184B1849032AC8
:2012A00008BF0B469DF81B20492102929DF81A20144801929DF819200092144A05F052FF86
:2012C0009DF81030012B13D19DF81230032B0FD19DF81830012B0BD00D48492105F042FF6B
:2012E000022009B05DF804FB0A4BC0E7094BD9E70948492105F036FF0020F2E796910000AA
:201300009F910000B3910000A5910000F4910000049200009A9100002392000070B54B6850
:2013200014461E4A03F0FF23934206460D4686B02FD10B68012B2CD1204604A902F020F972
:201340009DF81020012A26D0154B1649032A08BF0B469DF81320492102929DF812201248BC
:2013600001929DF811200092104A05F0FBFE9DF81030032B0DD12146304604F042FE2046E2
:2013800006F0CDF92046A96804F051FD204602F0D7F806B070BD064BDBE700BF00010004F7
:2013A000969100009F910000B3910000F49100009A9100002DE9F04F16460546ADF54B7D7C
:2013C0000C46A648492105F0CDFE3146284604F0A9FE6B6A814620465E6804F0B9FDF0B110
:2013E000E86D04F006FD0023AF6A013F3344984201D9013FFAE7B94511D35721984805F0AA
:20140000B1FE07FB06F3572109FB0662954805F0A9FE0123E3710DF54B7DBDE8F08F002738
:2014200007A9022000F092FE08A9052000F08EFE1C2239460AA8DFF830B2099705F07AFFD2
:201440008A4B8B4A09A907981A6004F0C2FD5946884A09A803F092FF011E08DA864801F0FE
:20146000CFFA08983946826805F0B4FED3E7DBF80010824AB1F5005F34BF0123C1F3473340
:2014800013707F4A7F48126800927A4A127801F0B7FA21462846089AFFF740FF6379012B89
:2014A00051D14F46DFF8E0A147E02168C1F101034B449F4240D8714A6B6A127818683A4417
:2014C000013A53F8322003EBC70353F8083C121A1B1A0129DDF81C800392059311D1089B3F
:2014E0000493E368022B08D04146284604F089FD22464146284604F0BAFD2846049904F08F
:2015000080FD32460399404604F061FD039B4246414600932846059B0196FFF701FC214623
:20152000284604F022FD23680133236020B1DAF800300133CAF80030013F002FB5D10123D6
:201540002360032363714B4F4FF43972002111A805F0F0FE3B780A2B39D14C4911A803F096
:201560008FFE002816DD02233B7011A804F006FA00280FDB464801F043FA444ADBF8001007
:2015800011A804F08DF9002804DB404911A803F0DFFE01E0042363716379042B10D1DFF860
:2015A000DCA03C489AF8001001F02AFA0127DFF8D8B0B945DDF81C800CD201232360637125
:2015C000079805F0DCFD089805F0D9FD23E7022BE2D1CAE721688F423ED39AF800206B6AA6
:2015E0003A44013A186853F8322003EBC70353F8083C121A1B1A01290592039311D1089B91
:201600000493E368022B08D04146284604F0F9FC22464146284604F02AFD2846049904F08E
:20162000F0FC32460399404604F0D1FC039B4246414600932846059B0196FFF771FB2146B5
:20164000284604F092FC23680133236020B1DBF800300133CBF800300137AAE73A920000C8
:2016600063920000929200005C7A0020607A002088810000667B0020C3920000A001002041
:20168000587A0020FF920000A4160020F07700204A9300006F9300000A4619B1024B0021FF
:2016A0001B681847704700BF080000200822F0B589B004F006FFCB6A002703930B6B0C46EF
:2016C00004934B6B064605938B6BCDE901770693CB6B0097079313466A461146104604F00B
:2016E000FEFD31460546304604F0F9FD216B05440391616B10460491A16B0591E16BCDE909
:201700000617114604F0EBFD31460544304604F0E6FD0544206ACDE904770090606A039774
:201720000190A06A0290A06B0690E06B0790304604F0D5FD0544606AD4F838C00090A06A4C
:20174000CDF810C00190E06AD4F83CC00290606BCDE905C00390206A0790304604F0BFFD9F
:201760000544E06ACDE904770090206B03970190606B0290206A0690A06A0790304604F0D7
:20178000D3FE236B2D1A0093636B30460193A36B0293E36B0393636A0693E36A0793082339
:2017A00004F0C2FE636B2D1A0093A36B30460193E36B0293236A0393636A0493A36ACDE988
:2017C0000537236B0793082304F0AEFEA36B2D1A0093E36B3046CDE90137636A0393A36AD0
:2017E0000493E36A0593636B0793082304F09CFE2D1A10D40D4C35B908223146204604F0DF
:201800006CFE01280FD0082322463146304604F08BFE2D1AEFE7054A08233146304604F0E1
:201820005EFD2D18F8D409B0F0BD00BF708A0000004870476C8A00002DE9F04F0027036841
:201840009DB002934368DFF8BCA103938368DDE902460493C36805930369DDE904BE069351
:20186000436907938369DDE9062C0893C36998460993089B0093CD590CAB2DBA5AF8049B12
:20188000DD514FEAF223A94483EAB213009D83EA72634B4425EA020502EA0C0985EA0905AB
:2018A0002B44434486EA0B054FEA743888EAB408254006EA0B0985EA090588EAB458043700
:2018C000A844402F03EB0E054344DE46DDF8008040F088804FF0100A4B490A9151460AF15A
:2018E000010A0DF1700E0AF00F070EEB870757F8407C01F00F094FEAB748019788EAF71865
:2019000001F10E0707F00F070EEB870757F8407C09314FEAF74E8EEA774ECDF82CE001F06A
:201920000F010DF1700E0EEB81010EEB890959F840EC51F8401CBAF1400F7144DDF804E08B
:2019400088EADE08DDF82CE041448EEA972E714405EA02084FEAF52E2CEA050787EA0807E0
:201960008EEAB51EDDF828808EEA756E774458F804EF49F8401C77440F4400994FEA733E18
:20198000394484EA0607CDF828808EEAB30E07EA030704EA06088EEAB35E87EA08077744EE
:2019A0000F4401EB0B0ECDF800C0B34622D102993944016003991944049B41602344836062
:2019C000059B3344C360069B73440361079B2B444361089B13448361099B6344C3611DB042
:2019E000BDE8F08FB346CDF800C0264694461C462A4640E7944626462A461C4675463B46B2
:201A00006CE700BF1C8B0000588B000010B50446C8B17022002105F0BAFA0B4B0B4A0C4946
:201A2000C4E900230B4B0C48C4E902130B4BC4E9040301200A4BA36103F17453A3F523036D
:201A4000A3F69243E36110BD85AE67BB67E6096A72F36E3C3AF54FA57F520E518C68059BFC
:201A6000ABD9831FBFF36F8F72B600234FF0FF30094A03F120010133102B42F82100F8D1DC
:201A800000234FF0FF30044A03F160010133102B42F82100F8D1704700E100E04FF0FF3297
:201AA000014BC3F80823704700E01050014B1B68184700BF0C000020014B1860704700BFAA
:201AC0000C00002007B50B46002102460091034800F014F903B05DF804FB00BFAD1A0000FE
:201AE0002DE9F047058B04462807904611D4022905F0070540F0CD80204605F059FA78B155
:201B00000138218B042811D8DFE800F0C3106D85950001290CBF45F0100545F02005258379
:201B200088F31188BFF36F8FBDE8F08701F0070AAA4500F0A6800027B9463E46A368002BDE
:201B400000F0BD8041F00801218388F31188BFF36F8FA168002900F0BB800D68002900F0CB
:201B6000B780334652462046D1F80480C047002D76D02B6829461D46F0E701F007035A1F40
:201B8000012A1BD8002221F00701062B276889B2C4E9002209D13B4603E0628B01326283DF
:201BA0001B68002BF9D141F002012046218305F0FFF900287BD041F0200177E0042B0AD15C
:201BC00021F0070189B22046218305F0F1F910B141F020012183218B01F0070AAA4550D054
:201BE0000027B946AAE7236921F0070141F00601062DD3F8009021832DD1B9F1000F40D058
:201C000041F00801218388F31188BFF36F8F20463949C84729E021F00701236941F0040147
:201C200089B2042DD3F804902183E6D000274FF0040A3E4682E721F00701236941F0050142
:201C400089B2052DD3F808902183D6D000274FF0050A3E4672E700274FF0060A3E466DE7CA
:201C60002B4687E7B9F1000FD1D14FF02003EFF3118883F31288BFF36F8F238B23F00803C1
:201C80002383258BEA062ED525F01003238305F007056669218B002EBFF66FAF00232768FE
:201CA000C4E9003321F0070141F001012183218B4FF0000901F0070AAA457FF43FAF002FDF
:201CC0009BD041F00801218388F31188BFF36F8F002FC7D03D68394633465246204605F0A1
:201CE00093F92F46F4E7AB067FF51AAF25F02003238305F00705FFE6357000002DE9F04F5C
:201D000082464FF000098DB01D46531E01910393039B58785C1C252819D100204FF0FF38C7
:201D20001E46444603460236029031780396392955D81F2914D8002900F0EF810199252035
:201D4000D04701993078D04709F10209E0E7002800F0E3810199D04709F101090394D7E7C1
:201D6000A1F12002192AE9D801A757F822F000BFD91D00003D1D00003D1D0000D91D000043
:201D80003D1D0000591E00003D1D00003D1D00003D1D00003D1D0000A51E0000D91D000051
:201DA0003D1D0000B91E0000651E00003D1D0000731E0000931E0000931E0000931E000071
:201DC000931E0000931E0000931E0000931E0000931E0000931E000008460136A5E758294B
:201DE00000F0EB80A1F16302D7B2172FA6D8172AA4D801A757F822F061200000DF1E000000
:201E00003D1D00003D1D00003D1D0000BF1E0000DF1E00003D1D00003D1D0000BF1E000049
:201E20003D1D00003D1D00003D1D0000951F00003D1D00003D1D0000352000003D1D00007D
:201E4000DF1E00003D1D00003D1D0000951F00003D1D0000BF1E000025200199D04709F1F6
:201E6000010955E7029A4FF0000802F0FE020292B3E7002C0DDAB8F1000F0DDA029A002AA1
:201E800000F043810A2224EAE47402FB0414303CA3E7B8F1000FF5DB0A2202FB0812A2F193
:201EA00030089AE7B8F1000F55F8042B80F22F81002A80F22E815442022202928DE7682975
:201EC00003D1682B06D1482387E76C2902D16C2B00F02181002B7FF431AF0B467DE77A2B82
:201EE00006D1752955F8046B14D14FF0000B0CE06C2BF6D04C2BF4D1073525F00703752904
:201F000003F10805D3E9006B06D120283BD1854F013C09E04FEAE67BBBF1000FF5DA764298
:201F2000814F6BEB4B0B013C0DF12D03059300230493304659460A220023FEF79FFA059BD6
:201F4000B446303203F8012D5A460593049BBCF10A0F8B4672F1000203F1FF310646049124
:201F6000E7D2C3F1010B30330DEB0306B8F1000FA6F104066DDA029BD9077DD4A8EB0B0375
:201F8000A4EB0B0413E02B280ABF684F684F04F1FF34C9E770290FD155F8042B0023FAB983
:201FA0006FF004034FF0050B614F624E053C029A920770D4A04666E078216C2B03D10023FF
:201FC00055F8042B08E04C2BF9D1073525F007031D465B6855F8082B232825D1880621D596
:201FE000554F023C002601F06001A1F1390B0DF12D0E02F00F01092988BF594430310EF8F9
:20200000011D102A4FEA121141EA03714FEA131C73F1000306F1FF3008D2C6F1010B06F1E4
:202020003003A1E7454FDCE7414FDBE706460A466346DEE755F8046B304605F042F9B8F127
:20204000000F834602DB4045A8BFC3464FF00008374FA8EB0B03002B92DDA4EB0804A6E7A6
:2020600055F8043B4FF0010B8DF81830304F4FF0FF33013C06AE9AE7A046EAE702932020CE
:202080000199D047029BB8F10108F7D524EAE472013C9144A41AB84606E004930292019997
:2020A000D047029A049B9046424612F8010B0028F3D11A46013A15D5002BACBFC7EB030797
:2020C0007F425B46013B15D5BBF1000FA8BF5F4426464F44013E14D5002CA8BF3F1907EBAF
:2020E000080915E60493029230200199D047049B029ADFE70293019916F8010BD047029BAA
:20210000E0E701992020D047E4E70122D5E6904663E6144661E64C235FE648460DB0BDE8FA
:20212000F08F00BF2B940000299400002D940000CD930000359400002F9400003294000072
:20214000014B036000207047208C000070B5114B0D461C68DCB1104B196800238B4202DBBF
:202160006FF0010070BD224612F8106B864202D014460133F2E7E06810B96FF01200F1E78A
:2021800005F08DFC0028F8D000202C60EAE76FF00C00E7E710000020208C000070B588B0E2
:2021A00005460C46C0B269461646FFF7CFFF00281BDB0098C8B143682268029383680195C7
:2021C000CDE903360023CDE906230593C56804F0D6FF6DB12846084901AA05F07DF90798EE
:2021E00008B9059B236008B070BD6FF01500FAE76FF01200F7E700BF1972000030BFFFF743
:20220000FDBF00BF704700BF154B9A6A12F0007F9A6A14BF1E201D2012F0807F9A6A18BFBA
:202220001F2012F4801F9A6A18BF022012F4002F9A6A18BF212012F4802F9A6A18BF22209A
:2022400012F4003F9A6A18BF232012F4803F9A6A18BF24206FEA02426FEA12429A6270473A
:2022600000ED00E010B5194B0246986A9C6A10F4805F14BF1720162014F4006F9C6A18BFA1
:202280001820A40509D5986B986A000404D51AB19A6A22F400429A6219200C4B9A6A12F4E0
:2022A000806F9A6A18BF1A20D2050CD49B6A13F4005F18BF1C20054A936A43F47F439362AB
:2022C00000230B7010BD1B20F5E700BF00ED00E010B51C4B0246986A9C6A10F0100F14BF82
:2022E0001120102014F0080F9C6A18BF1220A40709D5586B986A000604D51AB19A6A22F045
:2023000080029A6213200F4B9A6A12F0010F9A6A18BF142012F0200F9A6A18BF1520D40672
:2023200058BF9B6A074B9A6A920642BF5A6A22F400525A629A6A42F0FF029A6200230B70D9
:2023400010BD00BF00ED00E070B5444B06465B6800258AB0C3F3080385F31188BFF36F8F80
:2023600002F07F40B0F17F4F11D102F00C0008280DD010074CBF0E4601250022033B8DF8CF
:202380000720032B05D8DFE803F01E5C60592E46F3E700249DF807309BB92022314602A829
:2023A00004F0BDFF099B002D53D0C3F3080222B96FEA53236FEA43230993204602A904F0AF
:2023C0004DFF0AB070BD254BDA6A9107E1D4DA6A002ADEDBDA6A5200DBD55A69B16942F449
:2023E00080725A61BFF34F8FBFF36F8F5A6931F8021C22F480725A61BFF34F8FBFF36F8FE3
:202400004DF60272914209D09A6AD2B242B101200DF10701FFF75CFF0446BBE73468B9E73E
:202420009A6A12F47F4F05D001200DF10701FFF719FFF1E79B6AB3F5803FAAD3FFF7E4FE21
:20244000EAE700200DF10701E4E700200DF10701EDE723F4FF7323F00103ADE700ED00E0BF
:20246000044B5A6942F010025A615A6942F480625A61704700ED00E0EFF30880EFF309815B
:2024800001B57246FFF760FF01BD00BF002080F31488BFF36F8F002080F30A8880F30B88F2
:2024A00000F018FB00200E490860BFF34F8F0D4880F3088800F03EF8202080F311880A488E
:2024C0004FF40061401880F30988EFF314800221084380F31488BFF36F8F00F093F80000DE
:2024E00094ED00E0E8F30020E89B0020BFF34F8F0549064BCA6802F4E0621343CB60BFF311
:202500004F8F00BFFDE700BF00ED00E00400FA05002318460649D1F89020C2F307229342AF
:2025200000DB7047C1F89830C1F8A0000133F6E700ED00E010B572B6002484F31388FFF738
:20254000E7FF23464FF0FF300C4A03F120010133102B42F82100F8D100234FF0FF30074ADE
:2025600003F160010133102B42F82100F8D162B6BFF34F8FBFF36F8F10BD00BF00E100E0CE
:202580001EF0040F0CBFEFF30880EFF30980816911F8021C0229FFD001B504F061FE01BDA8
:2025A00000B2002807DB01234109034A00F01F00834042F82130704700E100E0054B420934
:2025C00053F82220012300F01F0003FA00F01040704700BF00E100E000B2002801F10101F9
:2025E000ACBF00F16040064B4FEA4111C9B2ABBF00F5614000F00F0080F8001319547047DA
:2026000014ED00E00B4A08B50B4B22F07F029A60BFF34F8FBFF36F8FD3F8882022F47002A9
:20262000C3F8882002F062FC02F0A6FC00F036F802F068FC0000000000ED00E0044608467A
:2026400011461A46002383F30B880A4B2025A3F5A04686F30B8883F3098863B64FF0000311
:2026600083F31188BFF36F8FA04785F31188BFF36F8FFEE7E8F30020014910220A60704776
:2026800010ED00E072B6494081F31188BFF34F8F20BF80F3118862B6704700BF0023202033
:2026A00040F20F1210B5044CE1180133934281F80003F9D110BD00BF00E100E001B5EFF385
:2026C0000580A0F110004FEAC0000449014409C99847BDE801400249084700009C810000FB
:2026E000052200000121024B024A034800F0ECB80000042000000020948C000010B50C7A6A
:202700000B6804F01F0223F01F031A43CB68640923F01F03054943EA440343F00103C1F818
:202720009800C1F89C20C1F8A03010BD00ED00E010B5074BD3F89030C3F30723013B9842D1
:2027400002D8FFF7DBFF10BD6FF01500FBE700BF00ED00E02DE9F04F0F46144606464FF091
:2027600000084D4D85B0B84580F29280D6F80490B9F1000F36D0B9F11F0F40F2878019F0C6
:202780001F0F40F08380D6F800A01AF01F0F7DD1504604F074FD834609EB0A00013804F0F5
:2027A0006EFD834572D11BF1160F6FD05C456DDDC5F898B0D5F89C10C5F898B0D5F8A03028
:2027C00021F01F0143F01F0AD6E900321A44994202F1FF391ED1CA4508D131465FFA8BF0F5
:2027E00004F056FD08F101080C36BCE73146C5F898B0D5F89C3022F01F0203F01F031343F8
:20280000C5F89C30E0B204F043FD10F1160F3DD0441CE7E7C5F898B0D5F8A020013B23F027
:202820001F0302F01F021343CA453146E0B2C5F8A030E8D004F02CFD10F1160F26D0C5F8BA
:2028400098B0D5F89C209DF808300AF1FF3A62F304038DF80830D5F8A0309DF808205B08D0
:2028600063F347128DF80820D6E900321344009323F01F035344A3EB0903013023F01F0355
:202880006946C0B20393FFF753FFBEE76FF01504204605B0BDE8F08F00ED00E00522044B9A
:2028A000C3F89420BFF34F8FBFF36F8F704700BF00ED00E0BFF35F8F0022024BC3F89420A8
:2028C000704700BF00ED00E010B5034C2278FFF741FF207010BD00BF647B0020F0B53A498E
:2028E0003A4DD1F890302C68C3F307239C4287B066D80020FFF7DEFF354BC1F8C03084421F
:202900000DD1344D01A82C70FFF71AFC00240646314FA6420AD1FFF7C1FF00204EE069687F
:2029200001EB0011FFF7EAFE0130E8E70199200101EB0413DA683A40B2F5001F22D0B2F5E3
:20294000800F2CD0B2F5801F36D15A689B680958013B22F01F0003440120844623F01F03A5
:2029600040EA4C10CDE902218DF8100002A928780593FFF7DDFE00281EDB2B780134013382
:202980002B70C6E75A689B680958013B22F01F0003444FF0020C012023F01F03E0E75A68E9
:2029A0009B680958013B22F01F0003444FF0000C022023F01F03D3E76FF0150007B0F0BDCB
:2029C0004FF0FF30FAE700BF00ED00E0A08C0000AAFF4400647B00200000F0FF014B186051
:2029E000704700BF140000200239012902D8034B1B6818474FF0FF30704700BF14000020A6
:202A00000FB41FB5002106AB53F8042B0548009102210393FFF772F905B05DF804EB04B02E
:202A2000704700BF4D73000008B500F099FE00F053F81B4A1B48D2F8A03523F00103C2F8A9
:202A4000A03543F6F073D0F82416C1F3080203EA1133172182F48072883201FB02339A0AE5
:202A60009B054FF02603104948BF0132C1F80429D0F82006C0F3080282F4807202F2172295
:202A80005A4340F6FC7303EA903303EB920301221B0AC1F81C37054B00201A6308BD00BFFC
:202AA00000B0045000C0FF000000125000E0105048B1054B054A1B68B3FBF2F35843044B19
:202AC00043F00103184770472400002040420F00408A000000F05ABE0122024BC3F80424AF
:202AE000704700BF002008E0084B70B5C31A0D4607499B10044659434022064804F044FCEB
:202B00002B4601462046BDE870401847BC160020B76DDBB624810000402373B50B4C009322
:202B2000041B0B460D460A49A41061430646094A094804F055FC011E05DA30462B4602B05B
:202B4000BDE87040184702B070BD00BFBC160020B76DDBB6517400002481000010B54FF00E
:202B60002003EFF3118483F31288BFF36F8F074A136823F00201DB07116002D4012004F0DB
:202B80000BFE84F31188BFF36F8F10BD0C17002070B50022012104464FF48770FFF71CFD60
:202BA0000F4800F0CFFE0F4B984215D100F0DAFE26690D49304604F04BFA00280BDB012557
:202BC00035642469084904F11C0004F041FA002801DB0020E56470BD6FF00400FBE700BFA0
:202BE000212C00000000AD0BC88C000001460C2300224B4370B50848C41840331844D4E979
:202C00000E56A26304F0ADFB2DB132462B46BDE870400248184770BDBC1600202481000026
:202C200010B1012804D07047034B1B6C5B0701D1FFF7DCBF704700BFBC16002008B54FF021
:202C40002003EFF3118183F31288BFF36F8F104A136843F002001060DA0708D481F31188D9
:202C6000BFF36F8FBDE80840012000F091BE094BD3F80C34DB03F1D5074804F072FB81F330
:202C80001188BFF36F8FBDE808400020FFF7AEBF0C17002000E01050FC1600202DE9F84375
:202CA000012207463349D1E8EF3FC1E8E02F0028F9D133B9304931484B60CB608A6004F005
:202CC000DAF97B1E012B2AD8012F06D12C4BD3F8503403F00303012B21D004F0FFFE05463B
:202CE000F8B9284B1B78E3B104220646244BC3F808234FF00108224CDFF88C90D4F84C24DD
:202D0000D4F84C34D20316D503F00303012B01D0012F10D145B386F31188BFF36F8FBDE841
:202D2000F8834FF02003EFF3118683F31288BFF36F8F0125DDE73046FFF7A4FCD4F8403447
:202D400013F0FF03DAD1D4F80821002AD6D0C4F80831D4F808314FF48043C4F84084C9F8BD
:202D6000A031C4F81080C9E70422054BC3F80423D5E700BFB8160020A8160020D8160020D9
:202D800000E01050657B002000E100E008B5074804F085FE38B10648FFF720FE0448FEF723
:202DA0008BFE002008BD6FF01200FBE774810000B52D00000A2838B50446074D04D1AB68D6
:202DC0000D2128465B689847AB6803485B68E1B29847204638BD00BF748100000048704714
:202DE000088D0000024B0B6001231360704700BF108D0000024B034A0020C3F80C2570477F
:202E000000B004508000008070B50F4EB04218D8C0F5BE1303F580539A4212D85AB1012304
:202E20000A4CC4F8003541B104F079FABFF35F8F0023C4F80035002070BDFF2104F07AFA69
:202E4000F4E76FF01500F7E7FFCF170000B0045010461A46084B10B5994209D8C1F5BE144A
:202E600004F58054A24203D804F059FA002010BD6FF01500FBE700BFFFCF170038B54568FE
:202E80002B69E3B11035284601F0ECF90446B0B90146284601F0A4F90B4B984211D1224611
:202EA00028460A4901F070F922460121DB20FFF793FB2246012140F20D10FFF78DFB002077
:202EC00038BD6FF00400FBE70000AD0B593000002DE9F04340F206354668D00648BF032013
:202EE000337B02EA050558BFC2F3401087B001F01F07B5F5837F144647EA43178DF80300AB
:202F000045D00FD8062D44D007D8B5B1022D14D06FF0150007B0BDE8F083B5F5807FF7D162
:202F200001250AE040F20222954234D0B5F5407F33D0B5F5007FEBD1042522032FD5012389
:202F400072688B405360326982BB5F2F07F01F034FEA571177D83E4A52F8212084F480316E
:202F600002EB8302D2F88030C1F30041C4F3404423F4706344EA410423F00F031C4344EA26
:202F8000800444EA0524C2F880400020C2E70925D3E70825D1E70625CFE70525CDE7630321
:202FA00041BF012372688B409360CCE71036394630460DF1020201F0F5F814F4403F80463A
:202FC0000CD13946304604F0ACFC224B9845DCD130469DF8021001F053F9D6E74FF000092D
:202FE00001AB3946304603AACDE90439CDE90199CDF80C9000F03EFF164B984288D114F416
:20300000003315D09DF8033084F48034C4F300448DF80E3039464B46304603AA8DF80C50D2
:203020008DF80D4001F01CF80A4B9842CDD06FE7CDE9043339460DF10303304603AA03936E
:2030400000F018FFF0E7203352F82330FFDE00BF2C8D00000000AD0B4209022A034670B5B0
:2030600003D0012A18D0CAB170BD0E4E326951680029F9D0012503F01F030C689D4000296B
:20308000F2D08A682A4002D030464B6898473CB1236821461C46F2E7034EE7E7034EE5E7E2
:2030A0002346F6E7608100004C81000038810000F0B5406801F01F04057B87B044EA4514C4
:2030C0000569002D63D0B2F5001F00F1100506D12146284604F027FC002007B0F0BD0027E8
:2030E000B2F5800F01AE019777603BD1B3F1007F14BF052304238DF804300023CDE9046332
:203100000393836823FA01F111F001011CD1B2F1A07F19D104F01F035F2C4FEA541003F151
:2031200020033AD81E4A52F8202052F82330DB070AD40DF1030632462146284601F032F89C
:20314000184B984219D002962146284603AA00F091FE154B98421DD101222146284601F09F
:20316000A7F8B9E7B3F1C06F05D0B3F1007F14BF01230223BFE70323BDE73146284601F0E3
:203180008BF8094B9842DED06FF00B00A5E76FF08500A2E76FF015009FE751F82330FFDEFA
:2031A0002C8D00000400AD0B0000AD0B2DE9F0430027DFF8E0C0FBB2994202D80020BDE8D4
:2031C000F08350F82750C5F34324082C05F07F0352D87F2B4FEA154508BF4FF0FF331CF840
:2031E0000440032D4BD8DFE805F002083336C2F804365D1C32D10137DDE7C2F80C365E1C27
:20320000F9D0002550F827804FEA531908F40056002E0EBFAE464FF0010E00255F2B03F0FB
:203220001F0632D81C4BC8F3C11853F8293003EB8606D6F880902302184C43EA880309EA34
:20324000040423432B4343EA4E03C6F88030D2E7C2F81036CDE7C2F80836D0E75D09032DF4
:2032600010D00D4E56F825E0012503F01F0605FA06F6CEF80460C5E76FF015009FE76FF058
:2032800085009CE700235B60FFDE0023203653F82630F9E79E940000A48D0000F0F0FCFF33
:2032A00037B54468074D8DF8071004340223012220460DF1070101F037FCA842F6D003B013
:2032C00030BD00BF0B00AD0B70B546680C46351D0021284601F0B0FD074B984208D1B16ABB
:2032E00001220B782846237001F000FD002070BD4FF0FF30FBE700BF0000AD0B73B5446851
:203300000546666C0021304601AA04F06BF9002820DB019B326819791868FFF747FF002827
:2033200018DB002204F10C01201D01F05FFB0E4B984211D1A46C14F002040AD16B680122EE
:203340001D1D996A284601F0D1FC2146284601F051FC002002B070BD044B0344072BF8D85A
:20336000034AD056F6E700BF0000AD0BFCFF52F4A7940000F8B515461C4604F04AF9A8427F
:2033800071EB040417D30C4C6422D4E90065801B61EB05010023FDF771F86427A0FB073213
:2033A00007FB01219B1941EB0501C4E90031BDE8F84001F041BEF8BDB001002038B5234C76
:2033C0000022D4F81837012123F4403343F48033C4F81837D4F81035E42023F00203C4F826
:2033E00010350523C4F8A4360423C4F8AC36FFF7F3F8002001F066F8154B0546984208D157
:203400000120144901F0C8F8A84205D0124B984218D04FF0FF3038BDD4F8483743F00103BA
:20342000C4F84837D4F84037D4F8445715F08045F8D140F6FF72094B02201A60FFF72EFC5D
:203440002846E8E76FF00B00E5E700BF00200E500000AD0B200000200200AD0B841700204F
:2034600010B504F0D6F8064AD2E90034C01A4FF064024FF0000361EB0401FCF7FFFF10BDB6
:20348000B0010020431C2DE9F34145D00128B8BF0120441E04F0BDF806468846264B6422C0
:2034A000D3E90057D5F1630067EB470180194FF0000348EB0101FCF7E1FF03194FF0640094
:2034C00041EBE472A3FB003100FB0211AD1B67EB0807581941EB070150EA010304466FF0D8
:2034E000630208BF01240D464FF0310308BF0025A24273EB05063CBF14461D46B0F1004FD4
:2035000071F100010BD20023012221460B4802B0BDE8F04101F0B4B86FF00044BAE704F04E
:2035200078F8012322180093044845EB010301F083F802B0BDE8F081B0010020180000206D
:2035400030B5816885B0103921F00704054603F05CFE10220146684603F0ECFE1022684687
:20356000064903F0DCFE10236A462146284603F01CFE003818BF012005B030BD548E0000B6
:2035800030B50D46816887B0102302AA1039044603F0F6FD002802DA012007B030BD102280
:2035A000204602A904F056F800283AD110221E4902A803F08DFE00280CBF012302232B70ED
:2035C000204604F033F8012301460DF10702204603F0D6FD0028DFDB9DF80730204603F0C1
:2035E0000F021B096A702B7101220DF1070104F031F810B96B78042B03D901236B70002301
:203600002B71A2682046183A22F00702083AA91C04F033F80028BFD12046E91C04F086F876
:20362000BBE70323CBE700BF548E0000F0B5354F85B046000546694657F8260004F07CF8F4
:20364000044610B1FF2005B0F0BD013657F8260002A904F071F8012837D12A4649212A48AD
:2036600003F080FD294B8DF80C40029300229DF800609DF80870264C3146207803F0DCFF8D
:2036800050B33946607803F0D7FF28B3A378042B03D09DF8031099421ED1E378042B03D040
:2036A0009DF80B10994217D12379042B10D16279022A1DD1174B18482A46492103F052FD18
:2036C0006079831E022BBED9BCE70028CED0B9E79DF802109942EAD00132032A04F1060408
:2036E000CAD10E482A46492103F03CFD0120AAE7032A05D00A4B0B49042A08BF0B46DAE76F
:20370000094BD8E7288E0000E6940000030103037B950000C8940000319500005595000040
:20372000CD940000DF940000C394000003689A070CD50368DB070DD50922074BC3F80C25D9
:203740000F22C3F8042501221A60FEE7034B0360EF3B0360704700BF00801050F000FA5004
:20376000064BD3F80438012B05D0032B02D1044B044A1A607047024B034AFAE70000125044
:20378000240000200090D0030020A107012208B51C4B1D48C3F80028FFF7C8FF0830FFF740
:2037A000C5FF0830FFF7C2FF0830FFF7BFFF0830FFF7BCFF154AD2F88C3043F44063C2F808
:2037C0008C300022D30003F57F0303F54043D3F8001401310AD0D3F8001439B1D3F80014B0
:2037E0000132D3F80434402A0B60EBD1074AD2F88C3043F44063C2F88C300022044BC3F8AF
:20380000A02508BD0000125000C50D5000ED00E000B0045030B50468ACB1B4FA84F30122D3
:20382000C3F11F03DBB29A4024EA0202D0E8EF5FA54204D1C0E8EC2FBCF1000FF6D1EAD176
:2038400002480B7030BD0248FCE700BF0000AD0B0200AD0B10B50368CB40DB0710D4012333
:203860008B40026843EA0201D0E8EF4F944204D1C0E8EC1FBCF1000FF6D1F2D1014810BD33
:203880000148FCE70000AD0B0400AD0BF7B5044618B1012822D003B0F0BD0422284B064669
:2038A000C3F8082301225A61C3F80801D3F80831002342F21075224F8DF80730D4B1012CC1
:2038C000E9D1D7F80C3403F480338EBB002BE2D0012003F05FFF013DF3D1DCE70022184B93
:2038E0000DF10706C3F808035860C3F80021D3F80031DDE7D7F84C3403F480333EB9002B88
:20390000C9D0012003F046FF013DF3D1C3E7D7F84C2402F003023270002BBCD09DF80730AE
:20392000002BB8D1012003F035FF013DC6D1B2E7002B0CBF012300233370EFD1ABE700BF2C
:2039400000E01050044B1A7922B9012218601A710248704702487047881700200000AD0BCB
:203960000C00AD0B08B5084B1B6843B14FF48770FEF724FE18B94FF48770FEF711FE00227A
:20398000024BC3F8402408BD8817002000E0105010B510B1012844D010BD274BD3F84C14CA
:2039A000D3F84C24C80323D502F00303012B04D013B10020FFF76AFF00231F4A0420C2F864
:2039C000403410224FF48473002103F1A04303F5871319601C68012402F1A04202F58712F6
:2039E0001460164A126802B3134BC3F80403D3E7D3F84824D107DFD5D3F850249207D8D4A3
:203A00000E4A12681AB10422C3F80423C4E7D3F80821002AFBD00022C3F80821D3F8083163
:203A2000BAE700224FF48073CEE71A68002AFCD019601B68B0E700BF00E01050881700200F
:203A400010B51E4BD3F8002152B10020C3F80001D3F800210122C3F80823194B1B689847B2
:203A6000164BD3F8082172B10022C3F80821D3F80821D3F84C24D3F84C24920714D10122BD
:203A8000C3F840241A610D4BD3F80421A2B100220220C3F80421D3F80421C3F80803084BC4
:203AA000BDE810401B6818470422C3F80823044B01201B689847E6E710BD00BF00E01050B8
:203AC00088170020036803F01F025F2B02604FEA53129ABF024B53F822000020704700BF75
:203AE000308E0000034A4309D35C00F01F001844C0B270478D95000070B505460846FFF7D6
:203B0000F1FF32212A79174B01FB0202083233F81200C10525D564240026C0F3432120F44D
:203B2000F85023F812002A7904FB02340E3434F8020F10F4807F03D0C0F34320814210D02A
:203B40000136202EF3D164200024424302EBC1029C502A79BDE8704000FB02305830FFF7B0
:203B600079BE70BD28000020F0B50646002487B0114F019117F8012B06AB03EBD20313F8A1
:203B8000143C02F00702D34013F0010306D10134032CEFD10023184607B0F0BD074A03ADDF
:203BA00007CA85E8070055F824100A6A46F824200A62002AEBD0EEE79D950000308A000037
:203BC00010B504460846FFF78DFF322303FB0400024B083033F81000400B10BD280000208F
:203BE00010B504460846FFF77DFF322303FB0400034B083033F81000C0F3400010BD00BF5F
:203C00002800002010B504460846FFF76BFF322303FB0400034B083033F81000C0F3401084
:203C200010BD00BF280000202DE9F04F0D46D0F8141387B0C9B241F400312A6D009003F0E7
:203C400024FE810306462ED50023E96D03A8CDE903330593FFF788FFDFF868A1DFF868B17A
:203C60000DF10C091AF8013B05EBD30292F85C2003F0070322FA03F3DA076AD4534B09F152
:203C8000040953450BF1010BECD14FF400312A6D009803F0FAFDE96D03A8FFF765FF0028AA
:203CA000DAD126F400360124002E73D107B0BDE8F08F91FAA1F1B1FA81F19BF8004041EA5F
:203CC00044142046FFF70EFF083035F81080C8084FEA98030193012319F8002001F00701A8
:203CE00003FA01F122EA010209F8002002A80294FFF7E8FE029A019B203250F82220C8F3BA
:203D000082075B07B846C2F3014227D52846D7B22146424603F09AFD02A80294FFF7D2FE50
:203D2000029B203350F82330C3F301439F4207D10021204603F07BFD3946204603F077FD07
:203D400002A80294FFF7BEFE0122029B02FA03F30362D9F800100029ABD18FE7022A0DD154
:203D60000321204603F063FD07F00503012BE7D142462146284603F069FDE1E7022120467C
:203D8000019203F054FD032FF2D0019A032AD7D1022FECE796FAA6F3B3FA83F304FA03F2A5
:203DA00026EA0206009A284602EB8303D3F81015D3F81025C1F30811C2F3014203F046FD85
:203DC00072E700BF9D9500009D950000A09500002DE9F74305460846FFF784FE32222B79D9
:203DE000204F02FB0303083337F813300E46DB07044635D5284603F06FFD95F804903146B5
:203E00004846FFF7FFFE60B14846FFF7D9FE0022D5F8008000B208EB8003C3F81025C3F873
:203E2000102528463146FFF767FE32222B7901A802FB03440023083427F814300196FFF7D9
:203E400041FE019B00EB8300D0F88020064B134043F00203C0F88030044803B0BDE8F08356
:203E60000348FAE728000020F0F0FCFF0000AD0B0400AD0B2DE9FF47174604460846FFF738
:203E800031FE3E688846054676B394F804904846FFF7A6FE18B14846FFF7B4FEA0BB002346
:203EA0004046CDE900338DF80E308DF80F300DF10F0233460DF10E0103F070FC322023792A
:203EC000644A00FB0353083332F8131021F0020122F81310237900FB0353083332F8131095
:203EE00041F0010122F813107B68002B45D026794146304693F80090D3F804A0FFF770FEA5
:203F000020B1BAF1000F22D0534839E04FF0320C0CFB06564F49083631F8163023F4604391
:203F200023F0200321F81630BAF1000F0FD0B9F1030FE9D87B6826685B68187806EB80069B
:203F4000B9F1000F1FD1C6F81095C6F8109532202379404A00FB0353083332F8131021F090
:203F60001C0122F81310237900FB0353083332F8131041EA890122F81310BB6863BB3748C0
:203F800004B0BDE8F087D6F8102522F00302C6F81025226802EB8003D3F8102522F44732BB
:203FA00022F47C72C3F8102541F6F072D3F8106502EA081242EA09423243C3F810252379B6
:203FC0000CFB0353083331F8132042EA403242F0200221F81320BAE74146D3E900972046CE
:203FE000FFF78AFDB9F1000FC9D064232079194E4343F218F358994504D153689F4201D16F
:2040000000210CE0642303FB00600DF10F015830FFF700FC114B9842B2D19DF80F10642233
:204020002379534303EBC10346F8039023795343322203EBC10333445F60237902FB03536E
:20404000083336F8132042EA412242F4807226F8132094E7280000200400AD0B0000AD0B85
:204060002DE9FF470546084617461E46FFF73AFD8946044687B395F804804046FFF7B0FDD0
:2040800018B94046FFF7BEFD68BB322303FB0848DFF8E4A008F108083AF8183013F01C0F46
:2040A00002D07B78012B1ED001238DF80F3000237A1CCDE900734846BB1C0DF10F0103F0F1
:2040C0006DFB32222B7902FB034308333AF8132042F003022AF81320002E4BD04946287998
:2040E000FFF77EFD18B9254804B0BDE8F08700214FF0320C30782B68820003EB8003C3F8BA
:204100001015C3F810152B791B490CFB0343083331F8137027F4604727F0200721F81370C2
:2041200077783FB32B68B6781A44D2F810E5144B3F040EEA0303C2F8103541F6F07307F48C
:20414000403703EA09133605D2F810E53B4306F48016334343EA0E03C2F810352B790CFB79
:204160000344083431F8143043EA403343F0200321F814300348B7E7280000200400AD0B0F
:204180000FE0ECFF0000AD0B30B564250479044B05FB0434A160017905FB0133DA6030BD45
:2041A0002800002070B5067914463046FFF72AFD68B10846FFF796FC322303FB0600054B8E
:2041C000083033F8103004485B0B237070BD0348FCE700BF280000200000AD0B0400AD0B21
:2041E0002DE9F0410646077964201B4D00FB075898F860406CBB404621464022103003F08D
:2042000099F821463668D8F85000884217D10023C6F30830C6F844310130D6F84431FEF786
:20422000BFF94FF40033C6F81433642303FB075501230A4885F86030AB65BDE8F081CBB244
:204240009B0003F58072442B04BFB450B3580131DBE70348F1E700BF280000200000AD0BC2
:204260000C00AD0B64210279044B01FB023393F86000003818BF0120704700BF2800002021
:2042800064235422007913FB002302481844FFF7E1BA00BF2800002064235422007913FBB5
:2042A000002302481844FFF7B5BA00BF280000202DE9F3410679044630460D461746FFF79A
:2042C000A1FC08B33046FFF78BFC8046E0B93046FFF776FC05B22168AD0005F5807241F844
:2042E00002808A5821682944D1F8102542F00102C1F810252FB10122216802FA00F3C1F80F
:20430000143302B0BDE8F0812846FFF7EBFB322303FB06000E4B083033F81030C3F38203B4
:20432000042B11D0052B11D001A80195FFF7CAFB019BC168D94001F001010231284602B03E
:20434000BDE8F04103F073BA0321F7E70221F5E72800002001490248FFF766BC280000202A
:2043600000A00D5001490248FFF75EBC8C00002000C0105070B5002340F6FF740126027A3C
:2043800094FAA4F1B1FA81F1914203F1010518D100210C24120102F1A04202F56222C2F8B9
:2043A0002C150B4ADBB204FB03230168D960416819610121007A1875936881400B439360CA
:2043C00070BD06FA01F12B4624EA0104D8E700BFF000002059B10021094A8300D150D25860
:2043E00001229B0802FA03F3064AC2F824330123000100F1A04000F56220C0F82C35704767
:2044000000210E5000200E50012303FA00F0C0F30B0353B1064B5B68DB43C3F30B0303428E
:20442000044B054818BF184670470448704700BFF00000200000AD0B0400AD0B0800AD0BEE
:2044400000220023C0E900231B4BD3F8102591072FD5D3F84827D2070FD5D3F84027D3F855
:2044600044275100F9D4D3F84017D3F84427002AF9DBC0E9001211487047D3F8482742F026
:204480000102C3F84827D3F84027D3F844275200F9D4094BD3F84017D3F84427002AF9DBBE
:2044A000C0E90012D3F8482722F00102C3F84827E1E70348704700BF00200E500000AD0B09
:2044C0000100AD0BF8B52D4C2278002A52D10C2340F6FF7101F001000244013BD2B24FEA10
:2044E0005101F7D10C2A47D11A4601272348002540F6FF765FFA82FC96FAA6F15FFA85FEB7
:20450000E645B1FA81F12FD301320C2A017500F10C00ECD100211A4A995098580433302BC8
:20452000FAD1E420FEF73CF8164B1749D3F8102503F5C07322F00202C3F8902340F6FF726C
:20454000C3F8A82100221A60A3F5807004338B420260F8D101250B4B5D209D661D6603F012
:2045600019F90A482570F8BD07FA01F126EA01060135C1E70648F6E70648F4E7F000002041
:2045800000210E5000200E50B0210E500000AD0B0C00AD0B0100AD0B73B5234C054663680D
:2045A0000E4603F0010304F1140101A80193FFF731F91E4B984232D100233370636823F05F
:2045C00001036360A36843F00103A360184BD3F81025920725D4D3F8102542F00102C3F8EA
:2045E0001025D3F8102542F00202C3F81025B5B1D3F8482712F0010202BFD3F8481741F09F
:204600000101C3F848170A4BD3F868110029FBD02AB9D3F8482722F00102C3F8482702B0E3
:2046200070BD0448FBE700BFF00000200000AD0B00200E500C00AD0BF8B50446007A1D4682
:20464000FFF7E2FE0D4B17469842064613D12046FFF790FE217AC5F31305090101F1A04193
:2046600001F56221C1F82075C1F82455207A9DF81810FFF7AFFE3046F8BD00BF0000AD0BA5
:204680002DE9F8430646007A9946FFF7BDFE0E4B0D4698421746804612D13046FFF76AFE13
:2046A000347A25F00045240104F1A04445EAC97504F56224C4F828553946307AFFF78AFE28
:2046C0004046BDE8F88300BF0000AD0BF7B5254A002053689268DB43C3F30B0313401C4636
:2046E000012607460CBB01271F4B1E4DD3F820630640287D07FA00F333420FD0E96869B196
:204700000201D5F810C002F1A04202F56222D2F82435D2F82025CDF800C0884701340C2CB6
:2047200005F10C05E5D103B0F0BD94FAA4F5B5FA85F5AA0002F58071920806FA02F2134297
:204740000BD001F1A04101F56221D1F800C0BCF1000F02D00F600968104306FA05F524EAE0
:204760000504BFE7F000002000200E507FB50C4600261546D0F8002222F02002C0F80022FD
:204780000D4AC0F8082303F002F98E600E6104F14C000A4903F012F910223146684602F0B9
:2047A000C9FD042368468DF800300195D4E90013984704B070BD00BF20021800FF0F00FF7D
:2047C0002DE9F04F85B090F8048001905020694D0C4600FB0850416849B113F0020304D068
:2047E000836B002B00F09C800123009300E00091502303FB0853DB6CD90600F191804FF039
:204800000109A3180293029B9C4200F0AD80502304F060420392019A1679126803FB06510F
:204820008F6BE7B90399B1F1005F40F0A1804FF02001EFF3118A81F31288BFF36F8F03FB57
:20484000065BDBF84C10104601F0010103F06DF838B98AF31188BFF36F8F5023DBE7012713
:20486000E5E7DBF84430002BBCBFD2F84437CBF84430A34657B1502000FB06502778D0E9F9
:204880000E13CF54D0E90E1301EB030BBBF1000F03D0C2F83CB7C2F840970023C2F86831BE
:2048A000D2F86811C2F83031D2F83011C2F86C31D2F86C310823C2F80035009B93BBC2F814
:2048C00050908AF31188BFF36F8F502303FB0653D96C01F00101104603F027F8D2F8447743
:2048E000D2F83C37002836D09B4537D009B9C2F85490214F4FF02003EFF3118A83F31288A7
:20490000BFF36F8F06EB8606104605EB061103F06BF88AF31188BFF36F8F174B9F420BD0D3
:20492000164822E04FF48053C2F80433C2F850908AF31188BFF36F8F502000FB0852536830
:2049400083B9D36C1B070DD510466FF008014C3003F034F8E4E79B45BDD0C7E7002FC5D1D4
:20496000064FC7E701344EE7034805B0BDE8F08F0348FAE7901700200000AD0B0800AD0B3B
:204980000400AD0BF0B4184F026891F82C6091F82D4091F82E500B8E896ABA4208BFC908B4
:2049A000C2F82415334344EA05010B43C2F86C3500230068C0F84C31D0F84C21C0F868316B
:2049C000D0F86821C0F81431D0F81421C0F82431D0F82421C0F83031D0F83031F0BCC0F3D1
:2049E0000830FDF7DDBD00BF00A004502DE9F347904650220779474C02FB07FA04EB0A0993
:204A00000E4699F848100546002971D107EB870004EB001002F08EFC336944F80A307369C1
:204A2000C9F83830B26902B1013A502303FB0743DA63326A042A81BFF2699A610022DA618F
:204A40002A68D2F8003243F48023C2F80032502303FB07440123C4F8048084F848302C685A
:204A6000D4F85021EAB931462846FFF78BFF082200232C688DF80730C4F800250DF107026C
:204A8000C4F83C27C4F8403701230A2623656365D4F8303173BB012002F07CFE013EF7D131
:204AA00020E008226427C4F80025E362D4F82431E3B9D4F81431CBB90A2002F06BFE013F04
:204AC000F4D10023C4F85031D4F85021C4F84C31D4F84C21C4F82431D4F82421C4F80035EF
:204AE000002FC0D10C4802B0BDE8F0870127E8E70A48F8E70023C4F868319845D4F8682102
:204B0000C4F80035064B08BF00232A680548C2F80433E8E7901700200100AD0B0C00AD0B86
:204B2000200218000000AD0B2DE9F04782468846994615460479002A4BD05026DFF8A0C0F7
:204B4000D0F800E006FB04C677684FB943B9F46A002C40D1F262FFF733FEF462BDE8F08777
:204B600019F0030207D04B462A4641465046BDE8F047FFF725BE08F06043B3F1005F05D00A
:204B8000502303FB04C39B6B3BB301224FF02003EFF3118683F31288BFF36F8F502303FBBA
:204BA00004C3D96A99B9C3E90A851AB1D96C41F00201D96404EB840470460CEB041102F0B2
:204BC0001EFF084886F31188BFF36F8FC6E70648F8E70648C2E70448C0E70548BEE700BF31
:204BE000901700200000AD0B0B00AD0B0600AD0B0A00AD0B2DE9F84390F80490344E09EB10
:204C000089073F0107F14C08B04404680D4640464FF4805102F0DDFEC10454D46A0705D526
:204C2000502303FB09639B69002B4ED0294BA903C4F808330823C4F800350023C4F84C31BB
:204C4000D4F84C21C4F85031D4F85021C4F82431D4F824312B0303F4005301F480416D03D1
:204C6000194305F400452943502505FB0965404602F0AFFEAB687BB96B6833B9404616493B
:204C800002F09CFE1548BDE8F8830321F01902F059FEAB68002BF1D0502303FB0963DB6C72
:204CA000DB0401D40E48EEE7D4F850310BB90123A362502303FB09635B68002BF2D0054BFE
:204CC000C4F80433EEE70748DDE70748DBE700BF9017002020021800FF0F00FF0200AD0B61
:204CE0000000AD0B0B00AD0B0800AD0B2DE9F74F056801F06043D5F804A3B3F1005F90F81D
:204D0000049088461746C5F808A340F089805023454E03FB09639A6852B15B68002B6AD195
:204D2000D5F84C21002A66D0C5F84C31D5F84C31502404FB0964E269C4E90287002A40D0BA
:204D400009EB890B97424FEA0B1306EB0B1B23D200263A46A1694046C4E9026602F0DFFA79
:204D6000E269A069D21BC119E26102F0C1FA636863B141463A46584602F0F5FDE36C9904D4
:204D800004D5324659462846FFF7F0FC2748C5F804A303B0BDE8F08F4046A169019302F013
:204DA000BEFAE269019B62620022E261D5F8042312F0100F17D06268AAB10621584602F053
:204DC000C1FD502303FB0963586ADA689968DB6C121A0144C5F80417C5F80827DA04D5D52F
:204DE0000123AB62D2E703F14C004FF40021304402F0EFFDE5E7502303FB096633698BB947
:204E0000F36CC5F804875B04C6E90487C5F80877BCD5D5F8003243F02003C5F80032B5E7A5
:204E20000348B4E70348B2E7901700200000AD0B0A00AD0B0B00AD0B10B550240279094B9C
:204E400004FB02335B684BB90368D3F84C213AB111B1D3F80C370B60034810BD0348FCE748
:204E60000348FAE7901700200000AD0B0800AD0B0B00AD0B104B70B553F82040013053F85D
:204E80002060A64200D870BDD4E9003595B153B12846984738B10028B8BF4042FF28A8BF84
:204EA000FF20EB681870EA68537843F0010353700834E6E79847FBE73C8E0000012208B56D
:204EC000084B03201A70FFF7D5FF00F01DF90420FFF7D0FFFBF73AFC034A137B23F00103FF
:204EE000137308BD657B0020B801002008B50348034A0021121A02F0EDFD08BDB00100207A
:204F0000E89B002008B50020FFF7B4FF174B03F5006282F3088883F30A880025E023144C17
:204F200084F82230E57725766576A576636A43F4E023636284F82350FDF792FAFDF79CFBF0
:204F40004FF0FF33A362E362FDF7C8FCFDF7CAFB02F0A4FD0120FFF78DFF0220FFF78AFF4E
:204F60002B462A4629460348FDF768FBE89B002000ED00E0BD4E000008B50648064A074919
:204F8000121A02F0A9FDBDE80840054A0549064802F0A2BD00000020AD010020409800005E
:204FA000000000004098000000000020034B1B680BB9FEF755BA0020704700BFE0170020B3
:204FC00010B50E4B1C689C4204D1FFF7EFFF6FF0004010BDFFF7EAFF002CF8D0D4E9043266
:204FE0001B1A62EBE072B3F1004F72F10001EEDA002AACBF18460020EBE700BF9801002061
:2050000030B570B10B4B5B6898420AD0036843B1D3E90421D0E90445121941EB0501C3E972
:205020000421D0E9003213605A600023C0E9003330BD00BF980100202DE9F84F4FF0200310
:20504000EFF3118C83F31288BFF36F8FDFF8ACA0DFF8AC900024C9F80000DAF800000025FF
:20506000504508BF0020274FE046D7E90021D9F8003080B3D0E9046C4FEAE37EB3427EEBE2
:205080000C0B05DAF61A6CEB0E04C0E9046422E0B21841EBE671C0E90445C7E90021FFF788
:2050A000AFFF88F31188BFF36F8F836898474FF02003EFF3118883F31288BFF36F8FD9F846
:2050C0000030DAF800009B1B5045C446C9F80030CAD1D7E9002100249A1841EBE373C7E904
:2050E0000023C9F80040FFF76BFF2146FEF7CAF988F31188BFF36F8FBDE8F88F9801002064
:20510000E017002038020020014801F044BF00BFA09500000346F0B560B342B3174D286803
:2051200040BBD3F8C872D3F8D8128F4213DA144C04F5C046318844F8217001F50057013198
:2051400089B2B1F5805F24F81720318003D96FF01E002860F0BDD3F8C8120A44C3F8C82265
:20516000D3F8CC329A42A8BF6FF01D00F2E76FF02100EFE76FF02000ECE700BFE41700204C
:20518000EC17002008B5134660B172B10A46D0F8C0120748006802F0A7FC002818BF6FF00E
:2051A0001C0008BD6FF02000FBE76FF02100F8E7607A00202DE9F7430F46154604460028E2
:2051C00055D0002A50D0DFF8AC80D8F80060002E4DD1D0F8C812D4F8D832DFF89C9099428B
:2051E000D9F8000039DA06236A46D4F8DC1202F07BFC88B9D4F8DC12BDF800300631AB42CB
:20520000C4F8DC1205D1DDF80220D4F8C8329A420CD01A48FDF7F4FB6FF01D03C8F80030E5
:205220006FF01D06304603B0BDE8F0832B463A46D9F8000002F058FC0028EDD1D4F8DC32E3
:205240002B44C4F8DC32D4F8C8321D44D4F8CC32C4F8C8529D42E5DBE2E713463A4602F01B
:2052600043FC0028EFD0DBE76FF02106DAE76FF02006D7E7E8170020607A0020D29500003C
:20528000F0B5284D0F4604462B6887B0002846D0254A0026127825490C321203C0F8C822CB
:2052A00002F57F22C0F8CC224FF44042C0E9B421C0F8D8221E491F4AC0E9B766C0E9B012BA
:2052C0001D490E801D4A384600921D491D4A019402F0B1FD86191FD1D4F8DC324FF4006154
:2052E0000493D4F8C43218480393D4F8C03202934FF4E0230193D4F8D0320093D4F8C8221B
:205300004FF48013FDF77CFB0094334638462A680E4900F039FC0646304607B0F0BD6FF02E
:205320002306CFE75C7A0020A001002000B0100028C8100000B01700EC770020077B00004B
:20534000155100003D7B0000ED9500008551000007B50246D2F8C0320092064AA3F5861304
:20536000084612680449A3F6280300F00DFC03B05DF804FB5C7A0020855100002DE9F04141
:20538000DFF89C808CB007460E46154628232549D8F8000002AA02F0A7FB0446B0B9029BC9
:2053A000214A93422FD12022394604A801F090FF18BB0A232B700E23019304231949D8F807
:2053C00000000DEB030202F095FB28B16FF0240420460CB0BDE8F0811448FDF711FB039BBC
:2053E000134A33601A4403F5861303F62803C3F30B03D21A0F4B1A60EAE70F4801F0CBFD45
:205400006FF02504E4E70E2B02D10A232B70E6E70A2B01D10223F9E7022B08BF2870DEE73B
:20542000607A002000C810004E4557507F96000028D81000587A0020B49600004FF0A533E8
:2054400030B5ADF50B5D8BB00DF500540434D0F8E052036001464FF43972204601F05FFF4D
:205460004FF40052264901A801F059FF01AB03F50850EAB223493D3001F051FF2249234DA9
:205480000B7D04F12C0084F83C32CB694FF4047263600B6A4431A36051F81C3CE36051F8AF
:2054A000183C2361D1F82032A361D1F81C32636111F8043C84F8283051F8083C636251F862
:2054C000103CE36151F80C3C2362114C01F027FF4FF440522968206802F012FB42F2E4238A
:2054E0002968206801AA02F005FB20B1094801F052FD6FF01E000DF50B5D0BB030BD00BF46
:20550000677B0020679B0020F0770020587A0020607A0020E79600004FF0A53370B50446F1
:205520000D460A4E03604FF48052306802F0E8FA4FF4397322462946306802F0DBFA20B1E6
:20554000034801F028FD6FF01E0070BD607A0020F99600002DE9F04F0446A7B0002800F0A9
:20556000D080D0F8DC32002B40F0A4800A221D46DFF894916548B9F8001003929AB29142D9
:2055800061D8DFF88C812A46624801F004FDD8F80030614A03F580432B44934259D80126E0
:2055A0002D0B6F1C5D4DD4F8C4124FF48052A1EB063101362868B6B202F0A2FABE42F2D97C
:2055C000731ED4F8C4620027A6EB0336B246DFF850B1B9F80020BBB29A4241D8514B524A1C
:2055E0001B78D8F800100C331B03C4F8C83203F57F23C4F8CC324FF44043C4E9B432C4F8BC
:20560000D8324A4A444B01F54051C4E9B02300232046C4F8E032A9F80030C4F8DC62FFF73E
:205620007BFF4FF44052D8F80010286802F068FA042303AA3E49286802F05CFA002818BF25
:205640006FF0240009E030F8022F01330632154494E7384801F09FFC1F2027B0BDE8F08FFF
:20566000BAB202F500533BF813302868991D01915BF822100DF11602ADF81030CDF81210BF
:2056800002F032FA28B12C4801F085FC6FF01D00E3E75146019B286804AA02F02BFA013727
:2056A00028B1264801F077FC6FF01E00D5E7019B9A448EE70223194D2148049301F06BFC34
:2056C0004FF40052D4F8D012286802F019FAA8B9D4F8E0321B4AD4F8D012286802F00AFA1A
:2056E0000028DED1D4F8E022D4F8D032C4F8E0021344C4F8D03204AA04239BE76FF02200AC
:20570000ABE76FF02000A8E7EC770020EA570020587A00200B97000000B01700607A0020B0
:20572000EC170020A001002000B0100028C8100000C810003097000057970000679700003A
:2057400078970000677B002038B5244D0446D0F8D0124FF40052286802F0D2F9C0BBD4F8BD
:20576000D012286801F50053C4F8D8321C4A4FF4005302F0BFF9054630B11A4801F00BFC7C
:205780006FF01E05284638BDD4F8D032D4F8D42203F500539342C4F8D0321CDAD4F8E022F2
:2057A0001149A2F50052C4F8E022A1F5005001F0B6FDD4F8E0220C4904F23D2001F0AFFD4B
:2057C0000A4B2046196801F54051FFF7A5FED9E76FF02205D6E76FF01B05D3E7607A002037
:2057E000677B002097970000679B0020587A002038B515460446002848D0B2F5805F05D92F
:205800002448FDF7FDF86FF01E0038BDD0F8E0322148184401F083FDD4F8E0321D44B5F5C8
:20582000005FC4F8E05201D20020EEE72046FFF705FE1A494FF404720B7D04F12C0084F8B3
:205840003C32CB694431636051F8243CA36051F81C3CE36051F8183C2361D1F82032A3619E
:20586000D1F81C32636111F8043C84F8283051F8083C636251F8103CE36151F80C3C2362EF
:2058800001F04DFD2046FFF75FFFCDE76FF02000BBE700BFA9970000677B0020F0770020B6
:2058A00070B5144605462F4AADF5027D0B460190009220462C4A2D4902F0BDFAD5F8C02266
:2058C0002B4B06469A4245DD2A4802AE4FF4007332462949006802F007F900283ED14FF472
:2058E0000073C4F85C62C4E998302046256902F0A0FA95F83C32064623756B684FF404725B
:20590000E361AB6805F12C012362EB6804F14400A3622B69E362EB6963636B6AE3632B6A54
:20592000A36395F8283084F8403001F0F8FC6B69C4F86032AB69C4F86432D5F8E032B3F59C
:20594000005F03D32846FFF7FFFE0646002E01DA0823237530460DF5027D70BD6FF01C06F4
:20596000F8E700BFF15700003D7B0000B551000027C81000607A002028C8100070B5394DDF
:20598000ADF50B5D384E8AB0296804463748FDF737F842F2E4232968306801AA02F0A4F823
:2059A00048B1334801F0F7FA6FF01E0528460DF50B5D0AB070BD29684FF4397322463068D0
:2059C00001F5405102F090F805460028E9D1D4F8C032013318D0BAAB03F5E853D3F8E41266
:2059E000D4F8C8221C33914205D1D3F8DC22D4F8DC329A422ED0BAAB03F5E853D3F8EC220B
:205A0000D4F8D0329A4225D1BAAB03F5E8514FF439721C31204601F082FC4FF4005201A901
:205A2000144801F07CFC80220DF509511248013101F075FC6369002BB8D0A2699342B5D8C9
:205A4000D4F8C03203F50073C4F8C0320023C4E90533ABE7D4F8E022802AEBD8054804F257
:205A60003D21E5E7587A0020607A0020B5970000D4970000677B0020679B00202DE9F341EB
:205A800000F5177704460DF10601384602F074F800284BD19DF8063003F00F0213F0700FC3
:205AA000A2613DD138460DF1070102F065F8054600283BD14FF006089DF8076006F03F06FF
:205AC0009DF90730002B18DB4FF6FF7327630027A4F84430676304F1460002F012FABE4260
:205AE00014BF01230723144AC4E90876C4F85422124A2375C4F8582214E038460DF1070128
:205B000002F03AF890B9B8F11B0F12D09DF8073003F07F0303FA08F31E4308F10708CFE70B
:205B20006FF00205284602B0BDE8F0816FF01105F8E76FF01805F5E73B7C0000937B000058
:205B4000002370B50546C0E99833284602F01EF90028FAD02869FFF7FDFC044640B9D5F845
:205B600054326E6A33B9344621460648FCF748FF204670BD05F13000984704460028F3D1A4
:205B8000F1E700BFE59700002DE9F047ADF5007D0646894617461D46DDF820A223B1C36914
:205BA000D0F860229B1AC3610024AF4204D86CB33046FFF7C5FF2DE0002CF9D1A7EB0508E0
:205BC000B8F5007F28BF4FF40078694642465046C847C0B942466946304602F03CF9414647
:205BE0000446504601F0BBFF0D4B45441B78022BDBD164236B433A46B3FBF7F329460948C0
:205C0000FCF7FEFED1E76FF00904D1E73046FFF797FF044620460DF5007DBDE8F08700BFAD
:205C2000667B00200298000070470020704730B5836804468B42154685B00ED96368C068EA
:205C4000194401AA01F044FC28B96268019B9B1A2B60029B6B6005B030BD6FF02100FAE719
:205C600070472DE9F7430E4617469946044628B94FF0FF38404603B0BDE8F0830029F7D0AB
:205C8000002AF5D0CB680D8938461D44042329460DEB030201F074FA80460028E8D146F698
:205CA0000812BDF804107389914225D1BDF806109942DDD1042338460DEB0302294401F0E8
:205CC0005FFA0028D4D146F60713BDF804209A42CED1C4E900679DF82830A4F80890A372AA
:205CE0007389BDF806202B44E360738913442B44043563612561BDE7002BE4D0B8E72DE99E
:205D0000F3410E4617461D46044620B94FF0FF3002B0BDE8F0810368002BF7D04368002BAF
:205D2000F4D04FF6FF78D4E904239A4216D223685B8923B1E368934204BF04332361042333
:205D4000216960680DEB030201F01AFA0028DDD1A37A2BB1D4E903329A4201D30120D7E79F
:205D60002389BDF80610434501F1040203D0BDF804C09C450BD115B1BDF804302B8023693D
:205D8000043333603980236913442361C0E7236913442361C7E773B50C460646114602231B
:205DA000204601AA00F029FA0546E8B9019A1F2A0ED9A2F12001304620222368194401F0C3
:205DC000AEFA2368019A13442360284602B070BD0146C2F12002304601F0ACFA019A216881
:205DE000C2F120003044EAE76FF00205EDE701F06FBA4FF4407358433030704710B5044680
:205E000001F0FCF94FF44072A368303B02FB103010BD70B50D46044601F008FC2A46A0F16F
:205E2000080104232046BDE8704001F0A9B913B50446019101F0FAFB0423A0F108010DEBE1
:205E40000302204601F035FC02B010BD70B513460E461546002102460446FBF72FF950B933
:205E60002B460121204604F12C02FBF727F910B1002E08BF002070BD73B5044600200D460C
:205E80001646FAF7C1FC6946C0B2FCF75FF930BB2C2303FB0544E368258900981D440423F2
:205EA00029460DEB030201F06BF9C0B946F60813BDF8042064899A42009815D1BDF8063046
:205EC0009C420CD1042361190DEB030201F058F928B946F60713BDF804209A4207D00098CC
:205EE00001F04DF902B070BD002CF2D0F7E7BDF80610214429443160F1E737B54FF4807596
:205F00000446426A01A902200195FCF747F958B9019B0520226DA36201A90195FCF73EF926
:205F2000054628B1092500E00125284603B030BD019B206A636501F061F9E065F5E701237D
:205F4000036003F1012343600023C0E9023370474379012B07D10368012B04D10079431E65
:205F6000584258417047002070477FB506460D46022001A9FCF7EAF838BB0198FFF73EFF2D
:205F8000F16D0446284600F0D7F80444019801F035F90646019801F038F9082201460DEBBC
:205FA000020001F0C7F92B7921468DF808300198334602AA01F0F9F8041E019818BF01240F
:205FC00001F0DDF8204604B070BD0124FAE701F001B930B59FB00D4606AA2023002104461E
:205FE00001F0CEF84023002101930EAB009308462346CDE90211049506AAFAF717FC1FB0EA
:2060000030BD2DE9F8430E46002107460846FAF7FBFB044601210020FAF7F6FB33789C4254
:2060200021D0984221D101252C2303FB0575F86DAC6AFFF7DEFE4FF000080746013C6B6AC3
:20604000304603EBC40253F83410D2F804901B684A46C91AC844FFF7BAFFB84504F1FF3453
:20606000EDD3BDE8F8830025DEE70120F9E737B515460C460520694601F05EFBE979012912
:2060800003D00022204601F06BFB9DF80330012B02D1204601F043FBA9682046FFF7C7FEC0
:2060A0002046FDF74DFA002003B030BD73B50D460646FBF7CDF80446E86050B302282DD144
:2060C00001A9FCF743F858BB2A4631460198FBF75BF80446D0B9019801F0A8FA01230146A6
:2060E0000DF10302019801F04BF80446A0B9012201980DF1030101F0ADFA10B101238DF86D
:2061000003309DF8033003F00F03EB71019801F036F8204602B070BD0124F7E70724F8E719
:206120000124F6E7436A00205A68034613448B4200F10100FAD3704710B543790279012BC3
:2061400006BF00230C460B0202F1FF3201FB0233026818BF4C00013A04FB023010BD0120BC
:20616000704770B50368CD1A002D02DC6FF05F0070BD93F900601C78002E0ADB5C1C04608C
:206180001B7813600368C91A13688B42EED80020EEE704F07F04013C032C2BD8DFE804F007
:2061A000020A1421012DE1D05B781360036802330360E7E7022DD9DDB3F801305BBA9BB285
:2061C000136003680333F3E7032DCFDD9C785D782402DB7844EA05442343136003680433A1
:2061E000E6E7042DC2DDD3F801301BBA136003680533DDE76FF06300BAE770B404680E1B3B
:20620000002E07DD26789E4208D10134046070BCFFF7A7BF6FF05F0070BC70476FF0610093
:20622000FAE738B503230446FFF7E7FF18B9136813B96FF0670038BD013B136023681A78A5
:20624000002AF6D101332360F5E72DE9F34190461F4601AA302305460E46FFF7CEFF04468B
:20626000F0B92B68F61A002E34DD42461B78284642F8043B2E68019B1E4431460623FFF767
:20628000BCFF044660B92B68D8F80420C8F808309918B142296007D10C213846FBF7FCF9CA
:2062A000204602B0BDE8F0819B5C3A4642F8043B2B683146013328462B60FFF752FF60B929
:2062C0002B687A68BB601344B34218BF6FF065042B60E5E76FF05F04E2E70446E0E7F0B5AB
:2062E00000240646204665B2AB4200DCF0BD51F8247052F824503D440544AF4200F00100F4
:2063000018BF002046F8245088BF40F001000134E9E7002300EB8101884200D3704751F82A
:20632000042D43EA52030B60D307F5E770B503680546DB07144604D4BDE870401146FFF7F8
:20634000E8BF13460A460146FFF7C9FF064621462846FFF7DEFF46B104F18044013C55F8BA
:20636000243043F0004345F8243070BD4FF0000C2DE9F74F654664464FFA8CF94B4516DC49
:206380004FF0FF364FF0000806EB43060196019F53FA88FE4FFA8EFEBE455FFA88F628DB4C
:2063A00000EBC30040F8044C03B0BDE8F08F4FF0000EF04602EB8C0A51F82E705AF8046924
:2063C0004FF0000BA6FB076736196F4128BF4FF0010B0EF1010E34464FFA8EF64E453D46C8
:2063E000D844E9DD40F82C4045463C460CF1010CC2E7A9460025013676B202EB8E0A77B236
:20640000BB4205DC40F82E4008F101084C46BEE76FF00307774351F826C05AF807704FF065
:20642000000BA7FB0C7C3F195CEB090C28BF4FF0010BE1463C465D440136E0E7002310B511
:206440001C465AB2914200DC10BD40F823400133F7E700231A4610B55CB2A14203DCB2FAE1
:2064600082F0400910BD50F8234001332243F3E701234A1150F8220001F01F018B40184059
:2064800070474B1E10B55BB2041D1A0603D45A1E54F8221071B101335BB283B103F18042AF
:2064A000013A50F82210002231B9013B02EB431210B210BD1346E8E749080132F4E7184629
:2064C000F7E7002310B55CB2A24200DC10BD51F8234040F823400133F5E710B5013A52B200
:2064E000130601D5002010BD50F8224051F822309C4205D802F1FF32F2D24FF0FF30F2E791
:206500000120F0E7002330B5013A52B2140603D5181E18BF012030BD50F8224051F82250CA
:20652000013A6C402343F1E7F0B5002406469C46204665B2654500DBF0BD51F8247052F869
:2065400024303D1AED1AAF4200F0010018BF002046F8245038BF40F001000134E9E770B5AC
:206560009DF910601D4633460446FFF7B8FE30B9324621462846FFF7B0FF012807D03346EF
:206580002A4621462046BDE87040FFF7CDBF70BD70B59DF910601D4633460446FFF7C4FFB0
:2065A00038B133462A4621462046BDE87040FFF796BE70BD2DE9F04F1D46A5B014ABCDE9EE
:2065C00002310190294610461746FFF75AFFC0EB851424B22146002CB8BF04F11F016342A8
:2065E00003F01F0341F3471104F01F0604A858BF5E42FFF723FF002E4FEA81002DDD002252
:2066000004AB18441346C6F1200E9D421AD8012604AB03EB850300936F1E24AB4FEA45089F
:206620004FEA850903EB8707002C53DA24AB03EB86062A4656F8881C0198FFF742FF25B06E
:20664000BDE8F08F57F823C001330CFA06F10A4340F8042B2CFA0EF2D7E704AB2A4639467D
:206660001844FFF72EFFD2E75AF8883C0CF1010C53F8202024AB03EB800353F8803C0B44A1
:20668000D31A34BF4FF0010B4FF0000B9A4218BF59465EF8882C42F820304FFA8CF0404555
:2066A000E2DB731A5E42294604A85E41FFF731FE09F190036B4453F8802C57F8803C294664
:2066C00043EAC2730098013C47F8803C24B2FFF720FEA9E74FF0000C24ABC6F1010E614687
:2066E00003EB860A03EB8E0ED7E730B504461D4691B068469DF95030FFF738FE2A466946F2
:206700002046FFF757FF11B030BD30B505461C4691B0684693F90030FFF728FE69462846A3
:20672000D4F8AC30984711B030BD13460A46FFF7ECBF2DE9F04793F900600446894692B046
:206740003146104615461F46FFF783FE002840F091803A46494602A8FFF7E7FF3B4621464F
:2067600002AA0AA8FFF7D1FF02A908463A46FFF7DCFF3B462A4649464846FFF7C6FF07F1EA
:2067800004083A4629462846FFF7CFFF43462A46214620460096FFF7E2FE43462A46294632
:2067A00028460096FFF7DBFE43462A46214628460096FFF7EDFE3B462A4621462046FFF70D
:2067C000A4FF43462246214628460096FFF7C7FE43462A46214620460096FFF7C0FE236864
:2067E000DB074AD53346424621462046FFF777FD824631462046FFF78CFD06F18043013B46
:2068000054F8232042EACA7244F823203A4621462846FFF78AFF4346294628460AAA00967E
:20682000FFF7B6FE4346294628460AAA0096FFF7AFFE0AA9084643462A460096FFF7A8FE2F
:206840003B46214620460AAAFFF75FFF02AA4346104621460096FFF79BFE3246294620467E
:20686000FFF72FFE49462846FFF72BFE484602A9FFF727FE12B0BDE8F08731462046FFF7D4
:2068800048FDC3E72DE9F04115468AB004460E461C22002103A800F04DFD032395F9008017
:2068A0002A46314620462F1D0293FFF73EFF3B462146204602AACDF80080FFF769FE2B466A
:2068C000324621462046FFF720FF3B4621462046CDF8008005F18402FFF741FE0AB0BDE8BB
:2068E000F081F0B50F460646A1B01946384615461C46FFF7AEFD28B1304621B0BDE8F04060
:20690000FFF79CBD224639466846FFF7DAFD294608A8FFF7D6FD10A82146FFF78FFD012319
:2069200018A81093FFF78AFD2246684608A9FFF7D4FD30B92246304610A9FFF7C2FD21B0E3
:20694000F0BD009BDA0709D421466846FFF7E1FC2246294610A8FFF7E9FCE5E7089BDB078E
:2069600007D4214608A8FFF7D4FC2246294618A8F1E7002823461CDD08AA69466846FFF761
:20698000D3FD21466846FFF7C4FC224618A910A8FFF7A3FD002805DA10A923462A460846FE
:2069A000FFF79DFC10A92346084618AAFFF7BCFDCEE76A4608A8FFF7B7FD214608A8FFF79B
:2069C000A8FC224610A918A8FFF787FD002805DA18A923462A460846FFF781FC18A923462C
:2069E000084610AAFFF7A0FDBFE7F0B515461C4607460E4689B01A4629466846FFF795FE14
:206A000023466A4639463846FFF77FFE23462A4669466846FFF779FE23466A463146304644
:206A2000FFF773FE09B0F0BD2DE9F0478AB0DDF848A01446554680461F46894615F9046BD9
:206A400002462B46214602A80096FFF7A1FD02A952460846FFF769FE53464146404602AA02
:206A6000FFF753FE53462146204602AAFFF74DFE2B464A46394638460096FFF789FD5246D4
:206A8000394602A8FFF751FE02A92B46424608460096FFF77DFD02A92B4622460846009628
:206AA000FFF776FD2B464246214620460096FFF76FFD5346224649464846FFF726FE2B4606
:206AC0004146204602AA0096FFF762FD5346224639463846FFF719FE2B464A463946384629
:206AE0000096FFF755FD3246204602A9FFF7E9FC0AB0BDE8F087F8B50E46D11C48BF911DDB
:206B0000144641F38701FFF799FC0025671E6AB2A24205F1010500DBF8BDBB1A23F00301B2
:206B2000B25C03F00303DB009A40435813434350EDE72DE9F0471F46B3F90230064613F161
:206B40001F0448BF03F13E046511DC1D48BF03F10E04E410944228BF144688464FFA85F9B9
:206B60004946FFF76BFC224641463046FFF7C3FFB7F90220E300B2EBC40F20D200219B1A1F
:206B800006EB8504C3F12005A6420FD324374A4631463846FFF7A1FC012810D04B463A464B
:206BA00031463046BDE8F047FFF7BEBC54F8040D20FA03F20A43226000FA05F1E4E7BDE801
:206BC000F0872DE9F04FFDB0869D1F46B5F90230814613F11F0648BF03F13E06002346F349
:206BE0004716079206F1FF3B7CAA95F9004002EB8B0242F8C03C42F8A03C049195F9012070
:206C000001460DF190086CA848F82B30FFF773FFA30095F9012006936CAB03EB84031846AB
:206C200009EB02010393FFF766FF394695F901204CA8FFF760FF95F9012054A8B918FFF783
:206C40005AFF21464CA8FFF704FC18B100207DB0BDE8F08F214654A8FFF7FBFB0290002847
:206C6000F4D105F1240A324650464CA9FFF735FC0128EBD13246504654A9FFF72EFC0128C8
:206C80000590E3D13346524654A91CA8FFF729FE029B0CAF47F82B3038462B46079A04999D
:206CA000FFF747FF3946384653461CAA0096FFF71CFD0DF5B87953461CAA4CA914A80096BE
:206CC000FFF713FD484622466CA9FFF7FAFBA30009EB030B584622460399FFF7F2FB05F198
